{
  "abi": [
    {
      "inputs": [
        {
          "internalType": "contract IRegistryCoordinator",
          "name": "_registryCoordinator",
          "type": "address"
        }
      ],
      "stateMutability": "nonpayable",
      "type": "constructor"
    },
    {
      "anonymous": false,
      "inputs": [
        {
          "indexed": false,
          "internalType": "uint8",
          "name": "version",
          "type": "uint8"
        }
      ],
      "name": "Initialized",
      "type": "event"
    },
    {
      "anonymous": false,
      "inputs": [
        {
          "indexed": true,
          "internalType": "address",
          "name": "operator",
          "type": "address"
        },
        {
          "components": [
            {
              "internalType": "uint256",
              "name": "X",
              "type": "uint256"
            },
            {
              "internalType": "uint256",
              "name": "Y",
              "type": "uint256"
            }
          ],
          "indexed": false,
          "internalType": "struct BN254.G1Point",
          "name": "pubkeyG1",
          "type": "tuple"
        },
        {
          "components": [
            {
              "internalType": "uint256[2]",
              "name": "X",
              "type": "uint256[2]"
            },
            {
              "internalType": "uint256[2]",
              "name": "Y",
              "type": "uint256[2]"
            }
          ],
          "indexed": false,
          "internalType": "struct BN254.G2Point",
          "name": "pubkeyG2",
          "type": "tuple"
        }
      ],
      "name": "NewPubkeyRegistration",
      "type": "event"
    },
    {
      "anonymous": false,
      "inputs": [
        {
          "indexed": false,
          "internalType": "address",
          "name": "operator",
          "type": "address"
        },
        {
          "indexed": false,
          "internalType": "bytes",
          "name": "quorumNumbers",
          "type": "bytes"
        }
      ],
      "name": "OperatorAddedToQuorums",
      "type": "event"
    },
    {
      "anonymous": false,
      "inputs": [
        {
          "indexed": false,
          "internalType": "address",
          "name": "operator",
          "type": "address"
        },
        {
          "indexed": false,
          "internalType": "bytes",
          "name": "quorumNumbers",
          "type": "bytes"
        }
      ],
      "name": "OperatorRemovedFromQuorums",
      "type": "event"
    },
    {
      "inputs": [
        {
          "internalType": "uint8",
          "name": "",
          "type": "uint8"
        },
        {
          "internalType": "uint256",
          "name": "",
          "type": "uint256"
        }
      ],
      "name": "apkHistory",
      "outputs": [
        {
          "internalType": "bytes24",
          "name": "apkHash",
          "type": "bytes24"
        },
        {
          "internalType": "uint32",
          "name": "updateBlockNumber",
          "type": "uint32"
        },
        {
          "internalType": "uint32",
          "name": "nextUpdateBlockNumber",
          "type": "uint32"
        }
      ],
      "stateMutability": "view",
      "type": "function"
    },
    {
      "inputs": [
        {
          "internalType": "uint8",
          "name": "",
          "type": "uint8"
        }
      ],
      "name": "currentApk",
      "outputs": [
        {
          "internalType": "uint256",
          "name": "X",
          "type": "uint256"
        },
        {
          "internalType": "uint256",
          "name": "Y",
          "type": "uint256"
        }
      ],
      "stateMutability": "view",
      "type": "function"
    },
    {
      "inputs": [
        {
          "internalType": "address",
          "name": "operator",
          "type": "address"
        },
        {
          "internalType": "bytes",
          "name": "quorumNumbers",
          "type": "bytes"
        }
      ],
      "name": "deregisterOperator",
      "outputs": [],
      "stateMutability": "nonpayable",
      "type": "function"
    },
    {
      "inputs": [
        {
          "internalType": "uint8",
          "name": "quorumNumber",
          "type": "uint8"
        }
      ],
      "name": "getApk",
      "outputs": [
        {
          "components": [
            {
              "internalType": "uint256",
              "name": "X",
              "type": "uint256"
            },
            {
              "internalType": "uint256",
              "name": "Y",
              "type": "uint256"
            }
          ],
          "internalType": "struct BN254.G1Point",
          "name": "",
          "type": "tuple"
        }
      ],
      "stateMutability": "view",
      "type": "function"
    },
    {
      "inputs": [
        {
          "internalType": "uint8",
          "name": "quorumNumber",
          "type": "uint8"
        },
        {
          "internalType": "uint32",
          "name": "blockNumber",
          "type": "uint32"
        },
        {
          "internalType": "uint256",
          "name": "index",
          "type": "uint256"
        }
      ],
      "name": "getApkHashAtBlockNumberAndIndex",
      "outputs": [
        {
          "internalType": "bytes24",
          "name": "",
          "type": "bytes24"
        }
      ],
      "stateMutability": "view",
      "type": "function"
    },
    {
      "inputs": [
        {
          "internalType": "uint8",
          "name": "quorumNumber",
          "type": "uint8"
        }
      ],
      "name": "getApkHistoryLength",
      "outputs": [
        {
          "internalType": "uint32",
          "name": "",
          "type": "uint32"
        }
      ],
      "stateMutability": "view",
      "type": "function"
    },
    {
      "inputs": [
        {
          "internalType": "bytes",
          "name": "quorumNumbers",
          "type": "bytes"
        },
        {
          "internalType": "uint256",
          "name": "blockNumber",
          "type": "uint256"
        }
      ],
      "name": "getApkIndicesAtBlockNumber",
      "outputs": [
        {
          "internalType": "uint32[]",
          "name": "",
          "type": "uint32[]"
        }
      ],
      "stateMutability": "view",
      "type": "function"
    },
    {
      "inputs": [
        {
          "internalType": "uint8",
          "name": "quorumNumber",
          "type": "uint8"
        },
        {
          "internalType": "uint256",
          "name": "index",
          "type": "uint256"
        }
      ],
      "name": "getApkUpdateAtIndex",
      "outputs": [
        {
          "components": [
            {
              "internalType": "bytes24",
              "name": "apkHash",
              "type": "bytes24"
            },
            {
              "internalType": "uint32",
              "name": "updateBlockNumber",
              "type": "uint32"
            },
            {
              "internalType": "uint32",
              "name": "nextUpdateBlockNumber",
              "type": "uint32"
            }
          ],
          "internalType": "struct IBLSApkRegistry.ApkUpdate",
          "name": "",
          "type": "tuple"
        }
      ],
      "stateMutability": "view",
      "type": "function"
    },
    {
      "inputs": [
        {
          "internalType": "bytes32",
          "name": "pubkeyHash",
          "type": "bytes32"
        }
      ],
      "name": "getOperatorFromPubkeyHash",
      "outputs": [
        {
          "internalType": "address",
          "name": "",
          "type": "address"
        }
      ],
      "stateMutability": "view",
      "type": "function"
    },
    {
      "inputs": [
        {
          "internalType": "address",
          "name": "operator",
          "type": "address"
        }
      ],
      "name": "getOperatorId",
      "outputs": [
        {
          "internalType": "bytes32",
          "name": "",
          "type": "bytes32"
        }
      ],
      "stateMutability": "view",
      "type": "function"
    },
    {
      "inputs": [
        {
          "internalType": "address",
          "name": "operator",
          "type": "address"
        }
      ],
      "name": "getRegisteredPubkey",
      "outputs": [
        {
          "components": [
            {
              "internalType": "uint256",
              "name": "X",
              "type": "uint256"
            },
            {
              "internalType": "uint256",
              "name": "Y",
              "type": "uint256"
            }
          ],
          "internalType": "struct BN254.G1Point",
          "name": "",
          "type": "tuple"
        },
        {
          "internalType": "bytes32",
          "name": "",
          "type": "bytes32"
        }
      ],
      "stateMutability": "view",
      "type": "function"
    },
    {
      "inputs": [
        {
          "internalType": "uint8",
          "name": "quorumNumber",
          "type": "uint8"
        }
      ],
      "name": "initializeQuorum",
      "outputs": [],
      "stateMutability": "nonpayable",
      "type": "function"
    },
    {
      "inputs": [
        {
          "internalType": "address",
          "name": "",
          "type": "address"
        }
      ],
      "name": "operatorToPubkey",
      "outputs": [
        {
          "internalType": "uint256",
          "name": "X",
          "type": "uint256"
        },
        {
          "internalType": "uint256",
          "name": "Y",
          "type": "uint256"
        }
      ],
      "stateMutability": "view",
      "type": "function"
    },
    {
      "inputs": [
        {
          "internalType": "address",
          "name": "",
          "type": "address"
        }
      ],
      "name": "operatorToPubkeyHash",
      "outputs": [
        {
          "internalType": "bytes32",
          "name": "",
          "type": "bytes32"
        }
      ],
      "stateMutability": "view",
      "type": "function"
    },
    {
      "inputs": [
        {
          "internalType": "bytes32",
          "name": "",
          "type": "bytes32"
        }
      ],
      "name": "pubkeyHashToOperator",
      "outputs": [
        {
          "internalType": "address",
          "name": "",
          "type": "address"
        }
      ],
      "stateMutability": "view",
      "type": "function"
    },
    {
      "inputs": [
        {
          "internalType": "address",
          "name": "operator",
          "type": "address"
        },
        {
          "components": [
            {
              "components": [
                {
                  "internalType": "uint256",
                  "name": "X",
                  "type": "uint256"
                },
                {
                  "internalType": "uint256",
                  "name": "Y",
                  "type": "uint256"
                }
              ],
              "internalType": "struct BN254.G1Point",
              "name": "pubkeyRegistrationSignature",
              "type": "tuple"
            },
            {
              "components": [
                {
                  "internalType": "uint256",
                  "name": "X",
                  "type": "uint256"
                },
                {
                  "internalType": "uint256",
                  "name": "Y",
                  "type": "uint256"
                }
              ],
              "internalType": "struct BN254.G1Point",
              "name": "pubkeyG1",
              "type": "tuple"
            },
            {
              "components": [
                {
                  "internalType": "uint256[2]",
                  "name": "X",
                  "type": "uint256[2]"
                },
                {
                  "internalType": "uint256[2]",
                  "name": "Y",
                  "type": "uint256[2]"
                }
              ],
              "internalType": "struct BN254.G2Point",
              "name": "pubkeyG2",
              "type": "tuple"
            }
          ],
          "internalType": "struct IBLSApkRegistry.PubkeyRegistrationParams",
          "name": "params",
          "type": "tuple"
        },
        {
          "components": [
            {
              "internalType": "uint256",
              "name": "X",
              "type": "uint256"
            },
            {
              "internalType": "uint256",
              "name": "Y",
              "type": "uint256"
            }
          ],
          "internalType": "struct BN254.G1Point",
          "name": "pubkeyRegistrationMessageHash",
          "type": "tuple"
        }
      ],
      "name": "registerBLSPublicKey",
      "outputs": [
        {
          "internalType": "bytes32",
          "name": "operatorId",
          "type": "bytes32"
        }
      ],
      "stateMutability": "nonpayable",
      "type": "function"
    },
    {
      "inputs": [
        {
          "internalType": "address",
          "name": "operator",
          "type": "address"
        },
        {
          "internalType": "bytes",
          "name": "quorumNumbers",
          "type": "bytes"
        }
      ],
      "name": "registerOperator",
      "outputs": [],
      "stateMutability": "nonpayable",
      "type": "function"
    },
    {
      "inputs": [],
      "name": "registryCoordinator",
      "outputs": [
        {
          "internalType": "address",
          "name": "",
          "type": "address"
        }
      ],
      "stateMutability": "view",
      "type": "function"
    },
    {
      "inputs": [
        {
          "internalType": "address",
          "name": "account",
          "type": "address"
        },
        {
          "components": [
            {
              "internalType": "uint256",
              "name": "X",
              "type": "uint256"
            },
            {
              "internalType": "uint256",
              "name": "Y",
              "type": "uint256"
            }
          ],
          "internalType": "struct BN254.G1Point",
          "name": "pk",
          "type": "tuple"
        }
      ],
      "name": "setBLSPublicKey",
      "outputs": [],
      "stateMutability": "nonpayable",
      "type": "function"
    }
  ],
  "bytecode": {
    "object": "0x60a06040523480156200001157600080fd5b506040516200219b3803806200219b833981016040819052620000349162000118565b6001600160a01b03811660805280806200004d62000056565b5050506200014a565b600054610100900460ff1615620000c35760405162461bcd60e51b815260206004820152602760248201527f496e697469616c697a61626c653a20636f6e747261637420697320696e697469604482015266616c697a696e6760c81b606482015260840160405180910390fd5b60005460ff908116101562000116576000805460ff191660ff9081179091556040519081527f7f26b83ff96e1f2b6a682f133852f6798a09c465da95921460cefb38474024989060200160405180910390a15b565b6000602082840312156200012b57600080fd5b81516001600160a01b03811681146200014357600080fd5b9392505050565b608051612019620001826000396000818161031a015281816104db0152818161063401528181610a1a015261108601526120196000f3fe608060405234801561001057600080fd5b50600436106101205760003560e01c80636d14a987116100ad578063d5254a8c11610071578063d5254a8c146103ea578063de29fac01461040a578063df4d09e01461042a578063e8bb9ae614610494578063f4e24fe5146104bd57600080fd5b80636d14a987146103155780637916cea61461033c5780637ff81a871461037d578063a3db80e2146103b0578063bf79ce58146103d757600080fd5b80633fb27952116100f45780633fb27952146101ea57806347b314e8146101fd5780635f61a8841461023e578063605747d51461029a57806368bccaac146102e857600080fd5b8062a1f4cb1461012557806313542a4e1461016657806326d941f21461019d578063377ed99d146101b2575b600080fd5b61014c610133366004611949565b6003602052600090815260409020805460019091015482565b604080519283526020830191909152015b60405180910390f35b61018f610174366004611949565b6001600160a01b031660009081526001602052604090205490565b60405190815260200161015d565b6101b06101ab36600461197c565b6104d0565b005b6101d56101c036600461197c565b60ff1660009081526004602052604090205490565b60405163ffffffff909116815260200161015d565b6101b06101f8366004611a07565b610629565b61022661020b366004611aad565b6000908152600260205260409020546001600160a01b031690565b6040516001600160a01b03909116815260200161015d565b61028d61024c36600461197c565b60408051808201909152600080825260208201525060ff16600090815260056020908152604091829020825180840190935280548352600101549082015290565b60405161015d9190611ac6565b6102ad6102a8366004611add565b6106c7565b60408051825167ffffffffffffffff1916815260208084015163ffffffff90811691830191909152928201519092169082015260600161015d565b6102fb6102f6366004611b07565b61075a565b60405167ffffffffffffffff19909116815260200161015d565b6102267f000000000000000000000000000000000000000000000000000000000000000081565b61034f61034a366004611add565b6108f5565b6040805167ffffffffffffffff19909416845263ffffffff928316602085015291169082015260600161015d565b61039061038b366004611949565b610940565b60408051835181526020938401519381019390935282015260600161015d565b61014c6103be36600461197c565b6005602052600090815260409020805460019091015482565b61018f6103e5366004611b4f565b610a0d565b6103fd6103f8366004611bac565b610e61565b60405161015d9190611c24565b61018f610418366004611949565b60016020526000908152604090205481565b6101b0610438366004611c9e565b8051600090815260208083018051825260408084206001600160a01b039690961680855260018085528286208890559685526002845281852080546001600160a01b031916821790558452600390925291209151825551910155565b6102266104a2366004611aad565b6002602052600090815260409020546001600160a01b031681565b6101b06104cb366004611a07565b61107b565b336001600160a01b037f000000000000000000000000000000000000000000000000000000000000000016146105215760405162461bcd60e51b815260040161051890611cd2565b60405180910390fd5b60ff8116600090815260046020526040902054156105a05760405162461bcd60e51b815260206004820152603660248201527f424c5341706b52656769737472792e696e697469616c697a6551756f72756d3a6044820152752071756f72756d20616c72656164792065786973747360501b6064820152608401610518565b60ff166000908152600460209081526040808320815160608101835284815263ffffffff4381168286019081528285018781528454600181018655948852959096209151919092018054955194518316600160e01b026001600160e01b0395909316600160c01b026001600160e01b03199096169190931c179390931791909116919091179055565b336001600160a01b037f000000000000000000000000000000000000000000000000000000000000000016146106715760405162461bcd60e51b815260040161051890611cd2565b600061067c83610940565b5090506106898282611114565b7f5358c5b42179178c8fc757734ac2a3198f9071c765ee0d8389211525f500524683836040516106ba929190611d46565b60405180910390a1505050565b604080516060810182526000808252602080830182905282840182905260ff86168252600490529190912080548390811061070457610704611dab565b600091825260209182902060408051606081018252919092015467ffffffffffffffff1981841b16825263ffffffff600160c01b8204811694830194909452600160e01b90049092169082015290505b92915050565b60ff8316600090815260046020526040812080548291908490811061078157610781611dab565b600091825260209182902060408051606081018252919092015467ffffffffffffffff1981841b16825263ffffffff600160c01b82048116948301859052600160e01b9091048116928201929092529250851610156108485760405162461bcd60e51b815260206004820152603e60248201527f424c5341706b52656769737472792e5f76616c696461746541706b486173684160448201527f74426c6f636b4e756d6265723a20696e64657820746f6f20726563656e7400006064820152608401610518565b604081015163ffffffff16158061086e5750806040015163ffffffff168463ffffffff16105b6108ec5760405162461bcd60e51b815260206004820152604360248201527f424c5341706b52656769737472792e5f76616c696461746541706b486173684160448201527f74426c6f636b4e756d6265723a206e6f74206c61746573742061706b2075706460648201526261746560e81b608482015260a401610518565b51949350505050565b6004602052816000526040600020818154811061091157600080fd5b600091825260209091200154604081901b925063ffffffff600160c01b820481169250600160e01b9091041683565b60408051808201909152600080825260208201526001600160a01b038216600081815260036020908152604080832081518083018352815481526001918201548185015294845290915281205490919080610a035760405162461bcd60e51b815260206004820152603e60248201527f424c5341706b52656769737472792e676574526567697374657265645075626b60448201527f65793a206f70657261746f72206973206e6f74207265676973746572656400006064820152608401610518565b9094909350915050565b6000336001600160a01b037f00000000000000000000000000000000000000000000000000000000000000001614610a575760405162461bcd60e51b815260040161051890611cd2565b6000610a85610a6e36869003860160408701611dc1565b805160009081526020918201519091526040902090565b90507fad3228b676f7d3cd4284a5443f17f1962b36e491b30a40b2405849e597ba5fb5811415610b0d576040805162461bcd60e51b8152602060048201526024810191909152600080516020611fc483398151915260448201527f4b65793a2063616e6e6f74207265676973746572207a65726f207075626b65796064820152608401610518565b6001600160a01b03851660009081526001602052604090205415610b975760405162461bcd60e51b81526020600482015260476024820152600080516020611fc483398151915260448201527f4b65793a206f70657261746f7220616c72656164792072656769737465726564606482015266207075626b657960c81b608482015260a401610518565b6000818152600260205260409020546001600160a01b031615610c1b5760405162461bcd60e51b81526020600482015260426024820152600080516020611fc483398151915260448201527f4b65793a207075626c6963206b657920616c7265616479207265676973746572606482015261195960f21b608482015260a401610518565b604080516000917f30644e72e131a029b85045b68181585d2833e84879b9709143e1f593f000000191610c74918835916020808b0135928b01359160608c01359160808d019160c08e01918d35918e8201359101611ddd565b6040516020818303038152906040528051906020012060001c610c979190611e28565b9050610d31610cd0610cbb83610cb5368a90038a0160408b01611dc1565b9061135f565b610cca36899003890189611dc1565b906113f6565b610cd861148a565b610d1a610d0b85610cb5604080518082018252600080825260209182015281518083019092526001825260029082015290565b610cca368a90038a018a611dc1565b610d2c368a90038a0160808b01611eba565b61154a565b610dcc5760405162461bcd60e51b815260206004820152606c6024820152600080516020611fc483398151915260448201527f4b65793a2065697468657220746865204731207369676e61747572652069732060648201527f77726f6e672c206f7220473120616e642047322070726976617465206b65792060848201526b0c8de40dcdee840dac2e8c6d60a31b60a482015260c401610518565b6001600160a01b03861660008181526003602090815260408083208982018035825560608b013560019283015590835281842087905586845260029092529182902080546001600160a01b0319168417905590517fe3fb6613af2e8930cf85d47fcf6db10192224a64c6cbe8023e0eee1ba382804191610e509160808a0190611ef9565b60405180910390a250949350505050565b606060008367ffffffffffffffff811115610e7e57610e7e611997565b604051908082528060200260200182016040528015610ea7578160200160208202803683370190505b50905060005b84811015611072576000868683818110610ec957610ec9611dab565b919091013560f81c6000818152600460205260409020549092509050801580610f2c575060ff821660009081526004602052604081208054909190610f1057610f10611dab565b600091825260209091200154600160c01b900463ffffffff1686105b15610fb95760405162461bcd60e51b815260206004820152605160248201527f424c5341706b52656769737472792e67657441706b496e64696365734174426c60448201527f6f636b4e756d6265723a20626c6f636b4e756d626572206973206265666f7265606482015270207468652066697273742075706461746560781b608482015260a401610518565b805b801561105c5760ff831660009081526004602052604090208790610fe0600184611f43565b81548110610ff057610ff0611dab565b600091825260209091200154600160c01b900463ffffffff161161104a57611019600182611f43565b85858151811061102b5761102b611dab565b602002602001019063ffffffff16908163ffffffff168152505061105c565b8061105481611f5a565b915050610fbb565b505050808061106a90611f71565b915050610ead565b50949350505050565b336001600160a01b037f000000000000000000000000000000000000000000000000000000000000000016146110c35760405162461bcd60e51b815260040161051890611cd2565b60006110ce83610940565b5090506110e3826110de836117b7565b611114565b7f14a5172b312e9d2c22b8468f9c70ec2caa9de934fe380734fbc6f3beff2b14ba83836040516106ba929190611d46565b604080518082019091526000808252602082015260005b835181101561135957600084828151811061114857611148611dab565b0160209081015160f81c60008181526004909252604090912054909150806111d85760405162461bcd60e51b815260206004820152603d60248201527f424c5341706b52656769737472792e5f70726f6365737351756f72756d41706b60448201527f5570646174653a2071756f72756d20646f6573206e6f742065786973740000006064820152608401610518565b60ff8216600090815260056020908152604091829020825180840190935280548352600101549082015261120c90866113f6565b60ff831660008181526005602090815260408083208551808255868401805160019384015590855251835281842094845260049092528220939750919290916112559085611f43565b8154811061126557611265611dab565b600091825260209091200180549091504363ffffffff908116600160c01b9092041614156112a65780546001600160c01b031916604083901c178155611342565b805463ffffffff438116600160e01b8181026001600160e01b0394851617855560ff88166000908152600460209081526040808320815160608101835267ffffffffffffffff198b16815280840196875280830185815282546001810184559286529390942093519301805495519251871690940291909516600160c01b026001600160e01b0319949094169190941c17919091179092161790555b50505050808061135190611f71565b91505061112b565b50505050565b604080518082019091526000808252602082015261137b611876565b835181526020808501519082015260408082018490526000908360608460076107d05a03fa90508080156113ae576113b0565bfe5b50806113ee5760405162461bcd60e51b815260206004820152600d60248201526c1958cb5b5d5b0b59985a5b1959609a1b6044820152606401610518565b505092915050565b6040805180820190915260008082526020820152611412611894565b835181526020808501518183015283516040808401919091529084015160608301526000908360808460066107d05a03fa90508080156113ae5750806113ee5760405162461bcd60e51b815260206004820152600d60248201526c1958cb5859190b59985a5b1959609a1b6044820152606401610518565b6114926118b2565b50604080516080810182527f198e9393920d483a7260bfb731fb5d25f1aa493335a9e71297e485b7aef312c28183019081527f1800deef121f1e76426a00665e5c4479674322d4f75edadd46debd5cd992f6ed6060830152815281518083019092527f275dc4a288d1afb3cbb1ac09187524c7db36395df7be3b99e673b13a075a65ec82527f1d9befcd05a5323e6da4d435f3b617cdb3af83285c2df711ef39c01571827f9d60208381019190915281019190915290565b6040805180820182528581526020808201859052825180840190935285835282018390526000916115796118d7565b60005b600281101561173e576000611592826006611f8c565b90508482600281106115a6576115a6611dab565b602002015151836115b8836000611fab565b600c81106115c8576115c8611dab565b60200201528482600281106115df576115df611dab565b602002015160200151838260016115f69190611fab565b600c811061160657611606611dab565b602002015283826002811061161d5761161d611dab565b6020020151515183611630836002611fab565b600c811061164057611640611dab565b602002015283826002811061165757611657611dab565b6020020151516001602002015183611670836003611fab565b600c811061168057611680611dab565b602002015283826002811061169757611697611dab565b6020020151602001516000600281106116b2576116b2611dab565b6020020151836116c3836004611fab565b600c81106116d3576116d3611dab565b60200201528382600281106116ea576116ea611dab565b60200201516020015160016002811061170557611705611dab565b602002015183611716836005611fab565b600c811061172657611726611dab565b6020020152508061173681611f71565b91505061157c565b506117476118f6565b60006020826101808560086107d05a03fa90508080156113ae5750806117a75760405162461bcd60e51b81526020600482015260156024820152741c185a5c9a5b99cb5bdc18dbd9194b59985a5b1959605a1b6044820152606401610518565b5051151598975050505050505050565b604080518082019091526000808252602082015281511580156117dc57506020820151155b156117fa575050604080518082019091526000808252602082015290565b6040518060400160405280836000015181526020017f30644e72e131a029b85045b68181585d97816a916871ca8d3c208c16d87cfd47846020015161183f9190611e28565b611869907f30644e72e131a029b85045b68181585d97816a916871ca8d3c208c16d87cfd47611f43565b905292915050565b919050565b60405180606001604052806003906020820280368337509192915050565b60405180608001604052806004906020820280368337509192915050565b60405180604001604052806118c5611914565b81526020016118d2611914565b905290565b604051806101800160405280600c906020820280368337509192915050565b60405180602001604052806001906020820280368337509192915050565b60405180604001604052806002906020820280368337509192915050565b80356001600160a01b038116811461187157600080fd5b60006020828403121561195b57600080fd5b61196482611932565b9392505050565b803560ff8116811461187157600080fd5b60006020828403121561198e57600080fd5b6119648261196b565b634e487b7160e01b600052604160045260246000fd5b6040805190810167ffffffffffffffff811182821017156119d0576119d0611997565b60405290565b604051601f8201601f1916810167ffffffffffffffff811182821017156119ff576119ff611997565b604052919050565b60008060408385031215611a1a57600080fd5b611a2383611932565b915060208084013567ffffffffffffffff80821115611a4157600080fd5b818601915086601f830112611a5557600080fd5b813581811115611a6757611a67611997565b611a79601f8201601f191685016119d6565b91508082528784828501011115611a8f57600080fd5b80848401858401376000848284010152508093505050509250929050565b600060208284031215611abf57600080fd5b5035919050565b815181526020808301519082015260408101610754565b60008060408385031215611af057600080fd5b611af98361196b565b946020939093013593505050565b600080600060608486031215611b1c57600080fd5b611b258461196b565b9250602084013563ffffffff81168114611b3e57600080fd5b929592945050506040919091013590565b6000806000838503610160811215611b6657600080fd5b611b6f85611932565b9350610100601f1982011215611b8457600080fd5b602085019250604061011f1982011215611b9d57600080fd5b50610120840190509250925092565b600080600060408486031215611bc157600080fd5b833567ffffffffffffffff80821115611bd957600080fd5b818601915086601f830112611bed57600080fd5b813581811115611bfc57600080fd5b876020828501011115611c0e57600080fd5b6020928301989097509590910135949350505050565b6020808252825182820181905260009190848201906040850190845b81811015611c6257835163ffffffff1683529284019291840191600101611c40565b50909695505050505050565b600060408284031215611c8057600080fd5b611c886119ad565b9050813581526020820135602082015292915050565b60008060608385031215611cb157600080fd5b611cba83611932565b9150611cc98460208501611c6e565b90509250929050565b6020808252604e908201527f424c5341706b52656769737472792e6f6e6c795265676973747279436f6f726460408201527f696e61746f723a2063616c6c6572206973206e6f74207468652072656769737460608201526d393c9031b7b7b93234b730ba37b960911b608082015260a00190565b60018060a01b038316815260006020604081840152835180604085015260005b81811015611d8257858101830151858201606001528201611d66565b81811115611d94576000606083870101525b50601f01601f191692909201606001949350505050565b634e487b7160e01b600052603260045260246000fd5b600060408284031215611dd357600080fd5b6119648383611c6e565b8881528760208201528660408201528560608201526040856080830137600060c082016000815260408682375050610100810192909252610120820152610140019695505050505050565b600082611e4557634e487b7160e01b600052601260045260246000fd5b500690565b600082601f830112611e5b57600080fd5b6040516040810181811067ffffffffffffffff82111715611e7e57611e7e611997565b8060405250806040840185811115611e9557600080fd5b845b81811015611eaf578035835260209283019201611e97565b509195945050505050565b600060808284031215611ecc57600080fd5b611ed46119ad565b611ede8484611e4a565b8152611eed8460408501611e4a565b60208201529392505050565b823581526020808401359082015260c081016040838184013760808201600081526040808501823750600081529392505050565b634e487b7160e01b600052601160045260246000fd5b600082821015611f5557611f55611f2d565b500390565b600081611f6957611f69611f2d565b506000190190565b6000600019821415611f8557611f85611f2d565b5060010190565b6000816000190483118215151615611fa657611fa6611f2d565b500290565b60008219821115611fbe57611fbe611f2d565b50019056fe424c5341706b52656769737472792e7265676973746572424c535075626c6963a264697066735822122077d78c02a0360348eac8fdf1a559d2af910fc2a123564b1cff001e00029490b064736f6c634300080c0033",
    "linkReferences": {}
  },
  "methodIdentifiers": {
    "apkHistory(uint8,uint256)": "7916cea6",
    "currentApk(uint8)": "a3db80e2",
    "deregisterOperator(address,bytes)": "f4e24fe5",
    "getApk(uint8)": "5f61a884",
    "getApkHashAtBlockNumberAndIndex(uint8,uint32,uint256)": "68bccaac",
    "getApkHistoryLength(uint8)": "377ed99d",
    "getApkIndicesAtBlockNumber(bytes,uint256)": "d5254a8c",
    "getApkUpdateAtIndex(uint8,uint256)": "605747d5",
    "getOperatorFromPubkeyHash(bytes32)": "47b314e8",
    "getOperatorId(address)": "13542a4e",
    "getRegisteredPubkey(address)": "7ff81a87",
    "initializeQuorum(uint8)": "26d941f2",
    "operatorToPubkey(address)": "00a1f4cb",
    "operatorToPubkeyHash(address)": "de29fac0",
    "pubkeyHashToOperator(bytes32)": "e8bb9ae6",
    "registerBLSPublicKey(address,((uint256,uint256),(uint256,uint256),(uint256[2],uint256[2])),(uint256,uint256))": "bf79ce58",
    "registerOperator(address,bytes)": "3fb27952",
    "registryCoordinator()": "6d14a987",
    "setBLSPublicKey(address,(uint256,uint256))": "df4d09e0"
  },
  "id": 120
}