{
  "abi": [
    {
      "inputs": [
        {
          "internalType": "contract IRegistryCoordinator",
          "name": "_registryCoordinator",
          "type": "address"
        },
        {
          "internalType": "contract IDelegationManager",
          "name": "_delegationManager",
          "type": "address"
        }
      ],
      "stateMutability": "nonpayable",
      "type": "constructor"
    },
    {
      "anonymous": false,
      "inputs": [
        {
          "indexed": true,
          "internalType": "uint8",
          "name": "quorumNumber",
          "type": "uint8"
        },
        {
          "indexed": false,
          "internalType": "uint96",
          "name": "minimumStake",
          "type": "uint96"
        }
      ],
      "name": "MinimumStakeForQuorumUpdated",
      "type": "event"
    },
    {
      "anonymous": false,
      "inputs": [
        {
          "indexed": true,
          "internalType": "bytes32",
          "name": "operatorId",
          "type": "bytes32"
        },
        {
          "indexed": false,
          "internalType": "uint8",
          "name": "quorumNumber",
          "type": "uint8"
        },
        {
          "indexed": false,
          "internalType": "uint96",
          "name": "stake",
          "type": "uint96"
        }
      ],
      "name": "OperatorStakeUpdate",
      "type": "event"
    },
    {
      "anonymous": false,
      "inputs": [
        {
          "indexed": true,
          "internalType": "uint8",
          "name": "quorumNumber",
          "type": "uint8"
        }
      ],
      "name": "QuorumCreated",
      "type": "event"
    },
    {
      "anonymous": false,
      "inputs": [
        {
          "indexed": true,
          "internalType": "uint8",
          "name": "quorumNumber",
          "type": "uint8"
        },
        {
          "indexed": false,
          "internalType": "contract IStrategy",
          "name": "strategy",
          "type": "address"
        }
      ],
      "name": "StrategyAddedToQuorum",
      "type": "event"
    },
    {
      "anonymous": false,
      "inputs": [
        {
          "indexed": true,
          "internalType": "uint8",
          "name": "quorumNumber",
          "type": "uint8"
        },
        {
          "indexed": false,
          "internalType": "contract IStrategy",
          "name": "strategy",
          "type": "address"
        },
        {
          "indexed": false,
          "internalType": "uint256",
          "name": "multiplier",
          "type": "uint256"
        }
      ],
      "name": "StrategyMultiplierUpdated",
      "type": "event"
    },
    {
      "anonymous": false,
      "inputs": [
        {
          "indexed": true,
          "internalType": "uint8",
          "name": "quorumNumber",
          "type": "uint8"
        },
        {
          "indexed": false,
          "internalType": "contract IStrategy",
          "name": "strategy",
          "type": "address"
        }
      ],
      "name": "StrategyRemovedFromQuorum",
      "type": "event"
    },
    {
      "inputs": [],
      "name": "MAX_WEIGHING_FUNCTION_LENGTH",
      "outputs": [
        {
          "internalType": "uint8",
          "name": "",
          "type": "uint8"
        }
      ],
      "stateMutability": "view",
      "type": "function"
    },
    {
      "inputs": [],
      "name": "WEIGHTING_DIVISOR",
      "outputs": [
        {
          "internalType": "uint256",
          "name": "",
          "type": "uint256"
        }
      ],
      "stateMutability": "view",
      "type": "function"
    },
    {
      "inputs": [
        {
          "internalType": "uint8",
          "name": "quorumNumber",
          "type": "uint8"
        },
        {
          "components": [
            {
              "internalType": "contract IStrategy",
              "name": "strategy",
              "type": "address"
            },
            {
              "internalType": "uint96",
              "name": "multiplier",
              "type": "uint96"
            }
          ],
          "internalType": "struct IStakeRegistry.StrategyParams[]",
          "name": "_strategyParams",
          "type": "tuple[]"
        }
      ],
      "name": "addStrategies",
      "outputs": [],
      "stateMutability": "nonpayable",
      "type": "function"
    },
    {
      "inputs": [],
      "name": "delegation",
      "outputs": [
        {
          "internalType": "contract IDelegationManager",
          "name": "",
          "type": "address"
        }
      ],
      "stateMutability": "view",
      "type": "function"
    },
    {
      "inputs": [
        {
          "internalType": "bytes32",
          "name": "operatorId",
          "type": "bytes32"
        },
        {
          "internalType": "bytes",
          "name": "quorumNumbers",
          "type": "bytes"
        }
      ],
      "name": "deregisterOperator",
      "outputs": [],
      "stateMutability": "nonpayable",
      "type": "function"
    },
    {
      "inputs": [
        {
          "internalType": "bytes32",
          "name": "operatorId",
          "type": "bytes32"
        },
        {
          "internalType": "uint8",
          "name": "quorumNumber",
          "type": "uint8"
        }
      ],
      "name": "getCurrentStake",
      "outputs": [
        {
          "internalType": "uint96",
          "name": "",
          "type": "uint96"
        }
      ],
      "stateMutability": "view",
      "type": "function"
    },
    {
      "inputs": [
        {
          "internalType": "uint8",
          "name": "quorumNumber",
          "type": "uint8"
        }
      ],
      "name": "getCurrentTotalStake",
      "outputs": [
        {
          "internalType": "uint96",
          "name": "",
          "type": "uint96"
        }
      ],
      "stateMutability": "view",
      "type": "function"
    },
    {
      "inputs": [
        {
          "internalType": "bytes32",
          "name": "operatorId",
          "type": "bytes32"
        },
        {
          "internalType": "uint8",
          "name": "quorumNumber",
          "type": "uint8"
        }
      ],
      "name": "getLatestStakeUpdate",
      "outputs": [
        {
          "components": [
            {
              "internalType": "uint32",
              "name": "updateBlockNumber",
              "type": "uint32"
            },
            {
              "internalType": "uint32",
              "name": "nextUpdateBlockNumber",
              "type": "uint32"
            },
            {
              "internalType": "uint96",
              "name": "stake",
              "type": "uint96"
            }
          ],
          "internalType": "struct IStakeRegistry.StakeUpdate",
          "name": "",
          "type": "tuple"
        }
      ],
      "stateMutability": "view",
      "type": "function"
    },
    {
      "inputs": [
        {
          "internalType": "bytes32",
          "name": "operatorId",
          "type": "bytes32"
        },
        {
          "internalType": "uint8",
          "name": "quorumNumber",
          "type": "uint8"
        },
        {
          "internalType": "uint32",
          "name": "blockNumber",
          "type": "uint32"
        }
      ],
      "name": "getStakeAtBlockNumber",
      "outputs": [
        {
          "internalType": "uint96",
          "name": "",
          "type": "uint96"
        }
      ],
      "stateMutability": "view",
      "type": "function"
    },
    {
      "inputs": [
        {
          "internalType": "uint8",
          "name": "quorumNumber",
          "type": "uint8"
        },
        {
          "internalType": "uint32",
          "name": "blockNumber",
          "type": "uint32"
        },
        {
          "internalType": "bytes32",
          "name": "operatorId",
          "type": "bytes32"
        },
        {
          "internalType": "uint256",
          "name": "index",
          "type": "uint256"
        }
      ],
      "name": "getStakeAtBlockNumberAndIndex",
      "outputs": [
        {
          "internalType": "uint96",
          "name": "",
          "type": "uint96"
        }
      ],
      "stateMutability": "view",
      "type": "function"
    },
    {
      "inputs": [
        {
          "internalType": "bytes32",
          "name": "operatorId",
          "type": "bytes32"
        },
        {
          "internalType": "uint8",
          "name": "quorumNumber",
          "type": "uint8"
        }
      ],
      "name": "getStakeHistory",
      "outputs": [
        {
          "components": [
            {
              "internalType": "uint32",
              "name": "updateBlockNumber",
              "type": "uint32"
            },
            {
              "internalType": "uint32",
              "name": "nextUpdateBlockNumber",
              "type": "uint32"
            },
            {
              "internalType": "uint96",
              "name": "stake",
              "type": "uint96"
            }
          ],
          "internalType": "struct IStakeRegistry.StakeUpdate[]",
          "name": "",
          "type": "tuple[]"
        }
      ],
      "stateMutability": "view",
      "type": "function"
    },
    {
      "inputs": [
        {
          "internalType": "bytes32",
          "name": "operatorId",
          "type": "bytes32"
        },
        {
          "internalType": "uint8",
          "name": "quorumNumber",
          "type": "uint8"
        }
      ],
      "name": "getStakeHistoryLength",
      "outputs": [
        {
          "internalType": "uint256",
          "name": "",
          "type": "uint256"
        }
      ],
      "stateMutability": "view",
      "type": "function"
    },
    {
      "inputs": [
        {
          "internalType": "uint8",
          "name": "quorumNumber",
          "type": "uint8"
        },
        {
          "internalType": "bytes32",
          "name": "operatorId",
          "type": "bytes32"
        },
        {
          "internalType": "uint256",
          "name": "index",
          "type": "uint256"
        }
      ],
      "name": "getStakeUpdateAtIndex",
      "outputs": [
        {
          "components": [
            {
              "internalType": "uint32",
              "name": "updateBlockNumber",
              "type": "uint32"
            },
            {
              "internalType": "uint32",
              "name": "nextUpdateBlockNumber",
              "type": "uint32"
            },
            {
              "internalType": "uint96",
              "name": "stake",
              "type": "uint96"
            }
          ],
          "internalType": "struct IStakeRegistry.StakeUpdate",
          "name": "",
          "type": "tuple"
        }
      ],
      "stateMutability": "view",
      "type": "function"
    },
    {
      "inputs": [
        {
          "internalType": "bytes32",
          "name": "operatorId",
          "type": "bytes32"
        },
        {
          "internalType": "uint8",
          "name": "quorumNumber",
          "type": "uint8"
        },
        {
          "internalType": "uint32",
          "name": "blockNumber",
          "type": "uint32"
        }
      ],
      "name": "getStakeUpdateIndexAtBlockNumber",
      "outputs": [
        {
          "internalType": "uint32",
          "name": "",
          "type": "uint32"
        }
      ],
      "stateMutability": "view",
      "type": "function"
    },
    {
      "inputs": [
        {
          "internalType": "uint8",
          "name": "quorumNumber",
          "type": "uint8"
        },
        {
          "internalType": "uint32",
          "name": "blockNumber",
          "type": "uint32"
        },
        {
          "internalType": "uint256",
          "name": "index",
          "type": "uint256"
        }
      ],
      "name": "getTotalStakeAtBlockNumberFromIndex",
      "outputs": [
        {
          "internalType": "uint96",
          "name": "",
          "type": "uint96"
        }
      ],
      "stateMutability": "view",
      "type": "function"
    },
    {
      "inputs": [
        {
          "internalType": "uint8",
          "name": "quorumNumber",
          "type": "uint8"
        }
      ],
      "name": "getTotalStakeHistoryLength",
      "outputs": [
        {
          "internalType": "uint256",
          "name": "",
          "type": "uint256"
        }
      ],
      "stateMutability": "view",
      "type": "function"
    },
    {
      "inputs": [
        {
          "internalType": "uint32",
          "name": "blockNumber",
          "type": "uint32"
        },
        {
          "internalType": "bytes",
          "name": "quorumNumbers",
          "type": "bytes"
        }
      ],
      "name": "getTotalStakeIndicesAtBlockNumber",
      "outputs": [
        {
          "internalType": "uint32[]",
          "name": "",
          "type": "uint32[]"
        }
      ],
      "stateMutability": "view",
      "type": "function"
    },
    {
      "inputs": [
        {
          "internalType": "uint8",
          "name": "quorumNumber",
          "type": "uint8"
        },
        {
          "internalType": "uint256",
          "name": "index",
          "type": "uint256"
        }
      ],
      "name": "getTotalStakeUpdateAtIndex",
      "outputs": [
        {
          "components": [
            {
              "internalType": "uint32",
              "name": "updateBlockNumber",
              "type": "uint32"
            },
            {
              "internalType": "uint32",
              "name": "nextUpdateBlockNumber",
              "type": "uint32"
            },
            {
              "internalType": "uint96",
              "name": "stake",
              "type": "uint96"
            }
          ],
          "internalType": "struct IStakeRegistry.StakeUpdate",
          "name": "",
          "type": "tuple"
        }
      ],
      "stateMutability": "view",
      "type": "function"
    },
    {
      "inputs": [
        {
          "internalType": "uint8",
          "name": "quorumNumber",
          "type": "uint8"
        },
        {
          "internalType": "uint96",
          "name": "minimumStake",
          "type": "uint96"
        },
        {
          "components": [
            {
              "internalType": "contract IStrategy",
              "name": "strategy",
              "type": "address"
            },
            {
              "internalType": "uint96",
              "name": "multiplier",
              "type": "uint96"
            }
          ],
          "internalType": "struct IStakeRegistry.StrategyParams[]",
          "name": "_strategyParams",
          "type": "tuple[]"
        }
      ],
      "name": "initializeQuorum",
      "outputs": [],
      "stateMutability": "nonpayable",
      "type": "function"
    },
    {
      "inputs": [
        {
          "internalType": "uint8",
          "name": "",
          "type": "uint8"
        }
      ],
      "name": "minimumStakeForQuorum",
      "outputs": [
        {
          "internalType": "uint96",
          "name": "",
          "type": "uint96"
        }
      ],
      "stateMutability": "view",
      "type": "function"
    },
    {
      "inputs": [
        {
          "internalType": "uint8",
          "name": "quorumNumber",
          "type": "uint8"
        },
        {
          "internalType": "uint256[]",
          "name": "strategyIndices",
          "type": "uint256[]"
        },
        {
          "internalType": "uint96[]",
          "name": "newMultipliers",
          "type": "uint96[]"
        }
      ],
      "name": "modifyStrategyParams",
      "outputs": [],
      "stateMutability": "nonpayable",
      "type": "function"
    },
    {
      "inputs": [
        {
          "internalType": "address",
          "name": "operator",
          "type": "address"
        },
        {
          "internalType": "bytes32",
          "name": "operatorId",
          "type": "bytes32"
        },
        {
          "internalType": "bytes",
          "name": "quorumNumbers",
          "type": "bytes"
        }
      ],
      "name": "registerOperator",
      "outputs": [
        {
          "internalType": "uint96[]",
          "name": "",
          "type": "uint96[]"
        },
        {
          "internalType": "uint96[]",
          "name": "",
          "type": "uint96[]"
        }
      ],
      "stateMutability": "nonpayable",
      "type": "function"
    },
    {
      "inputs": [],
      "name": "registryCoordinator",
      "outputs": [
        {
          "internalType": "address",
          "name": "",
          "type": "address"
        }
      ],
      "stateMutability": "view",
      "type": "function"
    },
    {
      "inputs": [
        {
          "internalType": "uint8",
          "name": "quorumNumber",
          "type": "uint8"
        },
        {
          "internalType": "uint256[]",
          "name": "indicesToRemove",
          "type": "uint256[]"
        }
      ],
      "name": "removeStrategies",
      "outputs": [],
      "stateMutability": "nonpayable",
      "type": "function"
    },
    {
      "inputs": [
        {
          "internalType": "uint8",
          "name": "quorumNumber",
          "type": "uint8"
        },
        {
          "internalType": "uint96",
          "name": "minimumStake",
          "type": "uint96"
        }
      ],
      "name": "setMinimumStakeForQuorum",
      "outputs": [],
      "stateMutability": "nonpayable",
      "type": "function"
    },
    {
      "inputs": [
        {
          "internalType": "uint8",
          "name": "",
          "type": "uint8"
        },
        {
          "internalType": "uint256",
          "name": "",
          "type": "uint256"
        }
      ],
      "name": "strategiesPerQuorum",
      "outputs": [
        {
          "internalType": "contract IStrategy",
          "name": "",
          "type": "address"
        }
      ],
      "stateMutability": "view",
      "type": "function"
    },
    {
      "inputs": [
        {
          "internalType": "uint8",
          "name": "",
          "type": "uint8"
        },
        {
          "internalType": "uint256",
          "name": "",
          "type": "uint256"
        }
      ],
      "name": "strategyParams",
      "outputs": [
        {
          "internalType": "contract IStrategy",
          "name": "strategy",
          "type": "address"
        },
        {
          "internalType": "uint96",
          "name": "multiplier",
          "type": "uint96"
        }
      ],
      "stateMutability": "view",
      "type": "function"
    },
    {
      "inputs": [
        {
          "internalType": "uint8",
          "name": "quorumNumber",
          "type": "uint8"
        },
        {
          "internalType": "uint256",
          "name": "index",
          "type": "uint256"
        }
      ],
      "name": "strategyParamsByIndex",
      "outputs": [
        {
          "components": [
            {
              "internalType": "contract IStrategy",
              "name": "strategy",
              "type": "address"
            },
            {
              "internalType": "uint96",
              "name": "multiplier",
              "type": "uint96"
            }
          ],
          "internalType": "struct IStakeRegistry.StrategyParams",
          "name": "",
          "type": "tuple"
        }
      ],
      "stateMutability": "view",
      "type": "function"
    },
    {
      "inputs": [
        {
          "internalType": "uint8",
          "name": "quorumNumber",
          "type": "uint8"
        }
      ],
      "name": "strategyParamsLength",
      "outputs": [
        {
          "internalType": "uint256",
          "name": "",
          "type": "uint256"
        }
      ],
      "stateMutability": "view",
      "type": "function"
    },
    {
      "inputs": [
        {
          "internalType": "address",
          "name": "operator",
          "type": "address"
        },
        {
          "internalType": "bytes32",
          "name": "operatorId",
          "type": "bytes32"
        },
        {
          "internalType": "bytes",
          "name": "quorumNumbers",
          "type": "bytes"
        }
      ],
      "name": "updateOperatorStake",
      "outputs": [
        {
          "internalType": "uint192",
          "name": "",
          "type": "uint192"
        }
      ],
      "stateMutability": "nonpayable",
      "type": "function"
    },
    {
      "inputs": [
        {
          "internalType": "uint8",
          "name": "quorumNumber",
          "type": "uint8"
        },
        {
          "internalType": "address",
          "name": "operator",
          "type": "address"
        }
      ],
      "name": "weightOfOperatorForQuorum",
      "outputs": [
        {
          "internalType": "uint96",
          "name": "",
          "type": "uint96"
        }
      ],
      "stateMutability": "view",
      "type": "function"
    }
  ],
  "bytecode": {
    "object": "0x60c06040523480156200001157600080fd5b506040516200395838038062003958833981016040819052620000349162000065565b6001600160a01b0391821660a05216608052620000a4565b6001600160a01b03811681146200006257600080fd5b50565b600080604083850312156200007957600080fd5b825162000086816200004c565b602084015190925062000099816200004c565b809150509250929050565b60805160a05161384f620001096000396000818161037a015281816106320152818161096f01528181610ce6015281816111110152818161170301528181611805015281816119290152611ce70152600081816105290152611ea8015261384f6000f3fe608060405234801561001057600080fd5b50600436106101e55760003560e01c80639f3ccf651161010f578063c8294c56116100a2578063f2be94ae11610071578063f2be94ae1461054b578063f851e1981461055e578063fa28c62714610571578063ff694a771461058457600080fd5b8063c8294c56146104d6578063d5eccc05146104e9578063dd9846b9146104fc578063df5cf7231461052457600080fd5b8063bc9a40c3116100de578063bc9a40c314610474578063bd29b8cd14610487578063c46778a51461049a578063c601527d146104c357600080fd5b80639f3ccf65146103ee578063ac6bfb0314610401578063adc804da14610421578063b6904b781461046157600080fd5b80634bd26e091161018757806366acfefe1161015657806366acfefe1461034a5780636d14a987146103755780637c172347146103b457806381c07502146103ce57600080fd5b80634bd26e09146102e55780635401ed27146103155780635e5a6775146103285780635f1f2d771461033757600080fd5b806320b66298116101c357806320b662981461026c57806325504777146102815780632cd95940146102a25780633ca5a5f5146102c257600080fd5b80630491b41c146101ea57806308732461146102205780631f9b74e014610241575b600080fd5b61020d6101f8366004612c27565b60ff1660009081526001602052604090205490565b6040519081526020015b60405180910390f35b61023361022e366004612c42565b610597565b604051610217929190612c6c565b61025461024f366004612ca6565b6105e0565b6040516001600160601b039091168152602001610217565b61027f61027a366004612d21565b610630565b005b61029461028f366004612de2565b610961565b604051610217929190612e81565b6102b56102b0366004612ea6565b610c2c565b6040516102179190612ed2565b61020d6102d0366004612c27565b60ff1660009081526003602052604090205490565b61020d6102f3366004612ea6565b600091825260026020908152604080842060ff93909316845291905290205490565b610254610323366004612ea6565b610ccb565b61020d670de0b6b3a764000081565b61027f610345366004612fdb565b610ce4565b61035d610358366004612de2565b611104565b6040516001600160c01b039091168152602001610217565b61039c7f000000000000000000000000000000000000000000000000000000000000000081565b6040516001600160a01b039091168152602001610217565b6103bc602081565b60405160ff9091168152602001610217565b6103e16103dc366004613097565b61125e565b60405161021791906130e9565b61039c6103fc366004612c42565b611528565b61041461040f366004613127565b611560565b604051610217919061315a565b61043461042f366004612c42565b6115f8565b6040805182516001600160a01b031681526020928301516001600160601b03169281019290925201610217565b61041461046f366004612c42565b611672565b61027f6104823660046131a6565b611701565b61027f6104953660046131d0565b6117fa565b6102546104a8366004612c27565b6000602081905290815260409020546001600160601b031681565b61027f6104d136600461329c565b611927565b6102546104e43660046132e9565b611a1b565b6102546104f7366004612c27565b611a99565b61050f61050a366004613325565b611aec565b60405163ffffffff9091168152602001610217565b61039c7f000000000000000000000000000000000000000000000000000000000000000081565b610254610559366004613361565b611b01565b61041461056c366004612ea6565b611b96565b61025461057f366004613325565b611c7b565b61027f6105923660046133a3565b611cdc565b600360205281600052604060002081815481106105b357600080fd5b6000918252602090912001546001600160a01b0381169250600160a01b90046001600160601b0316905082565b60ff8216600090815260016020526040812054839061061a5760405162461bcd60e51b815260040161061190613400565b60405180910390fd5b60006106268585611e47565b5095945050505050565b7f00000000000000000000000000000000000000000000000000000000000000006001600160a01b0316638da5cb5b6040518163ffffffff1660e01b8152600401602060405180830381865afa15801561068e573d6000803e3d6000fd5b505050506040513d601f19601f820116820180604052508101906106b29190613451565b6001600160a01b0316336001600160a01b0316146106e25760405162461bcd60e51b81526004016106119061346e565b846106fe8160ff16600090815260016020526040902054151590565b61071a5760405162461bcd60e51b815260040161061190613400565b8380610790576040805162461bcd60e51b81526020600482015260248101919091527f5374616b6552656769737472792e6d6f6469667953747261746567795061726160448201527f6d733a206e6f20737472617465677920696e64696365732070726f76696465646064820152608401610611565b8281146108055760405162461bcd60e51b815260206004820152603960248201527f5374616b6552656769737472792e6d6f6469667953747261746567795061726160448201527f6d733a20696e707574206c656e677468206d69736d61746368000000000000006064820152608401610611565b60ff87166000908152600360205260408120905b8281101561095657858582818110610833576108336134ea565b90506020020160208101906108489190613500565b8289898481811061085b5761085b6134ea565b9050602002013581548110610872576108726134ea565b9060005260206000200160000160146101000a8154816001600160601b0302191690836001600160601b031602179055508860ff167f11a5641322da1dff56a4b66eaac31ffa465295ece907cd163437793b4d009a75838a8a858181106108db576108db6134ea565b90506020020135815481106108f2576108f26134ea565b6000918252602090912001546001600160a01b0316888885818110610919576109196134ea565b905060200201602081019061092e9190613500565b60405161093c929190612c6c565b60405180910390a28061094e81613531565b915050610819565b505050505050505050565b606080336001600160a01b037f000000000000000000000000000000000000000000000000000000000000000016146109ac5760405162461bcd60e51b81526004016106119061354c565b6000836001600160401b038111156109c6576109c6612f4a565b6040519080825280602002602001820160405280156109ef578160200160208202803683370190505b5090506000846001600160401b03811115610a0c57610a0c612f4a565b604051908082528060200260200182016040528015610a35578160200160208202803683370190505b50905060005b85811015610c1e576000878783818110610a5757610a576134ea565b919091013560f81c60008181526001602052604090205490925015159050610adf5760405162461bcd60e51b815260206004820152603560248201527f5374616b6552656769737472792e72656769737465724f70657261746f723a206044820152741c5d5bdc9d5b48191bd95cc81b9bdd08195e1a5cdd605a1b6064820152608401610611565b600080610aec838d611e47565b9150915080610b895760405162461bcd60e51b815260206004820152605b60248201527f5374616b6552656769737472792e72656769737465724f70657261746f723a2060448201527f4f70657261746f7220646f6573206e6f74206d656574206d696e696d756d207360648201527f74616b6520726571756972656d656e7420666f722071756f72756d0000000000608482015260a401610611565b6000610b968c8585612045565b905082878681518110610bab57610bab6134ea565b60200260200101906001600160601b031690816001600160601b031681525050610bd584826122c5565b868681518110610be757610be76134ea565b60200260200101906001600160601b031690816001600160601b031681525050505050508080610c1690613531565b915050610a3b565b509097909650945050505050565b600082815260026020908152604080832060ff851684528252808320805482518185028101850190935280835260609492939192909184015b82821015610cbe576000848152602090819020604080516060810182529185015463ffffffff8082168452600160201b82041683850152600160401b90046001600160601b031690820152825260019092019101610c65565b5050505090505b92915050565b600080610cd88484611b96565b60400151949350505050565b7f00000000000000000000000000000000000000000000000000000000000000006001600160a01b0316638da5cb5b6040518163ffffffff1660e01b8152600401602060405180830381865afa158015610d42573d6000803e3d6000fd5b505050506040513d601f19601f82011682018060405250810190610d669190613451565b6001600160a01b0316336001600160a01b031614610d965760405162461bcd60e51b81526004016106119061346e565b81610db28160ff16600090815260016020526040902054151590565b610dce5760405162461bcd60e51b815260040161061190613400565b815180610e435760405162461bcd60e51b815260206004820152603d60248201527f5374616b6552656769737472792e72656d6f7665537472617465676965733a2060448201527f6e6f20696e646963657320746f2072656d6f76652070726f76696465640000006064820152608401610611565b60ff841660009081526003602090815260408083206004909252822090915b838110156110fb578660ff167f31fa2e2cd280c9375e13ffcf3d81e2378100186e4058f8d3ddb690b82dcd31f784888481518110610ea257610ea26134ea565b602002602001015181548110610eba57610eba6134ea565b600091825260209182902001546040516001600160a01b0390911681520160405180910390a28660ff167f11a5641322da1dff56a4b66eaac31ffa465295ece907cd163437793b4d009a7584888481518110610f1857610f186134ea565b602002602001015181548110610f3057610f306134ea565b600091825260208083209190910154604080516001600160a01b039092168252918101929092520160405180910390a282548390610f70906001906135be565b81548110610f8057610f806134ea565b9060005260206000200183878381518110610f9d57610f9d6134ea565b602002602001015181548110610fb557610fb56134ea565b600091825260209091208254910180546001600160a01b0319166001600160a01b03909216918217815591546001600160601b03600160a01b9182900416021790558254839080611008576110086135d5565b60008281526020812082016000199081019190915501905581548290611030906001906135be565b81548110611040576110406134ea565b9060005260206000200160009054906101000a90046001600160a01b031682878381518110611071576110716134ea565b602002602001015181548110611089576110896134ea565b9060005260206000200160006101000a8154816001600160a01b0302191690836001600160a01b03160217905550818054806110c7576110c76135d5565b600082815260209020810160001990810180546001600160a01b0319169055019055806110f381613531565b915050610e62565b50505050505050565b6000336001600160a01b037f0000000000000000000000000000000000000000000000000000000000000000161461114e5760405162461bcd60e51b81526004016106119061354c565b6000805b8381101561062657600085858381811061116e5761116e6134ea565b919091013560f81c600081815260016020526040902054909250151590506111fe5760405162461bcd60e51b815260206004820152603860248201527f5374616b6552656769737472792e7570646174654f70657261746f725374616b60448201527f653a2071756f72756d20646f6573206e6f7420657869737400000000000000006064820152608401610611565b60008061120b838b611e47565b915091508061122d5760009150600160ff84161b6001600160c01b0386161794505b600061123a8a8585612045565b905061124684826122c5565b5050505050808061125690613531565b915050611152565b60606000826001600160401b0381111561127a5761127a612f4a565b6040519080825280602002602001820160405280156112a3578160200160208202803683370190505b50905060005b8381101561151d5760008585838181106112c5576112c56134ea565b919091013560f81c600081815260016020526040902054909250151590506113645760405162461bcd60e51b815260206004820152604660248201527f5374616b6552656769737472792e676574546f74616c5374616b65496e64696360448201527f65734174426c6f636b4e756d6265723a2071756f72756d20646f6573206e6f7460648201526508195e1a5cdd60d21b608482015260a401610611565b60ff81166000908152600160205260408120805463ffffffff8a16929061138d5761138d6134ea565b60009182526020909120015463ffffffff1611156114395760405162461bcd60e51b815260206004820152605b60248201527f5374616b6552656769737472792e676574546f74616c5374616b65496e64696360448201527f65734174426c6f636b4e756d6265723a2071756f72756d20686173206e6f207360648201527f74616b6520686973746f727920617420626c6f636b4e756d6265720000000000608482015260a401610611565b60ff8116600090815260016020526040812054905b818110156115075760ff8316600090815260016020819052604090912063ffffffff8b169161147d84866135be565b61148791906135be565b81548110611497576114976134ea565b60009182526020909120015463ffffffff16116114f55760016114ba82846135be565b6114c491906135be565b8585815181106114d6576114d66134ea565b602002602001019063ffffffff16908163ffffffff1681525050611507565b806114ff81613531565b91505061144e565b505050808061151590613531565b9150506112a9565b5090505b9392505050565b6004602052816000526040600020818154811061154457600080fd5b6000918252602090912001546001600160a01b03169150829050565b60408051606081018252600080825260208083018290528284018290528582526002815283822060ff881683529052919091208054839081106115a5576115a56134ea565b600091825260209182902060408051606081018252929091015463ffffffff8082168452600160201b82041693830193909352600160401b9092046001600160601b031691810191909152949350505050565b604080518082019091526000808252602082015260ff83166000908152600360205260409020805483908110611630576116306134ea565b6000918252602091829020604080518082019091529101546001600160a01b0381168252600160a01b90046001600160601b0316918101919091529392505050565b604080516060810182526000808252602080830182905282840182905260ff8616825260019052919091208054839081106116af576116af6134ea565b600091825260209182902060408051606081018252929091015463ffffffff8082168452600160201b82041693830193909352600160401b9092046001600160601b0316918101919091529392505050565b7f00000000000000000000000000000000000000000000000000000000000000006001600160a01b0316638da5cb5b6040518163ffffffff1660e01b8152600401602060405180830381865afa15801561175f573d6000803e3d6000fd5b505050506040513d601f19601f820116820180604052508101906117839190613451565b6001600160a01b0316336001600160a01b0316146117b35760405162461bcd60e51b81526004016106119061346e565b816117cf8160ff16600090815260016020526040902054151590565b6117eb5760405162461bcd60e51b815260040161061190613400565b6117f5838361243f565b505050565b336001600160a01b037f000000000000000000000000000000000000000000000000000000000000000016146118425760405162461bcd60e51b81526004016106119061354c565b60005b81811015611921576000838383818110611861576118616134ea565b919091013560f81c600081815260016020526040902054909250151590506118f15760405162461bcd60e51b815260206004820152603760248201527f5374616b6552656769737472792e646572656769737465724f70657261746f7260448201527f3a2071756f72756d20646f6573206e6f742065786973740000000000000000006064820152608401610611565b60006118ff86836000612045565b905061190b82826122c5565b505050808061191990613531565b915050611845565b50505050565b7f00000000000000000000000000000000000000000000000000000000000000006001600160a01b0316638da5cb5b6040518163ffffffff1660e01b8152600401602060405180830381865afa158015611985573d6000803e3d6000fd5b505050506040513d601f19601f820116820180604052508101906119a99190613451565b6001600160a01b0316336001600160a01b0316146119d95760405162461bcd60e51b81526004016106119061346e565b816119f58160ff16600090815260016020526040902054151590565b611a115760405162461bcd60e51b815260040161061190613400565b6117f583836124a8565b60ff83166000908152600160205260408120805482919084908110611a4257611a426134ea565b600091825260209182902060408051606081018252919092015463ffffffff8082168352600160201b820416938201939093526001600160601b03600160401b90930492909216908201529050610cd881856128eb565b60ff81166000908152600160208190526040822080549091611aba916135be565b81548110611aca57611aca6134ea565b600091825260209091200154600160401b90046001600160601b031692915050565b6000611af9848484612a65565b949350505050565b600082815260026020908152604080832060ff881684529091528120805482919084908110611b3257611b326134ea565b600091825260209182902060408051606081018252919092015463ffffffff8082168352600160201b820416938201939093526001600160601b03600160401b90930492909216908201529050611b8981866128eb565b6040015195945050505050565b6040805160608082018352600080835260208084018290528385018290528682526002815284822060ff87168352815284822054855193840186528284529083018290529382015290919081611bef579150610cc59050565b600085815260026020908152604080832060ff881684529091529020611c166001846135be565b81548110611c2657611c266134ea565b600091825260209182902060408051606081018252919092015463ffffffff8082168352600160201b820416938201939093526001600160601b03600160401b90930492909216908201529250610cc5915050565b600083815260026020908152604080832060ff861684529091528120611ca2858585612a65565b63ffffffff1681548110611cb857611cb86134ea565b600091825260209091200154600160401b90046001600160601b0316949350505050565b336001600160a01b037f00000000000000000000000000000000000000000000000000000000000000001614611d245760405162461bcd60e51b81526004016106119061354c565b60ff831660009081526001602052604090205415611da25760405162461bcd60e51b815260206004820152603560248201527f5374616b6552656769737472792e696e697469616c697a6551756f72756d3a2060448201527471756f72756d20616c72656164792065786973747360581b6064820152608401610611565b611dac83826124a8565b611db6838361243f565b505060ff166000908152600160208181526040808420815160608101835263ffffffff438116825281850187815293820187815283549687018455928752939095209451949093018054915193516001600160601b0316600160401b02600160401b600160a01b0319948416600160201b0267ffffffffffffffff1990931695909316949094171791909116179055565b600080600080611e668660ff1660009081526003602052604090205490565b604080518082019091526000808252602082015290915060ff871660009081526004602081905260408083209051639004134760e01b81526001600160a01b037f00000000000000000000000000000000000000000000000000000000000000001692639004134792611edb928c92016135eb565b600060405180830381865afa158015611ef8573d6000803e3d6000fd5b505050506040513d6000823e601f3d908101601f19168201604052611f20919081019061364a565b905060005b838110156120115760ff89166000908152600360205260409020805482908110611f5157611f516134ea565b60009182526020808320604080518082019091529201546001600160a01b0381168352600160a01b90046001600160601b0316908201528351909450839083908110611f9f57611f9f6134ea565b60200260200101511115611fff57670de0b6b3a764000083602001516001600160601b0316838381518110611fd657611fd66134ea565b6020026020010151611fe891906136da565b611ff291906136f9565b611ffc908661371b565b94505b8061200981613531565b915050611f25565b50505060ff8616600090815260208190526040902054919350506001600160601b03908116908316101590505b9250929050565b600083815260026020908152604080832060ff8616845290915281205481908061210957600086815260026020908152604080832060ff891684528252808320815160608101835263ffffffff43811682528185018681526001600160601b03808c16958401958652845460018101865594885295909620915191909201805495519351909416600160401b02600160401b600160a01b0319938316600160201b0267ffffffffffffffff199096169190921617939093171691909117905561226b565b600086815260026020908152604080832060ff8916845290915281206121306001846135be565b81548110612140576121406134ea565b600091825260209091200180546001600160601b03600160401b9091048116945090915085168314156121795760009350505050611521565b80544363ffffffff908116911614156121b3578054600160401b600160a01b031916600160401b6001600160601b03871602178155612269565b805467ffffffff000000001916600160201b4363ffffffff90811682810293909317845560008a815260026020908152604080832060ff8d168452825280832081516060810183529687528683018481526001600160601b038d81169389019384528254600181018455928652939094209651960180549351915196851667ffffffffffffffff1990941693909317931690930291909117600160401b600160a01b031916600160401b93909216929092021790555b505b6040805160ff871681526001600160601b038616602082015287917f2f527d527e95d8fe40aec55377743bb779087da3f6d0d08f12e36444da62327d910160405180910390a26122bb8285612bcb565b9695505050505050565b60ff8216600090815260016020819052604082208054918391906122e990846135be565b815481106122f9576122f96134ea565b90600052602060002001905083600014156123285754600160401b90046001600160601b03169150610cc59050565b805460009061234790600160401b90046001600160601b031686612be3565b82549091504363ffffffff90811691161415612384578154600160401b600160a01b031916600160401b6001600160601b03831602178255612436565b815463ffffffff438116600160201b81810267ffffffff000000001990941693909317855560ff8916600090815260016020818152604080842081516060810183529586528583018581526001600160601b03808b169388019384528254958601835591865292909420945194909201805491519251909316600160401b02600160401b600160a01b031992861690960267ffffffffffffffff19909116939094169290921792909217169190911790555b95945050505050565b60ff82166000818152602081815260409182902080546bffffffffffffffffffffffff19166001600160601b03861690811790915591519182527f26eecff2b70b0a71104ff4d940ba7162d23a95c248771fc487a7be17a596b3cf910160405180910390a25050565b600081511161250d5760405162461bcd60e51b815260206004820152603860248201526000805160206137fa83398151915260448201527f3a206e6f20737472617465676965732070726f766964656400000000000000006064820152608401610611565b805160ff8316600090815260036020908152604090912054906125308383613746565b11156125a05760405162461bcd60e51b815260206004820152604560248201526000805160206137fa83398151915260448201527f3a20657863656564204d41585f5745494748494e475f46554e4354494f4e5f4c60648201526408a9c8ea8960db1b608482015260a401610611565b60005b828110156128e45760005b6125b88284613746565b811015612699578482815181106125d1576125d16134ea565b6020026020010151600001516001600160a01b0316600360008860ff1660ff1681526020019081526020016000208281548110612610576126106134ea565b6000918252602090912001546001600160a01b031614156126875760405162461bcd60e51b815260206004820152603d60248201526000805160206137fa83398151915260448201527f3a2063616e6e6f74206164642073616d652073747261746567792032780000006064820152608401610611565b8061269181613531565b9150506125ae565b5060008482815181106126ae576126ae6134ea565b6020026020010151602001516001600160601b0316116127335760405162461bcd60e51b815260206004820152604660248201526000805160206137fa83398151915260448201527f3a2063616e6e6f74206164642073747261746567792077697468207a65726f206064820152651dd95a59da1d60d21b608482015260a401610611565b60ff851660009081526003602052604090208451859083908110612759576127596134ea565b602090810291909101810151825460018101845560009384528284208251928401516001600160601b0316600160a01b026001600160a01b039093169290921791015560ff87168252600490526040902084518590839081106127be576127be6134ea565b6020908102919091018101515182546001810184556000938452919092200180546001600160a01b0319166001600160a01b03909216919091179055835160ff8616907f10565e56cacbf32eca267945f054fec02e59750032d113d3302182ad967f540490869084908110612835576128356134ea565b602090810291909101810151516040516001600160a01b0390911681520160405180910390a28460ff167f11a5641322da1dff56a4b66eaac31ffa465295ece907cd163437793b4d009a75858381518110612892576128926134ea565b6020026020010151600001518684815181106128b0576128b06134ea565b6020026020010151602001516040516128ca929190612c6c565b60405180910390a2806128dc81613531565b9150506125a3565b5050505050565b816000015163ffffffff168163ffffffff1610156129905760405162461bcd60e51b815260206004820152605660248201527f5374616b6552656769737472792e5f76616c69646174655374616b655570646160448201527f74654174426c6f636b4e756d6265723a207374616b6555706461746520697320606482015275333937b69030b33a32b910313637b1b5a73ab6b132b960511b608482015260a401610611565b602082015163ffffffff1615806129b65750816020015163ffffffff168163ffffffff16105b612a615760405162461bcd60e51b815260206004820152606a60248201527f5374616b6552656769737472792e5f76616c69646174655374616b655570646160448201527f74654174426c6f636b4e756d6265723a2074686572652069732061206e65776560648201527f72207374616b6555706461746520617661696c61626c65206265666f726520626084820152693637b1b5a73ab6b132b960b11b60a482015260c401610611565b5050565b600083815260026020908152604080832060ff86168452909152812054805b8015612b0657600086815260026020908152604080832060ff89168452909152902063ffffffff851690612ab96001846135be565b81548110612ac957612ac96134ea565b60009182526020909120015463ffffffff1611612af457612aeb6001826135be565b92505050611521565b80612afe8161375e565b915050612a84565b5060405162461bcd60e51b815260206004820152608160248201527f5374616b6552656769737472792e5f6765745374616b65557064617465496e6460448201527f6578466f724f70657261746f724174426c6f636b4e756d6265723a206e6f207360648201527f74616b652075706461746520666f756e6420666f72206f70657261746f72496460848201527f20616e642071756f72756d4e756d62657220617420626c6f636b206e756d626560a4820152603960f91b60c482015260e401610611565b60006115216001600160601b03808516908416613775565b600080821215612c0757612bf6826137b4565b612c0090846137d1565b9050610cc5565b612c00828461371b565b803560ff81168114612c2257600080fd5b919050565b600060208284031215612c3957600080fd5b61152182612c11565b60008060408385031215612c5557600080fd5b612c5e83612c11565b946020939093013593505050565b6001600160a01b039290921682526001600160601b0316602082015260400190565b6001600160a01b0381168114612ca357600080fd5b50565b60008060408385031215612cb957600080fd5b612cc283612c11565b91506020830135612cd281612c8e565b809150509250929050565b60008083601f840112612cef57600080fd5b5081356001600160401b03811115612d0657600080fd5b6020830191508360208260051b850101111561203e57600080fd5b600080600080600060608688031215612d3957600080fd5b612d4286612c11565b945060208601356001600160401b0380821115612d5e57600080fd5b612d6a89838a01612cdd565b90965094506040880135915080821115612d8357600080fd5b50612d9088828901612cdd565b969995985093965092949392505050565b60008083601f840112612db357600080fd5b5081356001600160401b03811115612dca57600080fd5b60208301915083602082850101111561203e57600080fd5b60008060008060608587031215612df857600080fd5b8435612e0381612c8e565b93506020850135925060408501356001600160401b03811115612e2557600080fd5b612e3187828801612da1565b95989497509550505050565b600081518084526020808501945080840160005b83811015612e765781516001600160601b031687529582019590820190600101612e51565b509495945050505050565b604081526000612e946040830185612e3d565b82810360208401526124368185612e3d565b60008060408385031215612eb957600080fd5b82359150612ec960208401612c11565b90509250929050565b6020808252825182820181905260009190848201906040850190845b81811015612f3e57612f2b83855163ffffffff808251168352806020830151166020840152506001600160601b0360408201511660408301525050565b9284019260609290920191600101612eee565b50909695505050505050565b634e487b7160e01b600052604160045260246000fd5b604080519081016001600160401b0381118282101715612f8257612f82612f4a565b60405290565b604051601f8201601f191681016001600160401b0381118282101715612fb057612fb0612f4a565b604052919050565b60006001600160401b03821115612fd157612fd1612f4a565b5060051b60200190565b60008060408385031215612fee57600080fd5b612ff783612c11565b91506020808401356001600160401b0381111561301357600080fd5b8401601f8101861361302457600080fd5b803561303761303282612fb8565b612f88565b81815260059190911b8201830190838101908883111561305657600080fd5b928401925b828410156130745783358252928401929084019061305b565b80955050505050509250929050565b803563ffffffff81168114612c2257600080fd5b6000806000604084860312156130ac57600080fd5b6130b584613083565b925060208401356001600160401b038111156130d057600080fd5b6130dc86828701612da1565b9497909650939450505050565b6020808252825182820181905260009190848201906040850190845b81811015612f3e57835163ffffffff1683529284019291840191600101613105565b60008060006060848603121561313c57600080fd5b61314584612c11565b95602085013595506040909401359392505050565b815163ffffffff9081168252602080840151909116908201526040808301516001600160601b03169082015260608101610cc5565b80356001600160601b0381168114612c2257600080fd5b600080604083850312156131b957600080fd5b6131c283612c11565b9150612ec96020840161318f565b6000806000604084860312156131e557600080fd5b8335925060208401356001600160401b038111156130d057600080fd5b600082601f83011261321357600080fd5b8135602061322361303283612fb8565b82815260069290921b8401810191818101908684111561324257600080fd5b8286015b84811015613291576040818903121561325f5760008081fd5b613267612f60565b813561327281612c8e565b815261327f82860161318f565b81860152835291830191604001613246565b509695505050505050565b600080604083850312156132af57600080fd5b6132b883612c11565b915060208301356001600160401b038111156132d357600080fd5b6132df85828601613202565b9150509250929050565b6000806000606084860312156132fe57600080fd5b61330784612c11565b925061331560208501613083565b9150604084013590509250925092565b60008060006060848603121561333a57600080fd5b8335925061334a60208501612c11565b915061335860408501613083565b90509250925092565b6000806000806080858703121561337757600080fd5b61338085612c11565b935061338e60208601613083565b93969395505050506040820135916060013590565b6000806000606084860312156133b857600080fd5b6133c184612c11565b92506133cf6020850161318f565b915060408401356001600160401b038111156133ea57600080fd5b6133f686828701613202565b9150509250925092565b60208082526031908201527f5374616b6552656769737472792e71756f72756d4578697374733a2071756f726040820152701d5b48191bd95cc81b9bdd08195e1a5cdd607a1b606082015260800190565b60006020828403121561346357600080fd5b815161152181612c8e565b60208082526056908201527f5374616b6552656769737472792e6f6e6c79436f6f7264696e61746f724f776e60408201527f65723a2063616c6c6572206973206e6f7420746865206f776e6572206f6620746060820152753432903932b3b4b9ba393ca1b7b7b93234b730ba37b960511b608082015260a00190565b634e487b7160e01b600052603260045260246000fd5b60006020828403121561351257600080fd5b6115218261318f565b634e487b7160e01b600052601160045260246000fd5b60006000198214156135455761354561351b565b5060010190565b6020808252604c908201527f5374616b6552656769737472792e6f6e6c795265676973747279436f6f72646960408201527f6e61746f723a2063616c6c6572206973206e6f7420746865205265676973747260608201526b3ca1b7b7b93234b730ba37b960a11b608082015260a00190565b6000828210156135d0576135d061351b565b500390565b634e487b7160e01b600052603160045260246000fd5b60006040820160018060a01b03808616845260206040818601528286548085526060870191508760005282600020945060005b8181101561363c57855485168352600195860195928401920161361e565b509098975050505050505050565b6000602080838503121561365d57600080fd5b82516001600160401b0381111561367357600080fd5b8301601f8101851361368457600080fd5b805161369261303282612fb8565b81815260059190911b820183019083810190878311156136b157600080fd5b928401925b828410156136cf578351825292840192908401906136b6565b979650505050505050565b60008160001904831182151516156136f4576136f461351b565b500290565b60008261371657634e487b7160e01b600052601260045260246000fd5b500490565b60006001600160601b0380831681851680830382111561373d5761373d61351b565b01949350505050565b600082198211156137595761375961351b565b500190565b60008161376d5761376d61351b565b506000190190565b60008083128015600160ff1b8501841216156137935761379361351b565b6001600160ff1b03840183138116156137ae576137ae61351b565b50500390565b6000600160ff1b8214156137ca576137ca61351b565b5060000390565b60006001600160601b03838116908316818110156137f1576137f161351b565b03939250505056fe5374616b6552656769737472792e5f6164645374726174656779506172616d73a2646970667358221220e701b3474c21ca204acbe7178f265664568e4a95e9d772989588d415bb4cc90964736f6c634300080c0033",
    "linkReferences": {}
  },
  "methodIdentifiers": {
    "MAX_WEIGHING_FUNCTION_LENGTH()": "7c172347",
    "WEIGHTING_DIVISOR()": "5e5a6775",
    "addStrategies(uint8,(address,uint96)[])": "c601527d",
    "delegation()": "df5cf723",
    "deregisterOperator(bytes32,bytes)": "bd29b8cd",
    "getCurrentStake(bytes32,uint8)": "5401ed27",
    "getCurrentTotalStake(uint8)": "d5eccc05",
    "getLatestStakeUpdate(bytes32,uint8)": "f851e198",
    "getStakeAtBlockNumber(bytes32,uint8,uint32)": "fa28c627",
    "getStakeAtBlockNumberAndIndex(uint8,uint32,bytes32,uint256)": "f2be94ae",
    "getStakeHistory(bytes32,uint8)": "2cd95940",
    "getStakeHistoryLength(bytes32,uint8)": "4bd26e09",
    "getStakeUpdateAtIndex(uint8,bytes32,uint256)": "ac6bfb03",
    "getStakeUpdateIndexAtBlockNumber(bytes32,uint8,uint32)": "dd9846b9",
    "getTotalStakeAtBlockNumberFromIndex(uint8,uint32,uint256)": "c8294c56",
    "getTotalStakeHistoryLength(uint8)": "0491b41c",
    "getTotalStakeIndicesAtBlockNumber(uint32,bytes)": "81c07502",
    "getTotalStakeUpdateAtIndex(uint8,uint256)": "b6904b78",
    "initializeQuorum(uint8,uint96,(address,uint96)[])": "ff694a77",
    "minimumStakeForQuorum(uint8)": "c46778a5",
    "modifyStrategyParams(uint8,uint256[],uint96[])": "20b66298",
    "registerOperator(address,bytes32,bytes)": "25504777",
    "registryCoordinator()": "6d14a987",
    "removeStrategies(uint8,uint256[])": "5f1f2d77",
    "setMinimumStakeForQuorum(uint8,uint96)": "bc9a40c3",
    "strategiesPerQuorum(uint8,uint256)": "9f3ccf65",
    "strategyParams(uint8,uint256)": "08732461",
    "strategyParamsByIndex(uint8,uint256)": "adc804da",
    "strategyParamsLength(uint8)": "3ca5a5f5",
    "updateOperatorStake(address,bytes32,bytes)": "66acfefe",
    "weightOfOperatorForQuorum(uint8,address)": "1f9b74e0"
  },
  "id": 101
}