{
  "abi": [
    {
      "inputs": [
        {
          "internalType": "contract IServiceManager",
          "name": "_serviceManager",
          "type": "address"
        },
        {
          "internalType": "contract IStakeRegistry",
          "name": "_stakeRegistry",
          "type": "address"
        },
        {
          "internalType": "contract IBLSApkRegistry",
          "name": "_blsApkRegistry",
          "type": "address"
        },
        {
          "internalType": "contract IIndexRegistry",
          "name": "_indexRegistry",
          "type": "address"
        }
      ],
      "stateMutability": "nonpayable",
      "type": "constructor"
    },
    {
      "anonymous": false,
      "inputs": [
        {
          "indexed": false,
          "internalType": "address",
          "name": "prevChurnApprover",
          "type": "address"
        },
        {
          "indexed": false,
          "internalType": "address",
          "name": "newChurnApprover",
          "type": "address"
        }
      ],
      "name": "ChurnApproverUpdated",
      "type": "event"
    },
    {
      "anonymous": false,
      "inputs": [
        {
          "indexed": false,
          "internalType": "address",
          "name": "prevEjector",
          "type": "address"
        },
        {
          "indexed": false,
          "internalType": "address",
          "name": "newEjector",
          "type": "address"
        }
      ],
      "name": "EjectorUpdated",
      "type": "event"
    },
    {
      "anonymous": false,
      "inputs": [
        {
          "indexed": false,
          "internalType": "uint8",
          "name": "version",
          "type": "uint8"
        }
      ],
      "name": "Initialized",
      "type": "event"
    },
    {
      "anonymous": false,
      "inputs": [
        {
          "indexed": true,
          "internalType": "address",
          "name": "operator",
          "type": "address"
        },
        {
          "indexed": true,
          "internalType": "bytes32",
          "name": "operatorId",
          "type": "bytes32"
        }
      ],
      "name": "OperatorDeregistered",
      "type": "event"
    },
    {
      "anonymous": false,
      "inputs": [
        {
          "indexed": true,
          "internalType": "address",
          "name": "operator",
          "type": "address"
        },
        {
          "indexed": true,
          "internalType": "bytes32",
          "name": "operatorId",
          "type": "bytes32"
        }
      ],
      "name": "OperatorRegistered",
      "type": "event"
    },
    {
      "anonymous": false,
      "inputs": [
        {
          "indexed": true,
          "internalType": "uint8",
          "name": "quorumNumber",
          "type": "uint8"
        },
        {
          "components": [
            {
              "internalType": "uint32",
              "name": "maxOperatorCount",
              "type": "uint32"
            },
            {
              "internalType": "uint16",
              "name": "kickBIPsOfOperatorStake",
              "type": "uint16"
            },
            {
              "internalType": "uint16",
              "name": "kickBIPsOfTotalStake",
              "type": "uint16"
            }
          ],
          "indexed": false,
          "internalType": "struct IRegistryCoordinator.OperatorSetParam",
          "name": "operatorSetParams",
          "type": "tuple"
        }
      ],
      "name": "OperatorSetParamsUpdated",
      "type": "event"
    },
    {
      "anonymous": false,
      "inputs": [
        {
          "indexed": true,
          "internalType": "bytes32",
          "name": "operatorId",
          "type": "bytes32"
        },
        {
          "indexed": false,
          "internalType": "string",
          "name": "socket",
          "type": "string"
        }
      ],
      "name": "OperatorSocketUpdate",
      "type": "event"
    },
    {
      "anonymous": false,
      "inputs": [
        {
          "indexed": true,
          "internalType": "address",
          "name": "previousOwner",
          "type": "address"
        },
        {
          "indexed": true,
          "internalType": "address",
          "name": "newOwner",
          "type": "address"
        }
      ],
      "name": "OwnershipTransferred",
      "type": "event"
    },
    {
      "anonymous": false,
      "inputs": [
        {
          "indexed": true,
          "internalType": "address",
          "name": "account",
          "type": "address"
        },
        {
          "indexed": false,
          "internalType": "uint256",
          "name": "newPausedStatus",
          "type": "uint256"
        }
      ],
      "name": "Paused",
      "type": "event"
    },
    {
      "anonymous": false,
      "inputs": [
        {
          "indexed": false,
          "internalType": "contract IPauserRegistry",
          "name": "pauserRegistry",
          "type": "address"
        },
        {
          "indexed": false,
          "internalType": "contract IPauserRegistry",
          "name": "newPauserRegistry",
          "type": "address"
        }
      ],
      "name": "PauserRegistrySet",
      "type": "event"
    },
    {
      "anonymous": false,
      "inputs": [
        {
          "indexed": true,
          "internalType": "uint8",
          "name": "quorumNumber",
          "type": "uint8"
        },
        {
          "indexed": false,
          "internalType": "uint256",
          "name": "blocknumber",
          "type": "uint256"
        }
      ],
      "name": "QuorumBlockNumberUpdated",
      "type": "event"
    },
    {
      "anonymous": false,
      "inputs": [
        {
          "indexed": true,
          "internalType": "address",
          "name": "account",
          "type": "address"
        },
        {
          "indexed": false,
          "internalType": "uint256",
          "name": "newPausedStatus",
          "type": "uint256"
        }
      ],
      "name": "Unpaused",
      "type": "event"
    },
    {
      "inputs": [],
      "name": "OPERATOR_CHURN_APPROVAL_TYPEHASH",
      "outputs": [
        {
          "internalType": "bytes32",
          "name": "",
          "type": "bytes32"
        }
      ],
      "stateMutability": "view",
      "type": "function"
    },
    {
      "inputs": [],
      "name": "PUBKEY_REGISTRATION_TYPEHASH",
      "outputs": [
        {
          "internalType": "bytes32",
          "name": "",
          "type": "bytes32"
        }
      ],
      "stateMutability": "view",
      "type": "function"
    },
    {
      "inputs": [],
      "name": "blsApkRegistry",
      "outputs": [
        {
          "internalType": "contract IBLSApkRegistry",
          "name": "",
          "type": "address"
        }
      ],
      "stateMutability": "view",
      "type": "function"
    },
    {
      "inputs": [
        {
          "internalType": "address",
          "name": "registeringOperator",
          "type": "address"
        },
        {
          "internalType": "bytes32",
          "name": "registeringOperatorId",
          "type": "bytes32"
        },
        {
          "components": [
            {
              "internalType": "uint8",
              "name": "quorumNumber",
              "type": "uint8"
            },
            {
              "internalType": "address",
              "name": "operator",
              "type": "address"
            }
          ],
          "internalType": "struct IRegistryCoordinator.OperatorKickParam[]",
          "name": "operatorKickParams",
          "type": "tuple[]"
        },
        {
          "internalType": "bytes32",
          "name": "salt",
          "type": "bytes32"
        },
        {
          "internalType": "uint256",
          "name": "expiry",
          "type": "uint256"
        }
      ],
      "name": "calculateOperatorChurnApprovalDigestHash",
      "outputs": [
        {
          "internalType": "bytes32",
          "name": "",
          "type": "bytes32"
        }
      ],
      "stateMutability": "view",
      "type": "function"
    },
    {
      "inputs": [],
      "name": "churnApprover",
      "outputs": [
        {
          "internalType": "address",
          "name": "",
          "type": "address"
        }
      ],
      "stateMutability": "view",
      "type": "function"
    },
    {
      "inputs": [
        {
          "components": [
            {
              "internalType": "uint32",
              "name": "maxOperatorCount",
              "type": "uint32"
            },
            {
              "internalType": "uint16",
              "name": "kickBIPsOfOperatorStake",
              "type": "uint16"
            },
            {
              "internalType": "uint16",
              "name": "kickBIPsOfTotalStake",
              "type": "uint16"
            }
          ],
          "internalType": "struct IRegistryCoordinator.OperatorSetParam",
          "name": "operatorSetParams",
          "type": "tuple"
        },
        {
          "internalType": "uint96",
          "name": "minimumStake",
          "type": "uint96"
        },
        {
          "components": [
            {
              "internalType": "contract IStrategy",
              "name": "strategy",
              "type": "address"
            },
            {
              "internalType": "uint96",
              "name": "multiplier",
              "type": "uint96"
            }
          ],
          "internalType": "struct IStakeRegistry.StrategyParams[]",
          "name": "strategyParams",
          "type": "tuple[]"
        }
      ],
      "name": "createQuorum",
      "outputs": [],
      "stateMutability": "nonpayable",
      "type": "function"
    },
    {
      "inputs": [
        {
          "internalType": "bytes",
          "name": "quorumNumbers",
          "type": "bytes"
        }
      ],
      "name": "deregisterOperator",
      "outputs": [],
      "stateMutability": "nonpayable",
      "type": "function"
    },
    {
      "inputs": [
        {
          "internalType": "address",
          "name": "operator",
          "type": "address"
        },
        {
          "internalType": "bytes",
          "name": "quorumNumbers",
          "type": "bytes"
        }
      ],
      "name": "ejectOperator",
      "outputs": [],
      "stateMutability": "nonpayable",
      "type": "function"
    },
    {
      "inputs": [],
      "name": "ejector",
      "outputs": [
        {
          "internalType": "address",
          "name": "",
          "type": "address"
        }
      ],
      "stateMutability": "view",
      "type": "function"
    },
    {
      "inputs": [
        {
          "internalType": "bytes32",
          "name": "operatorId",
          "type": "bytes32"
        }
      ],
      "name": "getCurrentQuorumBitmap",
      "outputs": [
        {
          "internalType": "uint192",
          "name": "",
          "type": "uint192"
        }
      ],
      "stateMutability": "view",
      "type": "function"
    },
    {
      "inputs": [
        {
          "internalType": "address",
          "name": "operator",
          "type": "address"
        }
      ],
      "name": "getOperator",
      "outputs": [
        {
          "components": [
            {
              "internalType": "bytes32",
              "name": "operatorId",
              "type": "bytes32"
            },
            {
              "internalType": "enum IRegistryCoordinator.OperatorStatus",
              "name": "status",
              "type": "uint8"
            }
          ],
          "internalType": "struct IRegistryCoordinator.OperatorInfo",
          "name": "",
          "type": "tuple"
        }
      ],
      "stateMutability": "view",
      "type": "function"
    },
    {
      "inputs": [
        {
          "internalType": "bytes32",
          "name": "operatorId",
          "type": "bytes32"
        }
      ],
      "name": "getOperatorFromId",
      "outputs": [
        {
          "internalType": "address",
          "name": "",
          "type": "address"
        }
      ],
      "stateMutability": "view",
      "type": "function"
    },
    {
      "inputs": [
        {
          "internalType": "address",
          "name": "operator",
          "type": "address"
        }
      ],
      "name": "getOperatorId",
      "outputs": [
        {
          "internalType": "bytes32",
          "name": "",
          "type": "bytes32"
        }
      ],
      "stateMutability": "view",
      "type": "function"
    },
    {
      "inputs": [
        {
          "internalType": "uint8",
          "name": "quorumNumber",
          "type": "uint8"
        }
      ],
      "name": "getOperatorSetParams",
      "outputs": [
        {
          "components": [
            {
              "internalType": "uint32",
              "name": "maxOperatorCount",
              "type": "uint32"
            },
            {
              "internalType": "uint16",
              "name": "kickBIPsOfOperatorStake",
              "type": "uint16"
            },
            {
              "internalType": "uint16",
              "name": "kickBIPsOfTotalStake",
              "type": "uint16"
            }
          ],
          "internalType": "struct IRegistryCoordinator.OperatorSetParam",
          "name": "",
          "type": "tuple"
        }
      ],
      "stateMutability": "view",
      "type": "function"
    },
    {
      "inputs": [
        {
          "internalType": "address",
          "name": "operator",
          "type": "address"
        }
      ],
      "name": "getOperatorStatus",
      "outputs": [
        {
          "internalType": "enum IRegistryCoordinator.OperatorStatus",
          "name": "",
          "type": "uint8"
        }
      ],
      "stateMutability": "view",
      "type": "function"
    },
    {
      "inputs": [
        {
          "internalType": "bytes32",
          "name": "operatorId",
          "type": "bytes32"
        },
        {
          "internalType": "uint32",
          "name": "blockNumber",
          "type": "uint32"
        },
        {
          "internalType": "uint256",
          "name": "index",
          "type": "uint256"
        }
      ],
      "name": "getQuorumBitmapAtBlockNumberByIndex",
      "outputs": [
        {
          "internalType": "uint192",
          "name": "",
          "type": "uint192"
        }
      ],
      "stateMutability": "view",
      "type": "function"
    },
    {
      "inputs": [
        {
          "internalType": "bytes32",
          "name": "operatorId",
          "type": "bytes32"
        }
      ],
      "name": "getQuorumBitmapHistoryLength",
      "outputs": [
        {
          "internalType": "uint256",
          "name": "",
          "type": "uint256"
        }
      ],
      "stateMutability": "view",
      "type": "function"
    },
    {
      "inputs": [
        {
          "internalType": "uint32",
          "name": "blockNumber",
          "type": "uint32"
        },
        {
          "internalType": "bytes32[]",
          "name": "operatorIds",
          "type": "bytes32[]"
        }
      ],
      "name": "getQuorumBitmapIndicesAtBlockNumber",
      "outputs": [
        {
          "internalType": "uint32[]",
          "name": "",
          "type": "uint32[]"
        }
      ],
      "stateMutability": "view",
      "type": "function"
    },
    {
      "inputs": [
        {
          "internalType": "bytes32",
          "name": "operatorId",
          "type": "bytes32"
        },
        {
          "internalType": "uint256",
          "name": "index",
          "type": "uint256"
        }
      ],
      "name": "getQuorumBitmapUpdateByIndex",
      "outputs": [
        {
          "components": [
            {
              "internalType": "uint32",
              "name": "updateBlockNumber",
              "type": "uint32"
            },
            {
              "internalType": "uint32",
              "name": "nextUpdateBlockNumber",
              "type": "uint32"
            },
            {
              "internalType": "uint192",
              "name": "quorumBitmap",
              "type": "uint192"
            }
          ],
          "internalType": "struct IRegistryCoordinator.QuorumBitmapUpdate",
          "name": "",
          "type": "tuple"
        }
      ],
      "stateMutability": "view",
      "type": "function"
    },
    {
      "inputs": [],
      "name": "indexRegistry",
      "outputs": [
        {
          "internalType": "contract IIndexRegistry",
          "name": "",
          "type": "address"
        }
      ],
      "stateMutability": "view",
      "type": "function"
    },
    {
      "inputs": [
        {
          "internalType": "address",
          "name": "_initialOwner",
          "type": "address"
        },
        {
          "internalType": "address",
          "name": "_churnApprover",
          "type": "address"
        },
        {
          "internalType": "address",
          "name": "_ejector",
          "type": "address"
        },
        {
          "internalType": "contract IPauserRegistry",
          "name": "_pauserRegistry",
          "type": "address"
        },
        {
          "internalType": "uint256",
          "name": "_initialPausedStatus",
          "type": "uint256"
        },
        {
          "components": [
            {
              "internalType": "uint32",
              "name": "maxOperatorCount",
              "type": "uint32"
            },
            {
              "internalType": "uint16",
              "name": "kickBIPsOfOperatorStake",
              "type": "uint16"
            },
            {
              "internalType": "uint16",
              "name": "kickBIPsOfTotalStake",
              "type": "uint16"
            }
          ],
          "internalType": "struct IRegistryCoordinator.OperatorSetParam[]",
          "name": "_operatorSetParams",
          "type": "tuple[]"
        },
        {
          "internalType": "uint96[]",
          "name": "_minimumStakes",
          "type": "uint96[]"
        },
        {
          "components": [
            {
              "internalType": "contract IStrategy",
              "name": "strategy",
              "type": "address"
            },
            {
              "internalType": "uint96",
              "name": "multiplier",
              "type": "uint96"
            }
          ],
          "internalType": "struct IStakeRegistry.StrategyParams[][]",
          "name": "_strategyParams",
          "type": "tuple[][]"
        }
      ],
      "name": "initialize",
      "outputs": [],
      "stateMutability": "nonpayable",
      "type": "function"
    },
    {
      "inputs": [
        {
          "internalType": "bytes32",
          "name": "",
          "type": "bytes32"
        }
      ],
      "name": "isChurnApproverSaltUsed",
      "outputs": [
        {
          "internalType": "bool",
          "name": "",
          "type": "bool"
        }
      ],
      "stateMutability": "view",
      "type": "function"
    },
    {
      "inputs": [],
      "name": "numRegistries",
      "outputs": [
        {
          "internalType": "uint256",
          "name": "",
          "type": "uint256"
        }
      ],
      "stateMutability": "view",
      "type": "function"
    },
    {
      "inputs": [],
      "name": "owner",
      "outputs": [
        {
          "internalType": "address",
          "name": "",
          "type": "address"
        }
      ],
      "stateMutability": "view",
      "type": "function"
    },
    {
      "inputs": [
        {
          "internalType": "uint256",
          "name": "newPausedStatus",
          "type": "uint256"
        }
      ],
      "name": "pause",
      "outputs": [],
      "stateMutability": "nonpayable",
      "type": "function"
    },
    {
      "inputs": [],
      "name": "pauseAll",
      "outputs": [],
      "stateMutability": "nonpayable",
      "type": "function"
    },
    {
      "inputs": [
        {
          "internalType": "uint8",
          "name": "index",
          "type": "uint8"
        }
      ],
      "name": "paused",
      "outputs": [
        {
          "internalType": "bool",
          "name": "",
          "type": "bool"
        }
      ],
      "stateMutability": "view",
      "type": "function"
    },
    {
      "inputs": [],
      "name": "paused",
      "outputs": [
        {
          "internalType": "uint256",
          "name": "",
          "type": "uint256"
        }
      ],
      "stateMutability": "view",
      "type": "function"
    },
    {
      "inputs": [],
      "name": "pauserRegistry",
      "outputs": [
        {
          "internalType": "contract IPauserRegistry",
          "name": "",
          "type": "address"
        }
      ],
      "stateMutability": "view",
      "type": "function"
    },
    {
      "inputs": [
        {
          "internalType": "address",
          "name": "operator",
          "type": "address"
        }
      ],
      "name": "pubkeyRegistrationMessageHash",
      "outputs": [
        {
          "components": [
            {
              "internalType": "uint256",
              "name": "X",
              "type": "uint256"
            },
            {
              "internalType": "uint256",
              "name": "Y",
              "type": "uint256"
            }
          ],
          "internalType": "struct BN254.G1Point",
          "name": "",
          "type": "tuple"
        }
      ],
      "stateMutability": "view",
      "type": "function"
    },
    {
      "inputs": [],
      "name": "quorumCount",
      "outputs": [
        {
          "internalType": "uint8",
          "name": "",
          "type": "uint8"
        }
      ],
      "stateMutability": "view",
      "type": "function"
    },
    {
      "inputs": [
        {
          "internalType": "uint8",
          "name": "",
          "type": "uint8"
        }
      ],
      "name": "quorumUpdateBlockNumber",
      "outputs": [
        {
          "internalType": "uint256",
          "name": "",
          "type": "uint256"
        }
      ],
      "stateMutability": "view",
      "type": "function"
    },
    {
      "inputs": [
        {
          "internalType": "bytes",
          "name": "quorumNumbers",
          "type": "bytes"
        },
        {
          "internalType": "string",
          "name": "socket",
          "type": "string"
        },
        {
          "components": [
            {
              "components": [
                {
                  "internalType": "uint256",
                  "name": "X",
                  "type": "uint256"
                },
                {
                  "internalType": "uint256",
                  "name": "Y",
                  "type": "uint256"
                }
              ],
              "internalType": "struct BN254.G1Point",
              "name": "pubkeyRegistrationSignature",
              "type": "tuple"
            },
            {
              "components": [
                {
                  "internalType": "uint256",
                  "name": "X",
                  "type": "uint256"
                },
                {
                  "internalType": "uint256",
                  "name": "Y",
                  "type": "uint256"
                }
              ],
              "internalType": "struct BN254.G1Point",
              "name": "pubkeyG1",
              "type": "tuple"
            },
            {
              "components": [
                {
                  "internalType": "uint256[2]",
                  "name": "X",
                  "type": "uint256[2]"
                },
                {
                  "internalType": "uint256[2]",
                  "name": "Y",
                  "type": "uint256[2]"
                }
              ],
              "internalType": "struct BN254.G2Point",
              "name": "pubkeyG2",
              "type": "tuple"
            }
          ],
          "internalType": "struct IBLSApkRegistry.PubkeyRegistrationParams",
          "name": "params",
          "type": "tuple"
        },
        {
          "components": [
            {
              "internalType": "bytes",
              "name": "signature",
              "type": "bytes"
            },
            {
              "internalType": "bytes32",
              "name": "salt",
              "type": "bytes32"
            },
            {
              "internalType": "uint256",
              "name": "expiry",
              "type": "uint256"
            }
          ],
          "internalType": "struct ISignatureUtils.SignatureWithSaltAndExpiry",
          "name": "operatorSignature",
          "type": "tuple"
        }
      ],
      "name": "registerOperator",
      "outputs": [],
      "stateMutability": "nonpayable",
      "type": "function"
    },
    {
      "inputs": [
        {
          "internalType": "bytes",
          "name": "quorumNumbers",
          "type": "bytes"
        },
        {
          "internalType": "string",
          "name": "socket",
          "type": "string"
        },
        {
          "components": [
            {
              "components": [
                {
                  "internalType": "uint256",
                  "name": "X",
                  "type": "uint256"
                },
                {
                  "internalType": "uint256",
                  "name": "Y",
                  "type": "uint256"
                }
              ],
              "internalType": "struct BN254.G1Point",
              "name": "pubkeyRegistrationSignature",
              "type": "tuple"
            },
            {
              "components": [
                {
                  "internalType": "uint256",
                  "name": "X",
                  "type": "uint256"
                },
                {
                  "internalType": "uint256",
                  "name": "Y",
                  "type": "uint256"
                }
              ],
              "internalType": "struct BN254.G1Point",
              "name": "pubkeyG1",
              "type": "tuple"
            },
            {
              "components": [
                {
                  "internalType": "uint256[2]",
                  "name": "X",
                  "type": "uint256[2]"
                },
                {
                  "internalType": "uint256[2]",
                  "name": "Y",
                  "type": "uint256[2]"
                }
              ],
              "internalType": "struct BN254.G2Point",
              "name": "pubkeyG2",
              "type": "tuple"
            }
          ],
          "internalType": "struct IBLSApkRegistry.PubkeyRegistrationParams",
          "name": "params",
          "type": "tuple"
        },
        {
          "components": [
            {
              "internalType": "uint8",
              "name": "quorumNumber",
              "type": "uint8"
            },
            {
              "internalType": "address",
              "name": "operator",
              "type": "address"
            }
          ],
          "internalType": "struct IRegistryCoordinator.OperatorKickParam[]",
          "name": "operatorKickParams",
          "type": "tuple[]"
        },
        {
          "components": [
            {
              "internalType": "bytes",
              "name": "signature",
              "type": "bytes"
            },
            {
              "internalType": "bytes32",
              "name": "salt",
              "type": "bytes32"
            },
            {
              "internalType": "uint256",
              "name": "expiry",
              "type": "uint256"
            }
          ],
          "internalType": "struct ISignatureUtils.SignatureWithSaltAndExpiry",
          "name": "churnApproverSignature",
          "type": "tuple"
        },
        {
          "components": [
            {
              "internalType": "bytes",
              "name": "signature",
              "type": "bytes"
            },
            {
              "internalType": "bytes32",
              "name": "salt",
              "type": "bytes32"
            },
            {
              "internalType": "uint256",
              "name": "expiry",
              "type": "uint256"
            }
          ],
          "internalType": "struct ISignatureUtils.SignatureWithSaltAndExpiry",
          "name": "operatorSignature",
          "type": "tuple"
        }
      ],
      "name": "registerOperatorWithChurn",
      "outputs": [],
      "stateMutability": "nonpayable",
      "type": "function"
    },
    {
      "inputs": [
        {
          "internalType": "uint256",
          "name": "",
          "type": "uint256"
        }
      ],
      "name": "registries",
      "outputs": [
        {
          "internalType": "address",
          "name": "",
          "type": "address"
        }
      ],
      "stateMutability": "view",
      "type": "function"
    },
    {
      "inputs": [],
      "name": "renounceOwnership",
      "outputs": [],
      "stateMutability": "nonpayable",
      "type": "function"
    },
    {
      "inputs": [],
      "name": "serviceManager",
      "outputs": [
        {
          "internalType": "contract IServiceManager",
          "name": "",
          "type": "address"
        }
      ],
      "stateMutability": "view",
      "type": "function"
    },
    {
      "inputs": [
        {
          "internalType": "address",
          "name": "_churnApprover",
          "type": "address"
        }
      ],
      "name": "setChurnApprover",
      "outputs": [],
      "stateMutability": "nonpayable",
      "type": "function"
    },
    {
      "inputs": [
        {
          "internalType": "address",
          "name": "_ejector",
          "type": "address"
        }
      ],
      "name": "setEjector",
      "outputs": [],
      "stateMutability": "nonpayable",
      "type": "function"
    },
    {
      "inputs": [
        {
          "internalType": "uint8",
          "name": "quorumNumber",
          "type": "uint8"
        },
        {
          "components": [
            {
              "internalType": "uint32",
              "name": "maxOperatorCount",
              "type": "uint32"
            },
            {
              "internalType": "uint16",
              "name": "kickBIPsOfOperatorStake",
              "type": "uint16"
            },
            {
              "internalType": "uint16",
              "name": "kickBIPsOfTotalStake",
              "type": "uint16"
            }
          ],
          "internalType": "struct IRegistryCoordinator.OperatorSetParam",
          "name": "operatorSetParams",
          "type": "tuple"
        }
      ],
      "name": "setOperatorSetParams",
      "outputs": [],
      "stateMutability": "nonpayable",
      "type": "function"
    },
    {
      "inputs": [
        {
          "internalType": "contract IPauserRegistry",
          "name": "newPauserRegistry",
          "type": "address"
        }
      ],
      "name": "setPauserRegistry",
      "outputs": [],
      "stateMutability": "nonpayable",
      "type": "function"
    },
    {
      "inputs": [],
      "name": "stakeRegistry",
      "outputs": [
        {
          "internalType": "contract IStakeRegistry",
          "name": "",
          "type": "address"
        }
      ],
      "stateMutability": "view",
      "type": "function"
    },
    {
      "inputs": [
        {
          "internalType": "address",
          "name": "newOwner",
          "type": "address"
        }
      ],
      "name": "transferOwnership",
      "outputs": [],
      "stateMutability": "nonpayable",
      "type": "function"
    },
    {
      "inputs": [
        {
          "internalType": "uint256",
          "name": "newPausedStatus",
          "type": "uint256"
        }
      ],
      "name": "unpause",
      "outputs": [],
      "stateMutability": "nonpayable",
      "type": "function"
    },
    {
      "inputs": [
        {
          "internalType": "address[]",
          "name": "operators",
          "type": "address[]"
        }
      ],
      "name": "updateOperators",
      "outputs": [],
      "stateMutability": "nonpayable",
      "type": "function"
    },
    {
      "inputs": [
        {
          "internalType": "address[][]",
          "name": "operatorsPerQuorum",
          "type": "address[][]"
        },
        {
          "internalType": "bytes",
          "name": "quorumNumbers",
          "type": "bytes"
        }
      ],
      "name": "updateOperatorsForQuorum",
      "outputs": [],
      "stateMutability": "nonpayable",
      "type": "function"
    },
    {
      "inputs": [
        {
          "internalType": "string",
          "name": "socket",
          "type": "string"
        }
      ],
      "name": "updateSocket",
      "outputs": [],
      "stateMutability": "nonpayable",
      "type": "function"
    }
  ],
  "bytecode": {
    "object": "0x6101c06040523480156200001257600080fd5b506040516200618738038062006187833981016040819052620000359162000254565b604080518082018252601681527f4156535265676973747279436f6f7264696e61746f720000000000000000000060208083019182528351808501909452600684526576302e302e3160d01b908401528151902060e08190527f6bda7e3f385e48841048390444cced5cc795af87758af67622e5f4f0882c4a996101008190524660a05287938793879387939192917f8b73c3c69bb8fe3d512ecc4cf759cc79239f7b179b0ffacaa9a75d522b39400f620001358184846040805160208101859052908101839052606081018290524660808201523060a082015260009060c0016040516020818303038152906040528051906020012090509392505050565b6080523060c05261012052505050506001600160a01b039384166101405291831661018052821661016052166101a0526200016f62000179565b50505050620002bc565b600054610100900460ff1615620001e65760405162461bcd60e51b815260206004820152602760248201527f496e697469616c697a61626c653a20636f6e747261637420697320696e697469604482015266616c697a696e6760c81b606482015260840160405180910390fd5b60005460ff908116101562000239576000805460ff191660ff9081179091556040519081527f7f26b83ff96e1f2b6a682f133852f6798a09c465da95921460cefb38474024989060200160405180910390a15b565b6001600160a01b03811681146200025157600080fd5b50565b600080600080608085870312156200026b57600080fd5b845162000278816200023b565b60208601519094506200028b816200023b565b60408601519093506200029e816200023b565b6060860151909250620002b1816200023b565b939692955090935050565b60805160a05160c05160e05161010051610120516101405161016051610180516101a051615dc3620003c460003960008181610637015281816111130152818161201b01528181612d4d0152818161355a0152613b3201526000818161057c01528181611fa60152818161244e01528181612ccd015281816134b1015281816137070152613ab101526000818161054201528181610eae01528181611fe401528181612c4f01528181612e3501528181612eab015281816134310152613bae01526000818161048601528181612ba5015261337901526000613db501526000613e0401526000613ddf01526000613d3801526000613d6201526000613d8c0152615dc36000f3fe608060405234801561001057600080fd5b50600436106102945760003560e01c80635df45946116101675780639feab859116100ce578063d75b4c8811610087578063d75b4c88146106f5578063dd8283f314610708578063e65797ad1461071b578063f2fde38b146107be578063fabc1cbc146107d1578063fd39105a146107e457600080fd5b80639feab85914610659578063a50857bf14610680578063c391425e14610693578063ca0de882146106b3578063ca4f2d97146106da578063d72d8dd6146106ed57600080fd5b8063871ef04911610120578063871ef049146105cc578063886f1195146105df5780638da5cb5b146105f85780639aa1653d146106005780639b5d177b1461061f5780639e9923c21461063257600080fd5b80635df459461461053d5780636347c9001461056457806368304835146105775780636e3b17db1461059e578063715018a6146105b157806384ca5213146105b957600080fd5b806328f61b311161020b5780635140a548116101c45780635140a548146104c85780635865c60c146104db578063595c6a67146104fb5780635ac86ab7146105035780635b0b829f146105225780635c975abb1461053557600080fd5b806328f61b3114610435578063296bb0641461044857806329d1e0c31461045b5780632cdd1e861461046e5780633998fdd3146104815780633c2a7f4c146104a857600080fd5b806310d67a2f1161025d57806310d67a2f1461034a57806313542a4e1461035d578063136439dd146103865780631478851f146103995780631eb812da146103cc578063249a0c421461041557600080fd5b8062cf2ab51461029957806303fd3492146102ae57806304ec6351146102e1578063054310e61461030c5780630cf4b76714610337575b600080fd5b6102ac6102a73660046148b5565b610820565b005b6102ce6102bc3660046148f6565b60009081526098602052604090205490565b6040519081526020015b60405180910390f35b6102f46102ef366004614921565b610936565b6040516001600160c01b0390911681526020016102d8565b609d5461031f906001600160a01b031681565b6040516001600160a01b0390911681526020016102d8565b6102ac610345366004614a40565b610b2c565b6102ac610358366004614ab5565b610c14565b6102ce61036b366004614ab5565b6001600160a01b031660009081526099602052604090205490565b6102ac6103943660046148f6565b610cc7565b6103bc6103a73660046148f6565b609a6020526000908152604090205460ff1681565b60405190151581526020016102d8565b6103df6103da366004614ad2565b610e04565b60408051825163ffffffff908116825260208085015190911690820152918101516001600160c01b0316908201526060016102d8565b6102ce610423366004614b05565b609b6020526000908152604090205481565b609e5461031f906001600160a01b031681565b61031f6104563660046148f6565b610e95565b6102ac610469366004614ab5565b610f21565b6102ac61047c366004614ab5565b610f32565b61031f7f000000000000000000000000000000000000000000000000000000000000000081565b6104bb6104b6366004614ab5565b610f43565b6040516102d89190614b20565b6102ac6104d6366004614b78565b610fc2565b6104ee6104e9366004614ab5565b6114d3565b6040516102d89190614c1b565b6102ac611547565b6103bc610511366004614b05565b6001805460ff9092161b9081161490565b6102ac610530366004614ca0565b611613565b6001546102ce565b61031f7f000000000000000000000000000000000000000000000000000000000000000081565b61031f6105723660046148f6565b6116aa565b61031f7f000000000000000000000000000000000000000000000000000000000000000081565b6102ac6105ac366004614cd4565b6116d4565b6102ac611794565b6102ce6105c7366004614d8b565b6117a8565b6102f46105da3660046148f6565b6117f2565b60005461031f906201000090046001600160a01b031681565b61031f6117fd565b60965461060d9060ff1681565b60405160ff90911681526020016102d8565b6102ac61062d366004614f24565b611816565b61031f7f000000000000000000000000000000000000000000000000000000000000000081565b6102ce7f2bd82124057f0913bc3b772ce7b83e8057c1ad1f3510fc83778be20f10ec5de681565b6102ac61068e36600461501d565b611b4e565b6106a66106a13660046150c5565b611cd2565b6040516102d8919061516a565b6102ce7f4d404e3276e7ac2163d8ee476afa6a41d1f68fb71f2d8b6546b24e55ce01b72a81565b6102ac6106e83660046151b4565b611d8b565b609c546102ce565b6102ac61070336600461529a565b611df2565b6102ac61071636600461544d565b611e05565b61078a610729366004614b05565b60408051606080820183526000808352602080840182905292840181905260ff9490941684526097825292829020825193840183525463ffffffff8116845261ffff600160201b8204811692850192909252600160301b9004169082015290565b60408051825163ffffffff16815260208084015161ffff9081169183019190915292820151909216908201526060016102d8565b6102ac6107cc366004614ab5565b612109565b6102ac6107df3660046148f6565b61217f565b6108136107f2366004614ab5565b6001600160a01b031660009081526099602052604090206001015460ff1690565b6040516102d89190615521565b600154600290600490811614156108525760405162461bcd60e51b81526004016108499061552f565b60405180910390fd5b60005b8281101561093057600084848381811061087157610871615566565b90506020020160208101906108869190614ab5565b6001600160a01b03811660009081526099602090815260408083208151808301909252805482526001810154949550929390929183019060ff1660028111156108d1576108d1614be3565b60028111156108e2576108e2614be3565b905250805190915060006108f5826122db565b9050600061090b826001600160c01b0316612344565b9050610918858583612410565b5050505050808061092890615592565b915050610855565b50505050565b600083815260986020526040812080548291908490811061095957610959615566565b600091825260209182902060408051606081018252929091015463ffffffff808216808552600160201b8304821695850195909552600160401b9091046001600160c01b03169183019190915290925085161015610a535760405162461bcd60e51b815260206004820152606560248201527f5265676973747279436f6f7264696e61746f722e67657451756f72756d42697460448201527f6d61704174426c6f636b4e756d6265724279496e6465783a2071756f72756d4260648201527f69746d61705570646174652069732066726f6d20616674657220626c6f636b4e6084820152643ab6b132b960d91b60a482015260c401610849565b602081015163ffffffff161580610a795750806020015163ffffffff168463ffffffff16105b610b205760405162461bcd60e51b815260206004820152606660248201527f5265676973747279436f6f7264696e61746f722e67657451756f72756d42697460448201527f6d61704174426c6f636b4e756d6265724279496e6465783a2071756f72756d4260648201527f69746d61705570646174652069732066726f6d206265666f726520626c6f636b608482015265273ab6b132b960d11b60a482015260c401610849565b60400151949350505050565b60013360009081526099602052604090206001015460ff166002811115610b5557610b55614be3565b14610bc85760405162461bcd60e51b815260206004820152603c60248201527f5265676973747279436f6f7264696e61746f722e757064617465536f636b657460448201527f3a206f70657261746f72206973206e6f742072656769737465726564000000006064820152608401610849565b33600090815260996020526040908190205490517fec2963ab21c1e50e1e582aa542af2e4bf7bf38e6e1403c27b42e1c5d6e621eaa90610c099084906155fa565b60405180910390a250565b600060029054906101000a90046001600160a01b03166001600160a01b031663eab66d7a6040518163ffffffff1660e01b8152600401602060405180830381865afa158015610c67573d6000803e3d6000fd5b505050506040513d601f19601f82011682018060405250810190610c8b919061560d565b6001600160a01b0316336001600160a01b031614610cbb5760405162461bcd60e51b81526004016108499061562a565b610cc4816124fd565b50565b60005460405163237dfb4760e11b8152336004820152620100009091046001600160a01b0316906346fbf68e90602401602060405180830381865afa158015610d14573d6000803e3d6000fd5b505050506040513d601f19601f82011682018060405250810190610d389190615674565b610d545760405162461bcd60e51b815260040161084990615696565b60015481811614610dcd5760405162461bcd60e51b815260206004820152603860248201527f5061757361626c652e70617573653a20696e76616c696420617474656d70742060448201527f746f20756e70617573652066756e6374696f6e616c69747900000000000000006064820152608401610849565b600181905560405181815233907fab40a374bc51de372200a8bc981af8c9ecdc08dfdaef0bb6e09f88f3c616ef3d90602001610c09565b60408051606081018252600080825260208201819052918101919091526000838152609860205260409020805483908110610e4157610e41615566565b600091825260209182902060408051606081018252919092015463ffffffff8082168352600160201b820416938201939093526001600160c01b03600160401b909304929092169082015290505b92915050565b6040516308f6629d60e31b8152600481018290526000907f00000000000000000000000000000000000000000000000000000000000000006001600160a01b0316906347b314e890602401602060405180830381865afa158015610efd573d6000803e3d6000fd5b505050506040513d601f19601f82011682018060405250810190610e8f919061560d565b610f29612602565b610cc481612661565b610f3a612602565b610cc4816126ca565b6040805180820190915260008082526020820152610e8f610fbd7f2bd82124057f0913bc3b772ce7b83e8057c1ad1f3510fc83778be20f10ec5de684604051602001610fa29291909182526001600160a01b0316602082015260400190565b60405160208183030381529060405280519060200120612733565b612781565b60015460029060049081161415610feb5760405162461bcd60e51b81526004016108499061552f565b600061103384848080601f0160208091040260200160405190810160405280939291908181526020018383808284376000920191909152505060965460ff1691506128119050565b90508483146110a45760405162461bcd60e51b81526020600482015260436024820152600080516020615d2e83398151915260448201527f6f7273466f7251756f72756d3a20696e707574206c656e677468206d69736d616064820152620e8c6d60eb1b608482015260a401610849565b60005b838110156114ca5760008585838181106110c3576110c3615566565b919091013560f81c915036905060008989858181106110e4576110e4615566565b90506020028101906110f691906156de565b6040516379a0849160e11b815260ff8616600482015291935091507f00000000000000000000000000000000000000000000000000000000000000006001600160a01b03169063f341092290602401602060405180830381865afa158015611162573d6000803e3d6000fd5b505050506040513d601f19601f820116820180604052508101906111869190615727565b63ffffffff1681146112225760405162461bcd60e51b81526020600482015260656024820152600080516020615d2e83398151915260448201527f6f7273466f7251756f72756d3a206e756d626572206f6620757064617465642060648201527f6f70657261746f727320646f6573206e6f74206d617463682071756f72756d206084820152641d1bdd185b60da1b60a482015260c401610849565b6000805b8281101561146957600084848381811061124257611242615566565b90506020020160208101906112579190614ab5565b6001600160a01b03811660009081526099602090815260408083208151808301909252805482526001810154949550929390929183019060ff1660028111156112a2576112a2614be3565b60028111156112b3576112b3614be3565b905250805190915060006112c6826122db565b905060016001600160c01b03821660ff8b161c81161461134a5760405162461bcd60e51b815260206004820152604460248201819052600080516020615d2e833981519152908201527f6f7273466f7251756f72756d3a206f70657261746f72206e6f7420696e2071756064820152636f72756d60e01b608482015260a401610849565b856001600160a01b0316846001600160a01b0316116113f55760405162461bcd60e51b81526020600482015260676024820152600080516020615d2e83398151915260448201527f6f7273466f7251756f72756d3a206f70657261746f7273206172726179206d7560648201527f737420626520736f7274656420696e20617363656e64696e6720616464726573608482015266399037b93232b960c91b60a482015260c401610849565b5061145383838f8f8d908e600161140c9190615744565b926114199392919061575c565b8080601f01602080910402602001604051908101604052809392919081815260200183838082843760009201919091525061241092505050565b50909250611462905081615592565b9050611226565b5060ff84166000818152609b6020908152604091829020439081905591519182527f46077d55330763f16269fd75e5761663f4192d2791747c0189b16ad31db07db4910160405180910390a250505050806114c390615592565b90506110a7565b50505050505050565b60408051808201909152600080825260208201526001600160a01b0382166000908152609960209081526040918290208251808401909352805483526001810154909183019060ff16600281111561152d5761152d614be3565b600281111561153e5761153e614be3565b90525092915050565b60005460405163237dfb4760e11b8152336004820152620100009091046001600160a01b0316906346fbf68e90602401602060405180830381865afa158015611594573d6000803e3d6000fd5b505050506040513d601f19601f820116820180604052508101906115b89190615674565b6115d45760405162461bcd60e51b815260040161084990615696565b600019600181905560405190815233907fab40a374bc51de372200a8bc981af8c9ecdc08dfdaef0bb6e09f88f3c616ef3d9060200160405180910390a2565b61161b612602565b609654829060ff9081169082161061169b5760405162461bcd60e51b815260206004820152603760248201527f5265676973747279436f6f7264696e61746f722e71756f72756d45786973747360448201527f3a2071756f72756d20646f6573206e6f742065786973740000000000000000006064820152608401610849565b6116a583836128a2565b505050565b609c81815481106116ba57600080fd5b6000918252602090912001546001600160a01b0316905081565b609e546001600160a01b031633146117545760405162461bcd60e51b815260206004820152603a60248201527f5265676973747279436f6f7264696e61746f722e6f6e6c79456a6563746f723a60448201527f2063616c6c6572206973206e6f742074686520656a6563746f720000000000006064820152608401610849565b6116a58383838080601f01602080910402602001604051908101604052809392919081815260200183838082843760009201919091525061294f92505050565b61179c612602565b6117a66000612dc1565b565b60006117e87f4d404e3276e7ac2163d8ee476afa6a41d1f68fb71f2d8b6546b24e55ce01b72a8787878787604051602001610fa296959493929190615786565b9695505050505050565b6000610e8f826122db565b60006118116064546001600160a01b031690565b905090565b60018054600091908116141561183e5760405162461bcd60e51b81526004016108499061552f565b8389146118c15760405162461bcd60e51b8152602060048201526044602482018190527f5265676973747279436f6f7264696e61746f722e72656769737465724f706572908201527f61746f7257697468436875726e3a20696e707574206c656e677468206d69736d6064820152630c2e8c6d60e31b608482015260a401610849565b60006118cd3388612e13565b905061192d33828888808060200260200160405190810160405280939291908181526020016000905b82821015611922576119136040830286013681900381019061580b565b815260200190600101906118f6565b505050505087612f44565b600061197433838e8e8e8e8080601f0160208091040260200160405190810160405280939291908181526020018383808284376000920191909152508c92506130d1915050565b905060005b8b811015611b3f576000609760008f8f8581811061199957611999615566565b919091013560f81c82525060208082019290925260409081016000208151606081018352905463ffffffff811680835261ffff600160201b8304811695840195909552600160301b90910490931691810191909152845180519193509084908110611a0657611a06615566565b602002602001015163ffffffff161115611b2c57611aa78e8e84818110611a2f57611a2f615566565b9050013560f81c60f81b60f81c84604001518481518110611a5257611a52615566565b60200260200101513386602001518681518110611a7157611a71615566565b60200260200101518d8d88818110611a8b57611a8b615566565b905060400201803603810190611aa1919061580b565b866135e8565b611b2c898984818110611abc57611abc615566565b9050604002016020016020810190611ad49190614ab5565b8f8f8590866001611ae59190615744565b92611af29392919061575c565b8080601f01602080910402602001604051908101604052809392919081815260200183838082843760009201919091525061294f92505050565b5080611b3781615592565b915050611979565b50505050505050505050505050565b600180546000919081161415611b765760405162461bcd60e51b81526004016108499061552f565b6000611b823385612e13565b90506000611bcb33838b8b8b8b8080601f0160208091040260200160405190810160405280939291908181526020018383808284376000920191909152508c92506130d1915050565b51905060005b88811015611cc65760008a8a83818110611bed57611bed615566565b919091013560f81c600081815260976020526040902054855191935063ffffffff169150849084908110611c2357611c23615566565b602002602001015163ffffffff161115611cb35760405162461bcd60e51b8152602060048201526044602482018190527f5265676973747279436f6f7264696e61746f722e72656769737465724f706572908201527f61746f723a206f70657261746f7220636f756e742065786365656473206d6178606482015263696d756d60e01b608482015260a401610849565b5080611cbe81615592565b915050611bd1565b50505050505050505050565b6060600082516001600160401b03811115611cef57611cef614959565b604051908082528060200260200182016040528015611d18578160200160208202803683370190505b50905060005b8351811015611d8357611d4a85858381518110611d3d57611d3d615566565b60200260200101516138bd565b828281518110611d5c57611d5c615566565b63ffffffff9092166020928302919091019091015280611d7b81615592565b915050611d1e565b509392505050565b6001805460029081161415611db25760405162461bcd60e51b81526004016108499061552f565b6116a53384848080601f01602080910402602001604051908101604052809392919081815260200183838082843760009201919091525061294f92505050565b611dfa612602565b6116a58383836139f9565b600054610100900460ff1615808015611e255750600054600160ff909116105b80611e3f5750303b158015611e3f575060005460ff166001145b611ea25760405162461bcd60e51b815260206004820152602e60248201527f496e697469616c697a61626c653a20636f6e747261637420697320616c72656160448201526d191e481a5b9a5d1a585b1a5e995960921b6064820152608401610849565b6000805460ff191660011790558015611ec5576000805461ff0019166101001790555b82518451148015611ed7575081518351145b611f415760405162461bcd60e51b815260206004820152603560248201527f5265676973747279436f6f7264696e61746f722e696e697469616c697a653a206044820152740d2dce0eae840d8cadccee8d040dad2e6dac2e8c6d605b1b6064820152608401610849565b611f4a89612dc1565b611f548686613c10565b611f5d88612661565b611f66876126ca565b609c80546001818101835560008381527faf85b9071dfafeac1409d3f1d19bafc9bc7c37974cde8df0ee6168f0086e539c92830180546001600160a01b037f000000000000000000000000000000000000000000000000000000000000000081166001600160a01b03199283161790925585548085018755850180547f0000000000000000000000000000000000000000000000000000000000000000841690831617905585549384019095559190920180547f000000000000000000000000000000000000000000000000000000000000000090921691909316179091555b84518110156120b7576120a585828151811061206457612064615566565b602002602001015185838151811061207e5761207e615566565b602002602001015185848151811061209857612098615566565b60200260200101516139f9565b806120af81615592565b915050612046565b5080156120fe576000805461ff0019169055604051600181527f7f26b83ff96e1f2b6a682f133852f6798a09c465da95921460cefb38474024989060200160405180910390a15b505050505050505050565b612111612602565b6001600160a01b0381166121765760405162461bcd60e51b815260206004820152602660248201527f4f776e61626c653a206e6577206f776e657220697320746865207a65726f206160448201526564647265737360d01b6064820152608401610849565b610cc481612dc1565b600060029054906101000a90046001600160a01b03166001600160a01b031663eab66d7a6040518163ffffffff1660e01b8152600401602060405180830381865afa1580156121d2573d6000803e3d6000fd5b505050506040513d601f19601f820116820180604052508101906121f6919061560d565b6001600160a01b0316336001600160a01b0316146122265760405162461bcd60e51b81526004016108499061562a565b6001541981196001541916146122a45760405162461bcd60e51b815260206004820152603860248201527f5061757361626c652e756e70617573653a20696e76616c696420617474656d7060448201527f7420746f2070617573652066756e6374696f6e616c69747900000000000000006064820152608401610849565b600181905560405181815233907f3582d1828e26bf56bd801502bc021ac0bc8afb57c826e4986b45593c8fad389c90602001610c09565b600081815260986020526040812054806122f85750600092915050565b6000838152609860205260409020612311600183615827565b8154811061232157612321615566565b600091825260209091200154600160401b90046001600160c01b03169392505050565b606060008061235284613d00565b61ffff166001600160401b0381111561236d5761236d614959565b6040519080825280601f01601f191660200182016040528015612397576020820181803683370190505b5090506000805b8251821080156123af575061010081105b15612406576001811b9350858416156123f6578060f81b8383815181106123d8576123d8615566565b60200101906001600160f81b031916908160001a9053508160010191505b6123ff81615592565b905061239e565b5090949350505050565b60018260200151600281111561242857612428614be3565b1461243257505050565b81516040516333567f7f60e11b81526000906001600160a01b037f000000000000000000000000000000000000000000000000000000000000000016906366acfefe906124879088908690889060040161583e565b6020604051808303816000875af11580156124a6573d6000803e3d6000fd5b505050506040513d601f19601f820116820180604052508101906124ca919061586e565b90506001600160c01b038116156124f6576124f6856124f1836001600160c01b0316612344565b61294f565b5050505050565b6001600160a01b03811661258b5760405162461bcd60e51b815260206004820152604960248201527f5061757361626c652e5f73657450617573657252656769737472793a206e657760448201527f50617573657252656769737472792063616e6e6f7420626520746865207a65726064820152686f206164647265737360b81b608482015260a401610849565b600054604080516001600160a01b03620100009093048316815291831660208301527f6e9fcd539896fca60e8b0f01dd580233e48a6b0f7df013b89ba7f565869acdb6910160405180910390a1600080546001600160a01b03909216620100000262010000600160b01b0319909216919091179055565b3361260b6117fd565b6001600160a01b0316146117a65760405162461bcd60e51b815260206004820181905260248201527f4f776e61626c653a2063616c6c6572206973206e6f7420746865206f776e65726044820152606401610849565b609d54604080516001600160a01b03928316815291831660208301527f315457d8a8fe60f04af17c16e2f5a5e1db612b31648e58030360759ef8f3528c910160405180910390a1609d80546001600160a01b0319166001600160a01b0392909216919091179055565b609e54604080516001600160a01b03928316815291831660208301527f8f30ab09f43a6c157d7fce7e0a13c003042c1c95e8a72e7a146a21c0caa24dc9910160405180910390a1609e80546001600160a01b0319166001600160a01b0392909216919091179055565b6000610e8f612740613d2b565b8360405161190160f01b6020820152602281018390526042810182905260009060620160405160208183030381529060405280519060200120905092915050565b6040805180820190915260008082526020820152600080806127b1600080516020615d6e833981519152866158ad565b90505b6127bd81613e52565b9093509150600080516020615d6e8339815191528283098314156127f7576040805180820190915290815260208101919091529392505050565b600080516020615d6e8339815191526001820890506127b4565b60008061281d84613ed4565b9050808360ff166001901b1161289b5760405162461bcd60e51b815260206004820152603f60248201527f4269746d61705574696c732e6f72646572656442797465734172726179546f4260448201527f69746d61703a206269746d61702065786365656473206d61782076616c7565006064820152608401610849565b9392505050565b60ff8216600081815260976020908152604091829020845181548684018051888701805163ffffffff90951665ffffffffffff199094168417600160201b61ffff938416021767ffff0000000000001916600160301b95831695909502949094179094558551918252518316938101939093525116918101919091527f3ee6fe8d54610244c3e9d3c066ae4aee997884aa28f10616ae821925401318ac9060600160405180910390a25050565b6001600160a01b0382166000908152609960205260409020805460018083015460ff16600281111561298357612983614be3565b14612a025760405162461bcd60e51b815260206004820152604360248201527f5265676973747279436f6f7264696e61746f722e5f646572656769737465724f60448201527f70657261746f723a206f70657261746f72206973206e6f7420726567697374656064820152621c995960ea1b608482015260a401610849565b609654600090612a1690859060ff16612811565b90506000612a23836122db565b90506001600160c01b038216612aa15760405162461bcd60e51b815260206004820152603b60248201527f5265676973747279436f6f7264696e61746f722e5f646572656769737465724f60448201527f70657261746f723a206269746d61702063616e6e6f74206265203000000000006064820152608401610849565b612ab86001600160c01b0383811690831681161490565b612b505760405162461bcd60e51b815260206004820152605960248201527f5265676973747279436f6f7264696e61746f722e5f646572656769737465724f60448201527f70657261746f723a206f70657261746f72206973206e6f74207265676973746560648201527f72656420666f72207370656369666965642071756f72756d7300000000000000608482015260a401610849565b6001600160c01b0382811619821616612b698482614061565b6001600160c01b038116612c385760018501805460ff191660021790556040516351b27a6d60e11b81526001600160a01b0388811660048301527f0000000000000000000000000000000000000000000000000000000000000000169063a364f4da90602401600060405180830381600087803b158015612be957600080fd5b505af1158015612bfd573d6000803e3d6000fd5b50506040518692506001600160a01b038a1691507f396fdcb180cb0fea26928113fb0fd1c3549863f9cd563e6a184f1d578116c8e490600090a35b60405163f4e24fe560e01b81526001600160a01b037f0000000000000000000000000000000000000000000000000000000000000000169063f4e24fe590612c86908a908a906004016158c1565b600060405180830381600087803b158015612ca057600080fd5b505af1158015612cb4573d6000803e3d6000fd5b505060405163bd29b8cd60e01b81526001600160a01b037f000000000000000000000000000000000000000000000000000000000000000016925063bd29b8cd9150612d069087908a906004016158e5565b600060405180830381600087803b158015612d2057600080fd5b505af1158015612d34573d6000803e3d6000fd5b505060405163bd29b8cd60e01b81526001600160a01b037f000000000000000000000000000000000000000000000000000000000000000016925063bd29b8cd9150612d869087908a906004016158e5565b600060405180830381600087803b158015612da057600080fd5b505af1158015612db4573d6000803e3d6000fd5b5050505050505050505050565b606480546001600160a01b038381166001600160a01b0319831681179093556040519116919082907f8be0079c531659141344cd1fd0a4f28419497f9722a3daafe3b4186f6b6457e090600090a35050565b6040516309aa152760e11b81526001600160a01b0383811660048301526000917f0000000000000000000000000000000000000000000000000000000000000000909116906313542a4e90602401602060405180830381865afa158015612e7e573d6000803e3d6000fd5b505050506040513d601f19601f82011682018060405250810190612ea291906158fe565b905080610e8f577f00000000000000000000000000000000000000000000000000000000000000006001600160a01b031663bf79ce588484612ee387610f43565b6040518463ffffffff1660e01b8152600401612f0193929190615917565b6020604051808303816000875af1158015612f20573d6000803e3d6000fd5b505050506040513d601f19601f8201168201806040525081019061289b91906158fe565b6020808201516000908152609a909152604090205460ff1615612fea5760405162461bcd60e51b815260206004820152605260248201527f5265676973747279436f6f7264696e61746f722e5f766572696679436875726e60448201527f417070726f7665725369676e61747572653a20636875726e417070726f766572606482015271081cd85b1d08185b1c9958591e481d5cd95960721b608482015260a401610849565b428160400151101561307f5760405162461bcd60e51b815260206004820152605260248201527f5265676973747279436f6f7264696e61746f722e5f766572696679436875726e60448201527f417070726f7665725369676e61747572653a20636875726e417070726f766572606482015271081cda59db985d1d5c9948195e1c1a5c995960721b608482015260a401610849565b602080820180516000908152609a909252604091829020805460ff19166001179055609d54905191830151610930926001600160a01b03909216916130ca91889188918891906117a8565b8351614221565b6130f560405180606001604052806060815260200160608152602001606081525090565b600061313d86868080601f0160208091040260200160405190810160405280939291908181526020018383808284376000920191909152505060965460ff1691506128119050565b9050600061314a886122db565b90506001600160c01b0382166131c85760405162461bcd60e51b815260206004820152603960248201527f5265676973747279436f6f7264696e61746f722e5f72656769737465724f706560448201527f7261746f723a206269746d61702063616e6e6f742062652030000000000000006064820152608401610849565b8082166001600160c01b03161561327e5760405162461bcd60e51b815260206004820152606860248201527f5265676973747279436f6f7264696e61746f722e5f72656769737465724f706560448201527f7261746f723a206f70657261746f7220616c726561647920726567697374657260648201527f656420666f7220736f6d652071756f72756d73206265696e672072656769737460848201526732b932b2103337b960c11b60a482015260c401610849565b6001600160c01b03818116908316176132978982614061565b887fec2963ab21c1e50e1e582aa542af2e4bf7bf38e6e1403c27b42e1c5d6e621eaa876040516132c791906155fa565b60405180910390a260016001600160a01b038b1660009081526099602052604090206001015460ff16600281111561330157613301614be3565b1461341a576040805180820182528a8152600160208083018281526001600160a01b038f166000908152609990925293902082518155925183820180549394939192909160ff19169083600281111561335c5761335c614be3565b021790555050604051639926ee7d60e01b81526001600160a01b037f0000000000000000000000000000000000000000000000000000000000000000169150639926ee7d906133b1908d908990600401615996565b600060405180830381600087803b1580156133cb57600080fd5b505af11580156133df573d6000803e3d6000fd5b50506040518b92506001600160a01b038d1691507fe8e68cef1c3a761ed7be7e8463a375f27f7bc335e51824223cacce636ec5c3fe90600090a35b604051631fd93ca960e11b81526001600160a01b037f00000000000000000000000000000000000000000000000000000000000000001690633fb279529061346a908d908c908c90600401615a0a565b600060405180830381600087803b15801561348457600080fd5b505af1158015613498573d6000803e3d6000fd5b5050604051632550477760e01b81526001600160a01b037f0000000000000000000000000000000000000000000000000000000000000000169250632550477791506134ee908d908d908d908d90600401615a2f565b6000604051808303816000875af115801561350d573d6000803e3d6000fd5b505050506040513d6000823e601f3d908101601f191682016040526135359190810190615abb565b60408087019190915260208601919091525162bff04d60e01b81526001600160a01b037f0000000000000000000000000000000000000000000000000000000000000000169062bff04d90613592908c908c908c90600401615b1e565b6000604051808303816000875af11580156135b1573d6000803e3d6000fd5b505050506040513d6000823e601f3d908101601f191682016040526135d99190810190615b38565b84525050509695505050505050565b6020808301516001600160a01b0380821660008181526099909452604090932054919290871614156136685760405162461bcd60e51b81526020600482015260356024820152600080516020615d4e83398151915260448201527439371d1031b0b73737ba1031b43ab9371039b2b63360591b6064820152608401610849565b8760ff16846000015160ff16146136e55760405162461bcd60e51b81526020600482015260476024820152600080516020615d4e83398151915260448201527f726e3a2071756f72756d4e756d626572206e6f74207468652073616d65206173606482015266081cda59db995960ca1b608482015260a401610849565b604051635401ed2760e01b81526004810182905260ff891660248201526000907f00000000000000000000000000000000000000000000000000000000000000006001600160a01b031690635401ed2790604401602060405180830381865afa158015613756573d6000803e3d6000fd5b505050506040513d601f19601f8201168201806040525081019061377a9190615bd1565b905061378681856143db565b6001600160601b0316866001600160601b0316116138195760405162461bcd60e51b81526020600482015260566024820152600080516020615d4e83398151915260448201527f726e3a20696e636f6d696e67206f70657261746f722068617320696e7375666660648201527534b1b4b2b73a1039ba30b5b2903337b91031b43ab93760511b608482015260a401610849565b61382388856143ff565b6001600160601b0316816001600160601b0316106120fe5760405162461bcd60e51b815260206004820152605c6024820152600080516020615d4e83398151915260448201527f726e3a2063616e6e6f74206b69636b206f70657261746f722077697468206d6f60648201527f7265207468616e206b69636b424950734f66546f74616c5374616b6500000000608482015260a401610849565b600081815260986020526040812054815b8181101561394f5760016138e28284615827565b6138ec9190615827565b92508463ffffffff16609860008681526020019081526020016000208463ffffffff168154811061391f5761391f615566565b60009182526020909120015463ffffffff161161393d575050610e8f565b8061394781615592565b9150506138ce565b5060405162461bcd60e51b815260206004820152606c60248201527f5265676973747279436f6f7264696e61746f722e67657451756f72756d42697460448201527f6d6170496e6465784174426c6f636b4e756d6265723a206e6f206269746d617060648201527f2075706461746520666f756e6420666f72206f70657261746f7249642061742060848201526b313637b1b590373ab6b132b960a11b60a482015260c401610849565b60965460ff1660c08110613a6d5760405162461bcd60e51b815260206004820152603560248201527f5265676973747279436f6f7264696e61746f722e63726561746551756f72756d6044820152740e881b585e081c5d5bdc9d5b5cc81c995858da1959605a1b6064820152608401610849565b613a78816001615bee565b6096805460ff191660ff9290921691909117905580613a9781866128a2565b60405160016296b58960e01b031981526001600160a01b037f0000000000000000000000000000000000000000000000000000000000000000169063ff694a7790613aea90849088908890600401615c13565b600060405180830381600087803b158015613b0457600080fd5b505af1158015613b18573d6000803e3d6000fd5b505060405163136ca0f960e11b815260ff841660048201527f00000000000000000000000000000000000000000000000000000000000000006001600160a01b031692506326d941f29150602401600060405180830381600087803b158015613b8057600080fd5b505af1158015613b94573d6000803e3d6000fd5b505060405163136ca0f960e11b815260ff841660048201527f00000000000000000000000000000000000000000000000000000000000000006001600160a01b031692506326d941f29150602401600060405180830381600087803b158015613bfc57600080fd5b505af11580156120fe573d6000803e3d6000fd5b6000546201000090046001600160a01b0316158015613c3757506001600160a01b03821615155b613cb95760405162461bcd60e51b815260206004820152604760248201527f5061757361626c652e5f696e697469616c697a655061757365723a205f696e6960448201527f7469616c697a6550617573657228292063616e206f6e6c792062652063616c6c6064820152666564206f6e636560c81b608482015260a401610849565b600181905560405181815233907fab40a374bc51de372200a8bc981af8c9ecdc08dfdaef0bb6e09f88f3c616ef3d9060200160405180910390a2613cfc826124fd565b5050565b6000805b8215610e8f57613d15600184615827565b9092169180613d2381615c8c565b915050613d04565b6000306001600160a01b037f000000000000000000000000000000000000000000000000000000000000000016148015613d8457507f000000000000000000000000000000000000000000000000000000000000000046145b15613dae57507f000000000000000000000000000000000000000000000000000000000000000090565b50604080517f00000000000000000000000000000000000000000000000000000000000000006020808301919091527f0000000000000000000000000000000000000000000000000000000000000000828401527f000000000000000000000000000000000000000000000000000000000000000060608301524660808301523060a0808401919091528351808403909101815260c0909201909252805191012090565b60008080600080516020615d6e8339815191526003600080516020615d6e83398151915286600080516020615d6e833981519152888909090890506000613ec8827f0c19139cb84c680a6e14116da060561765e05aa45a1c72a34f082305b61f3f52600080516020615d6e833981519152614419565b91959194509092505050565b600061010082511115613f5d5760405162461bcd60e51b8152602060048201526044602482018190527f4269746d61705574696c732e6f72646572656442797465734172726179546f42908201527f69746d61703a206f7264657265644279746573417272617920697320746f6f206064820152636c6f6e6760e01b608482015260a401610849565b8151613f6b57506000919050565b60008083600081518110613f8157613f81615566565b0160200151600160f89190911c81901b92505b845181101561405857848181518110613faf57613faf615566565b0160200151600160f89190911c1b91508282116140445760405162461bcd60e51b815260206004820152604760248201527f4269746d61705574696c732e6f72646572656442797465734172726179546f4260448201527f69746d61703a206f72646572656442797465734172726179206973206e6f74206064820152661bdc99195c995960ca1b608482015260a401610849565b9181179161405181615592565b9050613f94565b50909392505050565b60008281526098602052604090205480614106576000838152609860209081526040808320815160608101835263ffffffff43811682528185018681526001600160c01b03808a16958401958652845460018101865594885295909620915191909201805495519351909416600160401b026001600160401b03938316600160201b0267ffffffffffffffff1990961691909216179390931716919091179055505050565b600083815260986020526040812061411f600184615827565b8154811061412f5761412f615566565b600091825260209091200180549091504363ffffffff908116911614156141735780546001600160401b0316600160401b6001600160c01b03851602178155610930565b805463ffffffff438116600160201b81810267ffffffff0000000019909416939093178455600087815260986020908152604080832081516060810183529485528483018481526001600160c01b03808c1693870193845282546001810184559286529390942094519401805493519151909216600160401b026001600160401b0391861690960267ffffffffffffffff199093169390941692909217179190911691909117905550505050565b6001600160a01b0383163b1561433b57604051630b135d3f60e11b808252906001600160a01b03851690631626ba7e9061426190869086906004016158e5565b602060405180830381865afa15801561427e573d6000803e3d6000fd5b505050506040513d601f19601f820116820180604052508101906142a29190615cae565b6001600160e01b031916146116a55760405162461bcd60e51b815260206004820152605360248201527f454950313237315369676e61747572655574696c732e636865636b5369676e6160448201527f747572655f454950313237313a2045524331323731207369676e6174757265206064820152721d995c9a599a58d85d1a5bdb8819985a5b1959606a1b608482015260a401610849565b826001600160a01b031661434f83836144c8565b6001600160a01b0316146116a55760405162461bcd60e51b815260206004820152604760248201527f454950313237315369676e61747572655574696c732e636865636b5369676e6160448201527f747572655f454950313237313a207369676e6174757265206e6f742066726f6d6064820152661039b4b3b732b960c91b608482015260a401610849565b6020810151600090612710906143f59061ffff1685615cd8565b61289b9190615d07565b6040810151600090612710906143f59061ffff1685615cd8565b600080614424614835565b61442c614853565b602080825281810181905260408201819052606082018890526080820187905260a082018690528260c08360056107d05a03fa925082801561446d5761446f565bfe5b50826144bd5760405162461bcd60e51b815260206004820152601a60248201527f424e3235342e6578704d6f643a2063616c6c206661696c7572650000000000006044820152606401610849565b505195945050505050565b60008060006144d785856144e4565b91509150611d8381614554565b60008082516041141561451b5760208301516040840151606085015160001a61450f8782858561470f565b9450945050505061454d565b825160401415614545576020830151604084015161453a8683836147fc565b93509350505061454d565b506000905060025b9250929050565b600081600481111561456857614568614be3565b14156145715750565b600181600481111561458557614585614be3565b14156145d35760405162461bcd60e51b815260206004820152601860248201527f45434453413a20696e76616c6964207369676e617475726500000000000000006044820152606401610849565b60028160048111156145e7576145e7614be3565b14156146355760405162461bcd60e51b815260206004820152601f60248201527f45434453413a20696e76616c6964207369676e6174757265206c656e677468006044820152606401610849565b600381600481111561464957614649614be3565b14156146a25760405162461bcd60e51b815260206004820152602260248201527f45434453413a20696e76616c6964207369676e6174757265202773272076616c604482015261756560f01b6064820152608401610849565b60048160048111156146b6576146b6614be3565b1415610cc45760405162461bcd60e51b815260206004820152602260248201527f45434453413a20696e76616c6964207369676e6174757265202776272076616c604482015261756560f01b6064820152608401610849565b6000807f7fffffffffffffffffffffffffffffff5d576e7357a4501ddfe92f46681b20a083111561474657506000905060036147f3565b8460ff16601b1415801561475e57508460ff16601c14155b1561476f57506000905060046147f3565b6040805160008082526020820180845289905260ff881692820192909252606081018690526080810185905260019060a0016020604051602081039080840390855afa1580156147c3573d6000803e3d6000fd5b5050604051601f1901519150506001600160a01b0381166147ec576000600192509250506147f3565b9150600090505b94509492505050565b6000806001600160ff1b0383168161481960ff86901c601b615744565b90506148278782888561470f565b935093505050935093915050565b60405180602001604052806001906020820280368337509192915050565b6040518060c001604052806006906020820280368337509192915050565b60008083601f84011261488357600080fd5b5081356001600160401b0381111561489a57600080fd5b6020830191508360208260051b850101111561454d57600080fd5b600080602083850312156148c857600080fd5b82356001600160401b038111156148de57600080fd5b6148ea85828601614871565b90969095509350505050565b60006020828403121561490857600080fd5b5035919050565b63ffffffff81168114610cc457600080fd5b60008060006060848603121561493657600080fd5b8335925060208401356149488161490f565b929592945050506040919091013590565b634e487b7160e01b600052604160045260246000fd5b604051606081016001600160401b038111828210171561499157614991614959565b60405290565b604080519081016001600160401b038111828210171561499157614991614959565b604051601f8201601f191681016001600160401b03811182821017156149e1576149e1614959565b604052919050565b60006001600160401b03831115614a0257614a02614959565b614a15601f8401601f19166020016149b9565b9050828152838383011115614a2957600080fd5b828260208301376000602084830101529392505050565b600060208284031215614a5257600080fd5b81356001600160401b03811115614a6857600080fd5b8201601f81018413614a7957600080fd5b614a88848235602084016149e9565b949350505050565b6001600160a01b0381168114610cc457600080fd5b8035614ab081614a90565b919050565b600060208284031215614ac757600080fd5b813561289b81614a90565b60008060408385031215614ae557600080fd5b50508035926020909101359150565b803560ff81168114614ab057600080fd5b600060208284031215614b1757600080fd5b61289b82614af4565b815181526020808301519082015260408101610e8f565b60008083601f840112614b4957600080fd5b5081356001600160401b03811115614b6057600080fd5b60208301915083602082850101111561454d57600080fd5b60008060008060408587031215614b8e57600080fd5b84356001600160401b0380821115614ba557600080fd5b614bb188838901614871565b90965094506020870135915080821115614bca57600080fd5b50614bd787828801614b37565b95989497509550505050565b634e487b7160e01b600052602160045260246000fd5b60038110614c1757634e487b7160e01b600052602160045260246000fd5b9052565b815181526020808301516040830191614c3690840182614bf9565b5092915050565b803561ffff81168114614ab057600080fd5b600060608284031215614c6157600080fd5b614c6961496f565b90508135614c768161490f565b8152614c8460208301614c3d565b6020820152614c9560408301614c3d565b604082015292915050565b60008060808385031215614cb357600080fd5b614cbc83614af4565b9150614ccb8460208501614c4f565b90509250929050565b600080600060408486031215614ce957600080fd5b8335614cf481614a90565b925060208401356001600160401b03811115614d0f57600080fd5b614d1b86828701614b37565b9497909650939450505050565b60006001600160401b03821115614d4157614d41614959565b5060051b60200190565b600060408284031215614d5d57600080fd5b614d65614997565b9050614d7082614af4565b81526020820135614d8081614a90565b602082015292915050565b600080600080600060a08688031215614da357600080fd5b8535614dae81614a90565b945060208681013594506040808801356001600160401b03811115614dd257600080fd5b8801601f81018a13614de357600080fd5b8035614df6614df182614d28565b6149b9565b81815260069190911b8201840190848101908c831115614e1557600080fd5b928501925b82841015614e3b57614e2c8d85614d4b565b82529284019290850190614e1a565b999c989b5098996060810135995060800135979650505050505050565b60006101008284031215614e6b57600080fd5b50919050565b60008083601f840112614e8357600080fd5b5081356001600160401b03811115614e9a57600080fd5b6020830191508360208260061b850101111561454d57600080fd5b600060608284031215614ec757600080fd5b614ecf61496f565b905081356001600160401b03811115614ee757600080fd5b8201601f81018413614ef857600080fd5b614f07848235602084016149e9565b825250602082013560208201526040820135604082015292915050565b60008060008060008060008060006101a08a8c031215614f4357600080fd5b89356001600160401b0380821115614f5a57600080fd5b614f668d838e01614b37565b909b50995060208c0135915080821115614f7f57600080fd5b614f8b8d838e01614b37565b9099509750879150614fa08d60408e01614e58565b96506101408c0135915080821115614fb757600080fd5b614fc38d838e01614e71565b90965094506101608c0135915080821115614fdd57600080fd5b614fe98d838e01614eb5565b93506101808c013591508082111561500057600080fd5b5061500d8c828d01614eb5565b9150509295985092959850929598565b600080600080600080610160878903121561503757600080fd5b86356001600160401b038082111561504e57600080fd5b61505a8a838b01614b37565b9098509650602089013591508082111561507357600080fd5b61507f8a838b01614b37565b90965094508491506150948a60408b01614e58565b93506101408901359150808211156150ab57600080fd5b506150b889828a01614eb5565b9150509295509295509295565b600080604083850312156150d857600080fd5b82356150e38161490f565b91506020838101356001600160401b038111156150ff57600080fd5b8401601f8101861361511057600080fd5b803561511e614df182614d28565b81815260059190911b8201830190838101908883111561513d57600080fd5b928401925b8284101561515b57833582529284019290840190615142565b80955050505050509250929050565b6020808252825182820181905260009190848201906040850190845b818110156151a857835163ffffffff1683529284019291840191600101615186565b50909695505050505050565b600080602083850312156151c757600080fd5b82356001600160401b038111156151dd57600080fd5b6148ea85828601614b37565b6001600160601b0381168114610cc457600080fd5b600082601f83011261520f57600080fd5b8135602061521f614df183614d28565b82815260069290921b8401810191818101908684111561523e57600080fd5b8286015b8481101561528f576040818903121561525b5760008081fd5b615263614997565b813561526e81614a90565b81528185013561527d816151e9565b81860152835291830191604001615242565b509695505050505050565b600080600060a084860312156152af57600080fd5b6152b98585614c4f565b925060608401356152c9816151e9565b915060808401356001600160401b038111156152e457600080fd5b6152f0868287016151fe565b9150509250925092565b600082601f83011261530b57600080fd5b8135602061531b614df183614d28565b8281526060928302850182019282820191908785111561533a57600080fd5b8387015b8581101561535d576153508982614c4f565b845292840192810161533e565b5090979650505050505050565b600082601f83011261537b57600080fd5b8135602061538b614df183614d28565b82815260059290921b840181019181810190868411156153aa57600080fd5b8286015b8481101561528f5780356153c1816151e9565b83529183019183016153ae565b600082601f8301126153df57600080fd5b813560206153ef614df183614d28565b82815260059290921b8401810191818101908684111561540e57600080fd5b8286015b8481101561528f5780356001600160401b038111156154315760008081fd5b61543f8986838b01016151fe565b845250918301918301615412565b600080600080600080600080610100898b03121561546a57600080fd5b61547389614aa5565b975061548160208a01614aa5565b965061548f60408a01614aa5565b955061549d60608a01614aa5565b94506080890135935060a08901356001600160401b03808211156154c057600080fd5b6154cc8c838d016152fa565b945060c08b01359150808211156154e257600080fd5b6154ee8c838d0161536a565b935060e08b013591508082111561550457600080fd5b506155118b828c016153ce565b9150509295985092959890939650565b60208101610e8f8284614bf9565b60208082526019908201527f5061757361626c653a20696e6465782069732070617573656400000000000000604082015260600190565b634e487b7160e01b600052603260045260246000fd5b634e487b7160e01b600052601160045260246000fd5b60006000198214156155a6576155a661557c565b5060010190565b6000815180845260005b818110156155d3576020818501810151868301820152016155b7565b818111156155e5576000602083870101525b50601f01601f19169290920160200192915050565b60208152600061289b60208301846155ad565b60006020828403121561561f57600080fd5b815161289b81614a90565b6020808252602a908201527f6d73672e73656e646572206973206e6f74207065726d697373696f6e6564206160408201526939903ab73830bab9b2b960b11b606082015260800190565b60006020828403121561568657600080fd5b8151801515811461289b57600080fd5b60208082526028908201527f6d73672e73656e646572206973206e6f74207065726d697373696f6e6564206160408201526739903830bab9b2b960c11b606082015260800190565b6000808335601e198436030181126156f557600080fd5b8301803591506001600160401b0382111561570f57600080fd5b6020019150600581901b360382131561454d57600080fd5b60006020828403121561573957600080fd5b815161289b8161490f565b600082198211156157575761575761557c565b500190565b6000808585111561576c57600080fd5b8386111561577957600080fd5b5050820193919092039150565b600060c08201888352602060018060a01b03808a16828601526040898187015260c0606087015283895180865260e088019150848b01955060005b818110156157eb578651805160ff16845286015185168684015295850195918301916001016157c1565b505060808701989098525050505060a09091019190915250949350505050565b60006040828403121561581d57600080fd5b61289b8383614d4b565b6000828210156158395761583961557c565b500390565b60018060a01b038416815282602082015260606040820152600061586560608301846155ad565b95945050505050565b60006020828403121561588057600080fd5b81516001600160c01b038116811461289b57600080fd5b634e487b7160e01b600052601260045260246000fd5b6000826158bc576158bc615897565b500690565b6001600160a01b0383168152604060208201819052600090614a88908301846155ad565b828152604060208201526000614a8860408301846155ad565b60006020828403121561591057600080fd5b5051919050565b6001600160a01b0384168152610160810161593f602083018580358252602090810135910152565b615959606083016040860180358252602090810135910152565b60406080850160a084013760e0820160008152604060c0860182375060006101208301908152835190526020909201516101409091015292915050565b60018060a01b03831681526040602082015260008251606060408401526159c060a08401826155ad565b90506020840151606084015260408401516080840152809150509392505050565b81835281816020850137506000828201602090810191909152601f909101601f19169091010190565b6001600160a01b038416815260406020820181905260009061586590830184866159e1565b60018060a01b03851681528360208201526060604082015260006117e86060830184866159e1565b600082601f830112615a6857600080fd5b81516020615a78614df183614d28565b82815260059290921b84018101918181019086841115615a9757600080fd5b8286015b8481101561528f578051615aae816151e9565b8352918301918301615a9b565b60008060408385031215615ace57600080fd5b82516001600160401b0380821115615ae557600080fd5b615af186838701615a57565b93506020850151915080821115615b0757600080fd5b50615b1485828601615a57565b9150509250929050565b8381526040602082015260006158656040830184866159e1565b60006020808385031215615b4b57600080fd5b82516001600160401b03811115615b6157600080fd5b8301601f81018513615b7257600080fd5b8051615b80614df182614d28565b81815260059190911b82018301908381019087831115615b9f57600080fd5b928401925b82841015615bc6578351615bb78161490f565b82529284019290840190615ba4565b979650505050505050565b600060208284031215615be357600080fd5b815161289b816151e9565b600060ff821660ff84168060ff03821115615c0b57615c0b61557c565b019392505050565b60006060820160ff8616835260206001600160601b03808716828601526040606081870152838751808652608088019150848901955060005b81811015615c7c57865180516001600160a01b031684528601518516868401529585019591830191600101615c4c565b50909a9950505050505050505050565b600061ffff80831681811415615ca457615ca461557c565b6001019392505050565b600060208284031215615cc057600080fd5b81516001600160e01b03198116811461289b57600080fd5b60006001600160601b0380831681851681830481118215151615615cfe57615cfe61557c565b02949350505050565b60006001600160601b0380841680615d2157615d21615897565b9216919091049291505056fe5265676973747279436f6f7264696e61746f722e7570646174654f70657261745265676973747279436f6f7264696e61746f722e5f76616c696461746543687530644e72e131a029b85045b68181585d97816a916871ca8d3c208c16d87cfd47a26469706673582212207fb85029b59e3233658414c516c0458c02fa987320ef8cad82dea08a8ca0718664736f6c634300080c0033",
    "linkReferences": {}
  },
  "methodIdentifiers": {
    "OPERATOR_CHURN_APPROVAL_TYPEHASH()": "ca0de882",
    "PUBKEY_REGISTRATION_TYPEHASH()": "9feab859",
    "blsApkRegistry()": "5df45946",
    "calculateOperatorChurnApprovalDigestHash(address,bytes32,(uint8,address)[],bytes32,uint256)": "84ca5213",
    "churnApprover()": "054310e6",
    "createQuorum((uint32,uint16,uint16),uint96,(address,uint96)[])": "d75b4c88",
    "deregisterOperator(bytes)": "ca4f2d97",
    "ejectOperator(address,bytes)": "6e3b17db",
    "ejector()": "28f61b31",
    "getCurrentQuorumBitmap(bytes32)": "871ef049",
    "getOperator(address)": "5865c60c",
    "getOperatorFromId(bytes32)": "296bb064",
    "getOperatorId(address)": "13542a4e",
    "getOperatorSetParams(uint8)": "e65797ad",
    "getOperatorStatus(address)": "fd39105a",
    "getQuorumBitmapAtBlockNumberByIndex(bytes32,uint32,uint256)": "04ec6351",
    "getQuorumBitmapHistoryLength(bytes32)": "03fd3492",
    "getQuorumBitmapIndicesAtBlockNumber(uint32,bytes32[])": "c391425e",
    "getQuorumBitmapUpdateByIndex(bytes32,uint256)": "1eb812da",
    "indexRegistry()": "9e9923c2",
    "initialize(address,address,address,address,uint256,(uint32,uint16,uint16)[],uint96[],(address,uint96)[][])": "dd8283f3",
    "isChurnApproverSaltUsed(bytes32)": "1478851f",
    "numRegistries()": "d72d8dd6",
    "owner()": "8da5cb5b",
    "pause(uint256)": "136439dd",
    "pauseAll()": "595c6a67",
    "paused()": "5c975abb",
    "paused(uint8)": "5ac86ab7",
    "pauserRegistry()": "886f1195",
    "pubkeyRegistrationMessageHash(address)": "3c2a7f4c",
    "quorumCount()": "9aa1653d",
    "quorumUpdateBlockNumber(uint8)": "249a0c42",
    "registerOperator(bytes,string,((uint256,uint256),(uint256,uint256),(uint256[2],uint256[2])),(bytes,bytes32,uint256))": "a50857bf",
    "registerOperatorWithChurn(bytes,string,((uint256,uint256),(uint256,uint256),(uint256[2],uint256[2])),(uint8,address)[],(bytes,bytes32,uint256),(bytes,bytes32,uint256))": "9b5d177b",
    "registries(uint256)": "6347c900",
    "renounceOwnership()": "715018a6",
    "serviceManager()": "3998fdd3",
    "setChurnApprover(address)": "29d1e0c3",
    "setEjector(address)": "2cdd1e86",
    "setOperatorSetParams(uint8,(uint32,uint16,uint16))": "5b0b829f",
    "setPauserRegistry(address)": "10d67a2f",
    "stakeRegistry()": "68304835",
    "transferOwnership(address)": "f2fde38b",
    "unpause(uint256)": "fabc1cbc",
    "updateOperators(address[])": "00cf2ab5",
    "updateOperatorsForQuorum(address[][],bytes)": "5140a548",
    "updateSocket(string)": "0cf4b767"
  },
  "id": 98
}