{
  "abi": [
    {
      "inputs": [
        {
          "internalType": "contract IStrategyManager",
          "name": "_strategyManager",
          "type": "address"
        },
        {
          "internalType": "contract ISlasher",
          "name": "_slasher",
          "type": "address"
        },
        {
          "internalType": "contract IEigenPodManager",
          "name": "_eigenPodManager",
          "type": "address"
        }
      ],
      "stateMutability": "nonpayable",
      "type": "constructor"
    },
    {
      "anonymous": false,
      "inputs": [
        {
          "indexed": false,
          "internalType": "uint8",
          "name": "version",
          "type": "uint8"
        }
      ],
      "name": "Initialized",
      "type": "event"
    },
    {
      "anonymous": false,
      "inputs": [
        {
          "indexed": false,
          "internalType": "uint256",
          "name": "previousValue",
          "type": "uint256"
        },
        {
          "indexed": false,
          "internalType": "uint256",
          "name": "newValue",
          "type": "uint256"
        }
      ],
      "name": "MinWithdrawalDelayBlocksSet",
      "type": "event"
    },
    {
      "anonymous": false,
      "inputs": [
        {
          "indexed": true,
          "internalType": "address",
          "name": "operator",
          "type": "address"
        },
        {
          "components": [
            {
              "internalType": "address",
              "name": "earningsReceiver",
              "type": "address"
            },
            {
              "internalType": "address",
              "name": "delegationApprover",
              "type": "address"
            },
            {
              "internalType": "uint32",
              "name": "stakerOptOutWindowBlocks",
              "type": "uint32"
            }
          ],
          "indexed": false,
          "internalType": "struct IDelegationManager.OperatorDetails",
          "name": "newOperatorDetails",
          "type": "tuple"
        }
      ],
      "name": "OperatorDetailsModified",
      "type": "event"
    },
    {
      "anonymous": false,
      "inputs": [
        {
          "indexed": true,
          "internalType": "address",
          "name": "operator",
          "type": "address"
        },
        {
          "indexed": false,
          "internalType": "string",
          "name": "metadataURI",
          "type": "string"
        }
      ],
      "name": "OperatorMetadataURIUpdated",
      "type": "event"
    },
    {
      "anonymous": false,
      "inputs": [
        {
          "indexed": true,
          "internalType": "address",
          "name": "operator",
          "type": "address"
        },
        {
          "components": [
            {
              "internalType": "address",
              "name": "earningsReceiver",
              "type": "address"
            },
            {
              "internalType": "address",
              "name": "delegationApprover",
              "type": "address"
            },
            {
              "internalType": "uint32",
              "name": "stakerOptOutWindowBlocks",
              "type": "uint32"
            }
          ],
          "indexed": false,
          "internalType": "struct IDelegationManager.OperatorDetails",
          "name": "operatorDetails",
          "type": "tuple"
        }
      ],
      "name": "OperatorRegistered",
      "type": "event"
    },
    {
      "anonymous": false,
      "inputs": [
        {
          "indexed": true,
          "internalType": "address",
          "name": "operator",
          "type": "address"
        },
        {
          "indexed": false,
          "internalType": "address",
          "name": "staker",
          "type": "address"
        },
        {
          "indexed": false,
          "internalType": "contract IStrategy",
          "name": "strategy",
          "type": "address"
        },
        {
          "indexed": false,
          "internalType": "uint256",
          "name": "shares",
          "type": "uint256"
        }
      ],
      "name": "OperatorSharesDecreased",
      "type": "event"
    },
    {
      "anonymous": false,
      "inputs": [
        {
          "indexed": true,
          "internalType": "address",
          "name": "operator",
          "type": "address"
        },
        {
          "indexed": false,
          "internalType": "address",
          "name": "staker",
          "type": "address"
        },
        {
          "indexed": false,
          "internalType": "contract IStrategy",
          "name": "strategy",
          "type": "address"
        },
        {
          "indexed": false,
          "internalType": "uint256",
          "name": "shares",
          "type": "uint256"
        }
      ],
      "name": "OperatorSharesIncreased",
      "type": "event"
    },
    {
      "anonymous": false,
      "inputs": [
        {
          "indexed": true,
          "internalType": "address",
          "name": "previousOwner",
          "type": "address"
        },
        {
          "indexed": true,
          "internalType": "address",
          "name": "newOwner",
          "type": "address"
        }
      ],
      "name": "OwnershipTransferred",
      "type": "event"
    },
    {
      "anonymous": false,
      "inputs": [
        {
          "indexed": true,
          "internalType": "address",
          "name": "account",
          "type": "address"
        },
        {
          "indexed": false,
          "internalType": "uint256",
          "name": "newPausedStatus",
          "type": "uint256"
        }
      ],
      "name": "Paused",
      "type": "event"
    },
    {
      "anonymous": false,
      "inputs": [
        {
          "indexed": false,
          "internalType": "contract IPauserRegistry",
          "name": "pauserRegistry",
          "type": "address"
        },
        {
          "indexed": false,
          "internalType": "contract IPauserRegistry",
          "name": "newPauserRegistry",
          "type": "address"
        }
      ],
      "name": "PauserRegistrySet",
      "type": "event"
    },
    {
      "anonymous": false,
      "inputs": [
        {
          "indexed": true,
          "internalType": "address",
          "name": "staker",
          "type": "address"
        },
        {
          "indexed": true,
          "internalType": "address",
          "name": "operator",
          "type": "address"
        }
      ],
      "name": "StakerDelegated",
      "type": "event"
    },
    {
      "anonymous": false,
      "inputs": [
        {
          "indexed": true,
          "internalType": "address",
          "name": "staker",
          "type": "address"
        },
        {
          "indexed": true,
          "internalType": "address",
          "name": "operator",
          "type": "address"
        }
      ],
      "name": "StakerForceUndelegated",
      "type": "event"
    },
    {
      "anonymous": false,
      "inputs": [
        {
          "indexed": true,
          "internalType": "address",
          "name": "staker",
          "type": "address"
        },
        {
          "indexed": true,
          "internalType": "address",
          "name": "operator",
          "type": "address"
        }
      ],
      "name": "StakerUndelegated",
      "type": "event"
    },
    {
      "anonymous": false,
      "inputs": [
        {
          "indexed": false,
          "internalType": "contract IStrategy",
          "name": "strategy",
          "type": "address"
        },
        {
          "indexed": false,
          "internalType": "uint256",
          "name": "previousValue",
          "type": "uint256"
        },
        {
          "indexed": false,
          "internalType": "uint256",
          "name": "newValue",
          "type": "uint256"
        }
      ],
      "name": "StrategyWithdrawalDelayBlocksSet",
      "type": "event"
    },
    {
      "anonymous": false,
      "inputs": [
        {
          "indexed": true,
          "internalType": "address",
          "name": "account",
          "type": "address"
        },
        {
          "indexed": false,
          "internalType": "uint256",
          "name": "newPausedStatus",
          "type": "uint256"
        }
      ],
      "name": "Unpaused",
      "type": "event"
    },
    {
      "anonymous": false,
      "inputs": [
        {
          "indexed": false,
          "internalType": "bytes32",
          "name": "withdrawalRoot",
          "type": "bytes32"
        }
      ],
      "name": "WithdrawalCompleted",
      "type": "event"
    },
    {
      "anonymous": false,
      "inputs": [
        {
          "indexed": false,
          "internalType": "bytes32",
          "name": "oldWithdrawalRoot",
          "type": "bytes32"
        },
        {
          "indexed": false,
          "internalType": "bytes32",
          "name": "newWithdrawalRoot",
          "type": "bytes32"
        }
      ],
      "name": "WithdrawalMigrated",
      "type": "event"
    },
    {
      "anonymous": false,
      "inputs": [
        {
          "indexed": false,
          "internalType": "bytes32",
          "name": "withdrawalRoot",
          "type": "bytes32"
        },
        {
          "components": [
            {
              "internalType": "address",
              "name": "staker",
              "type": "address"
            },
            {
              "internalType": "address",
              "name": "delegatedTo",
              "type": "address"
            },
            {
              "internalType": "address",
              "name": "withdrawer",
              "type": "address"
            },
            {
              "internalType": "uint256",
              "name": "nonce",
              "type": "uint256"
            },
            {
              "internalType": "uint32",
              "name": "startBlock",
              "type": "uint32"
            },
            {
              "internalType": "contract IStrategy[]",
              "name": "strategies",
              "type": "address[]"
            },
            {
              "internalType": "uint256[]",
              "name": "shares",
              "type": "uint256[]"
            }
          ],
          "indexed": false,
          "internalType": "struct IDelegationManager.Withdrawal",
          "name": "withdrawal",
          "type": "tuple"
        }
      ],
      "name": "WithdrawalQueued",
      "type": "event"
    },
    {
      "inputs": [],
      "name": "DELEGATION_APPROVAL_TYPEHASH",
      "outputs": [
        {
          "internalType": "bytes32",
          "name": "",
          "type": "bytes32"
        }
      ],
      "stateMutability": "view",
      "type": "function"
    },
    {
      "inputs": [],
      "name": "DOMAIN_TYPEHASH",
      "outputs": [
        {
          "internalType": "bytes32",
          "name": "",
          "type": "bytes32"
        }
      ],
      "stateMutability": "view",
      "type": "function"
    },
    {
      "inputs": [],
      "name": "MAX_STAKER_OPT_OUT_WINDOW_BLOCKS",
      "outputs": [
        {
          "internalType": "uint256",
          "name": "",
          "type": "uint256"
        }
      ],
      "stateMutability": "view",
      "type": "function"
    },
    {
      "inputs": [],
      "name": "MAX_WITHDRAWAL_DELAY_BLOCKS",
      "outputs": [
        {
          "internalType": "uint256",
          "name": "",
          "type": "uint256"
        }
      ],
      "stateMutability": "view",
      "type": "function"
    },
    {
      "inputs": [],
      "name": "STAKER_DELEGATION_TYPEHASH",
      "outputs": [
        {
          "internalType": "bytes32",
          "name": "",
          "type": "bytes32"
        }
      ],
      "stateMutability": "view",
      "type": "function"
    },
    {
      "inputs": [],
      "name": "beaconChainETHStrategy",
      "outputs": [
        {
          "internalType": "contract IStrategy",
          "name": "",
          "type": "address"
        }
      ],
      "stateMutability": "view",
      "type": "function"
    },
    {
      "inputs": [
        {
          "internalType": "address",
          "name": "staker",
          "type": "address"
        },
        {
          "internalType": "address",
          "name": "operator",
          "type": "address"
        },
        {
          "internalType": "uint256",
          "name": "expiry",
          "type": "uint256"
        }
      ],
      "name": "calculateCurrentStakerDelegationDigestHash",
      "outputs": [
        {
          "internalType": "bytes32",
          "name": "",
          "type": "bytes32"
        }
      ],
      "stateMutability": "view",
      "type": "function"
    },
    {
      "inputs": [
        {
          "internalType": "address",
          "name": "staker",
          "type": "address"
        },
        {
          "internalType": "address",
          "name": "operator",
          "type": "address"
        },
        {
          "internalType": "address",
          "name": "_delegationApprover",
          "type": "address"
        },
        {
          "internalType": "bytes32",
          "name": "approverSalt",
          "type": "bytes32"
        },
        {
          "internalType": "uint256",
          "name": "expiry",
          "type": "uint256"
        }
      ],
      "name": "calculateDelegationApprovalDigestHash",
      "outputs": [
        {
          "internalType": "bytes32",
          "name": "",
          "type": "bytes32"
        }
      ],
      "stateMutability": "view",
      "type": "function"
    },
    {
      "inputs": [
        {
          "internalType": "address",
          "name": "staker",
          "type": "address"
        },
        {
          "internalType": "uint256",
          "name": "_stakerNonce",
          "type": "uint256"
        },
        {
          "internalType": "address",
          "name": "operator",
          "type": "address"
        },
        {
          "internalType": "uint256",
          "name": "expiry",
          "type": "uint256"
        }
      ],
      "name": "calculateStakerDelegationDigestHash",
      "outputs": [
        {
          "internalType": "bytes32",
          "name": "",
          "type": "bytes32"
        }
      ],
      "stateMutability": "view",
      "type": "function"
    },
    {
      "inputs": [
        {
          "components": [
            {
              "internalType": "address",
              "name": "staker",
              "type": "address"
            },
            {
              "internalType": "address",
              "name": "delegatedTo",
              "type": "address"
            },
            {
              "internalType": "address",
              "name": "withdrawer",
              "type": "address"
            },
            {
              "internalType": "uint256",
              "name": "nonce",
              "type": "uint256"
            },
            {
              "internalType": "uint32",
              "name": "startBlock",
              "type": "uint32"
            },
            {
              "internalType": "contract IStrategy[]",
              "name": "strategies",
              "type": "address[]"
            },
            {
              "internalType": "uint256[]",
              "name": "shares",
              "type": "uint256[]"
            }
          ],
          "internalType": "struct IDelegationManager.Withdrawal",
          "name": "withdrawal",
          "type": "tuple"
        }
      ],
      "name": "calculateWithdrawalRoot",
      "outputs": [
        {
          "internalType": "bytes32",
          "name": "",
          "type": "bytes32"
        }
      ],
      "stateMutability": "pure",
      "type": "function"
    },
    {
      "inputs": [
        {
          "components": [
            {
              "internalType": "address",
              "name": "staker",
              "type": "address"
            },
            {
              "internalType": "address",
              "name": "delegatedTo",
              "type": "address"
            },
            {
              "internalType": "address",
              "name": "withdrawer",
              "type": "address"
            },
            {
              "internalType": "uint256",
              "name": "nonce",
              "type": "uint256"
            },
            {
              "internalType": "uint32",
              "name": "startBlock",
              "type": "uint32"
            },
            {
              "internalType": "contract IStrategy[]",
              "name": "strategies",
              "type": "address[]"
            },
            {
              "internalType": "uint256[]",
              "name": "shares",
              "type": "uint256[]"
            }
          ],
          "internalType": "struct IDelegationManager.Withdrawal",
          "name": "withdrawal",
          "type": "tuple"
        },
        {
          "internalType": "contract IERC20[]",
          "name": "tokens",
          "type": "address[]"
        },
        {
          "internalType": "uint256",
          "name": "middlewareTimesIndex",
          "type": "uint256"
        },
        {
          "internalType": "bool",
          "name": "receiveAsTokens",
          "type": "bool"
        }
      ],
      "name": "completeQueuedWithdrawal",
      "outputs": [],
      "stateMutability": "nonpayable",
      "type": "function"
    },
    {
      "inputs": [
        {
          "components": [
            {
              "internalType": "address",
              "name": "staker",
              "type": "address"
            },
            {
              "internalType": "address",
              "name": "delegatedTo",
              "type": "address"
            },
            {
              "internalType": "address",
              "name": "withdrawer",
              "type": "address"
            },
            {
              "internalType": "uint256",
              "name": "nonce",
              "type": "uint256"
            },
            {
              "internalType": "uint32",
              "name": "startBlock",
              "type": "uint32"
            },
            {
              "internalType": "contract IStrategy[]",
              "name": "strategies",
              "type": "address[]"
            },
            {
              "internalType": "uint256[]",
              "name": "shares",
              "type": "uint256[]"
            }
          ],
          "internalType": "struct IDelegationManager.Withdrawal[]",
          "name": "withdrawals",
          "type": "tuple[]"
        },
        {
          "internalType": "contract IERC20[][]",
          "name": "tokens",
          "type": "address[][]"
        },
        {
          "internalType": "uint256[]",
          "name": "middlewareTimesIndexes",
          "type": "uint256[]"
        },
        {
          "internalType": "bool[]",
          "name": "receiveAsTokens",
          "type": "bool[]"
        }
      ],
      "name": "completeQueuedWithdrawals",
      "outputs": [],
      "stateMutability": "nonpayable",
      "type": "function"
    },
    {
      "inputs": [
        {
          "internalType": "address",
          "name": "",
          "type": "address"
        }
      ],
      "name": "cumulativeWithdrawalsQueued",
      "outputs": [
        {
          "internalType": "uint256",
          "name": "",
          "type": "uint256"
        }
      ],
      "stateMutability": "view",
      "type": "function"
    },
    {
      "inputs": [
        {
          "internalType": "address",
          "name": "staker",
          "type": "address"
        },
        {
          "internalType": "contract IStrategy",
          "name": "strategy",
          "type": "address"
        },
        {
          "internalType": "uint256",
          "name": "shares",
          "type": "uint256"
        }
      ],
      "name": "decreaseDelegatedShares",
      "outputs": [],
      "stateMutability": "nonpayable",
      "type": "function"
    },
    {
      "inputs": [
        {
          "internalType": "address",
          "name": "operator",
          "type": "address"
        },
        {
          "components": [
            {
              "internalType": "bytes",
              "name": "signature",
              "type": "bytes"
            },
            {
              "internalType": "uint256",
              "name": "expiry",
              "type": "uint256"
            }
          ],
          "internalType": "struct ISignatureUtils.SignatureWithExpiry",
          "name": "approverSignatureAndExpiry",
          "type": "tuple"
        },
        {
          "internalType": "bytes32",
          "name": "approverSalt",
          "type": "bytes32"
        }
      ],
      "name": "delegateTo",
      "outputs": [],
      "stateMutability": "nonpayable",
      "type": "function"
    },
    {
      "inputs": [
        {
          "internalType": "address",
          "name": "staker",
          "type": "address"
        },
        {
          "internalType": "address",
          "name": "operator",
          "type": "address"
        },
        {
          "components": [
            {
              "internalType": "bytes",
              "name": "signature",
              "type": "bytes"
            },
            {
              "internalType": "uint256",
              "name": "expiry",
              "type": "uint256"
            }
          ],
          "internalType": "struct ISignatureUtils.SignatureWithExpiry",
          "name": "stakerSignatureAndExpiry",
          "type": "tuple"
        },
        {
          "components": [
            {
              "internalType": "bytes",
              "name": "signature",
              "type": "bytes"
            },
            {
              "internalType": "uint256",
              "name": "expiry",
              "type": "uint256"
            }
          ],
          "internalType": "struct ISignatureUtils.SignatureWithExpiry",
          "name": "approverSignatureAndExpiry",
          "type": "tuple"
        },
        {
          "internalType": "bytes32",
          "name": "approverSalt",
          "type": "bytes32"
        }
      ],
      "name": "delegateToBySignature",
      "outputs": [],
      "stateMutability": "nonpayable",
      "type": "function"
    },
    {
      "inputs": [
        {
          "internalType": "address",
          "name": "",
          "type": "address"
        }
      ],
      "name": "delegatedTo",
      "outputs": [
        {
          "internalType": "address",
          "name": "",
          "type": "address"
        }
      ],
      "stateMutability": "view",
      "type": "function"
    },
    {
      "inputs": [
        {
          "internalType": "address",
          "name": "operator",
          "type": "address"
        }
      ],
      "name": "delegationApprover",
      "outputs": [
        {
          "internalType": "address",
          "name": "",
          "type": "address"
        }
      ],
      "stateMutability": "view",
      "type": "function"
    },
    {
      "inputs": [
        {
          "internalType": "address",
          "name": "",
          "type": "address"
        },
        {
          "internalType": "bytes32",
          "name": "",
          "type": "bytes32"
        }
      ],
      "name": "delegationApproverSaltIsSpent",
      "outputs": [
        {
          "internalType": "bool",
          "name": "",
          "type": "bool"
        }
      ],
      "stateMutability": "view",
      "type": "function"
    },
    {
      "inputs": [],
      "name": "domainSeparator",
      "outputs": [
        {
          "internalType": "bytes32",
          "name": "",
          "type": "bytes32"
        }
      ],
      "stateMutability": "view",
      "type": "function"
    },
    {
      "inputs": [
        {
          "internalType": "address",
          "name": "operator",
          "type": "address"
        }
      ],
      "name": "earningsReceiver",
      "outputs": [
        {
          "internalType": "address",
          "name": "",
          "type": "address"
        }
      ],
      "stateMutability": "view",
      "type": "function"
    },
    {
      "inputs": [],
      "name": "eigenPodManager",
      "outputs": [
        {
          "internalType": "contract IEigenPodManager",
          "name": "",
          "type": "address"
        }
      ],
      "stateMutability": "view",
      "type": "function"
    },
    {
      "inputs": [
        {
          "internalType": "address",
          "name": "staker",
          "type": "address"
        }
      ],
      "name": "getDelegatableShares",
      "outputs": [
        {
          "internalType": "contract IStrategy[]",
          "name": "",
          "type": "address[]"
        },
        {
          "internalType": "uint256[]",
          "name": "",
          "type": "uint256[]"
        }
      ],
      "stateMutability": "view",
      "type": "function"
    },
    {
      "inputs": [
        {
          "internalType": "address",
          "name": "operator",
          "type": "address"
        },
        {
          "internalType": "contract IStrategy[]",
          "name": "strategies",
          "type": "address[]"
        }
      ],
      "name": "getOperatorShares",
      "outputs": [
        {
          "internalType": "uint256[]",
          "name": "",
          "type": "uint256[]"
        }
      ],
      "stateMutability": "view",
      "type": "function"
    },
    {
      "inputs": [
        {
          "internalType": "contract IStrategy[]",
          "name": "strategies",
          "type": "address[]"
        }
      ],
      "name": "getWithdrawalDelay",
      "outputs": [
        {
          "internalType": "uint256",
          "name": "",
          "type": "uint256"
        }
      ],
      "stateMutability": "view",
      "type": "function"
    },
    {
      "inputs": [
        {
          "internalType": "address",
          "name": "staker",
          "type": "address"
        },
        {
          "internalType": "contract IStrategy",
          "name": "strategy",
          "type": "address"
        },
        {
          "internalType": "uint256",
          "name": "shares",
          "type": "uint256"
        }
      ],
      "name": "increaseDelegatedShares",
      "outputs": [],
      "stateMutability": "nonpayable",
      "type": "function"
    },
    {
      "inputs": [
        {
          "internalType": "address",
          "name": "initialOwner",
          "type": "address"
        },
        {
          "internalType": "contract IPauserRegistry",
          "name": "_pauserRegistry",
          "type": "address"
        },
        {
          "internalType": "uint256",
          "name": "initialPausedStatus",
          "type": "uint256"
        },
        {
          "internalType": "uint256",
          "name": "_minWithdrawalDelayBlocks",
          "type": "uint256"
        },
        {
          "internalType": "contract IStrategy[]",
          "name": "_strategies",
          "type": "address[]"
        },
        {
          "internalType": "uint256[]",
          "name": "_withdrawalDelayBlocks",
          "type": "uint256[]"
        }
      ],
      "name": "initialize",
      "outputs": [],
      "stateMutability": "nonpayable",
      "type": "function"
    },
    {
      "inputs": [
        {
          "internalType": "address",
          "name": "staker",
          "type": "address"
        }
      ],
      "name": "isDelegated",
      "outputs": [
        {
          "internalType": "bool",
          "name": "",
          "type": "bool"
        }
      ],
      "stateMutability": "view",
      "type": "function"
    },
    {
      "inputs": [
        {
          "internalType": "address",
          "name": "operator",
          "type": "address"
        }
      ],
      "name": "isOperator",
      "outputs": [
        {
          "internalType": "bool",
          "name": "",
          "type": "bool"
        }
      ],
      "stateMutability": "view",
      "type": "function"
    },
    {
      "inputs": [
        {
          "components": [
            {
              "internalType": "contract IStrategy[]",
              "name": "strategies",
              "type": "address[]"
            },
            {
              "internalType": "uint256[]",
              "name": "shares",
              "type": "uint256[]"
            },
            {
              "internalType": "address",
              "name": "staker",
              "type": "address"
            },
            {
              "components": [
                {
                  "internalType": "address",
                  "name": "withdrawer",
                  "type": "address"
                },
                {
                  "internalType": "uint96",
                  "name": "nonce",
                  "type": "uint96"
                }
              ],
              "internalType": "struct IStrategyManager.DeprecatedStruct_WithdrawerAndNonce",
              "name": "withdrawerAndNonce",
              "type": "tuple"
            },
            {
              "internalType": "uint32",
              "name": "withdrawalStartBlock",
              "type": "uint32"
            },
            {
              "internalType": "address",
              "name": "delegatedAddress",
              "type": "address"
            }
          ],
          "internalType": "struct IStrategyManager.DeprecatedStruct_QueuedWithdrawal[]",
          "name": "withdrawalsToMigrate",
          "type": "tuple[]"
        }
      ],
      "name": "migrateQueuedWithdrawals",
      "outputs": [],
      "stateMutability": "nonpayable",
      "type": "function"
    },
    {
      "inputs": [],
      "name": "minWithdrawalDelayBlocks",
      "outputs": [
        {
          "internalType": "uint256",
          "name": "",
          "type": "uint256"
        }
      ],
      "stateMutability": "view",
      "type": "function"
    },
    {
      "inputs": [
        {
          "components": [
            {
              "internalType": "address",
              "name": "earningsReceiver",
              "type": "address"
            },
            {
              "internalType": "address",
              "name": "delegationApprover",
              "type": "address"
            },
            {
              "internalType": "uint32",
              "name": "stakerOptOutWindowBlocks",
              "type": "uint32"
            }
          ],
          "internalType": "struct IDelegationManager.OperatorDetails",
          "name": "newOperatorDetails",
          "type": "tuple"
        }
      ],
      "name": "modifyOperatorDetails",
      "outputs": [],
      "stateMutability": "nonpayable",
      "type": "function"
    },
    {
      "inputs": [
        {
          "internalType": "address",
          "name": "operator",
          "type": "address"
        }
      ],
      "name": "operatorDetails",
      "outputs": [
        {
          "components": [
            {
              "internalType": "address",
              "name": "earningsReceiver",
              "type": "address"
            },
            {
              "internalType": "address",
              "name": "delegationApprover",
              "type": "address"
            },
            {
              "internalType": "uint32",
              "name": "stakerOptOutWindowBlocks",
              "type": "uint32"
            }
          ],
          "internalType": "struct IDelegationManager.OperatorDetails",
          "name": "",
          "type": "tuple"
        }
      ],
      "stateMutability": "view",
      "type": "function"
    },
    {
      "inputs": [
        {
          "internalType": "address",
          "name": "",
          "type": "address"
        },
        {
          "internalType": "contract IStrategy",
          "name": "",
          "type": "address"
        }
      ],
      "name": "operatorShares",
      "outputs": [
        {
          "internalType": "uint256",
          "name": "",
          "type": "uint256"
        }
      ],
      "stateMutability": "view",
      "type": "function"
    },
    {
      "inputs": [],
      "name": "owner",
      "outputs": [
        {
          "internalType": "address",
          "name": "",
          "type": "address"
        }
      ],
      "stateMutability": "view",
      "type": "function"
    },
    {
      "inputs": [
        {
          "internalType": "uint256",
          "name": "newPausedStatus",
          "type": "uint256"
        }
      ],
      "name": "pause",
      "outputs": [],
      "stateMutability": "nonpayable",
      "type": "function"
    },
    {
      "inputs": [],
      "name": "pauseAll",
      "outputs": [],
      "stateMutability": "nonpayable",
      "type": "function"
    },
    {
      "inputs": [
        {
          "internalType": "uint8",
          "name": "index",
          "type": "uint8"
        }
      ],
      "name": "paused",
      "outputs": [
        {
          "internalType": "bool",
          "name": "",
          "type": "bool"
        }
      ],
      "stateMutability": "view",
      "type": "function"
    },
    {
      "inputs": [],
      "name": "paused",
      "outputs": [
        {
          "internalType": "uint256",
          "name": "",
          "type": "uint256"
        }
      ],
      "stateMutability": "view",
      "type": "function"
    },
    {
      "inputs": [],
      "name": "pauserRegistry",
      "outputs": [
        {
          "internalType": "contract IPauserRegistry",
          "name": "",
          "type": "address"
        }
      ],
      "stateMutability": "view",
      "type": "function"
    },
    {
      "inputs": [
        {
          "internalType": "bytes32",
          "name": "",
          "type": "bytes32"
        }
      ],
      "name": "pendingWithdrawals",
      "outputs": [
        {
          "internalType": "bool",
          "name": "",
          "type": "bool"
        }
      ],
      "stateMutability": "view",
      "type": "function"
    },
    {
      "inputs": [
        {
          "components": [
            {
              "internalType": "contract IStrategy[]",
              "name": "strategies",
              "type": "address[]"
            },
            {
              "internalType": "uint256[]",
              "name": "shares",
              "type": "uint256[]"
            },
            {
              "internalType": "address",
              "name": "withdrawer",
              "type": "address"
            }
          ],
          "internalType": "struct IDelegationManager.QueuedWithdrawalParams[]",
          "name": "queuedWithdrawalParams",
          "type": "tuple[]"
        }
      ],
      "name": "queueWithdrawals",
      "outputs": [
        {
          "internalType": "bytes32[]",
          "name": "",
          "type": "bytes32[]"
        }
      ],
      "stateMutability": "nonpayable",
      "type": "function"
    },
    {
      "inputs": [
        {
          "components": [
            {
              "internalType": "address",
              "name": "earningsReceiver",
              "type": "address"
            },
            {
              "internalType": "address",
              "name": "delegationApprover",
              "type": "address"
            },
            {
              "internalType": "uint32",
              "name": "stakerOptOutWindowBlocks",
              "type": "uint32"
            }
          ],
          "internalType": "struct IDelegationManager.OperatorDetails",
          "name": "registeringOperatorDetails",
          "type": "tuple"
        },
        {
          "internalType": "string",
          "name": "metadataURI",
          "type": "string"
        }
      ],
      "name": "registerAsOperator",
      "outputs": [],
      "stateMutability": "nonpayable",
      "type": "function"
    },
    {
      "inputs": [],
      "name": "renounceOwnership",
      "outputs": [],
      "stateMutability": "nonpayable",
      "type": "function"
    },
    {
      "inputs": [
        {
          "internalType": "contract IPauserRegistry",
          "name": "newPauserRegistry",
          "type": "address"
        }
      ],
      "name": "setPauserRegistry",
      "outputs": [],
      "stateMutability": "nonpayable",
      "type": "function"
    },
    {
      "inputs": [
        {
          "internalType": "contract IStrategy[]",
          "name": "strategies",
          "type": "address[]"
        },
        {
          "internalType": "uint256[]",
          "name": "withdrawalDelayBlocks",
          "type": "uint256[]"
        }
      ],
      "name": "setStrategyWithdrawalDelayBlocks",
      "outputs": [],
      "stateMutability": "nonpayable",
      "type": "function"
    },
    {
      "inputs": [],
      "name": "slasher",
      "outputs": [
        {
          "internalType": "contract ISlasher",
          "name": "",
          "type": "address"
        }
      ],
      "stateMutability": "view",
      "type": "function"
    },
    {
      "inputs": [
        {
          "internalType": "address",
          "name": "",
          "type": "address"
        }
      ],
      "name": "stakerNonce",
      "outputs": [
        {
          "internalType": "uint256",
          "name": "",
          "type": "uint256"
        }
      ],
      "stateMutability": "view",
      "type": "function"
    },
    {
      "inputs": [
        {
          "internalType": "address",
          "name": "operator",
          "type": "address"
        }
      ],
      "name": "stakerOptOutWindowBlocks",
      "outputs": [
        {
          "internalType": "uint256",
          "name": "",
          "type": "uint256"
        }
      ],
      "stateMutability": "view",
      "type": "function"
    },
    {
      "inputs": [],
      "name": "strategyManager",
      "outputs": [
        {
          "internalType": "contract IStrategyManager",
          "name": "",
          "type": "address"
        }
      ],
      "stateMutability": "view",
      "type": "function"
    },
    {
      "inputs": [
        {
          "internalType": "contract IStrategy",
          "name": "",
          "type": "address"
        }
      ],
      "name": "strategyWithdrawalDelayBlocks",
      "outputs": [
        {
          "internalType": "uint256",
          "name": "",
          "type": "uint256"
        }
      ],
      "stateMutability": "view",
      "type": "function"
    },
    {
      "inputs": [
        {
          "internalType": "address",
          "name": "newOwner",
          "type": "address"
        }
      ],
      "name": "transferOwnership",
      "outputs": [],
      "stateMutability": "nonpayable",
      "type": "function"
    },
    {
      "inputs": [
        {
          "internalType": "address",
          "name": "staker",
          "type": "address"
        }
      ],
      "name": "undelegate",
      "outputs": [
        {
          "internalType": "bytes32[]",
          "name": "withdrawalRoots",
          "type": "bytes32[]"
        }
      ],
      "stateMutability": "nonpayable",
      "type": "function"
    },
    {
      "inputs": [
        {
          "internalType": "uint256",
          "name": "newPausedStatus",
          "type": "uint256"
        }
      ],
      "name": "unpause",
      "outputs": [],
      "stateMutability": "nonpayable",
      "type": "function"
    },
    {
      "inputs": [
        {
          "internalType": "string",
          "name": "metadataURI",
          "type": "string"
        }
      ],
      "name": "updateOperatorMetadataURI",
      "outputs": [],
      "stateMutability": "nonpayable",
      "type": "function"
    }
  ],
  "bytecode": {
    "object": "0x6101006040523480156200001257600080fd5b506040516200616138038062006161833981016040819052620000359162000140565b6001600160a01b0380841660805280821660c052821660a0526200005862000065565b50504660e0525062000194565b600054610100900460ff1615620000d25760405162461bcd60e51b815260206004820152602760248201527f496e697469616c697a61626c653a20636f6e747261637420697320696e697469604482015266616c697a696e6760c81b606482015260840160405180910390fd5b60005460ff908116101562000125576000805460ff191660ff9081179091556040519081527f7f26b83ff96e1f2b6a682f133852f6798a09c465da95921460cefb38474024989060200160405180910390a15b565b6001600160a01b03811681146200013d57600080fd5b50565b6000806000606084860312156200015657600080fd5b8351620001638162000127565b6020850151909350620001768162000127565b6040850151909250620001898162000127565b809150509250925092565b60805160a05160c05160e051615f3162000230600039600061274d0152600081816105cc015281816110930152818161140f01528181611de101528181612aa6015281816141190152614605015260006107a901526000818161051401528181611061015281816113dd0152818161170501528181611e7501528181612b7301528181612cf60152818161423f01526146ab0152615f316000f3fe608060405234801561001057600080fd5b506004361061035d5760003560e01c80635f966f14116101d3578063b7f06ebe11610104578063cf80873e116100a2578063f16172b01161007c578063f16172b01461094f578063f2fde38b14610962578063f698da2514610975578063fabc1cbc1461097d57600080fd5b8063cf80873e14610908578063da8be86414610929578063eea9064b1461093c57600080fd5b8063c488375a116100de578063c488375a14610825578063c5e480db14610845578063c94b5111146108eb578063ca661c04146108fe57600080fd5b8063b7f06ebe146107cb578063bb45fef2146107ee578063c448feb81461081c57600080fd5b8063886f1195116101715780639104c3191161014b5780639104c3191461075657806399be81c814610771578063a178848414610784578063b1344271146107a457600080fd5b8063886f1195146107125780638da5cb5b14610725578063900413471461073657600080fd5b80636d70f7ae116101ad5780636d70f7ae146106b9578063715018a6146106cc578063778e55f3146106d45780637f548071146106ff57600080fd5b80635f966f141461065157806360d7faed1461067d57806365da12641461069057600080fd5b806328a573ae116102ad5780634665bcda1161024b578063597b36da11610225578063597b36da146106005780635ac86ab7146106135780635c975abb146106365780635cfe8d2c1461063e57600080fd5b80634665bcda146105c75780634fc40b61146105ee578063595c6a67146105f857600080fd5b806339b70e381161028757806339b70e381461050f5780633cdeb5e01461054e5780633e28391d1461057d57806343377382146105a057600080fd5b806328a573ae146104c957806329c77d4f146104dc57806333404396146104fc57600080fd5b8063132d49671161031a57806316928365116102f457806316928365146104435780631bbce0911461047c57806320606b701461048f57806322bf40e4146104b657600080fd5b8063132d49671461040a578063136439dd1461041d5780631522bf021461043057600080fd5b80630449ca391461036257806304a4f979146103885780630b9f487a146103af5780630dd8dd02146103c25780630f589e59146103e257806310d67a2f146103f7575b600080fd5b610375610370366004614abb565b610990565b6040519081526020015b60405180910390f35b6103757f3b89fca151cbe5122d58acee86cf184413d751d585779bdd19d3bbfa3a306dce81565b6103756103bd366004614b21565b610a15565b6103d56103d0366004614abb565b610ad7565b60405161037f9190614b7c565b6103f56103f0366004614c19565b610e53565b005b6103f5610405366004614c6c565b610fa3565b6103f5610418366004614c90565b611056565b6103f561042b366004614cd1565b61110d565b6103f561043e366004614cea565b61124c565b610375610451366004614c6c565b6001600160a01b0316600090815260996020526040902060010154600160a01b900463ffffffff1690565b61037561048a366004614c90565b611260565b6103757f8cad95687ba82c2ce50e74f7b754645e5117c3a5bec8151c0726d5857980a86681565b6103f56104c4366004614d55565b61128e565b6103f56104d7366004614c90565b6113d2565b6103756104ea366004614c6c565b609b6020526000908152604090205481565b6103f561050a366004614dfc565b611482565b6105367f000000000000000000000000000000000000000000000000000000000000000081565b6040516001600160a01b03909116815260200161037f565b61053661055c366004614c6c565b6001600160a01b039081166000908152609960205260409020600101541690565b61059061058b366004614c6c565b6115bf565b604051901515815260200161037f565b6103757f39111bc4a4d688e1f685123d7497d4615370152a8ee4a0593e647bd06ad8bb0b81565b6105367f000000000000000000000000000000000000000000000000000000000000000081565b6103756213c68081565b6103f56115df565b61037561060e36600461511b565b6116a6565b610590610621366004615157565b606654600160ff9092169190911b9081161490565b606654610375565b6103f561064c3660046151cd565b6116d6565b61053661065f366004614c6c565b6001600160a01b039081166000908152609960205260409020541690565b6103f561068b36600461532d565b611981565b61053661069e366004614c6c565b609a602052600090815260409020546001600160a01b031681565b6105906106c7366004614c6c565b611a1c565b6103f5611a3c565b6103756106e23660046153bc565b609860209081526000928352604080842090915290825290205481565b6103f561070d36600461549d565b611a50565b606554610536906001600160a01b031681565b6033546001600160a01b0316610536565b61074961074436600461552d565b611b55565b60405161037f91906155b7565b61053673beac0eeeeeeeeeeeeeeeeeeeeeeeeeeeeeebeac081565b6103f561077f3660046155ca565b611c2f565b610375610792366004614c6c565b609f6020526000908152604090205481565b6105367f000000000000000000000000000000000000000000000000000000000000000081565b6105906107d9366004614cd1565b609e6020526000908152604090205460ff1681565b6105906107fc3660046155ff565b609c60209081526000928352604080842090915290825290205460ff1681565b610375609d5481565b610375610833366004614c6c565b60a16020526000908152604090205481565b6108b5610853366004614c6c565b6040805160608082018352600080835260208084018290529284018190526001600160a01b03948516815260998352839020835191820184528054851682526001015493841691810191909152600160a01b90920463ffffffff169082015290565b6040805182516001600160a01b039081168252602080850151909116908201529181015163ffffffff169082015260600161037f565b6103756108f936600461562b565b611d01565b61037562034bc081565b61091b610916366004614c6c565b611dba565b60405161037f9291906156ac565b6103d5610937366004614c6c565b612172565b6103f561094a3660046156d1565b612636565b6103f561095d366004615729565b612642565b6103f5610970366004614c6c565b6126d3565b610375612749565b6103f561098b366004614cd1565b612787565b609d54600090815b83811015610a0d57600060a160008787858181106109b8576109b8615745565b90506020020160208101906109cd9190614c6c565b6001600160a01b03166001600160a01b03168152602001908152602001600020549050828111156109fc578092505b50610a0681615771565b9050610998565b509392505050565b604080517f3b89fca151cbe5122d58acee86cf184413d751d585779bdd19d3bbfa3a306dce6020808301919091526001600160a01b038681168385015288811660608401528716608083015260a0820185905260c08083018590528351808403909101815260e0909201909252805191012060009081610a93612749565b60405161190160f01b602082015260228101919091526042810183905260620160408051808303601f19018152919052805160209091012098975050505050505050565b60665460609060019060029081161415610b0c5760405162461bcd60e51b8152600401610b039061578c565b60405180910390fd5b6000836001600160401b03811115610b2657610b26614e9e565b604051908082528060200260200182016040528015610b4f578160200160208202803683370190505b50336000908152609a60205260408120549192506001600160a01b03909116905b85811015610e4857868682818110610b8a57610b8a615745565b9050602002810190610b9c91906157c3565b610baa9060208101906157e3565b9050878783818110610bbe57610bbe615745565b9050602002810190610bd091906157c3565b610bda90806157e3565b905014610c4f5760405162461bcd60e51b815260206004820152603860248201527f44656c65676174696f6e4d616e616765722e717565756557697468647261776160448201527f6c3a20696e707574206c656e677468206d69736d6174636800000000000000006064820152608401610b03565b6000878783818110610c6357610c63615745565b9050602002810190610c7591906157c3565b610c86906060810190604001614c6c565b6001600160a01b03161415610d145760405162461bcd60e51b815260206004820152604860248201527f44656c65676174696f6e4d616e616765722e717565756557697468647261776160448201527f6c3a206d7573742070726f766964652076616c6964207769746864726177616c606482015267206164647265737360c01b608482015260a401610b03565b610e193383898985818110610d2b57610d2b615745565b9050602002810190610d3d91906157c3565b610d4e906060810190604001614c6c565b8a8a86818110610d6057610d60615745565b9050602002810190610d7291906157c3565b610d7c90806157e3565b808060200260200160405190810160405280939291908181526020018383602002808284376000920191909152508e92508d9150889050818110610dc257610dc2615745565b9050602002810190610dd491906157c3565b610de29060208101906157e3565b808060200260200160405190810160405280939291908181526020018383602002808284376000920191909152506128e392505050565b838281518110610e2b57610e2b615745565b602090810291909101015280610e4081615771565b915050610b70565b509095945050505050565b336000908152609960205260409020546001600160a01b031615610eed5760405162461bcd60e51b815260206004820152604560248201527f44656c65676174696f6e4d616e616765722e726567697374657241734f70657260448201527f61746f723a206f70657261746f722068617320616c72656164792072656769736064820152641d195c995960da1b608482015260a401610b03565b610ef73384612ea3565b604080518082019091526060815260006020820152610f19338083600061313f565b336001600160a01b03167f8e8485583a2310d41f7c82b9427d0bd49bad74bb9cff9d3402a29d8f9b28a0e285604051610f52919061582c565b60405180910390a2336001600160a01b03167f02a919ed0e2acad1dd90f17ef2fa4ae5462ee1339170034a8531cca4b67080908484604051610f9592919061587e565b60405180910390a250505050565b606560009054906101000a90046001600160a01b03166001600160a01b031663eab66d7a6040518163ffffffff1660e01b8152600401602060405180830381865afa158015610ff6573d6000803e3d6000fd5b505050506040513d601f19601f8201168201806040525081019061101a91906158ad565b6001600160a01b0316336001600160a01b03161461104a5760405162461bcd60e51b8152600401610b03906158ca565b611053816134e4565b50565b336001600160a01b037f00000000000000000000000000000000000000000000000000000000000000001614806110b55750336001600160a01b037f000000000000000000000000000000000000000000000000000000000000000016145b6110d15760405162461bcd60e51b8152600401610b0390615914565b6110da836115bf565b15611108576001600160a01b038084166000908152609a602052604090205416611106818585856135db565b505b505050565b60655460405163237dfb4760e11b81523360048201526001600160a01b03909116906346fbf68e90602401602060405180830381865afa158015611155573d6000803e3d6000fd5b505050506040513d601f19601f820116820180604052508101906111799190615971565b6111955760405162461bcd60e51b8152600401610b039061598e565b6066548181161461120e5760405162461bcd60e51b815260206004820152603860248201527f5061757361626c652e70617573653a20696e76616c696420617474656d70742060448201527f746f20756e70617573652066756e6374696f6e616c69747900000000000000006064820152608401610b03565b606681905560405181815233907fab40a374bc51de372200a8bc981af8c9ecdc08dfdaef0bb6e09f88f3c616ef3d906020015b60405180910390a250565b611254613656565b611106848484846136b0565b6001600160a01b0383166000908152609b602052604081205461128585828686611d01565b95945050505050565b600054610100900460ff16158080156112ae5750600054600160ff909116105b806112c85750303b1580156112c8575060005460ff166001145b61132b5760405162461bcd60e51b815260206004820152602e60248201527f496e697469616c697a61626c653a20636f6e747261637420697320616c72656160448201526d191e481a5b9a5d1a585b1a5e995960921b6064820152608401610b03565b6000805460ff19166001179055801561134e576000805461ff0019166101001790555b61135888886138d6565b6113606139bc565b60975561136c89613a53565b61137586613aa5565b611381858585856136b0565b80156113c7576000805461ff0019169055604051600181527f7f26b83ff96e1f2b6a682f133852f6798a09c465da95921460cefb38474024989060200160405180910390a15b505050505050505050565b336001600160a01b037f00000000000000000000000000000000000000000000000000000000000000001614806114315750336001600160a01b037f000000000000000000000000000000000000000000000000000000000000000016145b61144d5760405162461bcd60e51b8152600401610b0390615914565b611456836115bf565b15611108576001600160a01b038084166000908152609a60205260409020541661110681858585613bab565b606654600290600490811614156114ab5760405162461bcd60e51b8152600401610b039061578c565b600260c95414156114fe5760405162461bcd60e51b815260206004820152601f60248201527f5265656e7472616e637947756172643a207265656e7472616e742063616c6c006044820152606401610b03565b600260c95560005b888110156115ae5761159e8a8a8381811061152357611523615745565b905060200281019061153591906159d6565b89898481811061154757611547615745565b905060200281019061155991906157e3565b89898681811061156b5761156b615745565b9050602002013588888781811061158457611584615745565b905060200201602081019061159991906159ec565b613c26565b6115a781615771565b9050611506565b5050600160c9555050505050505050565b6001600160a01b039081166000908152609a602052604090205416151590565b60655460405163237dfb4760e11b81523360048201526001600160a01b03909116906346fbf68e90602401602060405180830381865afa158015611627573d6000803e3d6000fd5b505050506040513d601f19601f8201168201806040525081019061164b9190615971565b6116675760405162461bcd60e51b8152600401610b039061598e565b600019606681905560405190815233907fab40a374bc51de372200a8bc981af8c9ecdc08dfdaef0bb6e09f88f3c616ef3d9060200160405180910390a2565b6000816040516020016116b99190615a7d565b604051602081830303815290604052805190602001209050919050565b60005b815181101561197d5760008282815181106116f6576116f6615745565b602002602001015190506000807f00000000000000000000000000000000000000000000000000000000000000006001600160a01b031663cd293f6f846040518263ffffffff1660e01b815260040161174f9190615a90565b60408051808303816000875af115801561176d573d6000803e3d6000fd5b505050506040513d601f19601f820116820180604052508101906117919190615b3c565b91509150811561196f576040808401516001600160a01b0381166000908152609f602052918220805491928291906117c883615771565b919050555060006040518060e00160405280846001600160a01b031681526020018760a001516001600160a01b031681526020018760600151600001516001600160a01b03168152602001838152602001876080015163ffffffff16815260200187600001518152602001876020015181525090506000611848826116a6565b6000818152609e602052604090205490915060ff16156118de5760405162461bcd60e51b815260206004820152604560248201527f44656c65676174696f6e4d616e616765722e6d6967726174655175657565645760448201527f69746864726177616c733a207769746864726177616c20616c72656164792065606482015264786973747360d81b608482015260a401610b03565b6000818152609e602052604090819020805460ff19166001179055517f9009ab153e8014fbfb02f2217f5cde7aa7f9ad734ae85ca3ee3f4ca2fdd499f9906119299083908590615b6a565b60405180910390a160408051868152602081018390527fdc00758b65eef71dc3780c04ebe36cab6bdb266c3a698187e29e0f0dca012630910160405180910390a1505050505b8360010193505050506116d9565b5050565b606654600290600490811614156119aa5760405162461bcd60e51b8152600401610b039061578c565b600260c95414156119fd5760405162461bcd60e51b815260206004820152601f60248201527f5265656e7472616e637947756172643a207265656e7472616e742063616c6c006044820152606401610b03565b600260c955611a0f8686868686613c26565b5050600160c95550505050565b6001600160a01b0390811660009081526099602052604090205416151590565b611a44613656565b611a4e6000613a53565b565b4283602001511015611ad45760405162461bcd60e51b815260206004820152604160248201527f44656c65676174696f6e4d616e616765722e64656c6567617465546f4279536960448201527f676e61747572653a207374616b6572207369676e6174757265206578706972656064820152601960fa1b608482015260a401610b03565b6000609b6000876001600160a01b03166001600160a01b031681526020019081526020016000205490506000611b108783888860200151611d01565b6001600160a01b0388166000908152609b602052604090206001840190558551909150611b409088908390614410565b611b4c8787868661313f565b50505050505050565b6060600082516001600160401b03811115611b7257611b72614e9e565b604051908082528060200260200182016040528015611b9b578160200160208202803683370190505b50905060005b8351811015610a0d576001600160a01b03851660009081526098602052604081208551909190869084908110611bd957611bd9615745565b60200260200101516001600160a01b03166001600160a01b0316815260200190815260200160002054828281518110611c1457611c14615745565b6020908102919091010152611c2881615771565b9050611ba1565b611c3833611a1c565b611cba5760405162461bcd60e51b815260206004820152604760248201527f44656c65676174696f6e4d616e616765722e7570646174654f70657261746f7260448201527f4d657461646174615552493a2063616c6c6572206d75737420626520616e206f6064820152663832b930ba37b960c91b608482015260a401610b03565b336001600160a01b03167f02a919ed0e2acad1dd90f17ef2fa4ae5462ee1339170034a8531cca4b67080908383604051611cf592919061587e565b60405180910390a25050565b604080517f39111bc4a4d688e1f685123d7497d4615370152a8ee4a0593e647bd06ad8bb0b6020808301919091526001600160a01b0387811683850152851660608301526080820186905260a08083018590528351808403909101815260c0909201909252805191012060009081611d77612749565b60405161190160f01b602082015260228101919091526042810183905260620160408051808303601f190181529190528051602090910120979650505050505050565b6040516360f4062b60e01b81526001600160a01b03828116600483015260609182916000917f0000000000000000000000000000000000000000000000000000000000000000909116906360f4062b90602401602060405180830381865afa158015611e2a573d6000803e3d6000fd5b505050506040513d601f19601f82011682018060405250810190611e4e9190615b83565b6040516394f649dd60e01b81526001600160a01b03868116600483015291925060009182917f0000000000000000000000000000000000000000000000000000000000000000909116906394f649dd90602401600060405180830381865afa158015611ebe573d6000803e3d6000fd5b505050506040513d6000823e601f3d908101601f19168201604052611ee69190810190615bf7565b9150915060008313611efd57909590945092505050565b606080835160001415611fb7576040805160018082528183019092529060208083019080368337505060408051600180825281830190925292945090506020808301908036833701905050905073beac0eeeeeeeeeeeeeeeeeeeeeeeeeeeeeebeac082600081518110611f7257611f72615745565b60200260200101906001600160a01b031690816001600160a01b0316815250508481600081518110611fa657611fa6615745565b602002602001018181525050612165565b8351611fc4906001615cb1565b6001600160401b03811115611fdb57611fdb614e9e565b604051908082528060200260200182016040528015612004578160200160208202803683370190505b50915081516001600160401b0381111561202057612020614e9e565b604051908082528060200260200182016040528015612049578160200160208202803683370190505b50905060005b84518110156120e35784818151811061206a5761206a615745565b602002602001015183828151811061208457612084615745565b60200260200101906001600160a01b031690816001600160a01b0316815250508381815181106120b6576120b6615745565b60200260200101518282815181106120d0576120d0615745565b602090810291909101015260010161204f565b5073beac0eeeeeeeeeeeeeeeeeeeeeeeeeeeeeebeac082600184516121089190615cc9565b8151811061211857612118615745565b60200260200101906001600160a01b031690816001600160a01b0316815250508481600184516121489190615cc9565b8151811061215857612158615745565b6020026020010181815250505b9097909650945050505050565b6066546060906001906002908116141561219e5760405162461bcd60e51b8152600401610b039061578c565b6121a7836115bf565b6122275760405162461bcd60e51b8152602060048201526044602482018190527f44656c65676174696f6e4d616e616765722e756e64656c65676174653a207374908201527f616b6572206d7573742062652064656c65676174656420746f20756e64656c656064820152636761746560e01b608482015260a401610b03565b61223083611a1c565b156122a35760405162461bcd60e51b815260206004820152603d60248201527f44656c65676174696f6e4d616e616765722e756e64656c65676174653a206f7060448201527f657261746f72732063616e6e6f7420626520756e64656c6567617465640000006064820152608401610b03565b6001600160a01b03831661231f5760405162461bcd60e51b815260206004820152603c60248201527f44656c65676174696f6e4d616e616765722e756e64656c65676174653a20636160448201527f6e6e6f7420756e64656c6567617465207a65726f2061646472657373000000006064820152608401610b03565b6001600160a01b038084166000818152609a6020526040902054909116903314806123525750336001600160a01b038216145b8061237957506001600160a01b038181166000908152609960205260409020600101541633145b6123eb5760405162461bcd60e51b815260206004820152603d60248201527f44656c65676174696f6e4d616e616765722e756e64656c65676174653a20636160448201527f6c6c65722063616e6e6f7420756e64656c6567617465207374616b65720000006064820152608401610b03565b6000806123f786611dba565b9092509050336001600160a01b0387161461244d57826001600160a01b0316866001600160a01b03167ff0eddf07e6ea14f388b47e1e94a0f464ecbd9eed4171130e0fc0e99fb4030a8a60405160405180910390a35b826001600160a01b0316866001600160a01b03167ffee30966a256b71e14bc0ebfc94315e28ef4a97a7131a9e2b7a310a73af4467660405160405180910390a36001600160a01b0386166000908152609a6020526040902080546001600160a01b031916905581516124cf57604080516000815260208101909152945061262d565b81516001600160401b038111156124e8576124e8614e9e565b604051908082528060200260200182016040528015612511578160200160208202803683370190505b50945060005b825181101561262b5760408051600180825281830190925260009160208083019080368337505060408051600180825281830190925292935060009291506020808301908036833701905050905084838151811061257757612577615745565b60200260200101518260008151811061259257612592615745565b60200260200101906001600160a01b031690816001600160a01b0316815250508383815181106125c4576125c4615745565b6020026020010151816000815181106125df576125df615745565b6020026020010181815250506125f889878b85856128e3565b88848151811061260a5761260a615745565b6020026020010181815250505050808061262390615771565b915050612517565b505b50505050919050565b6111083384848461313f565b61264b33611a1c565b6126c95760405162461bcd60e51b815260206004820152604360248201527f44656c65676174696f6e4d616e616765722e6d6f646966794f70657261746f7260448201527f44657461696c733a2063616c6c6572206d75737420626520616e206f706572616064820152623a37b960e91b608482015260a401610b03565b6110533382612ea3565b6126db613656565b6001600160a01b0381166127405760405162461bcd60e51b815260206004820152602660248201527f4f776e61626c653a206e6577206f776e657220697320746865207a65726f206160448201526564647265737360d01b6064820152608401610b03565b61105381613a53565b60007f000000000000000000000000000000000000000000000000000000000000000046141561277a575060975490565b6127826139bc565b905090565b606560009054906101000a90046001600160a01b03166001600160a01b031663eab66d7a6040518163ffffffff1660e01b8152600401602060405180830381865afa1580156127da573d6000803e3d6000fd5b505050506040513d601f19601f820116820180604052508101906127fe91906158ad565b6001600160a01b0316336001600160a01b03161461282e5760405162461bcd60e51b8152600401610b03906158ca565b6066541981196066541916146128ac5760405162461bcd60e51b815260206004820152603860248201527f5061757361626c652e756e70617573653a20696e76616c696420617474656d7060448201527f7420746f2070617573652066756e6374696f6e616c69747900000000000000006064820152608401610b03565b606681905560405181815233907f3582d1828e26bf56bd801502bc021ac0bc8afb57c826e4986b45593c8fad389c90602001611241565b60006001600160a01b03861661297a5760405162461bcd60e51b815260206004820152605060248201527f44656c65676174696f6e4d616e616765722e5f72656d6f76655368617265734160448201527f6e6451756575655769746864726177616c3a207374616b65722063616e6e6f7460648201526f206265207a65726f206164647265737360801b608482015260a401610b03565b8251612a045760405162461bcd60e51b815260206004820152604d60248201527f44656c65676174696f6e4d616e616765722e5f72656d6f76655368617265734160448201527f6e6451756575655769746864726177616c3a207374726174656769657320636160648201526c6e6e6f7420626520656d70747960981b608482015260a401610b03565b60005b8351811015612db1576001600160a01b03861615612a5d57612a5d8688868481518110612a3657612a36615745565b6020026020010151868581518110612a5057612a50615745565b60200260200101516135db565b73beac0eeeeeeeeeeeeeeeeeeeeeeeeeeeeeebeac06001600160a01b0316848281518110612a8d57612a8d615745565b60200260200101516001600160a01b03161415612b56577f00000000000000000000000000000000000000000000000000000000000000006001600160a01b031663beffbb8988858481518110612ae657612ae6615745565b60200260200101516040518363ffffffff1660e01b8152600401612b1f9291906001600160a01b03929092168252602082015260400190565b600060405180830381600087803b158015612b3957600080fd5b505af1158015612b4d573d6000803e3d6000fd5b50505050612da9565b846001600160a01b0316876001600160a01b03161480612c2857507f00000000000000000000000000000000000000000000000000000000000000006001600160a01b0316639b4da03d858381518110612bb257612bb2615745565b60200260200101516040518263ffffffff1660e01b8152600401612be591906001600160a01b0391909116815260200190565b602060405180830381865afa158015612c02573d6000803e3d6000fd5b505050506040513d601f19601f82011682018060405250810190612c269190615971565b155b612cf45760405162461bcd60e51b8152602060048201526084602482018190527f44656c65676174696f6e4d616e616765722e5f72656d6f76655368617265734160448301527f6e6451756575655769746864726177616c3a2077697468647261776572206d7560648301527f73742062652073616d652061646472657373206173207374616b657220696620908201527f746869726450617274795472616e7366657273466f7262696464656e2061726560a482015263081cd95d60e21b60c482015260e401610b03565b7f00000000000000000000000000000000000000000000000000000000000000006001600160a01b0316638c80d4e588868481518110612d3657612d36615745565b6020026020010151868581518110612d5057612d50615745565b60200260200101516040518463ffffffff1660e01b8152600401612d7693929190615ce0565b600060405180830381600087803b158015612d9057600080fd5b505af1158015612da4573d6000803e3d6000fd5b505050505b600101612a07565b506001600160a01b0386166000908152609f60205260408120805491829190612dd983615771565b919050555060006040518060e00160405280896001600160a01b03168152602001886001600160a01b03168152602001876001600160a01b031681526020018381526020014363ffffffff1681526020018681526020018581525090506000612e41826116a6565b6000818152609e602052604090819020805460ff19166001179055519091507f9009ab153e8014fbfb02f2217f5cde7aa7f9ad734ae85ca3ee3f4ca2fdd499f990612e8f9083908590615b6a565b60405180910390a198975050505050505050565b6000612eb26020830183614c6c565b6001600160a01b03161415612f4c5760405162461bcd60e51b815260206004820152605460248201527f44656c65676174696f6e4d616e616765722e5f7365744f70657261746f72446560448201527f7461696c733a2063616e6e6f742073657420606561726e696e677352656365696064820152737665726020746f207a65726f206164647265737360601b608482015260a401610b03565b6213c680612f606060830160408401615d04565b63ffffffff1611156130155760405162461bcd60e51b815260206004820152606c60248201527f44656c65676174696f6e4d616e616765722e5f7365744f70657261746f72446560448201527f7461696c733a207374616b65724f70744f757457696e646f77426c6f636b732060648201527f63616e6e6f74206265203e204d41585f5354414b45525f4f50545f4f55545f5760848201526b494e444f575f424c4f434b5360a01b60a482015260c401610b03565b6001600160a01b0382166000908152609960205260409081902060010154600160a01b900463ffffffff16906130519060608401908401615d04565b63ffffffff1610156130e75760405162461bcd60e51b815260206004820152605360248201527f44656c65676174696f6e4d616e616765722e5f7365744f70657261746f72446560448201527f7461696c733a207374616b65724f70744f757457696e646f77426c6f636b732060648201527218d85b9b9bdd08189948191958dc99585cd959606a1b608482015260a401610b03565b6001600160a01b0382166000908152609960205260409020819061310b8282615d41565b505060405133907ffebe5cd24b2cbc7b065b9d0fdeb904461e4afcff57dd57acda1e7832031ba7ac90611cf590849061582c565b606654600090600190811614156131685760405162461bcd60e51b8152600401610b039061578c565b613171856115bf565b156131ee5760405162461bcd60e51b815260206004820152604160248201527f44656c65676174696f6e4d616e616765722e5f64656c65676174653a2073746160448201527f6b657220697320616c7265616479206163746976656c792064656c65676174656064820152601960fa1b608482015260a401610b03565b6131f784611a1c565b6132775760405162461bcd60e51b815260206004820152604560248201527f44656c65676174696f6e4d616e616765722e5f64656c65676174653a206f706560448201527f7261746f72206973206e6f74207265676973746572656420696e20456967656e6064820152642630bcb2b960d91b608482015260a401610b03565b6001600160a01b038085166000908152609960205260409020600101541680158015906132ad5750336001600160a01b03821614155b80156132c25750336001600160a01b03861614155b1561342f5742846020015110156133415760405162461bcd60e51b815260206004820152603760248201527f44656c65676174696f6e4d616e616765722e5f64656c65676174653a2061707060448201527f726f766572207369676e617475726520657870697265640000000000000000006064820152608401610b03565b6001600160a01b0381166000908152609c6020908152604080832086845290915290205460ff16156133db5760405162461bcd60e51b815260206004820152603760248201527f44656c65676174696f6e4d616e616765722e5f64656c65676174653a2061707060448201527f726f76657253616c7420616c7265616479207370656e740000000000000000006064820152608401610b03565b6001600160a01b0381166000908152609c6020908152604080832086845282528220805460ff1916600117905585015161341c908890889085908890610a15565b905061342d82828760000151614410565b505b6001600160a01b038681166000818152609a602052604080822080546001600160a01b031916948a169485179055517fc3ee9f2e5fda98e8066a1f745b2df9285f416fe98cf2559cd21484b3d87433049190a360008061348e88611dba565b9150915060005b82518110156113c7576134dc888a8584815181106134b5576134b5615745565b60200260200101518585815181106134cf576134cf615745565b6020026020010151613bab565b600101613495565b6001600160a01b0381166135725760405162461bcd60e51b815260206004820152604960248201527f5061757361626c652e5f73657450617573657252656769737472793a206e657760448201527f50617573657252656769737472792063616e6e6f7420626520746865207a65726064820152686f206164647265737360b81b608482015260a401610b03565b606554604080516001600160a01b03928316815291831660208301527f6e9fcd539896fca60e8b0f01dd580233e48a6b0f7df013b89ba7f565869acdb6910160405180910390a1606580546001600160a01b0319166001600160a01b0392909216919091179055565b6001600160a01b03808516600090815260986020908152604080832093861683529290529081208054839290613612908490615cc9565b92505081905550836001600160a01b03167f6909600037b75d7b4733aedd815442b5ec018a827751c832aaff64eba5d6d2dd848484604051610f9593929190615ce0565b6033546001600160a01b03163314611a4e5760405162461bcd60e51b815260206004820181905260248201527f4f776e61626c653a2063616c6c6572206973206e6f7420746865206f776e65726044820152606401610b03565b8281146137385760405162461bcd60e51b815260206004820152604a60248201527f44656c65676174696f6e4d616e616765722e5f7365745374726174656779576960448201527f746864726177616c44656c6179426c6f636b733a20696e707574206c656e67746064820152690d040dad2e6dac2e8c6d60b31b608482015260a401610b03565b8260005b818110156138ce57600086868381811061375857613758615745565b905060200201602081019061376d9190614c6c565b6001600160a01b038116600090815260a1602052604081205491925086868581811061379b5761379b615745565b90506020020135905062034bc081111561385f5760405162461bcd60e51b815260206004820152607360248201527f44656c65676174696f6e4d616e616765722e5f7365745374726174656779576960448201527f746864726177616c44656c6179426c6f636b733a205f7769746864726177616c60648201527f44656c6179426c6f636b732063616e6e6f74206265203e204d41585f5749544860848201527244524157414c5f44454c41595f424c4f434b5360681b60a482015260c401610b03565b6001600160a01b038316600081815260a160209081526040918290208490558151928352820184905281018290527f0e7efa738e8b0ce6376a0c1af471655540d2e9a81647d7b09ed823018426576d9060600160405180910390a1505050806138c790615771565b905061373c565b505050505050565b6065546001600160a01b03161580156138f757506001600160a01b03821615155b6139795760405162461bcd60e51b815260206004820152604760248201527f5061757361626c652e5f696e697469616c697a655061757365723a205f696e6960448201527f7469616c697a6550617573657228292063616e206f6e6c792062652063616c6c6064820152666564206f6e636560c81b608482015260a401610b03565b606681905560405181815233907fab40a374bc51de372200a8bc981af8c9ecdc08dfdaef0bb6e09f88f3c616ef3d9060200160405180910390a261197d826134e4565b604080518082018252600a81526922b4b3b2b72630bcb2b960b11b60209182015281517f8cad95687ba82c2ce50e74f7b754645e5117c3a5bec8151c0726d5857980a866818301527f71b625cfad44bac63b13dba07f2e1d6084ee04b6f8752101ece6126d584ee6ea81840152466060820152306080808301919091528351808303909101815260a0909101909252815191012090565b603380546001600160a01b038381166001600160a01b0319831681179093556040519116919082907f8be0079c531659141344cd1fd0a4f28419497f9722a3daafe3b4186f6b6457e090600090a35050565b62034bc0811115613b6a5760405162461bcd60e51b815260206004820152607860248201527f44656c65676174696f6e4d616e616765722e5f696e697469616c697a654d696e60448201527f5769746864726177616c44656c6179426c6f636b733a205f6d696e576974686460648201527f726177616c44656c6179426c6f636b732063616e6e6f74206265203e204d415860848201527f5f5749544844524157414c5f44454c41595f424c4f434b53000000000000000060a482015260c401610b03565b609d5460408051918252602082018390527fafa003cd76f87ff9d62b35beea889920f33c0c42b8d45b74954d61d50f4b6b69910160405180910390a1609d55565b6001600160a01b03808516600090815260986020908152604080832093861683529290529081208054839290613be2908490615cb1565b92505081905550836001600160a01b03167f1ec042c965e2edd7107b51188ee0f383e22e76179041ab3a9d18ff151405166c848484604051610f9593929190615ce0565b6000613c3461060e87615da4565b6000818152609e602052604090205490915060ff16613cb55760405162461bcd60e51b81526020600482015260436024820152600080516020615edc83398151915260448201527f645769746864726177616c3a20616374696f6e206973206e6f7420696e20717560648201526265756560e81b608482015260a401610b03565b609d544390613cca60a0890160808a01615d04565b63ffffffff16613cda9190615cb1565b1115613d625760405162461bcd60e51b815260206004820152605f6024820152600080516020615edc83398151915260448201527f645769746864726177616c3a206d696e5769746864726177616c44656c61794260648201527f6c6f636b7320706572696f6420686173206e6f74207965742070617373656400608482015260a401610b03565b613d726060870160408801614c6c565b6001600160a01b0316336001600160a01b031614613dff5760405162461bcd60e51b81526020600482015260506024820152600080516020615edc83398151915260448201527f645769746864726177616c3a206f6e6c7920776974686472617765722063616e60648201526f1031b7b6b83632ba329030b1ba34b7b760811b608482015260a401610b03565b8115613e8157613e1260a08701876157e3565b85149050613e815760405162461bcd60e51b81526020600482015260426024820152600080516020615edc83398151915260448201527f645769746864726177616c3a20696e707574206c656e677468206d69736d61746064820152610c6d60f31b608482015260a401610b03565b6000818152609e60205260409020805460ff191690558115613fe65760005b613ead60a08801886157e3565b9050811015613fe0574360a16000613ec860a08b018b6157e3565b85818110613ed857613ed8615745565b9050602002016020810190613eed9190614c6c565b6001600160a01b03168152602081019190915260400160002054613f1760a08a0160808b01615d04565b63ffffffff16613f279190615cb1565b1115613f455760405162461bcd60e51b8152600401610b0390615db6565b613fd8613f556020890189614c6c565b33613f6360a08b018b6157e3565b85818110613f7357613f73615745565b9050602002016020810190613f889190614c6c565b613f9560c08c018c6157e3565b86818110613fa557613fa5615745565b905060200201358a8a87818110613fbe57613fbe615745565b9050602002016020810190613fd39190614c6c565b6145ca565b600101613ea0565b506143d5565b336000908152609a60205260408120546001600160a01b0316905b61400e60a08901896157e3565b90508110156143d2574360a1600061402960a08c018c6157e3565b8581811061403957614039615745565b905060200201602081019061404e9190614c6c565b6001600160a01b0316815260208101919091526040016000205461407860a08b0160808c01615d04565b63ffffffff166140889190615cb1565b11156140a65760405162461bcd60e51b8152600401610b0390615db6565b73beac0eeeeeeeeeeeeeeeeeeeeeeeeeeeeeebeac06140c860a08a018a6157e3565b838181106140d8576140d8615745565b90506020020160208101906140ed9190614c6c565b6001600160a01b0316141561423d57600061410b60208a018a614c6c565b905060006001600160a01b037f000000000000000000000000000000000000000000000000000000000000000016630e81073c8361414c60c08e018e6157e3565b8781811061415c5761415c615745565b6040516001600160e01b031960e087901b1681526001600160a01b03909416600485015260200291909101356024830152506044016020604051808303816000875af11580156141b0573d6000803e3d6000fd5b505050506040513d601f19601f820116820180604052508101906141d49190615b83565b6001600160a01b038084166000908152609a602052604090205491925016801561423557614235818461420a60a08f018f6157e3565b8881811061421a5761421a615745565b905060200201602081019061422f9190614c6c565b85613bab565b5050506143ca565b7f00000000000000000000000000000000000000000000000000000000000000006001600160a01b031663c4623ea13389898581811061427f5761427f615745565b90506020020160208101906142949190614c6c565b6142a160a08d018d6157e3565b868181106142b1576142b1615745565b90506020020160208101906142c69190614c6c565b6142d360c08e018e6157e3565b878181106142e3576142e3615745565b60405160e088901b6001600160e01b03191681526001600160a01b03968716600482015294861660248601529290941660448401526020909102013560648201526084019050600060405180830381600087803b15801561434357600080fd5b505af1158015614357573d6000803e3d6000fd5b505050506001600160a01b038216156143ca576143ca823361437c60a08c018c6157e3565b8581811061438c5761438c615745565b90506020020160208101906143a19190614c6c565b6143ae60c08d018d6157e3565b868181106143be576143be615745565b90506020020135613bab565b600101614001565b50505b6040518181527fc97098c2f658800b4df29001527f7324bcdffcf6e8751a699ab920a1eced5b1d9060200160405180910390a1505050505050565b6001600160a01b0383163b1561452a57604051630b135d3f60e11b808252906001600160a01b03851690631626ba7e906144509086908690600401615e3e565b602060405180830381865afa15801561446d573d6000803e3d6000fd5b505050506040513d601f19601f820116820180604052508101906144919190615e9b565b6001600160e01b031916146111085760405162461bcd60e51b815260206004820152605360248201527f454950313237315369676e61747572655574696c732e636865636b5369676e6160448201527f747572655f454950313237313a2045524331323731207369676e6174757265206064820152721d995c9a599a58d85d1a5bdb8819985a5b1959606a1b608482015260a401610b03565b826001600160a01b031661453e838361470a565b6001600160a01b0316146111085760405162461bcd60e51b815260206004820152604760248201527f454950313237315369676e61747572655574696c732e636865636b5369676e6160448201527f747572655f454950313237313a207369676e6174757265206e6f742066726f6d6064820152661039b4b3b732b960c91b608482015260a401610b03565b6001600160a01b03831673beac0eeeeeeeeeeeeeeeeeeeeeeeeeeeeeebeac014156146755760405162387b1360e81b81526001600160a01b037f0000000000000000000000000000000000000000000000000000000000000000169063387b13009061463e90889088908790600401615ce0565b600060405180830381600087803b15801561465857600080fd5b505af115801561466c573d6000803e3d6000fd5b50505050614703565b60405163c608c7f360e01b81526001600160a01b03858116600483015284811660248301526044820184905282811660648301527f0000000000000000000000000000000000000000000000000000000000000000169063c608c7f390608401600060405180830381600087803b1580156146ef57600080fd5b505af11580156113c7573d6000803e3d6000fd5b5050505050565b60008060006147198585614726565b91509150610a0d81614796565b60008082516041141561475d5760208301516040840151606085015160001a61475187828585614951565b9450945050505061478f565b825160401415614787576020830151604084015161477c868383614a3e565b93509350505061478f565b506000905060025b9250929050565b60008160048111156147aa576147aa615ec5565b14156147b35750565b60018160048111156147c7576147c7615ec5565b14156148155760405162461bcd60e51b815260206004820152601860248201527f45434453413a20696e76616c6964207369676e617475726500000000000000006044820152606401610b03565b600281600481111561482957614829615ec5565b14156148775760405162461bcd60e51b815260206004820152601f60248201527f45434453413a20696e76616c6964207369676e6174757265206c656e677468006044820152606401610b03565b600381600481111561488b5761488b615ec5565b14156148e45760405162461bcd60e51b815260206004820152602260248201527f45434453413a20696e76616c6964207369676e6174757265202773272076616c604482015261756560f01b6064820152608401610b03565b60048160048111156148f8576148f8615ec5565b14156110535760405162461bcd60e51b815260206004820152602260248201527f45434453413a20696e76616c6964207369676e6174757265202776272076616c604482015261756560f01b6064820152608401610b03565b6000807f7fffffffffffffffffffffffffffffff5d576e7357a4501ddfe92f46681b20a08311156149885750600090506003614a35565b8460ff16601b141580156149a057508460ff16601c14155b156149b15750600090506004614a35565b6040805160008082526020820180845289905260ff881692820192909252606081018690526080810185905260019060a0016020604051602081039080840390855afa158015614a05573d6000803e3d6000fd5b5050604051601f1901519150506001600160a01b038116614a2e57600060019250925050614a35565b9150600090505b94509492505050565b6000806001600160ff1b03831681614a5b60ff86901c601b615cb1565b9050614a6987828885614951565b935093505050935093915050565b60008083601f840112614a8957600080fd5b5081356001600160401b03811115614aa057600080fd5b6020830191508360208260051b850101111561478f57600080fd5b60008060208385031215614ace57600080fd5b82356001600160401b03811115614ae457600080fd5b614af085828601614a77565b90969095509350505050565b6001600160a01b038116811461105357600080fd5b8035614b1c81614afc565b919050565b600080600080600060a08688031215614b3957600080fd5b8535614b4481614afc565b94506020860135614b5481614afc565b93506040860135614b6481614afc565b94979396509394606081013594506080013592915050565b6020808252825182820181905260009190848201906040850190845b81811015614bb457835183529284019291840191600101614b98565b50909695505050505050565b600060608284031215614bd257600080fd5b50919050565b60008083601f840112614bea57600080fd5b5081356001600160401b03811115614c0157600080fd5b60208301915083602082850101111561478f57600080fd5b600080600060808486031215614c2e57600080fd5b614c388585614bc0565b925060608401356001600160401b03811115614c5357600080fd5b614c5f86828701614bd8565b9497909650939450505050565b600060208284031215614c7e57600080fd5b8135614c8981614afc565b9392505050565b600080600060608486031215614ca557600080fd5b8335614cb081614afc565b92506020840135614cc081614afc565b929592945050506040919091013590565b600060208284031215614ce357600080fd5b5035919050565b60008060008060408587031215614d0057600080fd5b84356001600160401b0380821115614d1757600080fd5b614d2388838901614a77565b90965094506020870135915080821115614d3c57600080fd5b50614d4987828801614a77565b95989497509550505050565b60008060008060008060008060c0898b031215614d7157600080fd5b8835614d7c81614afc565b97506020890135614d8c81614afc565b9650604089013595506060890135945060808901356001600160401b0380821115614db657600080fd5b614dc28c838d01614a77565b909650945060a08b0135915080821115614ddb57600080fd5b50614de88b828c01614a77565b999c989b5096995094979396929594505050565b6000806000806000806000806080898b031215614e1857600080fd5b88356001600160401b0380821115614e2f57600080fd5b614e3b8c838d01614a77565b909a50985060208b0135915080821115614e5457600080fd5b614e608c838d01614a77565b909850965060408b0135915080821115614e7957600080fd5b614e858c838d01614a77565b909650945060608b0135915080821115614ddb57600080fd5b634e487b7160e01b600052604160045260246000fd5b60405160e081016001600160401b0381118282101715614ed657614ed6614e9e565b60405290565b604080519081016001600160401b0381118282101715614ed657614ed6614e9e565b60405160c081016001600160401b0381118282101715614ed657614ed6614e9e565b604051601f8201601f191681016001600160401b0381118282101715614f4857614f48614e9e565b604052919050565b63ffffffff8116811461105357600080fd5b8035614b1c81614f50565b60006001600160401b03821115614f8657614f86614e9e565b5060051b60200190565b600082601f830112614fa157600080fd5b81356020614fb6614fb183614f6d565b614f20565b82815260059290921b84018101918181019086841115614fd557600080fd5b8286015b84811015614ff9578035614fec81614afc565b8352918301918301614fd9565b509695505050505050565b600082601f83011261501557600080fd5b81356020615025614fb183614f6d565b82815260059290921b8401810191818101908684111561504457600080fd5b8286015b84811015614ff95780358352918301918301615048565b600060e0828403121561507157600080fd5b615079614eb4565b905061508482614b11565b815261509260208301614b11565b60208201526150a360408301614b11565b6040820152606082013560608201526150be60808301614f62565b608082015260a08201356001600160401b03808211156150dd57600080fd5b6150e985838601614f90565b60a084015260c084013591508082111561510257600080fd5b5061510f84828501615004565b60c08301525092915050565b60006020828403121561512d57600080fd5b81356001600160401b0381111561514357600080fd5b61514f8482850161505f565b949350505050565b60006020828403121561516957600080fd5b813560ff81168114614c8957600080fd5b60006040828403121561518c57600080fd5b615194614edc565b905081356151a181614afc565b815260208201356bffffffffffffffffffffffff811681146151c257600080fd5b602082015292915050565b600060208083850312156151e057600080fd5b82356001600160401b03808211156151f757600080fd5b818501915085601f83011261520b57600080fd5b8135615219614fb182614f6d565b81815260059190911b8301840190848101908883111561523857600080fd5b8585015b83811015615312578035858111156152545760008081fd5b860160e0818c03601f190181131561526c5760008081fd5b615274614efe565b89830135888111156152865760008081fd5b6152948e8c83870101614f90565b825250604080840135898111156152ab5760008081fd5b6152b98f8d83880101615004565b8c8401525060606152cb818601614b11565b82840152608091506152df8f83870161517a565b908301526152ef60c08501614f62565b908201526152fe838301614b11565b60a08201528552505091860191860161523c565b5098975050505050505050565b801515811461105357600080fd5b60008060008060006080868803121561534557600080fd5b85356001600160401b038082111561535c57600080fd5b9087019060e0828a03121561537057600080fd5b9095506020870135908082111561538657600080fd5b5061539388828901614a77565b9095509350506040860135915060608601356153ae8161531f565b809150509295509295909350565b600080604083850312156153cf57600080fd5b82356153da81614afc565b915060208301356153ea81614afc565b809150509250929050565b60006040828403121561540757600080fd5b61540f614edc565b905081356001600160401b038082111561542857600080fd5b818401915084601f83011261543c57600080fd5b813560208282111561545057615450614e9e565b615462601f8301601f19168201614f20565b9250818352868183860101111561547857600080fd5b8181850182850137600081838501015282855280860135818601525050505092915050565b600080600080600060a086880312156154b557600080fd5b85356154c081614afc565b945060208601356154d081614afc565b935060408601356001600160401b03808211156154ec57600080fd5b6154f889838a016153f5565b9450606088013591508082111561550e57600080fd5b5061551b888289016153f5565b95989497509295608001359392505050565b6000806040838503121561554057600080fd5b823561554b81614afc565b915060208301356001600160401b0381111561556657600080fd5b61557285828601614f90565b9150509250929050565b600081518084526020808501945080840160005b838110156155ac57815187529582019590820190600101615590565b509495945050505050565b602081526000614c89602083018461557c565b600080602083850312156155dd57600080fd5b82356001600160401b038111156155f357600080fd5b614af085828601614bd8565b6000806040838503121561561257600080fd5b823561561d81614afc565b946020939093013593505050565b6000806000806080858703121561564157600080fd5b843561564c81614afc565b935060208501359250604085013561566381614afc565b9396929550929360600135925050565b600081518084526020808501945080840160005b838110156155ac5781516001600160a01b031687529582019590820190600101615687565b6040815260006156bf6040830185615673565b8281036020840152611285818561557c565b6000806000606084860312156156e657600080fd5b83356156f181614afc565b925060208401356001600160401b0381111561570c57600080fd5b615718868287016153f5565b925050604084013590509250925092565b60006060828403121561573b57600080fd5b614c898383614bc0565b634e487b7160e01b600052603260045260246000fd5b634e487b7160e01b600052601160045260246000fd5b60006000198214156157855761578561575b565b5060010190565b60208082526019908201527f5061757361626c653a20696e6465782069732070617573656400000000000000604082015260600190565b60008235605e198336030181126157d957600080fd5b9190910192915050565b6000808335601e198436030181126157fa57600080fd5b8301803591506001600160401b0382111561581457600080fd5b6020019150600581901b360382131561478f57600080fd5b60608101823561583b81614afc565b6001600160a01b03908116835260208401359061585782614afc565b166020830152604083013561586b81614f50565b63ffffffff811660408401525092915050565b60208152816020820152818360408301376000818301604090810191909152601f909201601f19160101919050565b6000602082840312156158bf57600080fd5b8151614c8981614afc565b6020808252602a908201527f6d73672e73656e646572206973206e6f74207065726d697373696f6e6564206160408201526939903ab73830bab9b2b960b11b606082015260800190565b60208082526037908201527f44656c65676174696f6e4d616e616765723a206f6e6c7953747261746567794d60408201527f616e616765724f72456967656e506f644d616e61676572000000000000000000606082015260800190565b60006020828403121561598357600080fd5b8151614c898161531f565b60208082526028908201527f6d73672e73656e646572206973206e6f74207065726d697373696f6e6564206160408201526739903830bab9b2b960c11b606082015260800190565b6000823560de198336030181126157d957600080fd5b6000602082840312156159fe57600080fd5b8135614c898161531f565b600060018060a01b03808351168452806020840151166020850152806040840151166040850152506060820151606084015263ffffffff608083015116608084015260a082015160e060a0850152615a6460e0850182615673565b905060c083015184820360c0860152611285828261557c565b602081526000614c896020830184615a09565b602081526000825160e06020840152615aad610100840182615673565b90506020840151601f19848303016040850152615aca828261557c565b915050604084015160018060a01b03808216606086015260608601519150808251166080860152506bffffffffffffffffffffffff60208201511660a0850152506080840151615b2260c085018263ffffffff169052565b5060a08401516001600160a01b03811660e0850152610a0d565b60008060408385031215615b4f57600080fd5b8251615b5a8161531f565b6020939093015192949293505050565b82815260406020820152600061514f6040830184615a09565b600060208284031215615b9557600080fd5b5051919050565b600082601f830112615bad57600080fd5b81516020615bbd614fb183614f6d565b82815260059290921b84018101918181019086841115615bdc57600080fd5b8286015b84811015614ff95780518352918301918301615be0565b60008060408385031215615c0a57600080fd5b82516001600160401b0380821115615c2157600080fd5b818501915085601f830112615c3557600080fd5b81516020615c45614fb183614f6d565b82815260059290921b84018101918181019089841115615c6457600080fd5b948201945b83861015615c8b578551615c7c81614afc565b82529482019490820190615c69565b91880151919650909350505080821115615ca457600080fd5b5061557285828601615b9c565b60008219821115615cc457615cc461575b565b500190565b600082821015615cdb57615cdb61575b565b500390565b6001600160a01b039384168152919092166020820152604081019190915260600190565b600060208284031215615d1657600080fd5b8135614c8981614f50565b80546001600160a01b0319166001600160a01b0392909216919091179055565b8135615d4c81614afc565b615d568183615d21565b50600181016020830135615d6981614afc565b615d738183615d21565b506040830135615d8281614f50565b815463ffffffff60a01b191660a09190911b63ffffffff60a01b161790555050565b6000615db0368361505f565b92915050565b6020808252606e90820152600080516020615edc83398151915260408201527f645769746864726177616c3a207769746864726177616c44656c6179426c6f6360608201527f6b7320706572696f6420686173206e6f74207965742070617373656420666f7260808201526d207468697320737472617465677960901b60a082015260c00190565b82815260006020604081840152835180604085015260005b81811015615e7257858101830151858201606001528201615e56565b81811115615e84576000606083870101525b50601f01601f191692909201606001949350505050565b600060208284031215615ead57600080fd5b81516001600160e01b031981168114614c8957600080fd5b634e487b7160e01b600052602160045260246000fdfe44656c65676174696f6e4d616e616765722e5f636f6d706c6574655175657565a2646970667358221220c4f1d4de8cdcd5014909565a65d9a3617cb25b629b7151ad2aae3136b41215f064736f6c634300080c0033",
    "linkReferences": {}
  },
  "methodIdentifiers": {
    "DELEGATION_APPROVAL_TYPEHASH()": "04a4f979",
    "DOMAIN_TYPEHASH()": "20606b70",
    "MAX_STAKER_OPT_OUT_WINDOW_BLOCKS()": "4fc40b61",
    "MAX_WITHDRAWAL_DELAY_BLOCKS()": "ca661c04",
    "STAKER_DELEGATION_TYPEHASH()": "43377382",
    "beaconChainETHStrategy()": "9104c319",
    "calculateCurrentStakerDelegationDigestHash(address,address,uint256)": "1bbce091",
    "calculateDelegationApprovalDigestHash(address,address,address,bytes32,uint256)": "0b9f487a",
    "calculateStakerDelegationDigestHash(address,uint256,address,uint256)": "c94b5111",
    "calculateWithdrawalRoot((address,address,address,uint256,uint32,address[],uint256[]))": "597b36da",
    "completeQueuedWithdrawal((address,address,address,uint256,uint32,address[],uint256[]),address[],uint256,bool)": "60d7faed",
    "completeQueuedWithdrawals((address,address,address,uint256,uint32,address[],uint256[])[],address[][],uint256[],bool[])": "33404396",
    "cumulativeWithdrawalsQueued(address)": "a1788484",
    "decreaseDelegatedShares(address,address,uint256)": "132d4967",
    "delegateTo(address,(bytes,uint256),bytes32)": "eea9064b",
    "delegateToBySignature(address,address,(bytes,uint256),(bytes,uint256),bytes32)": "7f548071",
    "delegatedTo(address)": "65da1264",
    "delegationApprover(address)": "3cdeb5e0",
    "delegationApproverSaltIsSpent(address,bytes32)": "bb45fef2",
    "domainSeparator()": "f698da25",
    "earningsReceiver(address)": "5f966f14",
    "eigenPodManager()": "4665bcda",
    "getDelegatableShares(address)": "cf80873e",
    "getOperatorShares(address,address[])": "90041347",
    "getWithdrawalDelay(address[])": "0449ca39",
    "increaseDelegatedShares(address,address,uint256)": "28a573ae",
    "initialize(address,address,uint256,uint256,address[],uint256[])": "22bf40e4",
    "isDelegated(address)": "3e28391d",
    "isOperator(address)": "6d70f7ae",
    "migrateQueuedWithdrawals((address[],uint256[],address,(address,uint96),uint32,address)[])": "5cfe8d2c",
    "minWithdrawalDelayBlocks()": "c448feb8",
    "modifyOperatorDetails((address,address,uint32))": "f16172b0",
    "operatorDetails(address)": "c5e480db",
    "operatorShares(address,address)": "778e55f3",
    "owner()": "8da5cb5b",
    "pause(uint256)": "136439dd",
    "pauseAll()": "595c6a67",
    "paused()": "5c975abb",
    "paused(uint8)": "5ac86ab7",
    "pauserRegistry()": "886f1195",
    "pendingWithdrawals(bytes32)": "b7f06ebe",
    "queueWithdrawals((address[],uint256[],address)[])": "0dd8dd02",
    "registerAsOperator((address,address,uint32),string)": "0f589e59",
    "renounceOwnership()": "715018a6",
    "setPauserRegistry(address)": "10d67a2f",
    "setStrategyWithdrawalDelayBlocks(address[],uint256[])": "1522bf02",
    "slasher()": "b1344271",
    "stakerNonce(address)": "29c77d4f",
    "stakerOptOutWindowBlocks(address)": "16928365",
    "strategyManager()": "39b70e38",
    "strategyWithdrawalDelayBlocks(address)": "c488375a",
    "transferOwnership(address)": "f2fde38b",
    "undelegate(address)": "da8be864",
    "unpause(uint256)": "fabc1cbc",
    "updateOperatorMetadataURI(string)": "99be81c8"
  },
  "id": 3
}