{
  "abi": [
    {
      "inputs": [
        {
          "internalType": "contract IERC20",
          "name": "token",
          "type": "address"
        },
        {
          "internalType": "contract IStrategyManager",
          "name": "strategyManager",
          "type": "address"
        },
        {
          "internalType": "contract IPauserRegistry",
          "name": "pauserRegistry",
          "type": "address"
        },
        {
          "internalType": "address",
          "name": "admin",
          "type": "address"
        }
      ],
      "name": "deployNewStrategy",
      "outputs": [
        {
          "internalType": "contract StrategyBase",
          "name": "",
          "type": "address"
        }
      ],
      "stateMutability": "nonpayable",
      "type": "function"
    }
  ],
  "bytecode": {
    "object": "0x608060405234801561001057600080fd5b50612958806100206000396000f3fe608060405234801561001057600080fd5b506004361061002b5760003560e01c8063cd86341714610030575b600080fd5b61004361003e366004610192565b61005f565b6040516001600160a01b03909116815260200160405180910390f35b6000808460405161006f90610160565b6001600160a01b039091168152602001604051809103906000f08015801561009b573d6000803e3d6000fd5b50905080836040516100ac9061016d565b6001600160a01b03928316815291166020820152606060408201819052600090820152608001604051809103906000f0801580156100ee573d6000803e3d6000fd5b5060405163485cc95560e01b81526001600160a01b03888116600483015286811660248301529192509082169063485cc95590604401600060405180830381600087803b15801561013e57600080fd5b505af1158015610152573d6000803e3d6000fd5b509298975050505050505050565b6118b3806101ef83390190565b610e8180611aa283390190565b6001600160a01b038116811461018f57600080fd5b50565b600080600080608085870312156101a857600080fd5b84356101b38161017a565b935060208501356101c38161017a565b925060408501356101d38161017a565b915060608501356101e38161017a565b93969295509093505056fe60a060405234801561001057600080fd5b50604051620018b3380380620018b38339810160408190526100319161010c565b6001600160a01b03811660805261004661004c565b5061013c565b600054610100900460ff16156100b85760405162461bcd60e51b815260206004820152602760248201527f496e697469616c697a61626c653a20636f6e747261637420697320696e697469604482015266616c697a696e6760c81b606482015260840160405180910390fd5b60005460ff908116101561010a576000805460ff191660ff9081179091556040519081527f7f26b83ff96e1f2b6a682f133852f6798a09c465da95921460cefb38474024989060200160405180910390a15b565b60006020828403121561011e57600080fd5b81516001600160a01b038116811461013557600080fd5b9392505050565b6080516117466200016d6000396000818161019901528181610570015281816109c70152610a9201526117466000f3fe608060405234801561001057600080fd5b50600436106101375760003560e01c80635c975abb116100b8578063ab5921e11161007c578063ab5921e11461029c578063ce7c2ac2146102b1578063d9caed12146102c4578063e3dae51c146102d7578063f3e73875146102ea578063fabc1cbc146102fd57600080fd5b80635c975abb146102425780637a8b26371461024a578063886f11951461025d5780638c871019146102765780638f6a62401461028957600080fd5b806347e7ef24116100ff57806347e7ef24146101d2578063485cc955146101e5578063553ca5f8146101f8578063595c6a671461020b5780635ac86ab71461021357600080fd5b806310d67a2f1461013c578063136439dd146101515780632495a5991461016457806339b70e38146101945780633a98ef39146101bb575b600080fd5b61014f61014a3660046113d5565b610310565b005b61014f61015f3660046113f2565b6103cc565b603254610177906001600160a01b031681565b6040516001600160a01b0390911681526020015b60405180910390f35b6101777f000000000000000000000000000000000000000000000000000000000000000081565b6101c460335481565b60405190815260200161018b565b6101c46101e036600461140b565b610510565b61014f6101f3366004611437565b610726565b6101c46102063660046113d5565b61083b565b61014f61084f565b610232610221366004611470565b6001805460ff9092161b9081161490565b604051901515815260200161018b565b6001546101c4565b6101c46102583660046113f2565b61091b565b600054610177906201000090046001600160a01b031681565b6101c46102843660046113f2565b610966565b6101c46102973660046113d5565b610971565b6102a461097f565b60405161018b91906114c3565b6101c46102bf3660046113d5565b61099f565b61014f6102d23660046114f6565b610a34565b6101c46102e53660046113f2565b610c81565b6101c46102f83660046113f2565b610cba565b61014f61030b3660046113f2565b610cc5565b600060029054906101000a90046001600160a01b03166001600160a01b031663eab66d7a6040518163ffffffff1660e01b8152600401602060405180830381865afa158015610363573d6000803e3d6000fd5b505050506040513d601f19601f820116820180604052508101906103879190611537565b6001600160a01b0316336001600160a01b0316146103c05760405162461bcd60e51b81526004016103b790611554565b60405180910390fd5b6103c981610e21565b50565b60005460405163237dfb4760e11b8152336004820152620100009091046001600160a01b0316906346fbf68e90602401602060405180830381865afa158015610419573d6000803e3d6000fd5b505050506040513d601f19601f8201168201806040525081019061043d919061159e565b6104595760405162461bcd60e51b81526004016103b7906115c0565b600154818116146104d25760405162461bcd60e51b815260206004820152603860248201527f5061757361626c652e70617573653a20696e76616c696420617474656d70742060448201527f746f20756e70617573652066756e6374696f6e616c697479000000000000000060648201526084016103b7565b600181905560405181815233907fab40a374bc51de372200a8bc981af8c9ecdc08dfdaef0bb6e09f88f3c616ef3d906020015b60405180910390a250565b600180546000918291811614156105655760405162461bcd60e51b815260206004820152601960248201527814185d5cd8589b194e881a5b99195e081a5cc81c185d5cd959603a1b60448201526064016103b7565b336001600160a01b037f000000000000000000000000000000000000000000000000000000000000000016146105dd5760405162461bcd60e51b815260206004820181905260248201527f5374726174656779426173652e6f6e6c7953747261746567794d616e6167657260448201526064016103b7565b6032546001600160a01b038581169116146106595760405162461bcd60e51b815260206004820152603660248201527f5374726174656779426173652e6465706f7369743a2043616e206f6e6c79206460448201527532b837b9b4ba103ab73232b9363cb4b733aa37b5b2b760511b60648201526084016103b7565b603354600061066a6103e88361161e565b905060006103e8610679610f2a565b610683919061161e565b905060006106918783611636565b90508061069e848961164d565b6106a8919061166c565b95508561070e5760405162461bcd60e51b815260206004820152602e60248201527f5374726174656779426173652e6465706f7369743a206e65775368617265732060448201526d63616e6e6f74206265207a65726f60901b60648201526084016103b7565b610718868561161e565b603355505050505092915050565b600054610100900460ff16158080156107465750600054600160ff909116105b806107605750303b158015610760575060005460ff166001145b6107c35760405162461bcd60e51b815260206004820152602e60248201527f496e697469616c697a61626c653a20636f6e747261637420697320616c72656160448201526d191e481a5b9a5d1a585b1a5e995960921b60648201526084016103b7565b6000805460ff1916600117905580156107e6576000805461ff0019166101001790555b6107f08383610f9c565b8015610836576000805461ff0019169055604051600181527f7f26b83ff96e1f2b6a682f133852f6798a09c465da95921460cefb38474024989060200160405180910390a15b505050565b60006108496102588361099f565b92915050565b60005460405163237dfb4760e11b8152336004820152620100009091046001600160a01b0316906346fbf68e90602401602060405180830381865afa15801561089c573d6000803e3d6000fd5b505050506040513d601f19601f820116820180604052508101906108c0919061159e565b6108dc5760405162461bcd60e51b81526004016103b7906115c0565b600019600181905560405190815233907fab40a374bc51de372200a8bc981af8c9ecdc08dfdaef0bb6e09f88f3c616ef3d9060200160405180910390a2565b6000806103e860335461092e919061161e565b905060006103e861093d610f2a565b610947919061161e565b905081610954858361164d565b61095e919061166c565b949350505050565b600061084982610c81565b60006108496102f88361099f565b60606040518060800160405280604d81526020016116c4604d9139905090565b604051633d3f06c960e11b81526001600160a01b0382811660048301523060248301526000917f000000000000000000000000000000000000000000000000000000000000000090911690637a7e0d9290604401602060405180830381865afa158015610a10573d6000803e3d6000fd5b505050506040513d601f19601f82011682018060405250810190610849919061168e565b6001805460029081161415610a875760405162461bcd60e51b815260206004820152601960248201527814185d5cd8589b194e881a5b99195e081a5cc81c185d5cd959603a1b60448201526064016103b7565b336001600160a01b037f00000000000000000000000000000000000000000000000000000000000000001614610aff5760405162461bcd60e51b815260206004820181905260248201527f5374726174656779426173652e6f6e6c7953747261746567794d616e6167657260448201526064016103b7565b6032546001600160a01b03848116911614610b825760405162461bcd60e51b815260206004820152603b60248201527f5374726174656779426173652e77697468647261773a2043616e206f6e6c792060448201527f77697468647261772074686520737472617465677920746f6b656e000000000060648201526084016103b7565b60335480831115610c115760405162461bcd60e51b815260206004820152604d60248201527f5374726174656779426173652e77697468647261773a20616d6f756e7453686160448201527f726573206d757374206265206c657373207468616e206f7220657175616c207460648201526c6f20746f74616c53686172657360981b608482015260a4016103b7565b6000610c1f6103e88361161e565b905060006103e8610c2e610f2a565b610c38919061161e565b9050600082610c47878461164d565b610c51919061166c565b9050610c5d8685611636565b603355603254610c77906001600160a01b0316898361102d565b5050505050505050565b6000806103e8603354610c94919061161e565b905060006103e8610ca3610f2a565b610cad919061161e565b905080610954838661164d565b60006108498261091b565b600060029054906101000a90046001600160a01b03166001600160a01b031663eab66d7a6040518163ffffffff1660e01b8152600401602060405180830381865afa158015610d18573d6000803e3d6000fd5b505050506040513d601f19601f82011682018060405250810190610d3c9190611537565b6001600160a01b0316336001600160a01b031614610d6c5760405162461bcd60e51b81526004016103b790611554565b600154198119600154191614610dea5760405162461bcd60e51b815260206004820152603860248201527f5061757361626c652e756e70617573653a20696e76616c696420617474656d7060448201527f7420746f2070617573652066756e6374696f6e616c697479000000000000000060648201526084016103b7565b600181905560405181815233907f3582d1828e26bf56bd801502bc021ac0bc8afb57c826e4986b45593c8fad389c90602001610505565b6001600160a01b038116610eaf5760405162461bcd60e51b815260206004820152604960248201527f5061757361626c652e5f73657450617573657252656769737472793a206e657760448201527f50617573657252656769737472792063616e6e6f7420626520746865207a65726064820152686f206164647265737360b81b608482015260a4016103b7565b600054604080516001600160a01b03620100009093048316815291831660208301527f6e9fcd539896fca60e8b0f01dd580233e48a6b0f7df013b89ba7f565869acdb6910160405180910390a1600080546001600160a01b03909216620100000262010000600160b01b0319909216919091179055565b5050565b6032546040516370a0823160e01b81523060048201526000916001600160a01b0316906370a0823190602401602060405180830381865afa158015610f73573d6000803e3d6000fd5b505050506040513d601f19601f82011682018060405250810190610f97919061168e565b905090565b600054610100900460ff166110075760405162461bcd60e51b815260206004820152602b60248201527f496e697469616c697a61626c653a20636f6e7472616374206973206e6f74206960448201526a6e697469616c697a696e6760a81b60648201526084016103b7565b603280546001600160a01b0319166001600160a01b038416179055610f2681600061107f565b604080516001600160a01b038416602482015260448082018490528251808303909101815260649091019091526020810180516001600160e01b031663a9059cbb60e01b17905261083690849061116b565b6000546201000090046001600160a01b03161580156110a657506001600160a01b03821615155b6111285760405162461bcd60e51b815260206004820152604760248201527f5061757361626c652e5f696e697469616c697a655061757365723a205f696e6960448201527f7469616c697a6550617573657228292063616e206f6e6c792062652063616c6c6064820152666564206f6e636560c81b608482015260a4016103b7565b600181905560405181815233907fab40a374bc51de372200a8bc981af8c9ecdc08dfdaef0bb6e09f88f3c616ef3d9060200160405180910390a2610f2682610e21565b60006111c0826040518060400160405280602081526020017f5361666545524332303a206c6f772d6c6576656c2063616c6c206661696c6564815250856001600160a01b031661123d9092919063ffffffff16565b80519091501561083657808060200190518101906111de919061159e565b6108365760405162461bcd60e51b815260206004820152602a60248201527f5361666545524332303a204552433230206f7065726174696f6e20646964206e6044820152691bdd081cdd58d8d9595960b21b60648201526084016103b7565b606061124c8484600085611256565b90505b9392505050565b6060824710156112b75760405162461bcd60e51b815260206004820152602660248201527f416464726573733a20696e73756666696369656e742062616c616e636520666f6044820152651c8818d85b1b60d21b60648201526084016103b7565b6001600160a01b0385163b61130e5760405162461bcd60e51b815260206004820152601d60248201527f416464726573733a2063616c6c20746f206e6f6e2d636f6e747261637400000060448201526064016103b7565b600080866001600160a01b0316858760405161132a91906116a7565b60006040518083038185875af1925050503d8060008114611367576040519150601f19603f3d011682016040523d82523d6000602084013e61136c565b606091505b509150915061137c828286611387565b979650505050505050565b6060831561139657508161124f565b8251156113a65782518084602001fd5b8160405162461bcd60e51b81526004016103b791906114c3565b6001600160a01b03811681146103c957600080fd5b6000602082840312156113e757600080fd5b813561124f816113c0565b60006020828403121561140457600080fd5b5035919050565b6000806040838503121561141e57600080fd5b8235611429816113c0565b946020939093013593505050565b6000806040838503121561144a57600080fd5b8235611455816113c0565b91506020830135611465816113c0565b809150509250929050565b60006020828403121561148257600080fd5b813560ff8116811461124f57600080fd5b60005b838110156114ae578181015183820152602001611496565b838111156114bd576000848401525b50505050565b60208152600082518060208401526114e2816040850160208701611493565b601f01601f19169190910160400192915050565b60008060006060848603121561150b57600080fd5b8335611516816113c0565b92506020840135611526816113c0565b929592945050506040919091013590565b60006020828403121561154957600080fd5b815161124f816113c0565b6020808252602a908201527f6d73672e73656e646572206973206e6f74207065726d697373696f6e6564206160408201526939903ab73830bab9b2b960b11b606082015260800190565b6000602082840312156115b057600080fd5b8151801515811461124f57600080fd5b60208082526028908201527f6d73672e73656e646572206973206e6f74207065726d697373696f6e6564206160408201526739903830bab9b2b960c11b606082015260800190565b634e487b7160e01b600052601160045260246000fd5b6000821982111561163157611631611608565b500190565b60008282101561164857611648611608565b500390565b600081600019048311821515161561166757611667611608565b500290565b60008261168957634e487b7160e01b600052601260045260246000fd5b500490565b6000602082840312156116a057600080fd5b5051919050565b600082516116b9818460208701611493565b919091019291505056fe4261736520537472617465677920696d706c656d656e746174696f6e20746f20696e68657269742066726f6d20666f72206d6f726520636f6d706c657820696d706c656d656e746174696f6e73a2646970667358221220807d1f909eeee6c436d31279042a7f653408f0b1b4db765d0324f537c32334df64736f6c634300080c0033608060405260405162000e8138038062000e81833981016040819052620000269162000490565b828162000036828260006200004d565b50620000449050826200008a565b505050620005c3565b6200005883620000e5565b600082511180620000665750805b1562000085576200008383836200012760201b620002601760201c565b505b505050565b7f7e644d79422f17c01e4894b5f4f588d331ebfa28653d42ae832dc59e38c9798f620000b562000156565b604080516001600160a01b03928316815291841660208301520160405180910390a1620000e2816200018f565b50565b620000f08162000244565b6040516001600160a01b038216907fbc7cd75a20ee27fd9adebab32041f755214dbc6bffa90cc0225b39da2e5c2d3b90600090a250565b60606200014f838360405180606001604052806027815260200162000e5a60279139620002f8565b9392505050565b60006200018060008051602062000e3a83398151915260001b620003de60201b620002081760201c565b546001600160a01b0316919050565b6001600160a01b038116620001fa5760405162461bcd60e51b815260206004820152602660248201527f455243313936373a206e65772061646d696e20697320746865207a65726f206160448201526564647265737360d01b60648201526084015b60405180910390fd5b806200022360008051602062000e3a83398151915260001b620003de60201b620002081760201c565b80546001600160a01b0319166001600160a01b039290921691909117905550565b6200025a81620003e160201b6200028c1760201c565b620002be5760405162461bcd60e51b815260206004820152602d60248201527f455243313936373a206e657720696d706c656d656e746174696f6e206973206e60448201526c1bdd08184818dbdb9d1c9858dd609a1b6064820152608401620001f1565b80620002237f360894a13ba1a3210667c828492db98dca3e2076cc3735a920a3ca505d382bbc60001b620003de60201b620002081760201c565b60606001600160a01b0384163b620003625760405162461bcd60e51b815260206004820152602660248201527f416464726573733a2064656c65676174652063616c6c20746f206e6f6e2d636f6044820152651b9d1c9858dd60d21b6064820152608401620001f1565b600080856001600160a01b0316856040516200037f919062000570565b600060405180830381855af49150503d8060008114620003bc576040519150601f19603f3d011682016040523d82523d6000602084013e620003c1565b606091505b509092509050620003d4828286620003f0565b9695505050505050565b90565b6001600160a01b03163b151590565b60608315620004015750816200014f565b825115620004125782518084602001fd5b8160405162461bcd60e51b8152600401620001f191906200058e565b80516001600160a01b03811681146200044657600080fd5b919050565b634e487b7160e01b600052604160045260246000fd5b60005b838110156200047e57818101518382015260200162000464565b83811115620000835750506000910152565b600080600060608486031215620004a657600080fd5b620004b1846200042e565b9250620004c1602085016200042e565b60408501519092506001600160401b0380821115620004df57600080fd5b818601915086601f830112620004f457600080fd5b8151818111156200050957620005096200044b565b604051601f8201601f19908116603f011681019083821181831017156200053457620005346200044b565b816040528281528960208487010111156200054e57600080fd5b6200056183602083016020880162000461565b80955050505050509250925092565b600082516200058481846020870162000461565b9190910192915050565b6020815260008251806020840152620005af81604085016020870162000461565b601f01601f19169190910160400192915050565b61086780620005d36000396000f3fe60806040526004361061004e5760003560e01c80633659cfe6146100655780634f1ef286146100855780635c60da1b146100985780638f283970146100c9578063f851a440146100e95761005d565b3661005d5761005b6100fe565b005b61005b6100fe565b34801561007157600080fd5b5061005b6100803660046106f1565b610118565b61005b61009336600461070c565b61015f565b3480156100a457600080fd5b506100ad6101d0565b6040516001600160a01b03909116815260200160405180910390f35b3480156100d557600080fd5b5061005b6100e43660046106f1565b61020b565b3480156100f557600080fd5b506100ad610235565b61010661029b565b61011661011161033a565b610344565b565b610120610368565b6001600160a01b0316336001600160a01b03161415610157576101548160405180602001604052806000815250600061039b565b50565b6101546100fe565b610167610368565b6001600160a01b0316336001600160a01b031614156101c8576101c38383838080601f0160208091040260200160405190810160405280939291908181526020018383808284376000920191909152506001925061039b915050565b505050565b6101c36100fe565b60006101da610368565b6001600160a01b0316336001600160a01b03161415610200576101fb61033a565b905090565b6102086100fe565b90565b610213610368565b6001600160a01b0316336001600160a01b0316141561015757610154816103c6565b600061023f610368565b6001600160a01b0316336001600160a01b03161415610200576101fb610368565b6060610285838360405180606001604052806027815260200161080b6027913961041a565b9392505050565b6001600160a01b03163b151590565b6102a3610368565b6001600160a01b0316336001600160a01b031614156101165760405162461bcd60e51b815260206004820152604260248201527f5472616e73706172656e745570677261646561626c6550726f78793a2061646d60448201527f696e2063616e6e6f742066616c6c6261636b20746f2070726f78792074617267606482015261195d60f21b608482015260a4015b60405180910390fd5b60006101fb6104f7565b3660008037600080366000845af43d6000803e808015610363573d6000f35b3d6000fd5b60007fb53127684a568b3173ae13b9f8a6016e243e63b6e8ee1178d6a717850b5d61035b546001600160a01b0316919050565b6103a48361051f565b6000825111806103b15750805b156101c3576103c08383610260565b50505050565b7f7e644d79422f17c01e4894b5f4f588d331ebfa28653d42ae832dc59e38c9798f6103ef610368565b604080516001600160a01b03928316815291841660208301520160405180910390a16101548161055f565b60606001600160a01b0384163b6104825760405162461bcd60e51b815260206004820152602660248201527f416464726573733a2064656c65676174652063616c6c20746f206e6f6e2d636f6044820152651b9d1c9858dd60d21b6064820152608401610331565b600080856001600160a01b03168560405161049d91906107bb565b600060405180830381855af49150503d80600081146104d8576040519150601f19603f3d011682016040523d82523d6000602084013e6104dd565b606091505b50915091506104ed828286610608565b9695505050505050565b60007f360894a13ba1a3210667c828492db98dca3e2076cc3735a920a3ca505d382bbc61038c565b61052881610641565b6040516001600160a01b038216907fbc7cd75a20ee27fd9adebab32041f755214dbc6bffa90cc0225b39da2e5c2d3b90600090a250565b6001600160a01b0381166105c45760405162461bcd60e51b815260206004820152602660248201527f455243313936373a206e65772061646d696e20697320746865207a65726f206160448201526564647265737360d01b6064820152608401610331565b807fb53127684a568b3173ae13b9f8a6016e243e63b6e8ee1178d6a717850b5d61035b80546001600160a01b0319166001600160a01b039290921691909117905550565b60608315610617575081610285565b8251156106275782518084602001fd5b8160405162461bcd60e51b815260040161033191906107d7565b6001600160a01b0381163b6106ae5760405162461bcd60e51b815260206004820152602d60248201527f455243313936373a206e657720696d706c656d656e746174696f6e206973206e60448201526c1bdd08184818dbdb9d1c9858dd609a1b6064820152608401610331565b807f360894a13ba1a3210667c828492db98dca3e2076cc3735a920a3ca505d382bbc6105e7565b80356001600160a01b03811681146106ec57600080fd5b919050565b60006020828403121561070357600080fd5b610285826106d5565b60008060006040848603121561072157600080fd5b61072a846106d5565b9250602084013567ffffffffffffffff8082111561074757600080fd5b818601915086601f83011261075b57600080fd5b81358181111561076a57600080fd5b87602082850101111561077c57600080fd5b6020830194508093505050509250925092565b60005b838110156107aa578181015183820152602001610792565b838111156103c05750506000910152565b600082516107cd81846020870161078f565b9190910192915050565b60208152600082518060208401526107f681604085016020870161078f565b601f01601f1916919091016040019291505056fe416464726573733a206c6f772d6c6576656c2064656c65676174652063616c6c206661696c6564a26469706673582212200836ff0cdfa7d0a62121e4a384125777eea56d06ee84076cbada49f1983abc6d64736f6c634300080c0033b53127684a568b3173ae13b9f8a6016e243e63b6e8ee1178d6a717850b5d6103416464726573733a206c6f772d6c6576656c2064656c65676174652063616c6c206661696c6564a2646970667358221220171e3f582721fce70956e16ce7a4d8fbb11736a12c9ec7f721331932365326bc64736f6c634300080c0033",
    "linkReferences": {}
  },
  "methodIdentifiers": {
    "deployNewStrategy(address,address,address,address)": "cd863417"
  },
  "id": 149
}