{
  "abi": [
    {
      "inputs": [
        {
          "internalType": "contract IStrategyManager",
          "name": "_strategyManager",
          "type": "address"
        }
      ],
      "stateMutability": "nonpayable",
      "type": "constructor"
    },
    {
      "anonymous": false,
      "inputs": [
        {
          "indexed": false,
          "internalType": "uint8",
          "name": "version",
          "type": "uint8"
        }
      ],
      "name": "Initialized",
      "type": "event"
    },
    {
      "anonymous": false,
      "inputs": [
        {
          "indexed": false,
          "internalType": "uint256",
          "name": "previousValue",
          "type": "uint256"
        },
        {
          "indexed": false,
          "internalType": "uint256",
          "name": "newValue",
          "type": "uint256"
        }
      ],
      "name": "MaxPerDepositUpdated",
      "type": "event"
    },
    {
      "anonymous": false,
      "inputs": [
        {
          "indexed": false,
          "internalType": "uint256",
          "name": "previousValue",
          "type": "uint256"
        },
        {
          "indexed": false,
          "internalType": "uint256",
          "name": "newValue",
          "type": "uint256"
        }
      ],
      "name": "MaxTotalDepositsUpdated",
      "type": "event"
    },
    {
      "anonymous": false,
      "inputs": [
        {
          "indexed": true,
          "internalType": "address",
          "name": "account",
          "type": "address"
        },
        {
          "indexed": false,
          "internalType": "uint256",
          "name": "newPausedStatus",
          "type": "uint256"
        }
      ],
      "name": "Paused",
      "type": "event"
    },
    {
      "anonymous": false,
      "inputs": [
        {
          "indexed": false,
          "internalType": "contract IPauserRegistry",
          "name": "pauserRegistry",
          "type": "address"
        },
        {
          "indexed": false,
          "internalType": "contract IPauserRegistry",
          "name": "newPauserRegistry",
          "type": "address"
        }
      ],
      "name": "PauserRegistrySet",
      "type": "event"
    },
    {
      "anonymous": false,
      "inputs": [
        {
          "indexed": true,
          "internalType": "address",
          "name": "account",
          "type": "address"
        },
        {
          "indexed": false,
          "internalType": "uint256",
          "name": "newPausedStatus",
          "type": "uint256"
        }
      ],
      "name": "Unpaused",
      "type": "event"
    },
    {
      "inputs": [
        {
          "internalType": "contract IERC20",
          "name": "token",
          "type": "address"
        },
        {
          "internalType": "uint256",
          "name": "amount",
          "type": "uint256"
        }
      ],
      "name": "deposit",
      "outputs": [
        {
          "internalType": "uint256",
          "name": "newShares",
          "type": "uint256"
        }
      ],
      "stateMutability": "nonpayable",
      "type": "function"
    },
    {
      "inputs": [],
      "name": "explanation",
      "outputs": [
        {
          "internalType": "string",
          "name": "",
          "type": "string"
        }
      ],
      "stateMutability": "pure",
      "type": "function"
    },
    {
      "inputs": [],
      "name": "getTVLLimits",
      "outputs": [
        {
          "internalType": "uint256",
          "name": "",
          "type": "uint256"
        },
        {
          "internalType": "uint256",
          "name": "",
          "type": "uint256"
        }
      ],
      "stateMutability": "view",
      "type": "function"
    },
    {
      "inputs": [
        {
          "internalType": "uint256",
          "name": "_maxPerDeposit",
          "type": "uint256"
        },
        {
          "internalType": "uint256",
          "name": "_maxTotalDeposits",
          "type": "uint256"
        },
        {
          "internalType": "contract IERC20",
          "name": "_underlyingToken",
          "type": "address"
        },
        {
          "internalType": "contract IPauserRegistry",
          "name": "_pauserRegistry",
          "type": "address"
        }
      ],
      "name": "initialize",
      "outputs": [],
      "stateMutability": "nonpayable",
      "type": "function"
    },
    {
      "inputs": [
        {
          "internalType": "contract IERC20",
          "name": "_underlyingToken",
          "type": "address"
        },
        {
          "internalType": "contract IPauserRegistry",
          "name": "_pauserRegistry",
          "type": "address"
        }
      ],
      "name": "initialize",
      "outputs": [],
      "stateMutability": "nonpayable",
      "type": "function"
    },
    {
      "inputs": [],
      "name": "maxPerDeposit",
      "outputs": [
        {
          "internalType": "uint256",
          "name": "",
          "type": "uint256"
        }
      ],
      "stateMutability": "view",
      "type": "function"
    },
    {
      "inputs": [],
      "name": "maxTotalDeposits",
      "outputs": [
        {
          "internalType": "uint256",
          "name": "",
          "type": "uint256"
        }
      ],
      "stateMutability": "view",
      "type": "function"
    },
    {
      "inputs": [
        {
          "internalType": "uint256",
          "name": "newPausedStatus",
          "type": "uint256"
        }
      ],
      "name": "pause",
      "outputs": [],
      "stateMutability": "nonpayable",
      "type": "function"
    },
    {
      "inputs": [],
      "name": "pauseAll",
      "outputs": [],
      "stateMutability": "nonpayable",
      "type": "function"
    },
    {
      "inputs": [
        {
          "internalType": "uint8",
          "name": "index",
          "type": "uint8"
        }
      ],
      "name": "paused",
      "outputs": [
        {
          "internalType": "bool",
          "name": "",
          "type": "bool"
        }
      ],
      "stateMutability": "view",
      "type": "function"
    },
    {
      "inputs": [],
      "name": "paused",
      "outputs": [
        {
          "internalType": "uint256",
          "name": "",
          "type": "uint256"
        }
      ],
      "stateMutability": "view",
      "type": "function"
    },
    {
      "inputs": [],
      "name": "pauserRegistry",
      "outputs": [
        {
          "internalType": "contract IPauserRegistry",
          "name": "",
          "type": "address"
        }
      ],
      "stateMutability": "view",
      "type": "function"
    },
    {
      "inputs": [
        {
          "internalType": "contract IPauserRegistry",
          "name": "newPauserRegistry",
          "type": "address"
        }
      ],
      "name": "setPauserRegistry",
      "outputs": [],
      "stateMutability": "nonpayable",
      "type": "function"
    },
    {
      "inputs": [
        {
          "internalType": "uint256",
          "name": "newMaxPerDeposit",
          "type": "uint256"
        },
        {
          "internalType": "uint256",
          "name": "newMaxTotalDeposits",
          "type": "uint256"
        }
      ],
      "name": "setTVLLimits",
      "outputs": [],
      "stateMutability": "nonpayable",
      "type": "function"
    },
    {
      "inputs": [
        {
          "internalType": "address",
          "name": "user",
          "type": "address"
        }
      ],
      "name": "shares",
      "outputs": [
        {
          "internalType": "uint256",
          "name": "",
          "type": "uint256"
        }
      ],
      "stateMutability": "view",
      "type": "function"
    },
    {
      "inputs": [
        {
          "internalType": "uint256",
          "name": "amountShares",
          "type": "uint256"
        }
      ],
      "name": "sharesToUnderlying",
      "outputs": [
        {
          "internalType": "uint256",
          "name": "",
          "type": "uint256"
        }
      ],
      "stateMutability": "view",
      "type": "function"
    },
    {
      "inputs": [
        {
          "internalType": "uint256",
          "name": "amountShares",
          "type": "uint256"
        }
      ],
      "name": "sharesToUnderlyingView",
      "outputs": [
        {
          "internalType": "uint256",
          "name": "",
          "type": "uint256"
        }
      ],
      "stateMutability": "view",
      "type": "function"
    },
    {
      "inputs": [],
      "name": "strategyManager",
      "outputs": [
        {
          "internalType": "contract IStrategyManager",
          "name": "",
          "type": "address"
        }
      ],
      "stateMutability": "view",
      "type": "function"
    },
    {
      "inputs": [],
      "name": "totalShares",
      "outputs": [
        {
          "internalType": "uint256",
          "name": "",
          "type": "uint256"
        }
      ],
      "stateMutability": "view",
      "type": "function"
    },
    {
      "inputs": [
        {
          "internalType": "uint256",
          "name": "amountUnderlying",
          "type": "uint256"
        }
      ],
      "name": "underlyingToShares",
      "outputs": [
        {
          "internalType": "uint256",
          "name": "",
          "type": "uint256"
        }
      ],
      "stateMutability": "view",
      "type": "function"
    },
    {
      "inputs": [
        {
          "internalType": "uint256",
          "name": "amountUnderlying",
          "type": "uint256"
        }
      ],
      "name": "underlyingToSharesView",
      "outputs": [
        {
          "internalType": "uint256",
          "name": "",
          "type": "uint256"
        }
      ],
      "stateMutability": "view",
      "type": "function"
    },
    {
      "inputs": [],
      "name": "underlyingToken",
      "outputs": [
        {
          "internalType": "contract IERC20",
          "name": "",
          "type": "address"
        }
      ],
      "stateMutability": "view",
      "type": "function"
    },
    {
      "inputs": [
        {
          "internalType": "uint256",
          "name": "newPausedStatus",
          "type": "uint256"
        }
      ],
      "name": "unpause",
      "outputs": [],
      "stateMutability": "nonpayable",
      "type": "function"
    },
    {
      "inputs": [
        {
          "internalType": "address",
          "name": "user",
          "type": "address"
        }
      ],
      "name": "userUnderlying",
      "outputs": [
        {
          "internalType": "uint256",
          "name": "",
          "type": "uint256"
        }
      ],
      "stateMutability": "nonpayable",
      "type": "function"
    },
    {
      "inputs": [
        {
          "internalType": "address",
          "name": "user",
          "type": "address"
        }
      ],
      "name": "userUnderlyingView",
      "outputs": [
        {
          "internalType": "uint256",
          "name": "",
          "type": "uint256"
        }
      ],
      "stateMutability": "view",
      "type": "function"
    },
    {
      "inputs": [
        {
          "internalType": "address",
          "name": "recipient",
          "type": "address"
        },
        {
          "internalType": "contract IERC20",
          "name": "token",
          "type": "address"
        },
        {
          "internalType": "uint256",
          "name": "amountShares",
          "type": "uint256"
        }
      ],
      "name": "withdraw",
      "outputs": [],
      "stateMutability": "nonpayable",
      "type": "function"
    }
  ],
  "bytecode": {
    "object": "0x60a06040523480156200001157600080fd5b5060405162001d5638038062001d56833981016040819052620000349162000116565b6001600160a01b038116608052806200004c62000054565b505062000148565b600054610100900460ff1615620000c15760405162461bcd60e51b815260206004820152602760248201527f496e697469616c697a61626c653a20636f6e747261637420697320696e697469604482015266616c697a696e6760c81b606482015260840160405180910390fd5b60005460ff908116101562000114576000805460ff191660ff9081179091556040519081527f7f26b83ff96e1f2b6a682f133852f6798a09c465da95921460cefb38474024989060200160405180910390a15b565b6000602082840312156200012957600080fd5b81516001600160a01b03811681146200014157600080fd5b9392505050565b608051611bdd6200017960003960008181610216015281816107a901528181610bc30152610c8e0152611bdd6000f3fe608060405234801561001057600080fd5b506004361061018e5760003560e01c80635c975abb116100de578063ab5921e111610097578063df6fadc111610071578063df6fadc114610366578063e3dae51c14610381578063f3e7387514610394578063fabc1cbc146103a757600080fd5b8063ab5921e11461032b578063ce7c2ac214610340578063d9caed121461035357600080fd5b80635c975abb146102c857806361b01b5d146102d05780637a8b2637146102d9578063886f1195146102ec5780638c871019146103055780638f6a62401461031857600080fd5b80633a98ef391161014b578063485cc95511610125578063485cc9551461026b578063553ca5f81461027e578063595c6a67146102915780635ac86ab71461029957600080fd5b80633a98ef391461023857806343fe08b01461024f57806347e7ef241461025857600080fd5b8063019e27291461019357806310d67a2f146101a857806311c70c9d146101bb578063136439dd146101ce5780632495a599146101e157806339b70e3814610211575b600080fd5b6101a66101a13660046117b2565b6103ba565b005b6101a66101b63660046117fc565b61049d565b6101a66101c9366004611819565b610550565b6101a66101dc36600461183b565b610605565b6032546101f4906001600160a01b031681565b6040516001600160a01b0390911681526020015b60405180910390f35b6101f47f000000000000000000000000000000000000000000000000000000000000000081565b61024160335481565b604051908152602001610208565b61024160645481565b610241610266366004611854565b610749565b6101a6610279366004611880565b610969565b61024161028c3660046117fc565b610a37565b6101a6610a4b565b6102b86102a73660046118b9565b6001805460ff9092161b9081161490565b6040519015158152602001610208565b600154610241565b61024160655481565b6102416102e736600461183b565b610b17565b6000546101f4906201000090046001600160a01b031681565b61024161031336600461183b565b610b62565b6102416103263660046117fc565b610b6d565b610333610b7b565b604051610208919061190c565b61024161034e3660046117fc565b610b9b565b6101a661036136600461193f565b610c30565b60645460655460408051928352602083019190915201610208565b61024161038f36600461183b565b610e7d565b6102416103a236600461183b565b610eb6565b6101a66103b536600461183b565b610ec1565b600054610100900460ff16158080156103da5750600054600160ff909116105b806103f45750303b1580156103f4575060005460ff166001145b6104195760405162461bcd60e51b815260040161041090611980565b60405180910390fd5b6000805460ff19166001179055801561043c576000805461ff0019166101001790555b610446858561101d565b610450838361112a565b8015610496576000805461ff0019169055604051600181527f7f26b83ff96e1f2b6a682f133852f6798a09c465da95921460cefb38474024989060200160405180910390a15b5050505050565b600060029054906101000a90046001600160a01b03166001600160a01b031663eab66d7a6040518163ffffffff1660e01b8152600401602060405180830381865afa1580156104f0573d6000803e3d6000fd5b505050506040513d601f19601f8201168201806040525081019061051491906119ce565b6001600160a01b0316336001600160a01b0316146105445760405162461bcd60e51b8152600401610410906119eb565b61054d816111bb565b50565b600060029054906101000a90046001600160a01b03166001600160a01b031663eab66d7a6040518163ffffffff1660e01b8152600401602060405180830381865afa1580156105a3573d6000803e3d6000fd5b505050506040513d601f19601f820116820180604052508101906105c791906119ce565b6001600160a01b0316336001600160a01b0316146105f75760405162461bcd60e51b8152600401610410906119eb565b610601828261101d565b5050565b60005460405163237dfb4760e11b8152336004820152620100009091046001600160a01b0316906346fbf68e90602401602060405180830381865afa158015610652573d6000803e3d6000fd5b505050506040513d601f19601f820116820180604052508101906106769190611a35565b6106925760405162461bcd60e51b815260040161041090611a57565b6001548181161461070b5760405162461bcd60e51b815260206004820152603860248201527f5061757361626c652e70617573653a20696e76616c696420617474656d70742060448201527f746f20756e70617573652066756e6374696f6e616c69747900000000000000006064820152608401610410565b600181905560405181815233907fab40a374bc51de372200a8bc981af8c9ecdc08dfdaef0bb6e09f88f3c616ef3d906020015b60405180910390a250565b6001805460009182918116141561079e5760405162461bcd60e51b815260206004820152601960248201527814185d5cd8589b194e881a5b99195e081a5cc81c185d5cd959603a1b6044820152606401610410565b336001600160a01b037f000000000000000000000000000000000000000000000000000000000000000016146108165760405162461bcd60e51b815260206004820181905260248201527f5374726174656779426173652e6f6e6c7953747261746567794d616e616765726044820152606401610410565b61082084846112c0565b6032546001600160a01b0385811691161461089c5760405162461bcd60e51b815260206004820152603660248201527f5374726174656779426173652e6465706f7369743a2043616e206f6e6c79206460448201527532b837b9b4ba103ab73232b9363cb4b733aa37b5b2b760511b6064820152608401610410565b60335460006108ad6103e883611ab5565b905060006103e86108bc611398565b6108c69190611ab5565b905060006108d48783611acd565b9050806108e18489611ae4565b6108eb9190611b03565b9550856109515760405162461bcd60e51b815260206004820152602e60248201527f5374726174656779426173652e6465706f7369743a206e65775368617265732060448201526d63616e6e6f74206265207a65726f60901b6064820152608401610410565b61095b8685611ab5565b603355505050505092915050565b600054610100900460ff16158080156109895750600054600160ff909116105b806109a35750303b1580156109a3575060005460ff166001145b6109bf5760405162461bcd60e51b815260040161041090611980565b6000805460ff1916600117905580156109e2576000805461ff0019166101001790555b6109ec838361112a565b8015610a32576000805461ff0019169055604051600181527f7f26b83ff96e1f2b6a682f133852f6798a09c465da95921460cefb38474024989060200160405180910390a15b505050565b6000610a456102e783610b9b565b92915050565b60005460405163237dfb4760e11b8152336004820152620100009091046001600160a01b0316906346fbf68e90602401602060405180830381865afa158015610a98573d6000803e3d6000fd5b505050506040513d601f19601f82011682018060405250810190610abc9190611a35565b610ad85760405162461bcd60e51b815260040161041090611a57565b600019600181905560405190815233907fab40a374bc51de372200a8bc981af8c9ecdc08dfdaef0bb6e09f88f3c616ef3d9060200160405180910390a2565b6000806103e8603354610b2a9190611ab5565b905060006103e8610b39611398565b610b439190611ab5565b905081610b508583611ae4565b610b5a9190611b03565b949350505050565b6000610a4582610e7d565b6000610a456103a283610b9b565b60606040518060800160405280604d8152602001611b5b604d9139905090565b604051633d3f06c960e11b81526001600160a01b0382811660048301523060248301526000917f000000000000000000000000000000000000000000000000000000000000000090911690637a7e0d9290604401602060405180830381865afa158015610c0c573d6000803e3d6000fd5b505050506040513d601f19601f82011682018060405250810190610a459190611b25565b6001805460029081161415610c835760405162461bcd60e51b815260206004820152601960248201527814185d5cd8589b194e881a5b99195e081a5cc81c185d5cd959603a1b6044820152606401610410565b336001600160a01b037f00000000000000000000000000000000000000000000000000000000000000001614610cfb5760405162461bcd60e51b815260206004820181905260248201527f5374726174656779426173652e6f6e6c7953747261746567794d616e616765726044820152606401610410565b6032546001600160a01b03848116911614610d7e5760405162461bcd60e51b815260206004820152603b60248201527f5374726174656779426173652e77697468647261773a2043616e206f6e6c792060448201527f77697468647261772074686520737472617465677920746f6b656e00000000006064820152608401610410565b60335480831115610e0d5760405162461bcd60e51b815260206004820152604d60248201527f5374726174656779426173652e77697468647261773a20616d6f756e7453686160448201527f726573206d757374206265206c657373207468616e206f7220657175616c207460648201526c6f20746f74616c53686172657360981b608482015260a401610410565b6000610e1b6103e883611ab5565b905060006103e8610e2a611398565b610e349190611ab5565b9050600082610e438784611ae4565b610e4d9190611b03565b9050610e598685611acd565b603355603254610e73906001600160a01b0316898361140a565b5050505050505050565b6000806103e8603354610e909190611ab5565b905060006103e8610e9f611398565b610ea99190611ab5565b905080610b508386611ae4565b6000610a4582610b17565b600060029054906101000a90046001600160a01b03166001600160a01b031663eab66d7a6040518163ffffffff1660e01b8152600401602060405180830381865afa158015610f14573d6000803e3d6000fd5b505050506040513d601f19601f82011682018060405250810190610f3891906119ce565b6001600160a01b0316336001600160a01b031614610f685760405162461bcd60e51b8152600401610410906119eb565b600154198119600154191614610fe65760405162461bcd60e51b815260206004820152603860248201527f5061757361626c652e756e70617573653a20696e76616c696420617474656d7060448201527f7420746f2070617573652066756e6374696f6e616c69747900000000000000006064820152608401610410565b600181905560405181815233907f3582d1828e26bf56bd801502bc021ac0bc8afb57c826e4986b45593c8fad389c9060200161073e565b60645460408051918252602082018490527ff97ed4e083acac67830025ecbc756d8fe847cdbdca4cee3fe1e128e98b54ecb5910160405180910390a160655460408051918252602082018390527f6ab181e0440bfbf4bacdf2e99674735ce6638005490688c5f994f5399353e452910160405180910390a18082111561111f5760405162461bcd60e51b815260206004820152604b60248201527f53747261746567794261736554564c4c696d6974732e5f73657454564c4c696d60448201527f6974733a206d61785065724465706f7369742065786365656473206d6178546f60648201526a74616c4465706f7369747360a81b608482015260a401610410565b606491909155606555565b600054610100900460ff166111955760405162461bcd60e51b815260206004820152602b60248201527f496e697469616c697a61626c653a20636f6e7472616374206973206e6f74206960448201526a6e697469616c697a696e6760a81b6064820152608401610410565b603280546001600160a01b0319166001600160a01b03841617905561060181600061145c565b6001600160a01b0381166112495760405162461bcd60e51b815260206004820152604960248201527f5061757361626c652e5f73657450617573657252656769737472793a206e657760448201527f50617573657252656769737472792063616e6e6f7420626520746865207a65726064820152686f206164647265737360b81b608482015260a401610410565b600054604080516001600160a01b03620100009093048316815291831660208301527f6e9fcd539896fca60e8b0f01dd580233e48a6b0f7df013b89ba7f565869acdb6910160405180910390a1600080546001600160a01b03909216620100000262010000600160b01b0319909216919091179055565b60645481111561132a5760405162461bcd60e51b815260206004820152602f60248201527f53747261746567794261736554564c4c696d6974733a206d617820706572206460448201526e195c1bdcda5d08195e18d959591959608a1b6064820152608401610410565b606554611335611398565b11156106015760405162461bcd60e51b815260206004820152602c60248201527f53747261746567794261736554564c4c696d6974733a206d6178206465706f7360448201526b1a5d1cc8195e18d95959195960a21b6064820152608401610410565b6032546040516370a0823160e01b81523060048201526000916001600160a01b0316906370a0823190602401602060405180830381865afa1580156113e1573d6000803e3d6000fd5b505050506040513d601f19601f820116820180604052508101906114059190611b25565b905090565b604080516001600160a01b038416602482015260448082018490528251808303909101815260649091019091526020810180516001600160e01b031663a9059cbb60e01b179052610a32908490611548565b6000546201000090046001600160a01b031615801561148357506001600160a01b03821615155b6115055760405162461bcd60e51b815260206004820152604760248201527f5061757361626c652e5f696e697469616c697a655061757365723a205f696e6960448201527f7469616c697a6550617573657228292063616e206f6e6c792062652063616c6c6064820152666564206f6e636560c81b608482015260a401610410565b600181905560405181815233907fab40a374bc51de372200a8bc981af8c9ecdc08dfdaef0bb6e09f88f3c616ef3d9060200160405180910390a2610601826111bb565b600061159d826040518060400160405280602081526020017f5361666545524332303a206c6f772d6c6576656c2063616c6c206661696c6564815250856001600160a01b031661161a9092919063ffffffff16565b805190915015610a3257808060200190518101906115bb9190611a35565b610a325760405162461bcd60e51b815260206004820152602a60248201527f5361666545524332303a204552433230206f7065726174696f6e20646964206e6044820152691bdd081cdd58d8d9595960b21b6064820152608401610410565b60606116298484600085611633565b90505b9392505050565b6060824710156116945760405162461bcd60e51b815260206004820152602660248201527f416464726573733a20696e73756666696369656e742062616c616e636520666f6044820152651c8818d85b1b60d21b6064820152608401610410565b6001600160a01b0385163b6116eb5760405162461bcd60e51b815260206004820152601d60248201527f416464726573733a2063616c6c20746f206e6f6e2d636f6e74726163740000006044820152606401610410565b600080866001600160a01b031685876040516117079190611b3e565b60006040518083038185875af1925050503d8060008114611744576040519150601f19603f3d011682016040523d82523d6000602084013e611749565b606091505b5091509150611759828286611764565b979650505050505050565b6060831561177357508161162c565b8251156117835782518084602001fd5b8160405162461bcd60e51b8152600401610410919061190c565b6001600160a01b038116811461054d57600080fd5b600080600080608085870312156117c857600080fd5b843593506020850135925060408501356117e18161179d565b915060608501356117f18161179d565b939692955090935050565b60006020828403121561180e57600080fd5b813561162c8161179d565b6000806040838503121561182c57600080fd5b50508035926020909101359150565b60006020828403121561184d57600080fd5b5035919050565b6000806040838503121561186757600080fd5b82356118728161179d565b946020939093013593505050565b6000806040838503121561189357600080fd5b823561189e8161179d565b915060208301356118ae8161179d565b809150509250929050565b6000602082840312156118cb57600080fd5b813560ff8116811461162c57600080fd5b60005b838110156118f75781810151838201526020016118df565b83811115611906576000848401525b50505050565b602081526000825180602084015261192b8160408501602087016118dc565b601f01601f19169190910160400192915050565b60008060006060848603121561195457600080fd5b833561195f8161179d565b9250602084013561196f8161179d565b929592945050506040919091013590565b6020808252602e908201527f496e697469616c697a61626c653a20636f6e747261637420697320616c72656160408201526d191e481a5b9a5d1a585b1a5e995960921b606082015260800190565b6000602082840312156119e057600080fd5b815161162c8161179d565b6020808252602a908201527f6d73672e73656e646572206973206e6f74207065726d697373696f6e6564206160408201526939903ab73830bab9b2b960b11b606082015260800190565b600060208284031215611a4757600080fd5b8151801515811461162c57600080fd5b60208082526028908201527f6d73672e73656e646572206973206e6f74207065726d697373696f6e6564206160408201526739903830bab9b2b960c11b606082015260800190565b634e487b7160e01b600052601160045260246000fd5b60008219821115611ac857611ac8611a9f565b500190565b600082821015611adf57611adf611a9f565b500390565b6000816000190483118215151615611afe57611afe611a9f565b500290565b600082611b2057634e487b7160e01b600052601260045260246000fd5b500490565b600060208284031215611b3757600080fd5b5051919050565b60008251611b508184602087016118dc565b919091019291505056fe4261736520537472617465677920696d706c656d656e746174696f6e20746f20696e68657269742066726f6d20666f72206d6f726520636f6d706c657820696d706c656d656e746174696f6e73a26469706673582212209a3427eb4631c46016acb274445d65d3ca499bbe28b977bd8517240b02da154b64736f6c634300080c0033",
    "linkReferences": {}
  },
  "methodIdentifiers": {
    "deposit(address,uint256)": "47e7ef24",
    "explanation()": "ab5921e1",
    "getTVLLimits()": "df6fadc1",
    "initialize(address,address)": "485cc955",
    "initialize(uint256,uint256,address,address)": "019e2729",
    "maxPerDeposit()": "43fe08b0",
    "maxTotalDeposits()": "61b01b5d",
    "pause(uint256)": "136439dd",
    "pauseAll()": "595c6a67",
    "paused()": "5c975abb",
    "paused(uint8)": "5ac86ab7",
    "pauserRegistry()": "886f1195",
    "setPauserRegistry(address)": "10d67a2f",
    "setTVLLimits(uint256,uint256)": "11c70c9d",
    "shares(address)": "ce7c2ac2",
    "sharesToUnderlying(uint256)": "f3e73875",
    "sharesToUnderlyingView(uint256)": "7a8b2637",
    "strategyManager()": "39b70e38",
    "totalShares()": "3a98ef39",
    "underlyingToShares(uint256)": "8c871019",
    "underlyingToSharesView(uint256)": "e3dae51c",
    "underlyingToken()": "2495a599",
    "unpause(uint256)": "fabc1cbc",
    "userUnderlying(address)": "8f6a6240",
    "userUnderlyingView(address)": "553ca5f8",
    "withdraw(address,address,uint256)": "d9caed12"
  },
  "id": 35
}