{
  "abi": [
    {
      "inputs": [
        {
          "internalType": "uint256",
          "name": "bitmap",
          "type": "uint256"
        }
      ],
      "name": "bitmapToBytesArray",
      "outputs": [
        {
          "internalType": "bytes",
          "name": "bytesArray",
          "type": "bytes"
        }
      ],
      "stateMutability": "pure",
      "type": "function"
    },
    {
      "inputs": [
        {
          "internalType": "uint256",
          "name": "n",
          "type": "uint256"
        }
      ],
      "name": "countNumOnes",
      "outputs": [
        {
          "internalType": "uint16",
          "name": "",
          "type": "uint16"
        }
      ],
      "stateMutability": "pure",
      "type": "function"
    },
    {
      "inputs": [
        {
          "internalType": "bytes",
          "name": "bytesArray",
          "type": "bytes"
        }
      ],
      "name": "isArrayStrictlyAscendingOrdered",
      "outputs": [
        {
          "internalType": "bool",
          "name": "",
          "type": "bool"
        }
      ],
      "stateMutability": "pure",
      "type": "function"
    },
    {
      "inputs": [
        {
          "internalType": "uint256",
          "name": "bitmap",
          "type": "uint256"
        }
      ],
      "name": "isEmpty",
      "outputs": [
        {
          "internalType": "bool",
          "name": "",
          "type": "bool"
        }
      ],
      "stateMutability": "pure",
      "type": "function"
    },
    {
      "inputs": [
        {
          "internalType": "uint256",
          "name": "bitmap",
          "type": "uint256"
        },
        {
          "internalType": "uint8",
          "name": "numberToCheckForInclusion",
          "type": "uint8"
        }
      ],
      "name": "isSet",
      "outputs": [
        {
          "internalType": "bool",
          "name": "",
          "type": "bool"
        }
      ],
      "stateMutability": "pure",
      "type": "function"
    },
    {
      "inputs": [
        {
          "internalType": "uint256",
          "name": "a",
          "type": "uint256"
        },
        {
          "internalType": "uint256",
          "name": "b",
          "type": "uint256"
        }
      ],
      "name": "isSubsetOf",
      "outputs": [
        {
          "internalType": "bool",
          "name": "",
          "type": "bool"
        }
      ],
      "stateMutability": "pure",
      "type": "function"
    },
    {
      "inputs": [
        {
          "internalType": "uint256",
          "name": "a",
          "type": "uint256"
        },
        {
          "internalType": "uint256",
          "name": "b",
          "type": "uint256"
        }
      ],
      "name": "minus",
      "outputs": [
        {
          "internalType": "uint256",
          "name": "",
          "type": "uint256"
        }
      ],
      "stateMutability": "pure",
      "type": "function"
    },
    {
      "inputs": [
        {
          "internalType": "uint256",
          "name": "a",
          "type": "uint256"
        },
        {
          "internalType": "uint256",
          "name": "b",
          "type": "uint256"
        }
      ],
      "name": "noBitsInCommon",
      "outputs": [
        {
          "internalType": "bool",
          "name": "",
          "type": "bool"
        }
      ],
      "stateMutability": "pure",
      "type": "function"
    },
    {
      "inputs": [
        {
          "internalType": "bytes",
          "name": "orderedBytesArray",
          "type": "bytes"
        }
      ],
      "name": "orderedBytesArrayToBitmap",
      "outputs": [
        {
          "internalType": "uint256",
          "name": "",
          "type": "uint256"
        }
      ],
      "stateMutability": "pure",
      "type": "function"
    },
    {
      "inputs": [
        {
          "internalType": "uint256",
          "name": "a",
          "type": "uint256"
        },
        {
          "internalType": "uint256",
          "name": "b",
          "type": "uint256"
        }
      ],
      "name": "plus",
      "outputs": [
        {
          "internalType": "uint256",
          "name": "",
          "type": "uint256"
        }
      ],
      "stateMutability": "pure",
      "type": "function"
    },
    {
      "inputs": [
        {
          "internalType": "uint256",
          "name": "bitmap",
          "type": "uint256"
        },
        {
          "internalType": "uint8",
          "name": "bit",
          "type": "uint8"
        }
      ],
      "name": "setBit",
      "outputs": [
        {
          "internalType": "uint256",
          "name": "",
          "type": "uint256"
        }
      ],
      "stateMutability": "pure",
      "type": "function"
    }
  ],
  "bytecode": {
    "object": "0x608060405234801561001057600080fd5b506107d4806100206000396000f3fe608060405234801561001057600080fd5b50600436106100a95760003560e01c80636c73bd87116100715780636c73bd871461013057806376370f1f14610143578063a8e3eabb14610169578063dd5471851461017c578063f4f3bdc11461019c578063f90cfeef146101af57600080fd5b80631ff4adba146100ae57806320e88403146100d65780634ee29090146100f757806362e2ef331461010a57806366098d4f1461011d575b600080fd5b6100c16100bc3660046105d0565b6101c2565b60405190151581526020015b60405180910390f35b6100e96100e4366004610606565b6101da565b6040519081526020016100cd565b6100e96101053660046105d0565b61021b565b6100c1610118366004610678565b61022b565b6100e961012b366004610678565b610236565b6100c161013e366004610606565b610240565b61015661015136600461069a565b61024c565b60405161ffff90911681526020016100cd565b6100c1610177366004610678565b610257565b61018f61018a36600461069a565b610263565b6040516100cd91906106b3565b6100e96101aa366004610678565b61026e565b6100c16101bd36600461069a565b610279565b6000600160ff831684901c8116145b90505b92915050565b60006101d183838080601f01602080910402602001604051908101604052809392919081815260200183838082843760009201919091525061028292505050565b6000600160ff83161b83176101d1565b6000818316156101d1565b60008183176101d1565b60006101d18383610414565b60006101d4826104d8565b600081831683146101d1565b60606101d482610503565b6000811983166101d1565b600081156101d4565b6000610100825111156103105760405162461bcd60e51b8152602060048201526044602482018190527f4269746d61705574696c732e6f72646572656442797465734172726179546f42908201527f69746d61703a206f7264657265644279746573417272617920697320746f6f206064820152636c6f6e6760e01b608482015260a4015b60405180910390fd5b815161031e57506000919050565b6000808360008151811061033457610334610708565b0160200151600160f89190911c81901b92505b845181101561040b5784818151811061036257610362610708565b0160200151600160f89190911c1b91508282116103f75760405162461bcd60e51b815260206004820152604760248201527f4269746d61705574696c732e6f72646572656442797465734172726179546f4260448201527f69746d61703a206f72646572656442797465734172726179206973206e6f74206064820152661bdc99195c995960ca1b608482015260a401610307565b9181179161040481610734565b9050610347565b50909392505050565b6000610100821115610428575060006101d4565b81610435575060016101d4565b60008383600081811061044a5761044a610708565b909101356001600160f81b0319169150600190505b838110156104cd5760f882901c85858381811061047e5761047e610708565b9050013560f81c60f81b60f81c60ff161161049e576000925050506101d4565b8484828181106104b0576104b0610708565b9050013560f81c60f81b9150806104c690610734565b905061045f565b506001949350505050565b6000805b82156101d4576104ed60018461074f565b90921691806104fb81610766565b9150506104dc565b6060600080610511846104d8565b61ffff1667ffffffffffffffff81111561052d5761052d610788565b6040519080825280601f01601f191660200182016040528015610557576020820181803683370190505b5090506000805b82518210801561056f575061010081105b156105c6576001811b9350858416156105b6578060f81b83838151811061059857610598610708565b60200101906001600160f81b031916908160001a9053508160010191505b6105bf81610734565b905061055e565b5090949350505050565b600080604083850312156105e357600080fd5b82359150602083013560ff811681146105fb57600080fd5b809150509250929050565b6000806020838503121561061957600080fd5b823567ffffffffffffffff8082111561063157600080fd5b818501915085601f83011261064557600080fd5b81358181111561065457600080fd5b86602082850101111561066657600080fd5b60209290920196919550909350505050565b6000806040838503121561068b57600080fd5b50508035926020909101359150565b6000602082840312156106ac57600080fd5b5035919050565b600060208083528351808285015260005b818110156106e0578581018301518582016040015282016106c4565b818111156106f2576000604083870101525b50601f01601f1916929092016040019392505050565b634e487b7160e01b600052603260045260246000fd5b634e487b7160e01b600052601160045260246000fd5b60006000198214156107485761074861071e565b5060010190565b6000828210156107615761076161071e565b500390565b600061ffff8083168181141561077e5761077e61071e565b6001019392505050565b634e487b7160e01b600052604160045260246000fdfea26469706673582212203393c456f585f336c5c6e52066cfb1d702ab39c0086fa285bf724a2091dab93964736f6c634300080c0033",
    "linkReferences": {}
  },
  "methodIdentifiers": {
    "bitmapToBytesArray(uint256)": "dd547185",
    "countNumOnes(uint256)": "76370f1f",
    "isArrayStrictlyAscendingOrdered(bytes)": "6c73bd87",
    "isEmpty(uint256)": "f90cfeef",
    "isSet(uint256,uint8)": "1ff4adba",
    "isSubsetOf(uint256,uint256)": "a8e3eabb",
    "minus(uint256,uint256)": "f4f3bdc1",
    "noBitsInCommon(uint256,uint256)": "62e2ef33",
    "orderedBytesArrayToBitmap(bytes)": "20e88403",
    "plus(uint256,uint256)": "66098d4f",
    "setBit(uint256,uint8)": "4ee29090"
  },
  "id": 121
}