{
  "abi": [
    {
      "anonymous": false,
      "inputs": [
        {
          "indexed": false,
          "internalType": "address",
          "name": "staker",
          "type": "address"
        },
        {
          "indexed": false,
          "internalType": "contract IERC20",
          "name": "token",
          "type": "address"
        },
        {
          "indexed": false,
          "internalType": "contract IStrategy",
          "name": "strategy",
          "type": "address"
        },
        {
          "indexed": false,
          "internalType": "uint256",
          "name": "shares",
          "type": "uint256"
        }
      ],
      "name": "Deposit",
      "type": "event"
    },
    {
      "anonymous": false,
      "inputs": [
        {
          "indexed": false,
          "internalType": "uint8",
          "name": "version",
          "type": "uint8"
        }
      ],
      "name": "Initialized",
      "type": "event"
    },
    {
      "anonymous": false,
      "inputs": [
        {
          "indexed": true,
          "internalType": "address",
          "name": "previousOwner",
          "type": "address"
        },
        {
          "indexed": true,
          "internalType": "address",
          "name": "newOwner",
          "type": "address"
        }
      ],
      "name": "OwnershipTransferred",
      "type": "event"
    },
    {
      "anonymous": false,
      "inputs": [
        {
          "indexed": true,
          "internalType": "address",
          "name": "account",
          "type": "address"
        },
        {
          "indexed": false,
          "internalType": "uint256",
          "name": "newPausedStatus",
          "type": "uint256"
        }
      ],
      "name": "Paused",
      "type": "event"
    },
    {
      "anonymous": false,
      "inputs": [
        {
          "indexed": false,
          "internalType": "contract IPauserRegistry",
          "name": "pauserRegistry",
          "type": "address"
        },
        {
          "indexed": false,
          "internalType": "contract IPauserRegistry",
          "name": "newPauserRegistry",
          "type": "address"
        }
      ],
      "name": "PauserRegistrySet",
      "type": "event"
    },
    {
      "anonymous": false,
      "inputs": [
        {
          "indexed": false,
          "internalType": "contract IStrategy",
          "name": "strategy",
          "type": "address"
        }
      ],
      "name": "StrategyAddedToDepositWhitelist",
      "type": "event"
    },
    {
      "anonymous": false,
      "inputs": [
        {
          "indexed": false,
          "internalType": "contract IStrategy",
          "name": "strategy",
          "type": "address"
        }
      ],
      "name": "StrategyRemovedFromDepositWhitelist",
      "type": "event"
    },
    {
      "anonymous": false,
      "inputs": [
        {
          "indexed": false,
          "internalType": "address",
          "name": "previousAddress",
          "type": "address"
        },
        {
          "indexed": false,
          "internalType": "address",
          "name": "newAddress",
          "type": "address"
        }
      ],
      "name": "StrategyWhitelisterChanged",
      "type": "event"
    },
    {
      "anonymous": false,
      "inputs": [
        {
          "indexed": true,
          "internalType": "address",
          "name": "account",
          "type": "address"
        },
        {
          "indexed": false,
          "internalType": "uint256",
          "name": "newPausedStatus",
          "type": "uint256"
        }
      ],
      "name": "Unpaused",
      "type": "event"
    },
    {
      "anonymous": false,
      "inputs": [
        {
          "indexed": false,
          "internalType": "contract IStrategy",
          "name": "strategy",
          "type": "address"
        },
        {
          "indexed": false,
          "internalType": "bool",
          "name": "value",
          "type": "bool"
        }
      ],
      "name": "UpdatedThirdPartyTransfersForbidden",
      "type": "event"
    },
    {
      "inputs": [
        {
          "internalType": "address",
          "name": "staker",
          "type": "address"
        },
        {
          "internalType": "contract IERC20",
          "name": "token",
          "type": "address"
        },
        {
          "internalType": "contract IStrategy",
          "name": "strategy",
          "type": "address"
        },
        {
          "internalType": "uint256",
          "name": "shares",
          "type": "uint256"
        }
      ],
      "name": "addShares",
      "outputs": [],
      "stateMutability": "nonpayable",
      "type": "function"
    },
    {
      "inputs": [
        {
          "internalType": "contract IStrategy[]",
          "name": "",
          "type": "address[]"
        },
        {
          "internalType": "bool[]",
          "name": "",
          "type": "bool[]"
        }
      ],
      "name": "addStrategiesToDepositWhitelist",
      "outputs": [],
      "stateMutability": "pure",
      "type": "function"
    },
    {
      "inputs": [],
      "name": "beaconChainETHStrategy",
      "outputs": [
        {
          "internalType": "contract IStrategy",
          "name": "",
          "type": "address"
        }
      ],
      "stateMutability": "view",
      "type": "function"
    },
    {
      "inputs": [
        {
          "components": [
            {
              "internalType": "contract IStrategy[]",
              "name": "strategies",
              "type": "address[]"
            },
            {
              "internalType": "uint256[]",
              "name": "shares",
              "type": "uint256[]"
            },
            {
              "internalType": "address",
              "name": "staker",
              "type": "address"
            },
            {
              "components": [
                {
                  "internalType": "address",
                  "name": "withdrawer",
                  "type": "address"
                },
                {
                  "internalType": "uint96",
                  "name": "nonce",
                  "type": "uint96"
                }
              ],
              "internalType": "struct IStrategyManager.DeprecatedStruct_WithdrawerAndNonce",
              "name": "withdrawerAndNonce",
              "type": "tuple"
            },
            {
              "internalType": "uint32",
              "name": "withdrawalStartBlock",
              "type": "uint32"
            },
            {
              "internalType": "address",
              "name": "delegatedAddress",
              "type": "address"
            }
          ],
          "internalType": "struct IStrategyManager.DeprecatedStruct_QueuedWithdrawal",
          "name": "queuedWithdrawal",
          "type": "tuple"
        }
      ],
      "name": "calculateWithdrawalRoot",
      "outputs": [
        {
          "internalType": "bytes32",
          "name": "",
          "type": "bytes32"
        }
      ],
      "stateMutability": "pure",
      "type": "function"
    },
    {
      "inputs": [
        {
          "internalType": "address",
          "name": "",
          "type": "address"
        }
      ],
      "name": "cumulativeWithdrawalsQueued",
      "outputs": [
        {
          "internalType": "uint256",
          "name": "",
          "type": "uint256"
        }
      ],
      "stateMutability": "view",
      "type": "function"
    },
    {
      "inputs": [],
      "name": "delegation",
      "outputs": [
        {
          "internalType": "contract IDelegationManager",
          "name": "",
          "type": "address"
        }
      ],
      "stateMutability": "view",
      "type": "function"
    },
    {
      "inputs": [
        {
          "internalType": "address",
          "name": "staker",
          "type": "address"
        },
        {
          "internalType": "uint256",
          "name": "amount",
          "type": "uint256"
        }
      ],
      "name": "depositBeaconChainETH",
      "outputs": [],
      "stateMutability": "nonpayable",
      "type": "function"
    },
    {
      "inputs": [
        {
          "internalType": "contract IStrategy",
          "name": "strategy",
          "type": "address"
        },
        {
          "internalType": "contract IERC20",
          "name": "token",
          "type": "address"
        },
        {
          "internalType": "uint256",
          "name": "amount",
          "type": "uint256"
        }
      ],
      "name": "depositIntoStrategy",
      "outputs": [
        {
          "internalType": "uint256",
          "name": "",
          "type": "uint256"
        }
      ],
      "stateMutability": "nonpayable",
      "type": "function"
    },
    {
      "inputs": [
        {
          "internalType": "contract IStrategy",
          "name": "strategy",
          "type": "address"
        },
        {
          "internalType": "contract IERC20",
          "name": "token",
          "type": "address"
        },
        {
          "internalType": "uint256",
          "name": "amount",
          "type": "uint256"
        },
        {
          "internalType": "address",
          "name": "staker",
          "type": "address"
        },
        {
          "internalType": "uint256",
          "name": "expiry",
          "type": "uint256"
        },
        {
          "internalType": "bytes",
          "name": "signature",
          "type": "bytes"
        }
      ],
      "name": "depositIntoStrategyWithSignature",
      "outputs": [
        {
          "internalType": "uint256",
          "name": "shares",
          "type": "uint256"
        }
      ],
      "stateMutability": "nonpayable",
      "type": "function"
    },
    {
      "inputs": [],
      "name": "eigenPodManager",
      "outputs": [
        {
          "internalType": "contract IEigenPodManager",
          "name": "",
          "type": "address"
        }
      ],
      "stateMutability": "view",
      "type": "function"
    },
    {
      "inputs": [
        {
          "internalType": "address",
          "name": "staker",
          "type": "address"
        }
      ],
      "name": "getDeposits",
      "outputs": [
        {
          "internalType": "contract IStrategy[]",
          "name": "",
          "type": "address[]"
        },
        {
          "internalType": "uint256[]",
          "name": "",
          "type": "uint256[]"
        }
      ],
      "stateMutability": "view",
      "type": "function"
    },
    {
      "inputs": [
        {
          "components": [
            {
              "internalType": "contract IStrategy[]",
              "name": "strategies",
              "type": "address[]"
            },
            {
              "internalType": "uint256[]",
              "name": "shares",
              "type": "uint256[]"
            },
            {
              "internalType": "address",
              "name": "staker",
              "type": "address"
            },
            {
              "components": [
                {
                  "internalType": "address",
                  "name": "withdrawer",
                  "type": "address"
                },
                {
                  "internalType": "uint96",
                  "name": "nonce",
                  "type": "uint96"
                }
              ],
              "internalType": "struct IStrategyManager.DeprecatedStruct_WithdrawerAndNonce",
              "name": "withdrawerAndNonce",
              "type": "tuple"
            },
            {
              "internalType": "uint32",
              "name": "withdrawalStartBlock",
              "type": "uint32"
            },
            {
              "internalType": "address",
              "name": "delegatedAddress",
              "type": "address"
            }
          ],
          "internalType": "struct IStrategyManager.DeprecatedStruct_QueuedWithdrawal",
          "name": "queuedWithdrawal",
          "type": "tuple"
        }
      ],
      "name": "migrateQueuedWithdrawal",
      "outputs": [
        {
          "internalType": "bool",
          "name": "",
          "type": "bool"
        },
        {
          "internalType": "bytes32",
          "name": "",
          "type": "bytes32"
        }
      ],
      "stateMutability": "nonpayable",
      "type": "function"
    },
    {
      "inputs": [],
      "name": "owner",
      "outputs": [
        {
          "internalType": "address",
          "name": "",
          "type": "address"
        }
      ],
      "stateMutability": "view",
      "type": "function"
    },
    {
      "inputs": [
        {
          "internalType": "uint256",
          "name": "newPausedStatus",
          "type": "uint256"
        }
      ],
      "name": "pause",
      "outputs": [],
      "stateMutability": "nonpayable",
      "type": "function"
    },
    {
      "inputs": [],
      "name": "pauseAll",
      "outputs": [],
      "stateMutability": "nonpayable",
      "type": "function"
    },
    {
      "inputs": [
        {
          "internalType": "uint8",
          "name": "index",
          "type": "uint8"
        }
      ],
      "name": "paused",
      "outputs": [
        {
          "internalType": "bool",
          "name": "",
          "type": "bool"
        }
      ],
      "stateMutability": "view",
      "type": "function"
    },
    {
      "inputs": [],
      "name": "paused",
      "outputs": [
        {
          "internalType": "uint256",
          "name": "",
          "type": "uint256"
        }
      ],
      "stateMutability": "view",
      "type": "function"
    },
    {
      "inputs": [],
      "name": "pauserRegistry",
      "outputs": [
        {
          "internalType": "contract IPauserRegistry",
          "name": "",
          "type": "address"
        }
      ],
      "stateMutability": "view",
      "type": "function"
    },
    {
      "inputs": [
        {
          "internalType": "address",
          "name": "overcommittedPodOwner",
          "type": "address"
        },
        {
          "internalType": "uint256",
          "name": "beaconChainETHStrategyIndex",
          "type": "uint256"
        },
        {
          "internalType": "int256",
          "name": "sharesDelta",
          "type": "int256"
        }
      ],
      "name": "recordBeaconChainETHBalanceUpdate",
      "outputs": [],
      "stateMutability": "nonpayable",
      "type": "function"
    },
    {
      "inputs": [
        {
          "internalType": "address",
          "name": "staker",
          "type": "address"
        },
        {
          "internalType": "contract IStrategy",
          "name": "strategy",
          "type": "address"
        },
        {
          "internalType": "uint256",
          "name": "shares",
          "type": "uint256"
        }
      ],
      "name": "removeShares",
      "outputs": [],
      "stateMutability": "nonpayable",
      "type": "function"
    },
    {
      "inputs": [
        {
          "internalType": "contract IStrategy[]",
          "name": "",
          "type": "address[]"
        }
      ],
      "name": "removeStrategiesFromDepositWhitelist",
      "outputs": [],
      "stateMutability": "pure",
      "type": "function"
    },
    {
      "inputs": [],
      "name": "renounceOwnership",
      "outputs": [],
      "stateMutability": "nonpayable",
      "type": "function"
    },
    {
      "inputs": [
        {
          "internalType": "contract IDelegationManager",
          "name": "_delegation",
          "type": "address"
        },
        {
          "internalType": "contract IEigenPodManager",
          "name": "_eigenPodManager",
          "type": "address"
        },
        {
          "internalType": "contract ISlasher",
          "name": "_slasher",
          "type": "address"
        }
      ],
      "name": "setAddresses",
      "outputs": [],
      "stateMutability": "nonpayable",
      "type": "function"
    },
    {
      "inputs": [
        {
          "internalType": "address",
          "name": "staker",
          "type": "address"
        },
        {
          "internalType": "contract IStrategy[]",
          "name": "_strategiesToReturn",
          "type": "address[]"
        },
        {
          "internalType": "uint256[]",
          "name": "_sharesToReturn",
          "type": "uint256[]"
        }
      ],
      "name": "setDeposits",
      "outputs": [],
      "stateMutability": "nonpayable",
      "type": "function"
    },
    {
      "inputs": [
        {
          "internalType": "contract IPauserRegistry",
          "name": "newPauserRegistry",
          "type": "address"
        }
      ],
      "name": "setPauserRegistry",
      "outputs": [],
      "stateMutability": "nonpayable",
      "type": "function"
    },
    {
      "inputs": [
        {
          "internalType": "uint256",
          "name": "valueToSet",
          "type": "uint256"
        }
      ],
      "name": "setStakerStrategyListLengthReturnValue",
      "outputs": [],
      "stateMutability": "nonpayable",
      "type": "function"
    },
    {
      "inputs": [
        {
          "internalType": "address",
          "name": "",
          "type": "address"
        },
        {
          "internalType": "uint256",
          "name": "",
          "type": "uint256"
        }
      ],
      "name": "sharesToReturn",
      "outputs": [
        {
          "internalType": "uint256",
          "name": "",
          "type": "uint256"
        }
      ],
      "stateMutability": "view",
      "type": "function"
    },
    {
      "inputs": [],
      "name": "slasher",
      "outputs": [
        {
          "internalType": "contract ISlasher",
          "name": "",
          "type": "address"
        }
      ],
      "stateMutability": "view",
      "type": "function"
    },
    {
      "inputs": [
        {
          "internalType": "address",
          "name": "",
          "type": "address"
        }
      ],
      "name": "stakerStrategyListLength",
      "outputs": [
        {
          "internalType": "uint256",
          "name": "",
          "type": "uint256"
        }
      ],
      "stateMutability": "view",
      "type": "function"
    },
    {
      "inputs": [],
      "name": "stakerStrategyListLengthReturnValue",
      "outputs": [
        {
          "internalType": "uint256",
          "name": "",
          "type": "uint256"
        }
      ],
      "stateMutability": "view",
      "type": "function"
    },
    {
      "inputs": [
        {
          "internalType": "address",
          "name": "user",
          "type": "address"
        },
        {
          "internalType": "contract IStrategy",
          "name": "strategy",
          "type": "address"
        }
      ],
      "name": "stakerStrategyShares",
      "outputs": [
        {
          "internalType": "uint256",
          "name": "shares",
          "type": "uint256"
        }
      ],
      "stateMutability": "view",
      "type": "function"
    },
    {
      "inputs": [
        {
          "internalType": "address",
          "name": "staker",
          "type": "address"
        }
      ],
      "name": "stakerStrats",
      "outputs": [
        {
          "internalType": "contract IStrategy[]",
          "name": "",
          "type": "address[]"
        }
      ],
      "stateMutability": "view",
      "type": "function"
    },
    {
      "inputs": [
        {
          "internalType": "address",
          "name": "",
          "type": "address"
        },
        {
          "internalType": "uint256",
          "name": "",
          "type": "uint256"
        }
      ],
      "name": "strategiesToReturn",
      "outputs": [
        {
          "internalType": "contract IStrategy",
          "name": "",
          "type": "address"
        }
      ],
      "stateMutability": "view",
      "type": "function"
    },
    {
      "inputs": [],
      "name": "strategyWhitelister",
      "outputs": [
        {
          "internalType": "address",
          "name": "",
          "type": "address"
        }
      ],
      "stateMutability": "view",
      "type": "function"
    },
    {
      "inputs": [
        {
          "internalType": "contract IStrategy",
          "name": "strategy",
          "type": "address"
        }
      ],
      "name": "thirdPartyTransfersForbidden",
      "outputs": [
        {
          "internalType": "bool",
          "name": "",
          "type": "bool"
        }
      ],
      "stateMutability": "view",
      "type": "function"
    },
    {
      "inputs": [
        {
          "internalType": "address",
          "name": "newOwner",
          "type": "address"
        }
      ],
      "name": "transferOwnership",
      "outputs": [],
      "stateMutability": "nonpayable",
      "type": "function"
    },
    {
      "inputs": [
        {
          "internalType": "uint256",
          "name": "newPausedStatus",
          "type": "uint256"
        }
      ],
      "name": "unpause",
      "outputs": [],
      "stateMutability": "nonpayable",
      "type": "function"
    },
    {
      "inputs": [
        {
          "internalType": "address",
          "name": "recipient",
          "type": "address"
        },
        {
          "internalType": "contract IStrategy",
          "name": "strategy",
          "type": "address"
        },
        {
          "internalType": "uint256",
          "name": "shares",
          "type": "uint256"
        },
        {
          "internalType": "contract IERC20",
          "name": "token",
          "type": "address"
        }
      ],
      "name": "withdrawSharesAsTokens",
      "outputs": [],
      "stateMutability": "nonpayable",
      "type": "function"
    }
  ],
  "bytecode": {
    "object": "0x608060405234801561001057600080fd5b5061179d806100206000396000f3fe608060405234801561001057600080fd5b50600436106102325760003560e01c8063967fc0d211610130578063c4623ea1116100b8578063e243dc3c1161007c578063e243dc3c1461052f578063e2a818c514610542578063e7a050aa14610555578063f2fde38b1461056c578063fabc1cbc1461057f57600080fd5b8063c4623ea1146104bf578063c608c7f3146104d3578063cd293f6f146104e1578063df5b35471461050e578063df5cf7231461051c57600080fd5b8063a1788484116100ff578063a178848414610462578063a1ca780b14610482578063b134427114610490578063b43b514b146104a3578063b5d8b5b8146104b157600080fd5b8063967fc0d2146104165780639a9519e0146104295780639b4da03d1461043c5780639f00fa241461045057600080fd5b80635c975abb116101be5780638b8aac3c116101825780638b8aac3c146103b55780638c80d4e5146103ca5780638da5cb5b146103dd5780639104c319146103ee57806394f649dd146103f557600080fd5b80635c975abb1461036957806363fca88814610371578063715018a6146103845780637a7e0d921461038c578063886f1195146103a257600080fd5b806332e89ace1161020557806332e89ace1461029c578063363bf964146102b65780634665bcda14610303578063595c6a671461032e5780635ac86ab71461033657600080fd5b806301f820b2146102375780630d3908f41461025357806310d67a2f14610274578063136439dd14610289575b600080fd5b61024060d05481565b6040519081526020015b60405180910390f35b610267610261366004610ea1565b50606090565b60405161024a9190610f09565b610287610282366004610ea1565b610592565b005b610287610297366004610f1c565b61064e565b6102406102aa366004610fa5565b60009695505050505050565b6102876102c4366004611084565b60c980546001600160a01b039485166001600160a01b03199182161790915560cb80549285169282169290921790915560ca8054929093169116179055565b60ca54610316906001600160a01b031681565b6040516001600160a01b03909116815260200161024a565b61028761078d565b6103596103443660046110cf565b609854600160ff9092169190911b9081161490565b604051901515815260200161024a565b609854610240565b61024061037f3660046110f2565b610854565b610287610885565b61024061039a36600461111e565b600092915050565b609754610316906001600160a01b031681565b6102406103c3366004610ea1565b5060d05490565b6102876103d8366004611157565b505050565b6033546001600160a01b0316610316565b6000610316565b610408610403366004610ea1565b610899565b60405161024a929190611198565b60cc54610316906001600160a01b031681565b610287610437366004610f1c565b60d055565b61035961044a366004610ea1565b50600090565b61028761045e3660046110f2565b5050565b610240610470366004610ea1565b60cf6020526000908152604090205481565b6102876103d83660046111ef565b60cb54610316906001600160a01b031681565b61024061044a36600461139f565b61028761045e3660046114c1565b6102876104cd366004611503565b50505050565b6102876104cd366004611554565b6104f76104ef36600461139f565b600080915091565b60408051921515835260208301919091520161024a565b6102876104cd3660046115a7565b60c954610316906001600160a01b031681565b61031661053d3660046110f2565b610972565b610287610550366004611613565b6109aa565b610240610563366004611157565b60009392505050565b61028761057a366004610ea1565b610a54565b61028761058d366004610f1c565b610aca565b609760009054906101000a90046001600160a01b03166001600160a01b031663eab66d7a6040518163ffffffff1660e01b8152600401602060405180830381865afa1580156105e5573d6000803e3d6000fd5b505050506040513d601f19601f820116820180604052508101906106099190611696565b6001600160a01b0316336001600160a01b0316146106425760405162461bcd60e51b8152600401610639906116b3565b60405180910390fd5b61064b81610c26565b50565b60975460405163237dfb4760e11b81523360048201526001600160a01b03909116906346fbf68e90602401602060405180830381865afa158015610696573d6000803e3d6000fd5b505050506040513d601f19601f820116820180604052508101906106ba91906116fd565b6106d65760405162461bcd60e51b81526004016106399061171f565b6098548181161461074f5760405162461bcd60e51b815260206004820152603860248201527f5061757361626c652e70617573653a20696e76616c696420617474656d70742060448201527f746f20756e70617573652066756e6374696f6e616c69747900000000000000006064820152608401610639565b609881905560405181815233907fab40a374bc51de372200a8bc981af8c9ecdc08dfdaef0bb6e09f88f3c616ef3d906020015b60405180910390a250565b60975460405163237dfb4760e11b81523360048201526001600160a01b03909116906346fbf68e90602401602060405180830381865afa1580156107d5573d6000803e3d6000fd5b505050506040513d601f19601f820116820180604052508101906107f991906116fd565b6108155760405162461bcd60e51b81526004016106399061171f565b600019609881905560405190815233907fab40a374bc51de372200a8bc981af8c9ecdc08dfdaef0bb6e09f88f3c616ef3d9060200160405180910390a2565b60ce602052816000526040600020818154811061087057600080fd5b90600052602060002001600091509150505481565b61088d610d1d565b6108976000610d77565b565b6001600160a01b038116600090815260cd6020908152604080832060ce83529281902083548251818502810185019093528083526060948594909391849183018282801561091057602002820191906000526020600020905b81546001600160a01b031681526001909101906020018083116108f2575b505050505091508080548060200260200160405190810160405280929190818152602001828054801561096257602002820191906000526020600020905b81548152602001906001019080831161094e575b5050505050905091509150915091565b60cd602052816000526040600020818154811061098e57600080fd5b6000918252602090912001546001600160a01b03169150829050565b828114610a055760405162461bcd60e51b8152602060048201526024808201527f53747261746567794d616e616765724d6f636b3a206c656e677468206d69736d6044820152630c2e8c6d60e31b6064820152608401610639565b6001600160a01b038516600090815260cd60205260409020610a28908585610dc9565b506001600160a01b038516600090815260ce60205260409020610a4c908383610e2c565b505050505050565b610a5c610d1d565b6001600160a01b038116610ac15760405162461bcd60e51b815260206004820152602660248201527f4f776e61626c653a206e6577206f776e657220697320746865207a65726f206160448201526564647265737360d01b6064820152608401610639565b61064b81610d77565b609760009054906101000a90046001600160a01b03166001600160a01b031663eab66d7a6040518163ffffffff1660e01b8152600401602060405180830381865afa158015610b1d573d6000803e3d6000fd5b505050506040513d601f19601f82011682018060405250810190610b419190611696565b6001600160a01b0316336001600160a01b031614610b715760405162461bcd60e51b8152600401610639906116b3565b609854198119609854191614610bef5760405162461bcd60e51b815260206004820152603860248201527f5061757361626c652e756e70617573653a20696e76616c696420617474656d7060448201527f7420746f2070617573652066756e6374696f6e616c69747900000000000000006064820152608401610639565b609881905560405181815233907f3582d1828e26bf56bd801502bc021ac0bc8afb57c826e4986b45593c8fad389c90602001610782565b6001600160a01b038116610cb45760405162461bcd60e51b815260206004820152604960248201527f5061757361626c652e5f73657450617573657252656769737472793a206e657760448201527f50617573657252656769737472792063616e6e6f7420626520746865207a65726064820152686f206164647265737360b81b608482015260a401610639565b609754604080516001600160a01b03928316815291831660208301527f6e9fcd539896fca60e8b0f01dd580233e48a6b0f7df013b89ba7f565869acdb6910160405180910390a1609780546001600160a01b0319166001600160a01b0392909216919091179055565b6033546001600160a01b031633146108975760405162461bcd60e51b815260206004820181905260248201527f4f776e61626c653a2063616c6c6572206973206e6f7420746865206f776e65726044820152606401610639565b603380546001600160a01b038381166001600160a01b0319831681179093556040519116919082907f8be0079c531659141344cd1fd0a4f28419497f9722a3daafe3b4186f6b6457e090600090a35050565b828054828255906000526020600020908101928215610e1c579160200282015b82811115610e1c5781546001600160a01b0319166001600160a01b03843516178255602090920191600190910190610de9565b50610e28929150610e67565b5090565b828054828255906000526020600020908101928215610e1c579160200282015b82811115610e1c578235825591602001919060010190610e4c565b5b80821115610e285760008155600101610e68565b6001600160a01b038116811461064b57600080fd5b8035610e9c81610e7c565b919050565b600060208284031215610eb357600080fd5b8135610ebe81610e7c565b9392505050565b600081518084526020808501945080840160005b83811015610efe5781516001600160a01b031687529582019590820190600101610ed9565b509495945050505050565b602081526000610ebe6020830184610ec5565b600060208284031215610f2e57600080fd5b5035919050565b634e487b7160e01b600052604160045260246000fd5b60405160c0810167ffffffffffffffff81118282101715610f6e57610f6e610f35565b60405290565b604051601f8201601f1916810167ffffffffffffffff81118282101715610f9d57610f9d610f35565b604052919050565b60008060008060008060c08789031215610fbe57600080fd5b8635610fc981610e7c565b9550602087810135610fda81610e7c565b9550604088013594506060880135610ff181610e7c565b93506080880135925060a088013567ffffffffffffffff8082111561101557600080fd5b818a0191508a601f83011261102957600080fd5b81358181111561103b5761103b610f35565b61104d601f8201601f19168501610f74565b91508082528b8482850101111561106357600080fd5b80848401858401376000848284010152508093505050509295509295509295565b60008060006060848603121561109957600080fd5b83356110a481610e7c565b925060208401356110b481610e7c565b915060408401356110c481610e7c565b809150509250925092565b6000602082840312156110e157600080fd5b813560ff81168114610ebe57600080fd5b6000806040838503121561110557600080fd5b823561111081610e7c565b946020939093013593505050565b6000806040838503121561113157600080fd5b823561113c81610e7c565b9150602083013561114c81610e7c565b809150509250929050565b60008060006060848603121561116c57600080fd5b833561117781610e7c565b9250602084013561118781610e7c565b929592945050506040919091013590565b6040815260006111ab6040830185610ec5565b82810360208481019190915284518083528582019282019060005b818110156111e2578451835293830193918301916001016111c6565b5090979650505050505050565b60008060006060848603121561120457600080fd5b833561120f81610e7c565b95602085013595506040909401359392505050565b600067ffffffffffffffff82111561123e5761123e610f35565b5060051b60200190565b600082601f83011261125957600080fd5b8135602061126e61126983611224565b610f74565b82815260059290921b8401810191818101908684111561128d57600080fd5b8286015b848110156112b15780356112a481610e7c565b8352918301918301611291565b509695505050505050565b600082601f8301126112cd57600080fd5b813560206112dd61126983611224565b82815260059290921b840181019181810190868411156112fc57600080fd5b8286015b848110156112b15780358352918301918301611300565b60006040828403121561132957600080fd5b6040516040810181811067ffffffffffffffff8211171561134c5761134c610f35565b604052905080823561135d81610e7c565b815260208301356bffffffffffffffffffffffff8116811461137e57600080fd5b6020919091015292915050565b803563ffffffff81168114610e9c57600080fd5b6000602082840312156113b157600080fd5b813567ffffffffffffffff808211156113c957600080fd5b9083019060e082860312156113dd57600080fd5b6113e5610f4b565b8235828111156113f457600080fd5b61140087828601611248565b82525060208301358281111561141557600080fd5b611421878286016112bc565b60208301525061143360408401610e91565b60408201526114458660608501611317565b606082015261145660a0840161138b565b608082015261146760c08401610e91565b60a082015295945050505050565b60008083601f84011261148757600080fd5b50813567ffffffffffffffff81111561149f57600080fd5b6020830191508360208260051b85010111156114ba57600080fd5b9250929050565b600080602083850312156114d457600080fd5b823567ffffffffffffffff8111156114eb57600080fd5b6114f785828601611475565b90969095509350505050565b6000806000806080858703121561151957600080fd5b843561152481610e7c565b9350602085013561153481610e7c565b9250604085013561154481610e7c565b9396929550929360600135925050565b6000806000806080858703121561156a57600080fd5b843561157581610e7c565b9350602085013561158581610e7c565b925060408501359150606085013561159c81610e7c565b939692955090935050565b600080600080604085870312156115bd57600080fd5b843567ffffffffffffffff808211156115d557600080fd5b6115e188838901611475565b909650945060208701359150808211156115fa57600080fd5b5061160787828801611475565b95989497509550505050565b60008060008060006060868803121561162b57600080fd5b853561163681610e7c565b9450602086013567ffffffffffffffff8082111561165357600080fd5b61165f89838a01611475565b9096509450604088013591508082111561167857600080fd5b5061168588828901611475565b969995985093965092949392505050565b6000602082840312156116a857600080fd5b8151610ebe81610e7c565b6020808252602a908201527f6d73672e73656e646572206973206e6f74207065726d697373696f6e6564206160408201526939903ab73830bab9b2b960b11b606082015260800190565b60006020828403121561170f57600080fd5b81518015158114610ebe57600080fd5b60208082526028908201527f6d73672e73656e646572206973206e6f74207065726d697373696f6e6564206160408201526739903830bab9b2b960c11b60608201526080019056fea264697066735822122000d68f6c6ce98a4979ecdd275a9c30b9c829bc7271414a6bae64da6886fab6dd64736f6c634300080c0033",
    "linkReferences": {}
  },
  "methodIdentifiers": {
    "addShares(address,address,address,uint256)": "c4623ea1",
    "addStrategiesToDepositWhitelist(address[],bool[])": "df5b3547",
    "beaconChainETHStrategy()": "9104c319",
    "calculateWithdrawalRoot((address[],uint256[],address,(address,uint96),uint32,address))": "b43b514b",
    "cumulativeWithdrawalsQueued(address)": "a1788484",
    "delegation()": "df5cf723",
    "depositBeaconChainETH(address,uint256)": "9f00fa24",
    "depositIntoStrategy(address,address,uint256)": "e7a050aa",
    "depositIntoStrategyWithSignature(address,address,uint256,address,uint256,bytes)": "32e89ace",
    "eigenPodManager()": "4665bcda",
    "getDeposits(address)": "94f649dd",
    "migrateQueuedWithdrawal((address[],uint256[],address,(address,uint96),uint32,address))": "cd293f6f",
    "owner()": "8da5cb5b",
    "pause(uint256)": "136439dd",
    "pauseAll()": "595c6a67",
    "paused()": "5c975abb",
    "paused(uint8)": "5ac86ab7",
    "pauserRegistry()": "886f1195",
    "recordBeaconChainETHBalanceUpdate(address,uint256,int256)": "a1ca780b",
    "removeShares(address,address,uint256)": "8c80d4e5",
    "removeStrategiesFromDepositWhitelist(address[])": "b5d8b5b8",
    "renounceOwnership()": "715018a6",
    "setAddresses(address,address,address)": "363bf964",
    "setDeposits(address,address[],uint256[])": "e2a818c5",
    "setPauserRegistry(address)": "10d67a2f",
    "setStakerStrategyListLengthReturnValue(uint256)": "9a9519e0",
    "sharesToReturn(address,uint256)": "63fca888",
    "slasher()": "b1344271",
    "stakerStrategyListLength(address)": "8b8aac3c",
    "stakerStrategyListLengthReturnValue()": "01f820b2",
    "stakerStrategyShares(address,address)": "7a7e0d92",
    "stakerStrats(address)": "0d3908f4",
    "strategiesToReturn(address,uint256)": "e243dc3c",
    "strategyWhitelister()": "967fc0d2",
    "thirdPartyTransfersForbidden(address)": "9b4da03d",
    "transferOwnership(address)": "f2fde38b",
    "unpause(uint256)": "fabc1cbc",
    "withdrawSharesAsTokens(address,address,uint256,address)": "c608c7f3"
  },
  "id": 40
}