{
  "abi": [
    {
      "inputs": [
        {
          "internalType": "contract IETHPOSDeposit",
          "name": "_ethPOS",
          "type": "address"
        },
        {
          "internalType": "contract IBeacon",
          "name": "_eigenPodBeacon",
          "type": "address"
        },
        {
          "internalType": "contract IStrategyManager",
          "name": "_strategyManager",
          "type": "address"
        },
        {
          "internalType": "contract ISlasher",
          "name": "_slasher",
          "type": "address"
        },
        {
          "internalType": "contract IDelegationManager",
          "name": "_delegationManager",
          "type": "address"
        }
      ],
      "stateMutability": "nonpayable",
      "type": "constructor"
    },
    {
      "anonymous": false,
      "inputs": [
        {
          "indexed": true,
          "internalType": "address",
          "name": "podOwner",
          "type": "address"
        },
        {
          "indexed": false,
          "internalType": "uint256",
          "name": "amount",
          "type": "uint256"
        }
      ],
      "name": "BeaconChainETHDeposited",
      "type": "event"
    },
    {
      "anonymous": false,
      "inputs": [
        {
          "indexed": true,
          "internalType": "address",
          "name": "podOwner",
          "type": "address"
        },
        {
          "indexed": false,
          "internalType": "uint256",
          "name": "shares",
          "type": "uint256"
        },
        {
          "indexed": false,
          "internalType": "uint96",
          "name": "nonce",
          "type": "uint96"
        },
        {
          "indexed": false,
          "internalType": "address",
          "name": "delegatedAddress",
          "type": "address"
        },
        {
          "indexed": false,
          "internalType": "address",
          "name": "withdrawer",
          "type": "address"
        },
        {
          "indexed": false,
          "internalType": "bytes32",
          "name": "withdrawalRoot",
          "type": "bytes32"
        }
      ],
      "name": "BeaconChainETHWithdrawalCompleted",
      "type": "event"
    },
    {
      "anonymous": false,
      "inputs": [
        {
          "indexed": true,
          "internalType": "address",
          "name": "newOracleAddress",
          "type": "address"
        }
      ],
      "name": "BeaconOracleUpdated",
      "type": "event"
    },
    {
      "anonymous": false,
      "inputs": [
        {
          "indexed": false,
          "internalType": "uint64",
          "name": "newValue",
          "type": "uint64"
        }
      ],
      "name": "DenebForkTimestampUpdated",
      "type": "event"
    },
    {
      "anonymous": false,
      "inputs": [
        {
          "indexed": false,
          "internalType": "uint8",
          "name": "version",
          "type": "uint8"
        }
      ],
      "name": "Initialized",
      "type": "event"
    },
    {
      "anonymous": false,
      "inputs": [
        {
          "indexed": false,
          "internalType": "uint256",
          "name": "previousValue",
          "type": "uint256"
        },
        {
          "indexed": false,
          "internalType": "uint256",
          "name": "newValue",
          "type": "uint256"
        }
      ],
      "name": "MaxPodsUpdated",
      "type": "event"
    },
    {
      "anonymous": false,
      "inputs": [
        {
          "indexed": true,
          "internalType": "address",
          "name": "previousOwner",
          "type": "address"
        },
        {
          "indexed": true,
          "internalType": "address",
          "name": "newOwner",
          "type": "address"
        }
      ],
      "name": "OwnershipTransferred",
      "type": "event"
    },
    {
      "anonymous": false,
      "inputs": [
        {
          "indexed": true,
          "internalType": "address",
          "name": "account",
          "type": "address"
        },
        {
          "indexed": false,
          "internalType": "uint256",
          "name": "newPausedStatus",
          "type": "uint256"
        }
      ],
      "name": "Paused",
      "type": "event"
    },
    {
      "anonymous": false,
      "inputs": [
        {
          "indexed": false,
          "internalType": "contract IPauserRegistry",
          "name": "pauserRegistry",
          "type": "address"
        },
        {
          "indexed": false,
          "internalType": "contract IPauserRegistry",
          "name": "newPauserRegistry",
          "type": "address"
        }
      ],
      "name": "PauserRegistrySet",
      "type": "event"
    },
    {
      "anonymous": false,
      "inputs": [
        {
          "indexed": true,
          "internalType": "address",
          "name": "eigenPod",
          "type": "address"
        },
        {
          "indexed": true,
          "internalType": "address",
          "name": "podOwner",
          "type": "address"
        }
      ],
      "name": "PodDeployed",
      "type": "event"
    },
    {
      "anonymous": false,
      "inputs": [
        {
          "indexed": true,
          "internalType": "address",
          "name": "podOwner",
          "type": "address"
        },
        {
          "indexed": false,
          "internalType": "int256",
          "name": "sharesDelta",
          "type": "int256"
        }
      ],
      "name": "PodSharesUpdated",
      "type": "event"
    },
    {
      "anonymous": false,
      "inputs": [
        {
          "indexed": true,
          "internalType": "address",
          "name": "account",
          "type": "address"
        },
        {
          "indexed": false,
          "internalType": "uint256",
          "name": "newPausedStatus",
          "type": "uint256"
        }
      ],
      "name": "Unpaused",
      "type": "event"
    },
    {
      "inputs": [
        {
          "internalType": "address",
          "name": "podOwner",
          "type": "address"
        },
        {
          "internalType": "uint256",
          "name": "shares",
          "type": "uint256"
        }
      ],
      "name": "addShares",
      "outputs": [
        {
          "internalType": "uint256",
          "name": "",
          "type": "uint256"
        }
      ],
      "stateMutability": "nonpayable",
      "type": "function"
    },
    {
      "inputs": [],
      "name": "beaconChainETHStrategy",
      "outputs": [
        {
          "internalType": "contract IStrategy",
          "name": "",
          "type": "address"
        }
      ],
      "stateMutability": "view",
      "type": "function"
    },
    {
      "inputs": [],
      "name": "beaconChainOracle",
      "outputs": [
        {
          "internalType": "contract IBeaconChainOracle",
          "name": "",
          "type": "address"
        }
      ],
      "stateMutability": "view",
      "type": "function"
    },
    {
      "inputs": [],
      "name": "createPod",
      "outputs": [
        {
          "internalType": "address",
          "name": "",
          "type": "address"
        }
      ],
      "stateMutability": "nonpayable",
      "type": "function"
    },
    {
      "inputs": [],
      "name": "delegationManager",
      "outputs": [
        {
          "internalType": "contract IDelegationManager",
          "name": "",
          "type": "address"
        }
      ],
      "stateMutability": "view",
      "type": "function"
    },
    {
      "inputs": [],
      "name": "denebForkTimestamp",
      "outputs": [
        {
          "internalType": "uint64",
          "name": "",
          "type": "uint64"
        }
      ],
      "stateMutability": "view",
      "type": "function"
    },
    {
      "inputs": [],
      "name": "eigenPodBeacon",
      "outputs": [
        {
          "internalType": "contract IBeacon",
          "name": "",
          "type": "address"
        }
      ],
      "stateMutability": "view",
      "type": "function"
    },
    {
      "inputs": [],
      "name": "ethPOS",
      "outputs": [
        {
          "internalType": "contract IETHPOSDeposit",
          "name": "",
          "type": "address"
        }
      ],
      "stateMutability": "view",
      "type": "function"
    },
    {
      "inputs": [
        {
          "internalType": "uint64",
          "name": "timestamp",
          "type": "uint64"
        }
      ],
      "name": "getBlockRootAtTimestamp",
      "outputs": [
        {
          "internalType": "bytes32",
          "name": "",
          "type": "bytes32"
        }
      ],
      "stateMutability": "view",
      "type": "function"
    },
    {
      "inputs": [
        {
          "internalType": "address",
          "name": "podOwner",
          "type": "address"
        }
      ],
      "name": "getPod",
      "outputs": [
        {
          "internalType": "contract IEigenPod",
          "name": "",
          "type": "address"
        }
      ],
      "stateMutability": "view",
      "type": "function"
    },
    {
      "inputs": [
        {
          "internalType": "address",
          "name": "podOwner",
          "type": "address"
        }
      ],
      "name": "hasPod",
      "outputs": [
        {
          "internalType": "bool",
          "name": "",
          "type": "bool"
        }
      ],
      "stateMutability": "view",
      "type": "function"
    },
    {
      "inputs": [
        {
          "internalType": "uint256",
          "name": "_maxPods",
          "type": "uint256"
        },
        {
          "internalType": "contract IBeaconChainOracle",
          "name": "_beaconChainOracle",
          "type": "address"
        },
        {
          "internalType": "address",
          "name": "initialOwner",
          "type": "address"
        },
        {
          "internalType": "contract IPauserRegistry",
          "name": "_pauserRegistry",
          "type": "address"
        },
        {
          "internalType": "uint256",
          "name": "_initPausedStatus",
          "type": "uint256"
        }
      ],
      "name": "initialize",
      "outputs": [],
      "stateMutability": "nonpayable",
      "type": "function"
    },
    {
      "inputs": [],
      "name": "maxPods",
      "outputs": [
        {
          "internalType": "uint256",
          "name": "",
          "type": "uint256"
        }
      ],
      "stateMutability": "view",
      "type": "function"
    },
    {
      "inputs": [],
      "name": "numPods",
      "outputs": [
        {
          "internalType": "uint256",
          "name": "",
          "type": "uint256"
        }
      ],
      "stateMutability": "view",
      "type": "function"
    },
    {
      "inputs": [],
      "name": "owner",
      "outputs": [
        {
          "internalType": "address",
          "name": "",
          "type": "address"
        }
      ],
      "stateMutability": "view",
      "type": "function"
    },
    {
      "inputs": [
        {
          "internalType": "address",
          "name": "",
          "type": "address"
        }
      ],
      "name": "ownerToPod",
      "outputs": [
        {
          "internalType": "contract IEigenPod",
          "name": "",
          "type": "address"
        }
      ],
      "stateMutability": "view",
      "type": "function"
    },
    {
      "inputs": [
        {
          "internalType": "uint256",
          "name": "newPausedStatus",
          "type": "uint256"
        }
      ],
      "name": "pause",
      "outputs": [],
      "stateMutability": "nonpayable",
      "type": "function"
    },
    {
      "inputs": [],
      "name": "pauseAll",
      "outputs": [],
      "stateMutability": "nonpayable",
      "type": "function"
    },
    {
      "inputs": [
        {
          "internalType": "uint8",
          "name": "index",
          "type": "uint8"
        }
      ],
      "name": "paused",
      "outputs": [
        {
          "internalType": "bool",
          "name": "",
          "type": "bool"
        }
      ],
      "stateMutability": "view",
      "type": "function"
    },
    {
      "inputs": [],
      "name": "paused",
      "outputs": [
        {
          "internalType": "uint256",
          "name": "",
          "type": "uint256"
        }
      ],
      "stateMutability": "view",
      "type": "function"
    },
    {
      "inputs": [],
      "name": "pauserRegistry",
      "outputs": [
        {
          "internalType": "contract IPauserRegistry",
          "name": "",
          "type": "address"
        }
      ],
      "stateMutability": "view",
      "type": "function"
    },
    {
      "inputs": [
        {
          "internalType": "address",
          "name": "",
          "type": "address"
        }
      ],
      "name": "podOwnerShares",
      "outputs": [
        {
          "internalType": "int256",
          "name": "",
          "type": "int256"
        }
      ],
      "stateMutability": "view",
      "type": "function"
    },
    {
      "inputs": [
        {
          "internalType": "address",
          "name": "podOwner",
          "type": "address"
        },
        {
          "internalType": "int256",
          "name": "sharesDelta",
          "type": "int256"
        }
      ],
      "name": "recordBeaconChainETHBalanceUpdate",
      "outputs": [],
      "stateMutability": "nonpayable",
      "type": "function"
    },
    {
      "inputs": [
        {
          "internalType": "address",
          "name": "podOwner",
          "type": "address"
        },
        {
          "internalType": "uint256",
          "name": "shares",
          "type": "uint256"
        }
      ],
      "name": "removeShares",
      "outputs": [],
      "stateMutability": "nonpayable",
      "type": "function"
    },
    {
      "inputs": [],
      "name": "renounceOwnership",
      "outputs": [],
      "stateMutability": "nonpayable",
      "type": "function"
    },
    {
      "inputs": [
        {
          "internalType": "uint64",
          "name": "newDenebForkTimestamp",
          "type": "uint64"
        }
      ],
      "name": "setDenebForkTimestamp",
      "outputs": [],
      "stateMutability": "nonpayable",
      "type": "function"
    },
    {
      "inputs": [
        {
          "internalType": "uint256",
          "name": "newMaxPods",
          "type": "uint256"
        }
      ],
      "name": "setMaxPods",
      "outputs": [],
      "stateMutability": "nonpayable",
      "type": "function"
    },
    {
      "inputs": [
        {
          "internalType": "contract IPauserRegistry",
          "name": "newPauserRegistry",
          "type": "address"
        }
      ],
      "name": "setPauserRegistry",
      "outputs": [],
      "stateMutability": "nonpayable",
      "type": "function"
    },
    {
      "inputs": [],
      "name": "slasher",
      "outputs": [
        {
          "internalType": "contract ISlasher",
          "name": "",
          "type": "address"
        }
      ],
      "stateMutability": "view",
      "type": "function"
    },
    {
      "inputs": [
        {
          "internalType": "bytes",
          "name": "pubkey",
          "type": "bytes"
        },
        {
          "internalType": "bytes",
          "name": "signature",
          "type": "bytes"
        },
        {
          "internalType": "bytes32",
          "name": "depositDataRoot",
          "type": "bytes32"
        }
      ],
      "name": "stake",
      "outputs": [],
      "stateMutability": "payable",
      "type": "function"
    },
    {
      "inputs": [],
      "name": "strategyManager",
      "outputs": [
        {
          "internalType": "contract IStrategyManager",
          "name": "",
          "type": "address"
        }
      ],
      "stateMutability": "view",
      "type": "function"
    },
    {
      "inputs": [
        {
          "internalType": "address",
          "name": "newOwner",
          "type": "address"
        }
      ],
      "name": "transferOwnership",
      "outputs": [],
      "stateMutability": "nonpayable",
      "type": "function"
    },
    {
      "inputs": [
        {
          "internalType": "uint256",
          "name": "newPausedStatus",
          "type": "uint256"
        }
      ],
      "name": "unpause",
      "outputs": [],
      "stateMutability": "nonpayable",
      "type": "function"
    },
    {
      "inputs": [
        {
          "internalType": "contract IBeaconChainOracle",
          "name": "newBeaconChainOracle",
          "type": "address"
        }
      ],
      "name": "updateBeaconChainOracle",
      "outputs": [],
      "stateMutability": "nonpayable",
      "type": "function"
    },
    {
      "inputs": [
        {
          "internalType": "address",
          "name": "podOwner",
          "type": "address"
        },
        {
          "internalType": "address",
          "name": "destination",
          "type": "address"
        },
        {
          "internalType": "uint256",
          "name": "shares",
          "type": "uint256"
        }
      ],
      "name": "withdrawSharesAsTokens",
      "outputs": [],
      "stateMutability": "nonpayable",
      "type": "function"
    }
  ],
  "bytecode": {
    "object": "0x6101206040523480156200001257600080fd5b50604051620036c6380380620036c683398101604081905262000035916200014b565b6001600160a01b0380861660805280851660a05280841660c05280831660e0528116610100526200006562000070565b5050505050620001cb565b600054610100900460ff1615620000dd5760405162461bcd60e51b815260206004820152602760248201527f496e697469616c697a61626c653a20636f6e747261637420697320696e697469604482015266616c697a696e6760c81b606482015260840160405180910390fd5b60005460ff908116101562000130576000805460ff191660ff9081179091556040519081527f7f26b83ff96e1f2b6a682f133852f6798a09c465da95921460cefb38474024989060200160405180910390a15b565b6001600160a01b03811681146200014857600080fd5b50565b600080600080600060a086880312156200016457600080fd5b8551620001718162000132565b6020870151909550620001848162000132565b6040870151909450620001978162000132565b6060870151909350620001aa8162000132565b6080870151909250620001bd8162000132565b809150509295509295909350565b60805160a05160c05160e051610100516134856200024160003960008181610682015281816107e801528181610c0a015281816114e3015281816119780152611a68015260006105780152600061031c0152600081816102b00152818161146201526121f70152600061044a01526134856000f3fe6080604052600436106102045760003560e01c80638da5cb5b11610118578063c0ccbf10116100a0578063daf12cd41161006f578063daf12cd414610650578063ea4d3c9b14610670578063f2fde38b146106a4578063f6848d24146106c4578063fabc1cbc146106ff57600080fd5b8063c0ccbf10146105da578063c1de3aef146105f0578063c2c51c4014610610578063d1c64cc91461063057600080fd5b8063a38406a3116100e7578063a38406a314610530578063a6a509be14610550578063b134427114610566578063beffbb891461059a578063c052bd61146105ba57600080fd5b80638da5cb5b146104a15780639104c319146104bf5780639b4e4634146104e75780639ba06275146104fa57600080fd5b8063463db0381161019b57806360f4062b1161016a57806360f4062b146103f6578063715018a61461042357806374cdd7981461043857806384d810621461046c578063886f11951461048157600080fd5b8063463db0381461036c578063595c6a671461038c5780635ac86ab7146103a15780635c975abb146103e157600080fd5b8063292b7b2b116101d7578063292b7b2b1461029e578063387b1300146102ea57806339b70e381461030a57806344e71c801461033e57600080fd5b80630cf2686d146102095780630e81073c1461022b57806310d67a2f1461025e578063136439dd1461027e575b600080fd5b34801561021557600080fd5b506102296102243660046125ae565b61071f565b005b34801561023757600080fd5b5061024b6102463660046125dc565b6107db565b6040519081526020015b60405180910390f35b34801561026a57600080fd5b50610229610279366004612608565b610a10565b34801561028a57600080fd5b506102296102993660046125ae565b610ac0565b3480156102aa57600080fd5b506102d27f000000000000000000000000000000000000000000000000000000000000000081565b6040516001600160a01b039091168152602001610255565b3480156102f657600080fd5b50610229610305366004612625565b610bff565b34801561031657600080fd5b506102d27f000000000000000000000000000000000000000000000000000000000000000081565b34801561034a57600080fd5b50610353610f9d565b60405167ffffffffffffffff9091168152602001610255565b34801561037857600080fd5b50610229610387366004612666565b610fc6565b34801561039857600080fd5b50610229611152565b3480156103ad57600080fd5b506103d16103bc366004612690565b606654600160ff9092169190911b9081161490565b6040519015158152602001610255565b3480156103ed57600080fd5b5060665461024b565b34801561040257600080fd5b5061024b610411366004612608565b609b6020526000908152604090205481565b34801561042f57600080fd5b50610229611219565b34801561044457600080fd5b506102d27f000000000000000000000000000000000000000000000000000000000000000081565b34801561047857600080fd5b506102d261122d565b34801561048d57600080fd5b506065546102d2906001600160a01b031681565b3480156104ad57600080fd5b506033546001600160a01b03166102d2565b3480156104cb57600080fd5b506102d273beac0eeeeeeeeeeeeeeeeeeeeeeeeeeeeeebeac081565b6102296104f53660046126fc565b611317565b34801561050657600080fd5b506102d2610515366004612608565b6098602052600090815260409020546001600160a01b031681565b34801561053c57600080fd5b506102d261054b366004612608565b611406565b34801561055c57600080fd5b5061024b60995481565b34801561057257600080fd5b506102d27f000000000000000000000000000000000000000000000000000000000000000081565b3480156105a657600080fd5b506102296105b53660046125dc565b6114d8565b3480156105c657600080fd5b506097546102d2906001600160a01b031681565b3480156105e657600080fd5b5061024b609a5481565b3480156105fc57600080fd5b5061022961060b366004612608565b6116ef565b34801561061c57600080fd5b5061022961062b3660046125dc565b611700565b34801561063c57600080fd5b5061024b61064b366004612666565b611b03565b34801561065c57600080fd5b5061022961066b366004612770565b611c0e565b34801561067c57600080fd5b506102d27f000000000000000000000000000000000000000000000000000000000000000081565b3480156106b057600080fd5b506102296106bf366004612608565b611d41565b3480156106d057600080fd5b506103d16106df366004612608565b6001600160a01b0390811660009081526098602052604090205416151590565b34801561070b57600080fd5b5061022961071a3660046125ae565b611db7565b606560009054906101000a90046001600160a01b03166001600160a01b031663eab66d7a6040518163ffffffff1660e01b8152600401602060405180830381865afa158015610772573d6000803e3d6000fd5b505050506040513d601f19601f8201168201806040525081019061079691906127cb565b6001600160a01b0316336001600160a01b0316146107cf5760405162461bcd60e51b81526004016107c6906127e8565b60405180910390fd5b6107d881611f13565b50565b6000336001600160a01b037f000000000000000000000000000000000000000000000000000000000000000016146108255760405162461bcd60e51b81526004016107c690612832565b6001600160a01b0383166108a15760405162461bcd60e51b815260206004820152603a60248201527f456967656e506f644d616e616765722e6164645368617265733a20706f644f7760448201527f6e65722063616e6e6f74206265207a65726f206164647265737300000000000060648201526084016107c6565b600082121561090f5760405162461bcd60e51b815260206004820152603460248201527f456967656e506f644d616e616765722e6164645368617265733a207368617265604482015273732063616e6e6f74206265206e6567617469766560601b60648201526084016107c6565b61091d633b9aca00836128a6565b156109905760405162461bcd60e51b815260206004820152603d60248201527f456967656e506f644d616e616765722e6164645368617265733a20736861726560448201527f73206d75737420626520612077686f6c65204777656920616d6f756e7400000060648201526084016107c6565b6001600160a01b0383166000908152609b6020526040812054906109b484836128d0565b6001600160a01b0386166000818152609b6020526040908190208390555191925090600080516020613410833981519152906109f39087815260200190565b60405180910390a2610a058282611f54565b925050505b92915050565b606560009054906101000a90046001600160a01b03166001600160a01b031663eab66d7a6040518163ffffffff1660e01b8152600401602060405180830381865afa158015610a63573d6000803e3d6000fd5b505050506040513d601f19601f82011682018060405250810190610a8791906127cb565b6001600160a01b0316336001600160a01b031614610ab75760405162461bcd60e51b81526004016107c6906127e8565b6107d881611f96565b60655460405163237dfb4760e11b81523360048201526001600160a01b03909116906346fbf68e90602401602060405180830381865afa158015610b08573d6000803e3d6000fd5b505050506040513d601f19601f82011682018060405250810190610b2c9190612911565b610b485760405162461bcd60e51b81526004016107c690612933565b60665481811614610bc15760405162461bcd60e51b815260206004820152603860248201527f5061757361626c652e70617573653a20696e76616c696420617474656d70742060448201527f746f20756e70617573652066756e6374696f6e616c697479000000000000000060648201526084016107c6565b606681905560405181815233907fab40a374bc51de372200a8bc981af8c9ecdc08dfdaef0bb6e09f88f3c616ef3d906020015b60405180910390a250565b336001600160a01b037f00000000000000000000000000000000000000000000000000000000000000001614610c475760405162461bcd60e51b81526004016107c690612832565b6001600160a01b038316610cc15760405162461bcd60e51b8152602060048201526047602482015260008051602061343083398151915260448201527f546f6b656e733a20706f644f776e65722063616e6e6f74206265207a65726f206064820152666164647265737360c81b608482015260a4016107c6565b6001600160a01b038216610d3e5760405162461bcd60e51b815260206004820152604a602482015260008051602061343083398151915260448201527f546f6b656e733a2064657374696e6174696f6e2063616e6e6f74206265207a65606482015269726f206164647265737360b01b608482015260a4016107c6565b6000811215610dad5760405162461bcd60e51b8152602060048201526041602482015260008051602061343083398151915260448201527f546f6b656e733a207368617265732063616e6e6f74206265206e6567617469766064820152606560f81b608482015260a4016107c6565b610dbb633b9aca00826128a6565b15610e2f5760405162461bcd60e51b815260206004820152604a602482015260008051602061343083398151915260448201527f546f6b656e733a20736861726573206d75737420626520612077686f6c6520476064820152691dd95a48185b5bdd5b9d60b21b608482015260a4016107c6565b6001600160a01b0383166000908152609b602052604081205490811215610f22576000610e5b8261297b565b905080831115610ec0576001600160a01b0385166000908152609b6020526040812055610e888184612998565b9250846001600160a01b031660008051602061341083398151915282604051610eb391815260200190565b60405180910390a2610f20565b6001600160a01b0385166000908152609b602052604081208054859290610ee89084906128d0565b90915550506040518381526001600160a01b038616906000805160206134108339815191529060200160405180910390a25050505050565b505b6001600160a01b03848116600090815260986020526040908190205490516362483a2160e11b815285831660048201526024810185905291169063c490744290604401600060405180830381600087803b158015610f7f57600080fd5b505af1158015610f93573d6000803e3d6000fd5b5050505050505050565b609c5460009067ffffffffffffffff1680610fc15767ffffffffffffffff91505090565b919050565b610fce61208d565b67ffffffffffffffff81166110605760405162461bcd60e51b815260206004820152604c60248201527f456967656e506f644d616e616765722e73657444656e6562466f726b54696d6560448201527f7374616d703a2063616e6e6f7420736574206e657744656e6562466f726b546960648201526b06d657374616d7020746f20360a41b608482015260a4016107c6565b609c5467ffffffffffffffff16156110fc5760405162461bcd60e51b815260206004820152605360248201527f456967656e506f644d616e616765722e73657444656e6562466f726b54696d6560448201527f7374616d703a2063616e6e6f74207365742064656e6562466f726b54696d657360648201527274616d70206d6f7265207468616e206f6e636560681b608482015260a4016107c6565b609c805467ffffffffffffffff191667ffffffffffffffff83169081179091556040519081527f19200b6fdad58f91b2f496b0c444fc4be3eff74a7e24b07770e04a7137bfd9db9060200160405180910390a150565b60655460405163237dfb4760e11b81523360048201526001600160a01b03909116906346fbf68e90602401602060405180830381865afa15801561119a573d6000803e3d6000fd5b505050506040513d601f19601f820116820180604052508101906111be9190612911565b6111da5760405162461bcd60e51b81526004016107c690612933565b600019606681905560405190815233907fab40a374bc51de372200a8bc981af8c9ecdc08dfdaef0bb6e09f88f3c616ef3d9060200160405180910390a2565b61122161208d565b61122b60006120e7565b565b6066546000908190600190811614156112845760405162461bcd60e51b815260206004820152601960248201527814185d5cd8589b194e881a5b99195e081a5cc81c185d5cd959603a1b60448201526064016107c6565b336000908152609860205260409020546001600160a01b0316156113065760405162461bcd60e51b815260206004820152603360248201527f456967656e506f644d616e616765722e637265617465506f643a2053656e64656044820152721c88185b1c9958591e481a185cc818481c1bd9606a1b60648201526084016107c6565b6000611310612139565b9250505090565b6066546000906001908116141561136c5760405162461bcd60e51b815260206004820152601960248201527814185d5cd8589b194e881a5b99195e081a5cc81c185d5cd959603a1b60448201526064016107c6565b336000908152609860205260409020546001600160a01b03168061139557611392612139565b90505b6040516326d3918d60e21b81526001600160a01b03821690639b4e46349034906113cb908b908b908b908b908b906004016129d8565b6000604051808303818588803b1580156113e457600080fd5b505af11580156113f8573d6000803e3d6000fd5b505050505050505050505050565b6001600160a01b0380821660009081526098602052604081205490911680610a0a576114d1836001600160a01b031660001b60405180610940016040528061090e8152602001612b0261090e9139604080516001600160a01b037f0000000000000000000000000000000000000000000000000000000000000000166020820152808201919091526000606082015260800160408051601f19818403018152908290526114b69291602001612a4d565b60405160208183030381529060405280519060200120612314565b9392505050565b336001600160a01b037f000000000000000000000000000000000000000000000000000000000000000016146115205760405162461bcd60e51b81526004016107c690612832565b60008112156115975760405162461bcd60e51b815260206004820152603760248201527f456967656e506f644d616e616765722e72656d6f76655368617265733a20736860448201527f617265732063616e6e6f74206265206e6567617469766500000000000000000060648201526084016107c6565b6115a5633b9aca00826128a6565b1561161a576040805162461bcd60e51b81526020600482015260248101919091527f456967656e506f644d616e616765722e72656d6f76655368617265733a20736860448201527f61726573206d75737420626520612077686f6c65204777656920616d6f756e7460648201526084016107c6565b6001600160a01b0382166000908152609b602052604081205461163e908390612a62565b905060008112156116cf5760405162461bcd60e51b815260206004820152604f60248201527f456967656e506f644d616e616765722e72656d6f76655368617265733a20636160448201527f6e6e6f7420726573756c7420696e20706f64206f776e657220686176696e672060648201526e6e656761746976652073686172657360881b608482015260a4016107c6565b6001600160a01b039092166000908152609b602052604090209190915550565b6116f761208d565b6107d881612370565b6001600160a01b03808316600090815260986020526040902054839116331461177b5760405162461bcd60e51b815260206004820152602760248201527f456967656e506f644d616e616765722e6f6e6c79456967656e506f643a206e6f6044820152661d0818481c1bd960ca1b60648201526084016107c6565b600260c95414156117ce5760405162461bcd60e51b815260206004820152601f60248201527f5265656e7472616e637947756172643a207265656e7472616e742063616c6c0060448201526064016107c6565b600260c9556001600160a01b03831661186a5760405162461bcd60e51b815260206004820152605260248201527f456967656e506f644d616e616765722e7265636f7264426561636f6e4368616960448201527f6e45544842616c616e63655570646174653a20706f644f776e65722063616e6e6064820152716f74206265207a65726f206164647265737360701b608482015260a4016107c6565b611878633b9aca0083612aa1565b156119115760405162461bcd60e51b815260206004820152605a60248201527f456967656e506f644d616e616765722e7265636f7264426561636f6e4368616960448201527f6e45544842616c616e63655570646174653a2073686172657344656c7461206d60648201527f75737420626520612077686f6c65204777656920616d6f756e74000000000000608482015260a4016107c6565b6001600160a01b0383166000908152609b60205260408120549061193584836128d0565b6001600160a01b0386166000908152609b6020526040812082905590915061195d8383611f54565b90508015611ac5576000811215611a28576001600160a01b037f00000000000000000000000000000000000000000000000000000000000000001663132d49678773beac0eeeeeeeeeeeeeeeeeeeeeeeeeeeeeebeac06119bc8561297b565b6040516001600160e01b031960e086901b1681526001600160a01b0393841660048201529290911660248301526044820152606401600060405180830381600087803b158015611a0b57600080fd5b505af1158015611a1f573d6000803e3d6000fd5b50505050611ac5565b604051631452b9d760e11b81526001600160a01b03878116600483015273beac0eeeeeeeeeeeeeeeeeeeeeeeeeeeeeebeac06024830152604482018390527f000000000000000000000000000000000000000000000000000000000000000016906328a573ae90606401600060405180830381600087803b158015611aac57600080fd5b505af1158015611ac0573d6000803e3d6000fd5b505050505b856001600160a01b031660008051602061341083398151915286604051611aee91815260200190565b60405180910390a25050600160c95550505050565b60975460405163321accf960e11b815267ffffffffffffffff8316600482015260009182916001600160a01b039091169063643599f290602401602060405180830381865afa158015611b5a573d6000803e3d6000fd5b505050506040513d601f19601f82011682018060405250810190611b7e9190612ab5565b905080610a0a5760405162461bcd60e51b815260206004820152605260248201527f456967656e506f644d616e616765722e676574426c6f636b526f6f744174546960448201527f6d657374616d703a20737461746520726f6f742061742074696d657374616d70606482015271081b9bdd081e595d08199a5b985b1a5e995960721b608482015260a4016107c6565b600054610100900460ff1615808015611c2e5750600054600160ff909116105b80611c485750303b158015611c48575060005460ff166001145b611cab5760405162461bcd60e51b815260206004820152602e60248201527f496e697469616c697a61626c653a20636f6e747261637420697320616c72656160448201526d191e481a5b9a5d1a585b1a5e995960921b60648201526084016107c6565b6000805460ff191660011790558015611cce576000805461ff0019166101001790555b611cd786611f13565b611ce085612370565b611ce9846120e7565b611cf383836123ba565b8015611d39576000805461ff0019169055604051600181527f7f26b83ff96e1f2b6a682f133852f6798a09c465da95921460cefb38474024989060200160405180910390a15b505050505050565b611d4961208d565b6001600160a01b038116611dae5760405162461bcd60e51b815260206004820152602660248201527f4f776e61626c653a206e6577206f776e657220697320746865207a65726f206160448201526564647265737360d01b60648201526084016107c6565b6107d8816120e7565b606560009054906101000a90046001600160a01b03166001600160a01b031663eab66d7a6040518163ffffffff1660e01b8152600401602060405180830381865afa158015611e0a573d6000803e3d6000fd5b505050506040513d601f19601f82011682018060405250810190611e2e91906127cb565b6001600160a01b0316336001600160a01b031614611e5e5760405162461bcd60e51b81526004016107c6906127e8565b606654198119606654191614611edc5760405162461bcd60e51b815260206004820152603860248201527f5061757361626c652e756e70617573653a20696e76616c696420617474656d7060448201527f7420746f2070617573652066756e6374696f6e616c697479000000000000000060648201526084016107c6565b606681905560405181815233907f3582d1828e26bf56bd801502bc021ac0bc8afb57c826e4986b45593c8fad389c90602001610bf4565b609a5460408051918252602082018390527f4e65c41a3597bda732ca64980235cf51494171d5853998763fb05db45afaacb3910160405180910390a1609a55565b6000808313611f745760008213611f6d57506000610a0a565b5080610a0a565b60008213611f8c57611f858361297b565b9050610a0a565b611f858383612a62565b6001600160a01b0381166120245760405162461bcd60e51b815260206004820152604960248201527f5061757361626c652e5f73657450617573657252656769737472793a206e657760448201527f50617573657252656769737472792063616e6e6f7420626520746865207a65726064820152686f206164647265737360b81b608482015260a4016107c6565b606554604080516001600160a01b03928316815291831660208301527f6e9fcd539896fca60e8b0f01dd580233e48a6b0f7df013b89ba7f565869acdb6910160405180910390a1606580546001600160a01b0319166001600160a01b0392909216919091179055565b6033546001600160a01b0316331461122b5760405162461bcd60e51b815260206004820181905260248201527f4f776e61626c653a2063616c6c6572206973206e6f7420746865206f776e657260448201526064016107c6565b603380546001600160a01b038381166001600160a01b0319831681179093556040519116919082907f8be0079c531659141344cd1fd0a4f28419497f9722a3daafe3b4186f6b6457e090600090a35050565b6000609a54609954600161214d9190612ace565b11156121b15760405162461bcd60e51b815260206004820152602d60248201527f456967656e506f644d616e616765722e5f6465706c6f79506f643a20706f642060448201526c1b1a5b5a5d081c995858da1959609a1b60648201526084016107c6565b6099600081546121c090612ae6565b9091555060408051610940810190915261090e80825260009161225f9183913391612b026020830139604080516001600160a01b037f0000000000000000000000000000000000000000000000000000000000000000166020820152808201919091526000606082015260800160408051601f198184030181529082905261224b9291602001612a4d565b6040516020818303038152906040526124a4565b60405163189acdbd60e31b81523360048201529091506001600160a01b0382169063c4d66de890602401600060405180830381600087803b1580156122a357600080fd5b505af11580156122b7573d6000803e3d6000fd5b50503360008181526098602052604080822080546001600160a01b0319166001600160a01b038816908117909155905192945092507f21c99d0db02213c32fff5b05cf0a718ab5f858802b91498f80d82270289d856a91a3919050565b604080516001600160f81b03196020808301919091526bffffffffffffffffffffffff193060601b16602183015260358201859052605580830185905283518084039091018152607590920190925280519101206000906114d1565b609780546001600160a01b0319166001600160a01b0383169081179091556040517f08f0470754946ccfbb446ff7fd2d6ae6af1bbdae19f85794c0cc5ed5e8ceb4f690600090a250565b6065546001600160a01b03161580156123db57506001600160a01b03821615155b61245d5760405162461bcd60e51b815260206004820152604760248201527f5061757361626c652e5f696e697469616c697a655061757365723a205f696e6960448201527f7469616c697a6550617573657228292063616e206f6e6c792062652063616c6c6064820152666564206f6e636560c81b608482015260a4016107c6565b606681905560405181815233907fab40a374bc51de372200a8bc981af8c9ecdc08dfdaef0bb6e09f88f3c616ef3d9060200160405180910390a26124a082611f96565b5050565b600080844710156124f75760405162461bcd60e51b815260206004820152601d60248201527f437265617465323a20696e73756666696369656e742062616c616e636500000060448201526064016107c6565b82516125455760405162461bcd60e51b815260206004820181905260248201527f437265617465323a2062797465636f6465206c656e677468206973207a65726f60448201526064016107c6565b8383516020850187f590506001600160a01b0381166125a65760405162461bcd60e51b815260206004820152601960248201527f437265617465323a204661696c6564206f6e206465706c6f790000000000000060448201526064016107c6565b949350505050565b6000602082840312156125c057600080fd5b5035919050565b6001600160a01b03811681146107d857600080fd5b600080604083850312156125ef57600080fd5b82356125fa816125c7565b946020939093013593505050565b60006020828403121561261a57600080fd5b81356114d1816125c7565b60008060006060848603121561263a57600080fd5b8335612645816125c7565b92506020840135612655816125c7565b929592945050506040919091013590565b60006020828403121561267857600080fd5b813567ffffffffffffffff811681146114d157600080fd5b6000602082840312156126a257600080fd5b813560ff811681146114d157600080fd5b60008083601f8401126126c557600080fd5b50813567ffffffffffffffff8111156126dd57600080fd5b6020830191508360208285010111156126f557600080fd5b9250929050565b60008060008060006060868803121561271457600080fd5b853567ffffffffffffffff8082111561272c57600080fd5b61273889838a016126b3565b9097509550602088013591508082111561275157600080fd5b5061275e888289016126b3565b96999598509660400135949350505050565b600080600080600060a0868803121561278857600080fd5b85359450602086013561279a816125c7565b935060408601356127aa816125c7565b925060608601356127ba816125c7565b949793965091946080013592915050565b6000602082840312156127dd57600080fd5b81516114d1816125c7565b6020808252602a908201527f6d73672e73656e646572206973206e6f74207065726d697373696f6e6564206160408201526939903ab73830bab9b2b960b11b606082015260800190565b602080825260409082018190527f456967656e506f644d616e616765722e6f6e6c7944656c65676174696f6e4d61908201527f6e616765723a206e6f74207468652044656c65676174696f6e4d616e61676572606082015260800190565b634e487b7160e01b600052601260045260246000fd5b6000826128b5576128b5612890565b500690565b634e487b7160e01b600052601160045260246000fd5b600080821280156001600160ff1b03849003851316156128f2576128f26128ba565b600160ff1b839003841281161561290b5761290b6128ba565b50500190565b60006020828403121561292357600080fd5b815180151581146114d157600080fd5b60208082526028908201527f6d73672e73656e646572206973206e6f74207065726d697373696f6e6564206160408201526739903830bab9b2b960c11b606082015260800190565b6000600160ff1b821415612991576129916128ba565b5060000390565b6000828210156129aa576129aa6128ba565b500390565b81835281816020850137506000828201602090810191909152601f909101601f19169091010190565b6060815260006129ec6060830187896129af565b82810360208401526129ff8186886129af565b9150508260408301529695505050505050565b6000815160005b81811015612a335760208185018101518683015201612a19565b81811115612a42576000828601525b509290920192915050565b60006125a6612a5c8386612a12565b84612a12565b60008083128015600160ff1b850184121615612a8057612a806128ba565b6001600160ff1b0384018313811615612a9b57612a9b6128ba565b50500390565b600082612ab057612ab0612890565b500790565b600060208284031215612ac757600080fd5b5051919050565b60008219821115612ae157612ae16128ba565b500190565b6000600019821415612afa57612afa6128ba565b506001019056fe608060405260405161090e38038061090e83398101604081905261002291610460565b61002e82826000610035565b505061058a565b61003e83610100565b6040516001600160a01b038416907f1cf3b03a6cf19fa2baba4df148e9dcabedea7f8a5c07840e207e5c089be95d3e90600090a260008251118061007f5750805b156100fb576100f9836001600160a01b0316635c60da1b6040518163ffffffff1660e01b8152600401602060405180830381865afa1580156100c5573d6000803e3d6000fd5b505050506040513d601f19601f820116820180604052508101906100e99190610520565b836102a360201b6100291760201c565b505b505050565b610113816102cf60201b6100551760201c565b6101725760405162461bcd60e51b815260206004820152602560248201527f455243313936373a206e657720626561636f6e206973206e6f74206120636f6e6044820152641d1c9858dd60da1b60648201526084015b60405180910390fd5b6101e6816001600160a01b0316635c60da1b6040518163ffffffff1660e01b8152600401602060405180830381865afa1580156101b3573d6000803e3d6000fd5b505050506040513d601f19601f820116820180604052508101906101d79190610520565b6102cf60201b6100551760201c565b61024b5760405162461bcd60e51b815260206004820152603060248201527f455243313936373a20626561636f6e20696d706c656d656e746174696f6e206960448201526f1cc81b9bdd08184818dbdb9d1c9858dd60821b6064820152608401610169565b806102827fa3f0ad74e5423aebfd80d3ef4346578335a9a72aeaee59ff6cb3582b35133d5060001b6102de60201b6100641760201c565b80546001600160a01b0319166001600160a01b039290921691909117905550565b60606102c883836040518060600160405280602781526020016108e7602791396102e1565b9392505050565b6001600160a01b03163b151590565b90565b6060600080856001600160a01b0316856040516102fe919061053b565b600060405180830381855af49150503d8060008114610339576040519150601f19603f3d011682016040523d82523d6000602084013e61033e565b606091505b5090925090506103508683838761035a565b9695505050505050565b606083156103c65782516103bf576001600160a01b0385163b6103bf5760405162461bcd60e51b815260206004820152601d60248201527f416464726573733a2063616c6c20746f206e6f6e2d636f6e74726163740000006044820152606401610169565b50816103d0565b6103d083836103d8565b949350505050565b8151156103e85781518083602001fd5b8060405162461bcd60e51b81526004016101699190610557565b80516001600160a01b038116811461041957600080fd5b919050565b634e487b7160e01b600052604160045260246000fd5b60005b8381101561044f578181015183820152602001610437565b838111156100f95750506000910152565b6000806040838503121561047357600080fd5b61047c83610402565b60208401519092506001600160401b038082111561049957600080fd5b818501915085601f8301126104ad57600080fd5b8151818111156104bf576104bf61041e565b604051601f8201601f19908116603f011681019083821181831017156104e7576104e761041e565b8160405282815288602084870101111561050057600080fd5b610511836020830160208801610434565b80955050505050509250929050565b60006020828403121561053257600080fd5b6102c882610402565b6000825161054d818460208701610434565b9190910192915050565b6020815260008251806020840152610576816040850160208701610434565b601f01601f19169190910160400192915050565b61034e806105996000396000f3fe60806040523661001357610011610017565b005b6100115b610027610022610067565b610100565b565b606061004e83836040518060600160405280602781526020016102f260279139610124565b9392505050565b6001600160a01b03163b151590565b90565b600061009a7fa3f0ad74e5423aebfd80d3ef4346578335a9a72aeaee59ff6cb3582b35133d50546001600160a01b031690565b6001600160a01b0316635c60da1b6040518163ffffffff1660e01b8152600401602060405180830381865afa1580156100d7573d6000803e3d6000fd5b505050506040513d601f19601f820116820180604052508101906100fb9190610249565b905090565b3660008037600080366000845af43d6000803e80801561011f573d6000f35b3d6000fd5b6060600080856001600160a01b03168560405161014191906102a2565b600060405180830381855af49150503d806000811461017c576040519150601f19603f3d011682016040523d82523d6000602084013e610181565b606091505b50915091506101928683838761019c565b9695505050505050565b6060831561020d578251610206576001600160a01b0385163b6102065760405162461bcd60e51b815260206004820152601d60248201527f416464726573733a2063616c6c20746f206e6f6e2d636f6e747261637400000060448201526064015b60405180910390fd5b5081610217565b610217838361021f565b949350505050565b81511561022f5781518083602001fd5b8060405162461bcd60e51b81526004016101fd91906102be565b60006020828403121561025b57600080fd5b81516001600160a01b038116811461004e57600080fd5b60005b8381101561028d578181015183820152602001610275565b8381111561029c576000848401525b50505050565b600082516102b4818460208701610272565b9190910192915050565b60208152600082518060208401526102dd816040850160208701610272565b601f01601f1916919091016040019291505056fe416464726573733a206c6f772d6c6576656c2064656c65676174652063616c6c206661696c6564a2646970667358221220d51e81d3bc5ed20a26aeb05dce7e825c503b2061aa78628027300c8d65b9d89a64736f6c634300080c0033416464726573733a206c6f772d6c6576656c2064656c65676174652063616c6c206661696c65644e2b791dedccd9fb30141b088cabf5c14a8912b52f59375c95c010700b8c6193456967656e506f644d616e616765722e77697468647261775368617265734173a2646970667358221220494d597fc832e8d8f0a7bddc1ce2f409c01847617e705ffdf24e6aae312b9db164736f6c634300080c0033",
    "linkReferences": {}
  },
  "methodIdentifiers": {
    "addShares(address,uint256)": "0e81073c",
    "beaconChainETHStrategy()": "9104c319",
    "beaconChainOracle()": "c052bd61",
    "createPod()": "84d81062",
    "delegationManager()": "ea4d3c9b",
    "denebForkTimestamp()": "44e71c80",
    "eigenPodBeacon()": "292b7b2b",
    "ethPOS()": "74cdd798",
    "getBlockRootAtTimestamp(uint64)": "d1c64cc9",
    "getPod(address)": "a38406a3",
    "hasPod(address)": "f6848d24",
    "initialize(uint256,address,address,address,uint256)": "daf12cd4",
    "maxPods()": "c0ccbf10",
    "numPods()": "a6a509be",
    "owner()": "8da5cb5b",
    "ownerToPod(address)": "9ba06275",
    "pause(uint256)": "136439dd",
    "pauseAll()": "595c6a67",
    "paused()": "5c975abb",
    "paused(uint8)": "5ac86ab7",
    "pauserRegistry()": "886f1195",
    "podOwnerShares(address)": "60f4062b",
    "recordBeaconChainETHBalanceUpdate(address,int256)": "c2c51c40",
    "removeShares(address,uint256)": "beffbb89",
    "renounceOwnership()": "715018a6",
    "setDenebForkTimestamp(uint64)": "463db038",
    "setMaxPods(uint256)": "0cf2686d",
    "setPauserRegistry(address)": "10d67a2f",
    "slasher()": "b1344271",
    "stake(bytes,bytes,bytes32)": "9b4e4634",
    "strategyManager()": "39b70e38",
    "transferOwnership(address)": "f2fde38b",
    "unpause(uint256)": "fabc1cbc",
    "updateBeaconChainOracle(address)": "c1de3aef",
    "withdrawSharesAsTokens(address,address,uint256)": "387b1300"
  },
  "id": 31
}