{
  "abi": [
    {
      "inputs": [
        {
          "internalType": "contract IDelegationManager",
          "name": "_delegation",
          "type": "address"
        }
      ],
      "stateMutability": "nonpayable",
      "type": "constructor"
    },
    {
      "anonymous": false,
      "inputs": [
        {
          "indexed": true,
          "internalType": "address",
          "name": "avs",
          "type": "address"
        },
        {
          "indexed": false,
          "internalType": "string",
          "name": "metadataURI",
          "type": "string"
        }
      ],
      "name": "AVSMetadataURIUpdated",
      "type": "event"
    },
    {
      "anonymous": false,
      "inputs": [
        {
          "indexed": false,
          "internalType": "uint8",
          "name": "version",
          "type": "uint8"
        }
      ],
      "name": "Initialized",
      "type": "event"
    },
    {
      "anonymous": false,
      "inputs": [
        {
          "indexed": true,
          "internalType": "address",
          "name": "operator",
          "type": "address"
        },
        {
          "indexed": true,
          "internalType": "address",
          "name": "avs",
          "type": "address"
        },
        {
          "indexed": false,
          "internalType": "enum IAVSDirectory.OperatorAVSRegistrationStatus",
          "name": "status",
          "type": "uint8"
        }
      ],
      "name": "OperatorAVSRegistrationStatusUpdated",
      "type": "event"
    },
    {
      "anonymous": false,
      "inputs": [
        {
          "indexed": true,
          "internalType": "address",
          "name": "previousOwner",
          "type": "address"
        },
        {
          "indexed": true,
          "internalType": "address",
          "name": "newOwner",
          "type": "address"
        }
      ],
      "name": "OwnershipTransferred",
      "type": "event"
    },
    {
      "anonymous": false,
      "inputs": [
        {
          "indexed": true,
          "internalType": "address",
          "name": "account",
          "type": "address"
        },
        {
          "indexed": false,
          "internalType": "uint256",
          "name": "newPausedStatus",
          "type": "uint256"
        }
      ],
      "name": "Paused",
      "type": "event"
    },
    {
      "anonymous": false,
      "inputs": [
        {
          "indexed": false,
          "internalType": "contract IPauserRegistry",
          "name": "pauserRegistry",
          "type": "address"
        },
        {
          "indexed": false,
          "internalType": "contract IPauserRegistry",
          "name": "newPauserRegistry",
          "type": "address"
        }
      ],
      "name": "PauserRegistrySet",
      "type": "event"
    },
    {
      "anonymous": false,
      "inputs": [
        {
          "indexed": true,
          "internalType": "address",
          "name": "account",
          "type": "address"
        },
        {
          "indexed": false,
          "internalType": "uint256",
          "name": "newPausedStatus",
          "type": "uint256"
        }
      ],
      "name": "Unpaused",
      "type": "event"
    },
    {
      "inputs": [],
      "name": "DOMAIN_TYPEHASH",
      "outputs": [
        {
          "internalType": "bytes32",
          "name": "",
          "type": "bytes32"
        }
      ],
      "stateMutability": "view",
      "type": "function"
    },
    {
      "inputs": [],
      "name": "OPERATOR_AVS_REGISTRATION_TYPEHASH",
      "outputs": [
        {
          "internalType": "bytes32",
          "name": "",
          "type": "bytes32"
        }
      ],
      "stateMutability": "view",
      "type": "function"
    },
    {
      "inputs": [
        {
          "internalType": "address",
          "name": "",
          "type": "address"
        },
        {
          "internalType": "address",
          "name": "",
          "type": "address"
        }
      ],
      "name": "avsOperatorStatus",
      "outputs": [
        {
          "internalType": "enum IAVSDirectory.OperatorAVSRegistrationStatus",
          "name": "",
          "type": "uint8"
        }
      ],
      "stateMutability": "view",
      "type": "function"
    },
    {
      "inputs": [
        {
          "internalType": "address",
          "name": "operator",
          "type": "address"
        },
        {
          "internalType": "address",
          "name": "avs",
          "type": "address"
        },
        {
          "internalType": "bytes32",
          "name": "salt",
          "type": "bytes32"
        },
        {
          "internalType": "uint256",
          "name": "expiry",
          "type": "uint256"
        }
      ],
      "name": "calculateOperatorAVSRegistrationDigestHash",
      "outputs": [
        {
          "internalType": "bytes32",
          "name": "",
          "type": "bytes32"
        }
      ],
      "stateMutability": "view",
      "type": "function"
    },
    {
      "inputs": [],
      "name": "delegation",
      "outputs": [
        {
          "internalType": "contract IDelegationManager",
          "name": "",
          "type": "address"
        }
      ],
      "stateMutability": "view",
      "type": "function"
    },
    {
      "inputs": [
        {
          "internalType": "address",
          "name": "operator",
          "type": "address"
        }
      ],
      "name": "deregisterOperatorFromAVS",
      "outputs": [],
      "stateMutability": "nonpayable",
      "type": "function"
    },
    {
      "inputs": [],
      "name": "domainSeparator",
      "outputs": [
        {
          "internalType": "bytes32",
          "name": "",
          "type": "bytes32"
        }
      ],
      "stateMutability": "view",
      "type": "function"
    },
    {
      "inputs": [
        {
          "internalType": "address",
          "name": "initialOwner",
          "type": "address"
        },
        {
          "internalType": "contract IPauserRegistry",
          "name": "_pauserRegistry",
          "type": "address"
        },
        {
          "internalType": "uint256",
          "name": "initialPausedStatus",
          "type": "uint256"
        }
      ],
      "name": "initialize",
      "outputs": [],
      "stateMutability": "nonpayable",
      "type": "function"
    },
    {
      "inputs": [
        {
          "internalType": "address",
          "name": "",
          "type": "address"
        },
        {
          "internalType": "bytes32",
          "name": "",
          "type": "bytes32"
        }
      ],
      "name": "operatorSaltIsSpent",
      "outputs": [
        {
          "internalType": "bool",
          "name": "",
          "type": "bool"
        }
      ],
      "stateMutability": "view",
      "type": "function"
    },
    {
      "inputs": [],
      "name": "owner",
      "outputs": [
        {
          "internalType": "address",
          "name": "",
          "type": "address"
        }
      ],
      "stateMutability": "view",
      "type": "function"
    },
    {
      "inputs": [
        {
          "internalType": "uint256",
          "name": "newPausedStatus",
          "type": "uint256"
        }
      ],
      "name": "pause",
      "outputs": [],
      "stateMutability": "nonpayable",
      "type": "function"
    },
    {
      "inputs": [],
      "name": "pauseAll",
      "outputs": [],
      "stateMutability": "nonpayable",
      "type": "function"
    },
    {
      "inputs": [
        {
          "internalType": "uint8",
          "name": "index",
          "type": "uint8"
        }
      ],
      "name": "paused",
      "outputs": [
        {
          "internalType": "bool",
          "name": "",
          "type": "bool"
        }
      ],
      "stateMutability": "view",
      "type": "function"
    },
    {
      "inputs": [],
      "name": "paused",
      "outputs": [
        {
          "internalType": "uint256",
          "name": "",
          "type": "uint256"
        }
      ],
      "stateMutability": "view",
      "type": "function"
    },
    {
      "inputs": [],
      "name": "pauserRegistry",
      "outputs": [
        {
          "internalType": "contract IPauserRegistry",
          "name": "",
          "type": "address"
        }
      ],
      "stateMutability": "view",
      "type": "function"
    },
    {
      "inputs": [
        {
          "internalType": "address",
          "name": "operator",
          "type": "address"
        },
        {
          "components": [
            {
              "internalType": "bytes",
              "name": "signature",
              "type": "bytes"
            },
            {
              "internalType": "bytes32",
              "name": "salt",
              "type": "bytes32"
            },
            {
              "internalType": "uint256",
              "name": "expiry",
              "type": "uint256"
            }
          ],
          "internalType": "struct ISignatureUtils.SignatureWithSaltAndExpiry",
          "name": "operatorSignature",
          "type": "tuple"
        }
      ],
      "name": "registerOperatorToAVS",
      "outputs": [],
      "stateMutability": "nonpayable",
      "type": "function"
    },
    {
      "inputs": [],
      "name": "renounceOwnership",
      "outputs": [],
      "stateMutability": "nonpayable",
      "type": "function"
    },
    {
      "inputs": [
        {
          "internalType": "contract IPauserRegistry",
          "name": "newPauserRegistry",
          "type": "address"
        }
      ],
      "name": "setPauserRegistry",
      "outputs": [],
      "stateMutability": "nonpayable",
      "type": "function"
    },
    {
      "inputs": [
        {
          "internalType": "address",
          "name": "newOwner",
          "type": "address"
        }
      ],
      "name": "transferOwnership",
      "outputs": [],
      "stateMutability": "nonpayable",
      "type": "function"
    },
    {
      "inputs": [
        {
          "internalType": "uint256",
          "name": "newPausedStatus",
          "type": "uint256"
        }
      ],
      "name": "unpause",
      "outputs": [],
      "stateMutability": "nonpayable",
      "type": "function"
    },
    {
      "inputs": [
        {
          "internalType": "string",
          "name": "metadataURI",
          "type": "string"
        }
      ],
      "name": "updateAVSMetadataURI",
      "outputs": [],
      "stateMutability": "nonpayable",
      "type": "function"
    }
  ],
  "bytecode": {
    "object": "0x60c06040523480156200001157600080fd5b5060405162001eaf38038062001eaf833981016040819052620000349162000118565b6001600160a01b0381166080526200004b62000056565b504660a0526200014a565b600054610100900460ff1615620000c35760405162461bcd60e51b815260206004820152602760248201527f496e697469616c697a61626c653a20636f6e747261637420697320696e697469604482015266616c697a696e6760c81b606482015260840160405180910390fd5b60005460ff908116101562000116576000805460ff191660ff9081179091556040519081527f7f26b83ff96e1f2b6a682f133852f6798a09c465da95921460cefb38474024989060200160405180910390a15b565b6000602082840312156200012b57600080fd5b81516001600160a01b03811681146200014357600080fd5b9392505050565b60805160a051611d38620001776000396000610ddf01526000818161031901526109650152611d386000f3fe608060405234801561001057600080fd5b50600436106101375760003560e01c8063886f1195116100b8578063a98fb3551161007c578063a98fb355146102da578063d79aceab146102ed578063df5cf72314610314578063f2fde38b1461033b578063f698da251461034e578063fabc1cbc1461035657600080fd5b8063886f1195146102655780638da5cb5b146102905780639926ee7d146102a1578063a1060c88146102b4578063a364f4da146102c757600080fd5b806349075da3116100ff57806349075da3146101ef578063595c6a671461022a5780635ac86ab7146102325780635c975abb14610255578063715018a61461025d57600080fd5b806310d67a2f1461013c578063136439dd146101515780631794bb3c1461016457806320606b7014610177578063374823b5146101b1575b600080fd5b61014f61014a3660046117e2565b610369565b005b61014f61015f366004611806565b610425565b61014f61017236600461181f565b610564565b61019e7f8cad95687ba82c2ce50e74f7b754645e5117c3a5bec8151c0726d5857980a86681565b6040519081526020015b60405180910390f35b6101df6101bf366004611860565b609960209081526000928352604080842090915290825290205460ff1681565b60405190151581526020016101a8565b61021d6101fd36600461188c565b609860209081526000928352604080842090915290825290205460ff1681565b6040516101a891906118db565b61014f61068e565b6101df610240366004611903565b606654600160ff9092169190911b9081161490565b60665461019e565b61014f610755565b606554610278906001600160a01b031681565b6040516001600160a01b0390911681526020016101a8565b6033546001600160a01b0316610278565b61014f6102af366004611996565b610769565b61019e6102c2366004611a7d565b610afc565b61014f6102d53660046117e2565b610bb5565b61014f6102e8366004611ac3565b610d1e565b61019e7fda2c89bafdd34776a2b8bb9c83c82f419e20cc8c67207f70edd58249b92661bd81565b6102787f000000000000000000000000000000000000000000000000000000000000000081565b61014f6103493660046117e2565b610d65565b61019e610ddb565b61014f610364366004611806565b610e19565b606560009054906101000a90046001600160a01b03166001600160a01b031663eab66d7a6040518163ffffffff1660e01b8152600401602060405180830381865afa1580156103bc573d6000803e3d6000fd5b505050506040513d601f19601f820116820180604052508101906103e09190611b35565b6001600160a01b0316336001600160a01b0316146104195760405162461bcd60e51b815260040161041090611b52565b60405180910390fd5b61042281610f75565b50565b60655460405163237dfb4760e11b81523360048201526001600160a01b03909116906346fbf68e90602401602060405180830381865afa15801561046d573d6000803e3d6000fd5b505050506040513d601f19601f820116820180604052508101906104919190611b9c565b6104ad5760405162461bcd60e51b815260040161041090611bbe565b606654818116146105265760405162461bcd60e51b815260206004820152603860248201527f5061757361626c652e70617573653a20696e76616c696420617474656d70742060448201527f746f20756e70617573652066756e6374696f6e616c69747900000000000000006064820152608401610410565b606681905560405181815233907fab40a374bc51de372200a8bc981af8c9ecdc08dfdaef0bb6e09f88f3c616ef3d906020015b60405180910390a250565b600054610100900460ff16158080156105845750600054600160ff909116105b8061059e5750303b15801561059e575060005460ff166001145b6106015760405162461bcd60e51b815260206004820152602e60248201527f496e697469616c697a61626c653a20636f6e747261637420697320616c72656160448201526d191e481a5b9a5d1a585b1a5e995960921b6064820152608401610410565b6000805460ff191660011790558015610624576000805461ff0019166101001790555b61062e838361106c565b610636611156565b609755610642846111ed565b8015610688576000805461ff0019169055604051600181527f7f26b83ff96e1f2b6a682f133852f6798a09c465da95921460cefb38474024989060200160405180910390a15b50505050565b60655460405163237dfb4760e11b81523360048201526001600160a01b03909116906346fbf68e90602401602060405180830381865afa1580156106d6573d6000803e3d6000fd5b505050506040513d601f19601f820116820180604052508101906106fa9190611b9c565b6107165760405162461bcd60e51b815260040161041090611bbe565b600019606681905560405190815233907fab40a374bc51de372200a8bc981af8c9ecdc08dfdaef0bb6e09f88f3c616ef3d9060200160405180910390a2565b61075d61123f565b61076760006111ed565b565b606654600090600190811614156107be5760405162461bcd60e51b815260206004820152601960248201527814185d5cd8589b194e881a5b99195e081a5cc81c185d5cd959603a1b6044820152606401610410565b42826040015110156108265760405162461bcd60e51b815260206004820152603e6024820152600080516020611ce383398151915260448201527f56533a206f70657261746f72207369676e6174757265206578706972656400006064820152608401610410565b60013360009081526098602090815260408083206001600160a01b038816845290915290205460ff166001811115610860576108606118c5565b14156108c25760405162461bcd60e51b815260206004820152603f6024820152600080516020611ce383398151915260448201527f56533a206f70657261746f7220616c72656164792072656769737465726564006064820152608401610410565b6001600160a01b038316600090815260996020908152604080832085830151845290915290205460ff16156109465760405162461bcd60e51b81526020600482015260366024820152600080516020611ce38339815191526044820152751594ce881cd85b1d08185b1c9958591e481cdc195b9d60521b6064820152608401610410565b6040516336b87bd760e11b81526001600160a01b0384811660048301527f00000000000000000000000000000000000000000000000000000000000000001690636d70f7ae90602401602060405180830381865afa1580156109ac573d6000803e3d6000fd5b505050506040513d601f19601f820116820180604052508101906109d09190611b9c565b610a465760405162461bcd60e51b815260206004820152604d6024820152600080516020611ce383398151915260448201527f56533a206f70657261746f72206e6f74207265676973746572656420746f204560648201526c1a59d95b93185e595c881e595d609a1b608482015260a401610410565b6000610a5c843385602001518660400151610afc565b9050610a6d84828560000151611299565b3360008181526098602090815260408083206001600160a01b0389168085529083528184208054600160ff199182168117909255609985528386208a860151875290945293829020805490931684179092555190917ff0952b1c65271d819d39983d2abb044b9cace59bcc4d4dd389f586ebdcb15b4191610aee91906118db565b60405180910390a350505050565b604080517fda2c89bafdd34776a2b8bb9c83c82f419e20cc8c67207f70edd58249b92661bd6020808301919091526001600160a01b0387811683850152861660608301526080820185905260a08083018590528351808403909101815260c0909201909252805191012060009081610b72610ddb565b60405161190160f01b602082015260228101919091526042810183905260620160408051808303601f190181529190528051602090910120979650505050505050565b60665460009060019081161415610c0a5760405162461bcd60e51b815260206004820152601960248201527814185d5cd8589b194e881a5b99195e081a5cc81c185d5cd959603a1b6044820152606401610410565b60013360009081526098602090815260408083206001600160a01b038716845290915290205460ff166001811115610c4457610c446118c5565b14610cb75760405162461bcd60e51b815260206004820152603f60248201527f4156534469726563746f72792e646572656769737465724f70657261746f724660448201527f726f6d4156533a206f70657261746f72206e6f742072656769737465726564006064820152608401610410565b3360008181526098602090815260408083206001600160a01b0387168085529252808320805460ff191690555190917ff0952b1c65271d819d39983d2abb044b9cace59bcc4d4dd389f586ebdcb15b4191610d1291906118db565b60405180910390a35050565b336001600160a01b03167fa89c1dc243d8908a96dd84944bcc97d6bc6ac00dd78e20621576be6a3c9437138383604051610d59929190611c06565b60405180910390a25050565b610d6d61123f565b6001600160a01b038116610dd25760405162461bcd60e51b815260206004820152602660248201527f4f776e61626c653a206e6577206f776e657220697320746865207a65726f206160448201526564647265737360d01b6064820152608401610410565b610422816111ed565b60007f0000000000000000000000000000000000000000000000000000000000000000461415610e0c575060975490565b610e14611156565b905090565b606560009054906101000a90046001600160a01b03166001600160a01b031663eab66d7a6040518163ffffffff1660e01b8152600401602060405180830381865afa158015610e6c573d6000803e3d6000fd5b505050506040513d601f19601f82011682018060405250810190610e909190611b35565b6001600160a01b0316336001600160a01b031614610ec05760405162461bcd60e51b815260040161041090611b52565b606654198119606654191614610f3e5760405162461bcd60e51b815260206004820152603860248201527f5061757361626c652e756e70617573653a20696e76616c696420617474656d7060448201527f7420746f2070617573652066756e6374696f6e616c69747900000000000000006064820152608401610410565b606681905560405181815233907f3582d1828e26bf56bd801502bc021ac0bc8afb57c826e4986b45593c8fad389c90602001610559565b6001600160a01b0381166110035760405162461bcd60e51b815260206004820152604960248201527f5061757361626c652e5f73657450617573657252656769737472793a206e657760448201527f50617573657252656769737472792063616e6e6f7420626520746865207a65726064820152686f206164647265737360b81b608482015260a401610410565b606554604080516001600160a01b03928316815291831660208301527f6e9fcd539896fca60e8b0f01dd580233e48a6b0f7df013b89ba7f565869acdb6910160405180910390a1606580546001600160a01b0319166001600160a01b0392909216919091179055565b6065546001600160a01b031615801561108d57506001600160a01b03821615155b61110f5760405162461bcd60e51b815260206004820152604760248201527f5061757361626c652e5f696e697469616c697a655061757365723a205f696e6960448201527f7469616c697a6550617573657228292063616e206f6e6c792062652063616c6c6064820152666564206f6e636560c81b608482015260a401610410565b606681905560405181815233907fab40a374bc51de372200a8bc981af8c9ecdc08dfdaef0bb6e09f88f3c616ef3d9060200160405180910390a261115282610f75565b5050565b604080518082018252600a81526922b4b3b2b72630bcb2b960b11b60209182015281517f8cad95687ba82c2ce50e74f7b754645e5117c3a5bec8151c0726d5857980a866818301527f71b625cfad44bac63b13dba07f2e1d6084ee04b6f8752101ece6126d584ee6ea81840152466060820152306080808301919091528351808303909101815260a0909101909252815191012090565b603380546001600160a01b038381166001600160a01b0319831681179093556040519116919082907f8be0079c531659141344cd1fd0a4f28419497f9722a3daafe3b4186f6b6457e090600090a35050565b6033546001600160a01b031633146107675760405162461bcd60e51b815260206004820181905260248201527f4f776e61626c653a2063616c6c6572206973206e6f7420746865206f776e65726044820152606401610410565b6001600160a01b0383163b156113b857604051630b135d3f60e11b808252906001600160a01b03851690631626ba7e906112d99086908690600401611c35565b602060405180830381865afa1580156112f6573d6000803e3d6000fd5b505050506040513d601f19601f8201168201806040525081019061131a9190611c92565b6001600160e01b031916146113b35760405162461bcd60e51b815260206004820152605360248201527f454950313237315369676e61747572655574696c732e636865636b5369676e6160448201527f747572655f454950313237313a2045524331323731207369676e6174757265206064820152721d995c9a599a58d85d1a5bdb8819985a5b1959606a1b608482015260a401610410565b505050565b826001600160a01b03166113cc8383611458565b6001600160a01b0316146113b35760405162461bcd60e51b815260206004820152604760248201527f454950313237315369676e61747572655574696c732e636865636b5369676e6160448201527f747572655f454950313237313a207369676e6174757265206e6f742066726f6d6064820152661039b4b3b732b960c91b608482015260a401610410565b6000806000611467858561147c565b91509150611474816114ec565b509392505050565b6000808251604114156114b35760208301516040840151606085015160001a6114a7878285856116a7565b945094505050506114e5565b8251604014156114dd57602083015160408401516114d2868383611794565b9350935050506114e5565b506000905060025b9250929050565b6000816004811115611500576115006118c5565b14156115095750565b600181600481111561151d5761151d6118c5565b141561156b5760405162461bcd60e51b815260206004820152601860248201527f45434453413a20696e76616c6964207369676e617475726500000000000000006044820152606401610410565b600281600481111561157f5761157f6118c5565b14156115cd5760405162461bcd60e51b815260206004820152601f60248201527f45434453413a20696e76616c6964207369676e6174757265206c656e677468006044820152606401610410565b60038160048111156115e1576115e16118c5565b141561163a5760405162461bcd60e51b815260206004820152602260248201527f45434453413a20696e76616c6964207369676e6174757265202773272076616c604482015261756560f01b6064820152608401610410565b600481600481111561164e5761164e6118c5565b14156104225760405162461bcd60e51b815260206004820152602260248201527f45434453413a20696e76616c6964207369676e6174757265202776272076616c604482015261756560f01b6064820152608401610410565b6000807f7fffffffffffffffffffffffffffffff5d576e7357a4501ddfe92f46681b20a08311156116de575060009050600361178b565b8460ff16601b141580156116f657508460ff16601c14155b15611707575060009050600461178b565b6040805160008082526020820180845289905260ff881692820192909252606081018690526080810185905260019060a0016020604051602081039080840390855afa15801561175b573d6000803e3d6000fd5b5050604051601f1901519150506001600160a01b0381166117845760006001925092505061178b565b9150600090505b94509492505050565b6000806001600160ff1b038316816117b160ff86901c601b611cbc565b90506117bf878288856116a7565b935093505050935093915050565b6001600160a01b038116811461042257600080fd5b6000602082840312156117f457600080fd5b81356117ff816117cd565b9392505050565b60006020828403121561181857600080fd5b5035919050565b60008060006060848603121561183457600080fd5b833561183f816117cd565b9250602084013561184f816117cd565b929592945050506040919091013590565b6000806040838503121561187357600080fd5b823561187e816117cd565b946020939093013593505050565b6000806040838503121561189f57600080fd5b82356118aa816117cd565b915060208301356118ba816117cd565b809150509250929050565b634e487b7160e01b600052602160045260246000fd5b60208101600283106118fd57634e487b7160e01b600052602160045260246000fd5b91905290565b60006020828403121561191557600080fd5b813560ff811681146117ff57600080fd5b634e487b7160e01b600052604160045260246000fd5b6040516060810167ffffffffffffffff8111828210171561195f5761195f611926565b60405290565b604051601f8201601f1916810167ffffffffffffffff8111828210171561198e5761198e611926565b604052919050565b600080604083850312156119a957600080fd5b82356119b4816117cd565b915060208381013567ffffffffffffffff808211156119d257600080fd5b90850190606082880312156119e657600080fd5b6119ee61193c565b8235828111156119fd57600080fd5b8301601f81018913611a0e57600080fd5b803583811115611a2057611a20611926565b611a32601f8201601f19168701611965565b93508084528986828401011115611a4857600080fd5b808683018786013760008682860101525050818152838301358482015260408301356040820152809450505050509250929050565b60008060008060808587031215611a9357600080fd5b8435611a9e816117cd565b93506020850135611aae816117cd565b93969395505050506040820135916060013590565b60008060208385031215611ad657600080fd5b823567ffffffffffffffff80821115611aee57600080fd5b818501915085601f830112611b0257600080fd5b813581811115611b1157600080fd5b866020828501011115611b2357600080fd5b60209290920196919550909350505050565b600060208284031215611b4757600080fd5b81516117ff816117cd565b6020808252602a908201527f6d73672e73656e646572206973206e6f74207065726d697373696f6e6564206160408201526939903ab73830bab9b2b960b11b606082015260800190565b600060208284031215611bae57600080fd5b815180151581146117ff57600080fd5b60208082526028908201527f6d73672e73656e646572206973206e6f74207065726d697373696f6e6564206160408201526739903830bab9b2b960c11b606082015260800190565b60208152816020820152818360408301376000818301604090810191909152601f909201601f19160101919050565b82815260006020604081840152835180604085015260005b81811015611c6957858101830151858201606001528201611c4d565b81811115611c7b576000606083870101525b50601f01601f191692909201606001949350505050565b600060208284031215611ca457600080fd5b81516001600160e01b0319811681146117ff57600080fd5b60008219821115611cdd57634e487b7160e01b600052601160045260246000fd5b50019056fe4156534469726563746f72792e72656769737465724f70657261746f72546f41a2646970667358221220b96b22571ec1d006c847d37f56555d8dd4b6f8a3c1c682c628b99175bca7ed3c64736f6c634300080c0033",
    "linkReferences": {}
  },
  "methodIdentifiers": {
    "DOMAIN_TYPEHASH()": "20606b70",
    "OPERATOR_AVS_REGISTRATION_TYPEHASH()": "d79aceab",
    "avsOperatorStatus(address,address)": "49075da3",
    "calculateOperatorAVSRegistrationDigestHash(address,address,bytes32,uint256)": "a1060c88",
    "delegation()": "df5cf723",
    "deregisterOperatorFromAVS(address)": "a364f4da",
    "domainSeparator()": "f698da25",
    "initialize(address,address,uint256)": "1794bb3c",
    "operatorSaltIsSpent(address,bytes32)": "374823b5",
    "owner()": "8da5cb5b",
    "pause(uint256)": "136439dd",
    "pauseAll()": "595c6a67",
    "paused()": "5c975abb",
    "paused(uint8)": "5ac86ab7",
    "pauserRegistry()": "886f1195",
    "registerOperatorToAVS(address,(bytes,bytes32,uint256))": "9926ee7d",
    "renounceOwnership()": "715018a6",
    "setPauserRegistry(address)": "10d67a2f",
    "transferOwnership(address)": "f2fde38b",
    "unpause(uint256)": "fabc1cbc",
    "updateAVSMetadataURI(string)": "a98fb355"
  },
  "id": 1
}