{
  "abi": [
    {
      "inputs": [
        {
          "internalType": "contract IRegistryCoordinator",
          "name": "_registryCoordinator",
          "type": "address"
        }
      ],
      "stateMutability": "nonpayable",
      "type": "constructor"
    },
    {
      "anonymous": false,
      "inputs": [
        {
          "indexed": false,
          "internalType": "bool",
          "name": "value",
          "type": "bool"
        }
      ],
      "name": "StaleStakesForbiddenUpdate",
      "type": "event"
    },
    {
      "inputs": [],
      "name": "blsApkRegistry",
      "outputs": [
        {
          "internalType": "contract IBLSApkRegistry",
          "name": "",
          "type": "address"
        }
      ],
      "stateMutability": "view",
      "type": "function"
    },
    {
      "inputs": [
        {
          "internalType": "bytes32",
          "name": "msgHash",
          "type": "bytes32"
        },
        {
          "internalType": "bytes",
          "name": "quorumNumbers",
          "type": "bytes"
        },
        {
          "internalType": "uint32",
          "name": "referenceBlockNumber",
          "type": "uint32"
        },
        {
          "components": [
            {
              "internalType": "uint32[]",
              "name": "nonSignerQuorumBitmapIndices",
              "type": "uint32[]"
            },
            {
              "components": [
                {
                  "internalType": "uint256",
                  "name": "X",
                  "type": "uint256"
                },
                {
                  "internalType": "uint256",
                  "name": "Y",
                  "type": "uint256"
                }
              ],
              "internalType": "struct BN254.G1Point[]",
              "name": "nonSignerPubkeys",
              "type": "tuple[]"
            },
            {
              "components": [
                {
                  "internalType": "uint256",
                  "name": "X",
                  "type": "uint256"
                },
                {
                  "internalType": "uint256",
                  "name": "Y",
                  "type": "uint256"
                }
              ],
              "internalType": "struct BN254.G1Point[]",
              "name": "quorumApks",
              "type": "tuple[]"
            },
            {
              "components": [
                {
                  "internalType": "uint256[2]",
                  "name": "X",
                  "type": "uint256[2]"
                },
                {
                  "internalType": "uint256[2]",
                  "name": "Y",
                  "type": "uint256[2]"
                }
              ],
              "internalType": "struct BN254.G2Point",
              "name": "apkG2",
              "type": "tuple"
            },
            {
              "components": [
                {
                  "internalType": "uint256",
                  "name": "X",
                  "type": "uint256"
                },
                {
                  "internalType": "uint256",
                  "name": "Y",
                  "type": "uint256"
                }
              ],
              "internalType": "struct BN254.G1Point",
              "name": "sigma",
              "type": "tuple"
            },
            {
              "internalType": "uint32[]",
              "name": "quorumApkIndices",
              "type": "uint32[]"
            },
            {
              "internalType": "uint32[]",
              "name": "totalStakeIndices",
              "type": "uint32[]"
            },
            {
              "internalType": "uint32[][]",
              "name": "nonSignerStakeIndices",
              "type": "uint32[][]"
            }
          ],
          "internalType": "struct IBLSSignatureChecker.NonSignerStakesAndSignature",
          "name": "params",
          "type": "tuple"
        }
      ],
      "name": "checkSignatures",
      "outputs": [
        {
          "components": [
            {
              "internalType": "uint96[]",
              "name": "signedStakeForQuorum",
              "type": "uint96[]"
            },
            {
              "internalType": "uint96[]",
              "name": "totalStakeForQuorum",
              "type": "uint96[]"
            }
          ],
          "internalType": "struct IBLSSignatureChecker.QuorumStakeTotals",
          "name": "",
          "type": "tuple"
        },
        {
          "internalType": "bytes32",
          "name": "",
          "type": "bytes32"
        }
      ],
      "stateMutability": "view",
      "type": "function"
    },
    {
      "inputs": [],
      "name": "delegation",
      "outputs": [
        {
          "internalType": "contract IDelegationManager",
          "name": "",
          "type": "address"
        }
      ],
      "stateMutability": "view",
      "type": "function"
    },
    {
      "inputs": [],
      "name": "registryCoordinator",
      "outputs": [
        {
          "internalType": "contract IRegistryCoordinator",
          "name": "",
          "type": "address"
        }
      ],
      "stateMutability": "view",
      "type": "function"
    },
    {
      "inputs": [
        {
          "internalType": "bool",
          "name": "value",
          "type": "bool"
        }
      ],
      "name": "setStaleStakesForbidden",
      "outputs": [],
      "stateMutability": "nonpayable",
      "type": "function"
    },
    {
      "inputs": [],
      "name": "stakeRegistry",
      "outputs": [
        {
          "internalType": "contract IStakeRegistry",
          "name": "",
          "type": "address"
        }
      ],
      "stateMutability": "view",
      "type": "function"
    },
    {
      "inputs": [],
      "name": "staleStakesForbidden",
      "outputs": [
        {
          "internalType": "bool",
          "name": "",
          "type": "bool"
        }
      ],
      "stateMutability": "view",
      "type": "function"
    },
    {
      "inputs": [
        {
          "internalType": "bytes32",
          "name": "msgHash",
          "type": "bytes32"
        },
        {
          "components": [
            {
              "internalType": "uint256",
              "name": "X",
              "type": "uint256"
            },
            {
              "internalType": "uint256",
              "name": "Y",
              "type": "uint256"
            }
          ],
          "internalType": "struct BN254.G1Point",
          "name": "apk",
          "type": "tuple"
        },
        {
          "components": [
            {
              "internalType": "uint256[2]",
              "name": "X",
              "type": "uint256[2]"
            },
            {
              "internalType": "uint256[2]",
              "name": "Y",
              "type": "uint256[2]"
            }
          ],
          "internalType": "struct BN254.G2Point",
          "name": "apkG2",
          "type": "tuple"
        },
        {
          "components": [
            {
              "internalType": "uint256",
              "name": "X",
              "type": "uint256"
            },
            {
              "internalType": "uint256",
              "name": "Y",
              "type": "uint256"
            }
          ],
          "internalType": "struct BN254.G1Point",
          "name": "sigma",
          "type": "tuple"
        }
      ],
      "name": "trySignatureAndApkVerification",
      "outputs": [
        {
          "internalType": "bool",
          "name": "pairingSuccessful",
          "type": "bool"
        },
        {
          "internalType": "bool",
          "name": "siganatureIsValid",
          "type": "bool"
        }
      ],
      "stateMutability": "view",
      "type": "function"
    }
  ],
  "bytecode": {
    "object": "0x6101006040523480156200001257600080fd5b506040516200292e3803806200292e8339810160408190526200003591620001dd565b6001600160a01b038116608081905260408051636830483560e01b815290516368304835916004808201926020929091908290030181865afa15801562000080573d6000803e3d6000fd5b505050506040513d601f19601f82011682018060405250810190620000a69190620001dd565b6001600160a01b031660a0816001600160a01b031681525050806001600160a01b0316635df459466040518163ffffffff1660e01b8152600401602060405180830381865afa158015620000fe573d6000803e3d6000fd5b505050506040513d601f19601f82011682018060405250810190620001249190620001dd565b6001600160a01b031660c0816001600160a01b03168152505060a0516001600160a01b031663df5cf7236040518163ffffffff1660e01b8152600401602060405180830381865afa1580156200017e573d6000803e3d6000fd5b505050506040513d601f19601f82011682018060405250810190620001a49190620001dd565b6001600160a01b031660e052506000805460ff1916600117905562000204565b6001600160a01b0381168114620001da57600080fd5b50565b600060208284031215620001f057600080fd5b8151620001fd81620001c4565b9392505050565b60805160a05160c05160e0516126b962000275600039600081816101a10152610bb101526000818160d60152610d9401526000818161011501528181610f6a015261112c01526000818161013c0152818161034f0152818161087a01528181610a120152610c4e01526126b96000f3fe608060405234801561001057600080fd5b50600436106100885760003560e01c80636d14a9871161005b5780636d14a987146101375780636efb46361461015e578063b98d09081461017f578063df5cf7231461019c57600080fd5b8063171f1d5b1461008d578063416c7e5e146100bc5780635df45946146100d15780636830483514610110575b600080fd5b6100a061009b366004611fb3565b6101c3565b6040805192151583529015156020830152015b60405180910390f35b6100cf6100ca366004612004565b61034d565b005b6100f87f000000000000000000000000000000000000000000000000000000000000000081565b6040516001600160a01b0390911681526020016100b3565b6100f87f000000000000000000000000000000000000000000000000000000000000000081565b6100f87f000000000000000000000000000000000000000000000000000000000000000081565b61017161016c3660046122dc565b6104c7565b6040516100b39291906123cf565b60005461018c9060ff1681565b60405190151581526020016100b3565b6100f87f000000000000000000000000000000000000000000000000000000000000000081565b60008060007f30644e72e131a029b85045b68181585d2833e84879b9709143e1f593f00000018787600001518860200151886000015160006002811061020b5761020b612418565b60200201518951600160200201518a6020015160006002811061023057610230612418565b60200201518b6020015160016002811061024c5761024c612418565b602090810291909101518c518d8301516040516102a99a99989796959401988952602089019790975260408801959095526060870193909352608086019190915260a085015260c084015260e08301526101008201526101200190565b6040516020818303038152906040528051906020012060001c6102cc919061242e565b905061033f6102e56102de88846113e1565b8690611478565b6102ed61150c565b61033561032685610320604080518082018252600080825260209182015281518083019092526001825260029082015290565b906113e1565b61032f8c6115cc565b90611478565b886201d4c061165c565b909890975095505050505050565b7f00000000000000000000000000000000000000000000000000000000000000006001600160a01b0316638da5cb5b6040518163ffffffff1660e01b8152600401602060405180830381865afa1580156103ab573d6000803e3d6000fd5b505050506040513d601f19601f820116820180604052508101906103cf9190612450565b6001600160a01b0316336001600160a01b0316146104805760405162461bcd60e51b815260206004820152605c60248201527f424c535369676e6174757265436865636b65722e6f6e6c79436f6f7264696e6160448201527f746f724f776e65723a2063616c6c6572206973206e6f7420746865206f776e6560648201527f72206f6620746865207265676973747279436f6f7264696e61746f7200000000608482015260a4015b60405180910390fd5b6000805460ff19168215159081179091556040519081527f40e4ed880a29e0f6ddce307457fb75cddf4feef7d3ecb0301bfdf4976a0e2dfc9060200160405180910390a150565b604080518082019091526060808252602082015260008461053e5760405162461bcd60e51b8152602060048201526037602482015260008051602061266483398151915260448201527f7265733a20656d7074792071756f72756d20696e7075740000000000000000006064820152608401610477565b60408301515185148015610556575060a08301515185145b8015610566575060c08301515185145b8015610576575060e08301515185145b6105e05760405162461bcd60e51b8152602060048201526041602482015260008051602061266483398151915260448201527f7265733a20696e7075742071756f72756d206c656e677468206d69736d6174636064820152600d60fb1b608482015260a401610477565b825151602084015151146106585760405162461bcd60e51b815260206004820152604460248201819052600080516020612664833981519152908201527f7265733a20696e707574206e6f6e7369676e6572206c656e677468206d69736d6064820152630c2e8c6d60e31b608482015260a401610477565b4363ffffffff168463ffffffff16106106c75760405162461bcd60e51b815260206004820152603c602482015260008051602061266483398151915260448201527f7265733a20696e76616c6964207265666572656e636520626c6f636b000000006064820152608401610477565b6040805180820182526000808252602080830191909152825180840190935260608084529083015290866001600160401b0381111561070857610708611e4e565b604051908082528060200260200182016040528015610731578160200160208202803683370190505b506020820152866001600160401b0381111561074f5761074f611e4e565b604051908082528060200260200182016040528015610778578160200160208202803683370190505b50815260408051808201909152606080825260208201528560200151516001600160401b038111156107ac576107ac611e4e565b6040519080825280602002602001820160405280156107d5578160200160208202803683370190505b5081526020860151516001600160401b038111156107f5576107f5611e4e565b60405190808252806020026020018201604052801561081e578160200160208202803683370190505b50816020018190525060006108f08a8a8080601f0160208091040260200160405190810160405280939291908181526020018383808284376000920191909152505060408051639aa1653d60e01b815290516001600160a01b037f0000000000000000000000000000000000000000000000000000000000000000169350639aa1653d925060048083019260209291908290030181865afa1580156108c7573d6000803e3d6000fd5b505050506040513d601f19601f820116820180604052508101906108eb9190612479565b611880565b905060005b876020015151811015610b8b5761093a8860200151828151811061091b5761091b612418565b6020026020010151805160009081526020918201519091526040902090565b8360200151828151811061095057610950612418565b60209081029190910101528015610a105760208301516109716001836124b2565b8151811061098157610981612418565b602002602001015160001c836020015182815181106109a2576109a2612418565b602002602001015160001c11610a10576040805162461bcd60e51b815260206004820152602481019190915260008051602061266483398151915260448201527f7265733a206e6f6e5369676e65725075626b657973206e6f7420736f727465646064820152608401610477565b7f00000000000000000000000000000000000000000000000000000000000000006001600160a01b03166304ec635184602001518381518110610a5557610a55612418565b60200260200101518b8b600001518581518110610a7457610a74612418565b60200260200101516040518463ffffffff1660e01b8152600401610ab19392919092835263ffffffff918216602084015216604082015260600190565b602060405180830381865afa158015610ace573d6000803e3d6000fd5b505050506040513d601f19601f82011682018060405250810190610af291906124c9565b6001600160c01b031683600001518281518110610b1157610b11612418565b602002602001018181525050610b776102de610b4b8486600001518581518110610b3d57610b3d612418565b602002602001015116611913565b8a602001518481518110610b6157610b61612418565b602002602001015161193e90919063ffffffff16565b945080610b83816124f2565b9150506108f5565b5050610b9683611a22565b6000805491945060ff9091169081610baf576000610c31565b7f00000000000000000000000000000000000000000000000000000000000000006001600160a01b031663c448feb86040518163ffffffff1660e01b8152600401602060405180830381865afa158015610c0d573d6000803e3d6000fd5b505050506040513d601f19601f82011682018060405250810190610c31919061250d565b905060005b8a8110156112b0578215610d92578963ffffffff16827f00000000000000000000000000000000000000000000000000000000000000006001600160a01b031663249a0c428f8f86818110610c8d57610c8d612418565b60405160e085901b6001600160e01b031916815292013560f81c600483015250602401602060405180830381865afa158015610ccd573d6000803e3d6000fd5b505050506040513d601f19601f82011682018060405250810190610cf1919061250d565b610cfb9190612526565b1015610d925760405162461bcd60e51b8152602060048201526066602482015260008051602061266483398151915260448201527f7265733a205374616b6552656769737472792075706461746573206d7573742060648201527f62652077697468696e207769746864726177616c44656c6179426c6f636b732060848201526577696e646f7760d01b60a482015260c401610477565b7f00000000000000000000000000000000000000000000000000000000000000006001600160a01b03166368bccaac8d8d84818110610dd357610dd3612418565b9050013560f81c60f81b60f81c8c8c60a001518581518110610df757610df7612418565b60209081029190910101516040516001600160e01b031960e086901b16815260ff909316600484015263ffffffff9182166024840152166044820152606401602060405180830381865afa158015610e53573d6000803e3d6000fd5b505050506040513d601f19601f82011682018060405250810190610e77919061253e565b6001600160401b031916610e9a8a60400151838151811061091b5761091b612418565b67ffffffffffffffff191614610f365760405162461bcd60e51b8152602060048201526061602482015260008051602061266483398151915260448201527f7265733a2071756f72756d41706b206861736820696e2073746f72616765206460648201527f6f6573206e6f74206d617463682070726f76696465642071756f72756d2061706084820152606b60f81b60a482015260c401610477565b610f6689604001518281518110610f4f57610f4f612418565b60200260200101518761147890919063ffffffff16565b95507f00000000000000000000000000000000000000000000000000000000000000006001600160a01b031663c8294c568d8d84818110610fa957610fa9612418565b9050013560f81c60f81b60f81c8c8c60c001518581518110610fcd57610fcd612418565b60209081029190910101516040516001600160e01b031960e086901b16815260ff909316600484015263ffffffff9182166024840152166044820152606401602060405180830381865afa158015611029573d6000803e3d6000fd5b505050506040513d601f19601f8201168201806040525081019061104d9190612569565b8560200151828151811061106357611063612418565b6001600160601b0390921660209283029190910182015285015180518290811061108f5761108f612418565b6020026020010151856000015182815181106110ad576110ad612418565b60200260200101906001600160601b031690816001600160601b0316815250506000805b8a602001515181101561129b57611125866000015182815181106110f7576110f7612418565b60200260200101518f8f8681811061111157611111612418565b600192013560f81c9290921c811614919050565b15611289577f00000000000000000000000000000000000000000000000000000000000000006001600160a01b031663f2be94ae8f8f8681811061116b5761116b612418565b9050013560f81c60f81b60f81c8e8960200151858151811061118f5761118f612418565b60200260200101518f60e0015188815181106111ad576111ad612418565b602002602001015187815181106111c6576111c6612418565b60209081029190910101516040516001600160e01b031960e087901b16815260ff909416600485015263ffffffff92831660248501526044840191909152166064820152608401602060405180830381865afa15801561122a573d6000803e3d6000fd5b505050506040513d601f19601f8201168201806040525081019061124e9190612569565b875180518590811061126257611262612418565b602002602001018181516112769190612592565b6001600160601b03169052506001909101905b80611293816124f2565b9150506110d1565b505080806112a8906124f2565b915050610c36565b5050506000806112ca8c868a606001518b608001516101c3565b915091508161133b5760405162461bcd60e51b8152602060048201526043602482015260008051602061266483398151915260448201527f7265733a2070616972696e6720707265636f6d70696c652063616c6c206661696064820152621b195960ea1b608482015260a401610477565b8061139c5760405162461bcd60e51b8152602060048201526039602482015260008051602061266483398151915260448201527f7265733a207369676e617475726520697320696e76616c6964000000000000006064820152608401610477565b505060008782602001516040516020016113b79291906125ba565b60408051808303601f190181529190528051602090910120929b929a509198505050505050505050565b60408051808201909152600080825260208201526113fd611d74565b835181526020808501519082015260408082018490526000908360608460076107d05a03fa905080801561143057611432565bfe5b50806114705760405162461bcd60e51b815260206004820152600d60248201526c1958cb5b5d5b0b59985a5b1959609a1b6044820152606401610477565b505092915050565b6040805180820190915260008082526020820152611494611d92565b835181526020808501518183015283516040808401919091529084015160608301526000908360808460066107d05a03fa90508080156114305750806114705760405162461bcd60e51b815260206004820152600d60248201526c1958cb5859190b59985a5b1959609a1b6044820152606401610477565b611514611db0565b50604080516080810182527f198e9393920d483a7260bfb731fb5d25f1aa493335a9e71297e485b7aef312c28183019081527f1800deef121f1e76426a00665e5c4479674322d4f75edadd46debd5cd992f6ed6060830152815281518083019092527f275dc4a288d1afb3cbb1ac09187524c7db36395df7be3b99e673b13a075a65ec82527f1d9befcd05a5323e6da4d435f3b617cdb3af83285c2df711ef39c01571827f9d60208381019190915281019190915290565b6040805180820190915260008082526020820152600080806115fc6000805160206126448339815191528661242e565b90505b61160881611abd565b9093509150600080516020612644833981519152828309831415611642576040805180820190915290815260208101919091529392505050565b6000805160206126448339815191526001820890506115ff565b60408051808201825286815260208082018690528251808401909352868352820184905260009182919061168e611dd5565b60005b60028110156118535760006116a7826006612602565b90508482600281106116bb576116bb612418565b602002015151836116cd836000612526565b600c81106116dd576116dd612418565b60200201528482600281106116f4576116f4612418565b6020020151602001518382600161170b9190612526565b600c811061171b5761171b612418565b602002015283826002811061173257611732612418565b6020020151515183611745836002612526565b600c811061175557611755612418565b602002015283826002811061176c5761176c612418565b6020020151516001602002015183611785836003612526565b600c811061179557611795612418565b60200201528382600281106117ac576117ac612418565b6020020151602001516000600281106117c7576117c7612418565b6020020151836117d8836004612526565b600c81106117e8576117e8612418565b60200201528382600281106117ff576117ff612418565b60200201516020015160016002811061181a5761181a612418565b60200201518361182b836005612526565b600c811061183b5761183b612418565b6020020152508061184b816124f2565b915050611691565b5061185c611df4565b60006020826101808560088cfa9151919c9115159b50909950505050505050505050565b60008061188c84611b3f565b9050808360ff166001901b1161190a5760405162461bcd60e51b815260206004820152603f60248201527f4269746d61705574696c732e6f72646572656442797465734172726179546f4260448201527f69746d61703a206269746d61702065786365656473206d61782076616c7565006064820152608401610477565b90505b92915050565b6000805b821561190d576119286001846124b2565b909216918061193681612621565b915050611917565b60408051808201909152600080825260208201526102008261ffff161061199a5760405162461bcd60e51b815260206004820152601060248201526f7363616c61722d746f6f2d6c6172676560801b6044820152606401610477565b8161ffff16600114156119ae57508161190d565b6040805180820190915260008082526020820181905284906001905b8161ffff168661ffff1610611a1757600161ffff871660ff83161c811614156119fa576119f78484611478565b93505b611a048384611478565b92506201fffe600192831b1691016119ca565b509195945050505050565b60408051808201909152600080825260208201528151158015611a4757506020820151155b15611a65575050604080518082019091526000808252602082015290565b6040518060400160405280836000015181526020016000805160206126448339815191528460200151611a98919061242e565b611ab0906000805160206126448339815191526124b2565b905292915050565b919050565b60008080600080516020612644833981519152600360008051602061264483398151915286600080516020612644833981519152888909090890506000611b33827f0c19139cb84c680a6e14116da060561765e05aa45a1c72a34f082305b61f3f52600080516020612644833981519152611ccc565b91959194509092505050565b600061010082511115611bc85760405162461bcd60e51b8152602060048201526044602482018190527f4269746d61705574696c732e6f72646572656442797465734172726179546f42908201527f69746d61703a206f7264657265644279746573417272617920697320746f6f206064820152636c6f6e6760e01b608482015260a401610477565b8151611bd657506000919050565b60008083600081518110611bec57611bec612418565b0160200151600160f89190911c81901b92505b8451811015611cc357848181518110611c1a57611c1a612418565b0160200151600160f89190911c1b9150828211611caf5760405162461bcd60e51b815260206004820152604760248201527f4269746d61705574696c732e6f72646572656442797465734172726179546f4260448201527f69746d61703a206f72646572656442797465734172726179206973206e6f74206064820152661bdc99195c995960ca1b608482015260a401610477565b91811791611cbc816124f2565b9050611bff565b50909392505050565b600080611cd7611df4565b611cdf611e12565b602080825281810181905260408201819052606082018890526080820187905260a082018690528260c08360056107d05a03fa9250828015611430575082611d695760405162461bcd60e51b815260206004820152601a60248201527f424e3235342e6578704d6f643a2063616c6c206661696c7572650000000000006044820152606401610477565b505195945050505050565b60405180606001604052806003906020820280368337509192915050565b60405180608001604052806004906020820280368337509192915050565b6040518060400160405280611dc3611e30565b8152602001611dd0611e30565b905290565b604051806101800160405280600c906020820280368337509192915050565b60405180602001604052806001906020820280368337509192915050565b6040518060c001604052806006906020820280368337509192915050565b60405180604001604052806002906020820280368337509192915050565b634e487b7160e01b600052604160045260246000fd5b604080519081016001600160401b0381118282101715611e8657611e86611e4e565b60405290565b60405161010081016001600160401b0381118282101715611e8657611e86611e4e565b604051601f8201601f191681016001600160401b0381118282101715611ed757611ed7611e4e565b604052919050565b600060408284031215611ef157600080fd5b611ef9611e64565b9050813581526020820135602082015292915050565b600082601f830112611f2057600080fd5b604051604081018181106001600160401b0382111715611f4257611f42611e4e565b8060405250806040840185811115611f5957600080fd5b845b81811015611a17578035835260209283019201611f5b565b600060808284031215611f8557600080fd5b611f8d611e64565b9050611f998383611f0f565b8152611fa88360408401611f0f565b602082015292915050565b6000806000806101208587031215611fca57600080fd5b84359350611fdb8660208701611edf565b9250611fea8660608701611f73565b9150611ff98660e08701611edf565b905092959194509250565b60006020828403121561201657600080fd5b8135801515811461190a57600080fd5b803563ffffffff81168114611ab857600080fd5b60006001600160401b0382111561205357612053611e4e565b5060051b60200190565b600082601f83011261206e57600080fd5b8135602061208361207e8361203a565b611eaf565b82815260059290921b840181019181810190868411156120a257600080fd5b8286015b848110156120c4576120b781612026565b83529183019183016120a6565b509695505050505050565b600082601f8301126120e057600080fd5b813560206120f061207e8361203a565b82815260069290921b8401810191818101908684111561210f57600080fd5b8286015b848110156120c4576121258882611edf565b835291830191604001612113565b600082601f83011261214457600080fd5b8135602061215461207e8361203a565b82815260059290921b8401810191818101908684111561217357600080fd5b8286015b848110156120c45780356001600160401b038111156121965760008081fd5b6121a48986838b010161205d565b845250918301918301612177565b600061018082840312156121c557600080fd5b6121cd611e8c565b905081356001600160401b03808211156121e657600080fd5b6121f28583860161205d565b8352602084013591508082111561220857600080fd5b612214858386016120cf565b6020840152604084013591508082111561222d57600080fd5b612239858386016120cf565b604084015261224b8560608601611f73565b606084015261225d8560e08601611edf565b608084015261012084013591508082111561227757600080fd5b6122838583860161205d565b60a084015261014084013591508082111561229d57600080fd5b6122a98583860161205d565b60c08401526101608401359150808211156122c357600080fd5b506122d084828501612133565b60e08301525092915050565b6000806000806000608086880312156122f457600080fd5b8535945060208601356001600160401b038082111561231257600080fd5b818801915088601f83011261232657600080fd5b81358181111561233557600080fd5b89602082850101111561234757600080fd5b602083019650945061235b60408901612026565b9350606088013591508082111561237157600080fd5b5061237e888289016121b2565b9150509295509295909350565b600081518084526020808501945080840160005b838110156123c45781516001600160601b03168752958201959082019060010161239f565b509495945050505050565b60408152600083516040808401526123ea608084018261238b565b90506020850151603f19848303016060850152612407828261238b565b925050508260208301529392505050565b634e487b7160e01b600052603260045260246000fd5b60008261244b57634e487b7160e01b600052601260045260246000fd5b500690565b60006020828403121561246257600080fd5b81516001600160a01b038116811461190a57600080fd5b60006020828403121561248b57600080fd5b815160ff8116811461190a57600080fd5b634e487b7160e01b600052601160045260246000fd5b6000828210156124c4576124c461249c565b500390565b6000602082840312156124db57600080fd5b81516001600160c01b038116811461190a57600080fd5b60006000198214156125065761250661249c565b5060010190565b60006020828403121561251f57600080fd5b5051919050565b600082198211156125395761253961249c565b500190565b60006020828403121561255057600080fd5b815167ffffffffffffffff198116811461190a57600080fd5b60006020828403121561257b57600080fd5b81516001600160601b038116811461190a57600080fd5b60006001600160601b03838116908316818110156125b2576125b261249c565b039392505050565b63ffffffff60e01b8360e01b1681526000600482018351602080860160005b838110156125f5578151855293820193908201906001016125d9565b5092979650505050505050565b600081600019048311821515161561261c5761261c61249c565b500290565b600061ffff808316818114156126395761263961249c565b600101939250505056fe30644e72e131a029b85045b68181585d97816a916871ca8d3c208c16d87cfd47424c535369676e6174757265436865636b65722e636865636b5369676e617475a26469706673582212209e20c2e43f1ce2c8e2f9f735e2603cc537fc25a882fecefa183f51be6acfdbbf64736f6c634300080c0033",
    "linkReferences": {}
  },
  "methodIdentifiers": {
    "blsApkRegistry()": "5df45946",
    "checkSignatures(bytes32,bytes,uint32,(uint32[],(uint256,uint256)[],(uint256,uint256)[],(uint256[2],uint256[2]),(uint256,uint256),uint32[],uint32[],uint32[][]))": "6efb4636",
    "delegation()": "df5cf723",
    "registryCoordinator()": "6d14a987",
    "setStaleStakesForbidden(bool)": "416c7e5e",
    "stakeRegistry()": "68304835",
    "staleStakesForbidden()": "b98d0908",
    "trySignatureAndApkVerification(bytes32,(uint256,uint256),(uint256[2],uint256[2]),(uint256,uint256))": "171f1d5b"
  },
  "id": 94
}