{
  "abi": [
    {
      "inputs": [],
      "name": "foo",
      "outputs": [
        {
          "internalType": "uint256",
          "name": "",
          "type": "uint256"
        }
      ],
      "stateMutability": "pure",
      "type": "function"
    }
  ],
  "bytecode": {
    "object": "0x6080604052348015600f57600080fd5b50607780601d6000396000f3fe6080604052348015600f57600080fd5b506004361060285760003560e01c8063c298557814602d575b600080fd5b600060405190815260200160405180910390f3fea2646970667358221220cb7e65f3ab2f7fa61de3f90751d92a0a381db4df6fdf380bf281ab20b3443b3c64736f6c634300080c0033",
    "linkReferences": {}
  },
  "methodIdentifiers": {
    "foo()": "c2985578"
  },
  "id": 39
}