{
  "abi": [
    {
      "inputs": [
        {
          "internalType": "contract IStrategyManager",
          "name": "_strategyManager",
          "type": "address"
        }
      ],
      "stateMutability": "nonpayable",
      "type": "constructor"
    },
    {
      "anonymous": false,
      "inputs": [
        {
          "indexed": false,
          "internalType": "uint8",
          "name": "version",
          "type": "uint8"
        }
      ],
      "name": "Initialized",
      "type": "event"
    },
    {
      "anonymous": false,
      "inputs": [
        {
          "indexed": true,
          "internalType": "address",
          "name": "account",
          "type": "address"
        },
        {
          "indexed": false,
          "internalType": "uint256",
          "name": "newPausedStatus",
          "type": "uint256"
        }
      ],
      "name": "Paused",
      "type": "event"
    },
    {
      "anonymous": false,
      "inputs": [
        {
          "indexed": false,
          "internalType": "contract IPauserRegistry",
          "name": "pauserRegistry",
          "type": "address"
        },
        {
          "indexed": false,
          "internalType": "contract IPauserRegistry",
          "name": "newPauserRegistry",
          "type": "address"
        }
      ],
      "name": "PauserRegistrySet",
      "type": "event"
    },
    {
      "anonymous": false,
      "inputs": [
        {
          "indexed": true,
          "internalType": "address",
          "name": "account",
          "type": "address"
        },
        {
          "indexed": false,
          "internalType": "uint256",
          "name": "newPausedStatus",
          "type": "uint256"
        }
      ],
      "name": "Unpaused",
      "type": "event"
    },
    {
      "inputs": [
        {
          "internalType": "contract IERC20",
          "name": "token",
          "type": "address"
        },
        {
          "internalType": "uint256",
          "name": "amount",
          "type": "uint256"
        }
      ],
      "name": "deposit",
      "outputs": [
        {
          "internalType": "uint256",
          "name": "newShares",
          "type": "uint256"
        }
      ],
      "stateMutability": "nonpayable",
      "type": "function"
    },
    {
      "inputs": [],
      "name": "explanation",
      "outputs": [
        {
          "internalType": "string",
          "name": "",
          "type": "string"
        }
      ],
      "stateMutability": "pure",
      "type": "function"
    },
    {
      "inputs": [
        {
          "internalType": "contract IERC20",
          "name": "_underlyingToken",
          "type": "address"
        },
        {
          "internalType": "contract IPauserRegistry",
          "name": "_pauserRegistry",
          "type": "address"
        }
      ],
      "name": "initialize",
      "outputs": [],
      "stateMutability": "nonpayable",
      "type": "function"
    },
    {
      "inputs": [
        {
          "internalType": "uint256",
          "name": "newPausedStatus",
          "type": "uint256"
        }
      ],
      "name": "pause",
      "outputs": [],
      "stateMutability": "nonpayable",
      "type": "function"
    },
    {
      "inputs": [],
      "name": "pauseAll",
      "outputs": [],
      "stateMutability": "nonpayable",
      "type": "function"
    },
    {
      "inputs": [
        {
          "internalType": "uint8",
          "name": "index",
          "type": "uint8"
        }
      ],
      "name": "paused",
      "outputs": [
        {
          "internalType": "bool",
          "name": "",
          "type": "bool"
        }
      ],
      "stateMutability": "view",
      "type": "function"
    },
    {
      "inputs": [],
      "name": "paused",
      "outputs": [
        {
          "internalType": "uint256",
          "name": "",
          "type": "uint256"
        }
      ],
      "stateMutability": "view",
      "type": "function"
    },
    {
      "inputs": [],
      "name": "pauserRegistry",
      "outputs": [
        {
          "internalType": "contract IPauserRegistry",
          "name": "",
          "type": "address"
        }
      ],
      "stateMutability": "view",
      "type": "function"
    },
    {
      "inputs": [
        {
          "internalType": "contract IPauserRegistry",
          "name": "newPauserRegistry",
          "type": "address"
        }
      ],
      "name": "setPauserRegistry",
      "outputs": [],
      "stateMutability": "nonpayable",
      "type": "function"
    },
    {
      "inputs": [
        {
          "internalType": "address",
          "name": "user",
          "type": "address"
        }
      ],
      "name": "shares",
      "outputs": [
        {
          "internalType": "uint256",
          "name": "",
          "type": "uint256"
        }
      ],
      "stateMutability": "view",
      "type": "function"
    },
    {
      "inputs": [
        {
          "internalType": "uint256",
          "name": "amountShares",
          "type": "uint256"
        }
      ],
      "name": "sharesToUnderlying",
      "outputs": [
        {
          "internalType": "uint256",
          "name": "",
          "type": "uint256"
        }
      ],
      "stateMutability": "view",
      "type": "function"
    },
    {
      "inputs": [
        {
          "internalType": "uint256",
          "name": "amountShares",
          "type": "uint256"
        }
      ],
      "name": "sharesToUnderlyingView",
      "outputs": [
        {
          "internalType": "uint256",
          "name": "",
          "type": "uint256"
        }
      ],
      "stateMutability": "view",
      "type": "function"
    },
    {
      "inputs": [],
      "name": "strategyManager",
      "outputs": [
        {
          "internalType": "contract IStrategyManager",
          "name": "",
          "type": "address"
        }
      ],
      "stateMutability": "view",
      "type": "function"
    },
    {
      "inputs": [],
      "name": "totalShares",
      "outputs": [
        {
          "internalType": "uint256",
          "name": "",
          "type": "uint256"
        }
      ],
      "stateMutability": "view",
      "type": "function"
    },
    {
      "inputs": [
        {
          "internalType": "uint256",
          "name": "amountUnderlying",
          "type": "uint256"
        }
      ],
      "name": "underlyingToShares",
      "outputs": [
        {
          "internalType": "uint256",
          "name": "",
          "type": "uint256"
        }
      ],
      "stateMutability": "view",
      "type": "function"
    },
    {
      "inputs": [
        {
          "internalType": "uint256",
          "name": "amountUnderlying",
          "type": "uint256"
        }
      ],
      "name": "underlyingToSharesView",
      "outputs": [
        {
          "internalType": "uint256",
          "name": "",
          "type": "uint256"
        }
      ],
      "stateMutability": "view",
      "type": "function"
    },
    {
      "inputs": [],
      "name": "underlyingToken",
      "outputs": [
        {
          "internalType": "contract IERC20",
          "name": "",
          "type": "address"
        }
      ],
      "stateMutability": "view",
      "type": "function"
    },
    {
      "inputs": [
        {
          "internalType": "uint256",
          "name": "newPausedStatus",
          "type": "uint256"
        }
      ],
      "name": "unpause",
      "outputs": [],
      "stateMutability": "nonpayable",
      "type": "function"
    },
    {
      "inputs": [
        {
          "internalType": "address",
          "name": "user",
          "type": "address"
        }
      ],
      "name": "userUnderlying",
      "outputs": [
        {
          "internalType": "uint256",
          "name": "",
          "type": "uint256"
        }
      ],
      "stateMutability": "nonpayable",
      "type": "function"
    },
    {
      "inputs": [
        {
          "internalType": "address",
          "name": "user",
          "type": "address"
        }
      ],
      "name": "userUnderlyingView",
      "outputs": [
        {
          "internalType": "uint256",
          "name": "",
          "type": "uint256"
        }
      ],
      "stateMutability": "view",
      "type": "function"
    },
    {
      "inputs": [
        {
          "internalType": "address",
          "name": "recipient",
          "type": "address"
        },
        {
          "internalType": "contract IERC20",
          "name": "token",
          "type": "address"
        },
        {
          "internalType": "uint256",
          "name": "amountShares",
          "type": "uint256"
        }
      ],
      "name": "withdraw",
      "outputs": [],
      "stateMutability": "nonpayable",
      "type": "function"
    }
  ],
  "bytecode": {
    "object": "0x60a060405234801561001057600080fd5b50604051620018b3380380620018b38339810160408190526100319161010c565b6001600160a01b03811660805261004661004c565b5061013c565b600054610100900460ff16156100b85760405162461bcd60e51b815260206004820152602760248201527f496e697469616c697a61626c653a20636f6e747261637420697320696e697469604482015266616c697a696e6760c81b606482015260840160405180910390fd5b60005460ff908116101561010a576000805460ff191660ff9081179091556040519081527f7f26b83ff96e1f2b6a682f133852f6798a09c465da95921460cefb38474024989060200160405180910390a15b565b60006020828403121561011e57600080fd5b81516001600160a01b038116811461013557600080fd5b9392505050565b6080516117466200016d6000396000818161019901528181610570015281816109c70152610a9201526117466000f3fe608060405234801561001057600080fd5b50600436106101375760003560e01c80635c975abb116100b8578063ab5921e11161007c578063ab5921e11461029c578063ce7c2ac2146102b1578063d9caed12146102c4578063e3dae51c146102d7578063f3e73875146102ea578063fabc1cbc146102fd57600080fd5b80635c975abb146102425780637a8b26371461024a578063886f11951461025d5780638c871019146102765780638f6a62401461028957600080fd5b806347e7ef24116100ff57806347e7ef24146101d2578063485cc955146101e5578063553ca5f8146101f8578063595c6a671461020b5780635ac86ab71461021357600080fd5b806310d67a2f1461013c578063136439dd146101515780632495a5991461016457806339b70e38146101945780633a98ef39146101bb575b600080fd5b61014f61014a3660046113d5565b610310565b005b61014f61015f3660046113f2565b6103cc565b603254610177906001600160a01b031681565b6040516001600160a01b0390911681526020015b60405180910390f35b6101777f000000000000000000000000000000000000000000000000000000000000000081565b6101c460335481565b60405190815260200161018b565b6101c46101e036600461140b565b610510565b61014f6101f3366004611437565b610726565b6101c46102063660046113d5565b61083b565b61014f61084f565b610232610221366004611470565b6001805460ff9092161b9081161490565b604051901515815260200161018b565b6001546101c4565b6101c46102583660046113f2565b61091b565b600054610177906201000090046001600160a01b031681565b6101c46102843660046113f2565b610966565b6101c46102973660046113d5565b610971565b6102a461097f565b60405161018b91906114c3565b6101c46102bf3660046113d5565b61099f565b61014f6102d23660046114f6565b610a34565b6101c46102e53660046113f2565b610c81565b6101c46102f83660046113f2565b610cba565b61014f61030b3660046113f2565b610cc5565b600060029054906101000a90046001600160a01b03166001600160a01b031663eab66d7a6040518163ffffffff1660e01b8152600401602060405180830381865afa158015610363573d6000803e3d6000fd5b505050506040513d601f19601f820116820180604052508101906103879190611537565b6001600160a01b0316336001600160a01b0316146103c05760405162461bcd60e51b81526004016103b790611554565b60405180910390fd5b6103c981610e21565b50565b60005460405163237dfb4760e11b8152336004820152620100009091046001600160a01b0316906346fbf68e90602401602060405180830381865afa158015610419573d6000803e3d6000fd5b505050506040513d601f19601f8201168201806040525081019061043d919061159e565b6104595760405162461bcd60e51b81526004016103b7906115c0565b600154818116146104d25760405162461bcd60e51b815260206004820152603860248201527f5061757361626c652e70617573653a20696e76616c696420617474656d70742060448201527f746f20756e70617573652066756e6374696f6e616c697479000000000000000060648201526084016103b7565b600181905560405181815233907fab40a374bc51de372200a8bc981af8c9ecdc08dfdaef0bb6e09f88f3c616ef3d906020015b60405180910390a250565b600180546000918291811614156105655760405162461bcd60e51b815260206004820152601960248201527814185d5cd8589b194e881a5b99195e081a5cc81c185d5cd959603a1b60448201526064016103b7565b336001600160a01b037f000000000000000000000000000000000000000000000000000000000000000016146105dd5760405162461bcd60e51b815260206004820181905260248201527f5374726174656779426173652e6f6e6c7953747261746567794d616e6167657260448201526064016103b7565b6032546001600160a01b038581169116146106595760405162461bcd60e51b815260206004820152603660248201527f5374726174656779426173652e6465706f7369743a2043616e206f6e6c79206460448201527532b837b9b4ba103ab73232b9363cb4b733aa37b5b2b760511b60648201526084016103b7565b603354600061066a6103e88361161e565b905060006103e8610679610f2a565b610683919061161e565b905060006106918783611636565b90508061069e848961164d565b6106a8919061166c565b95508561070e5760405162461bcd60e51b815260206004820152602e60248201527f5374726174656779426173652e6465706f7369743a206e65775368617265732060448201526d63616e6e6f74206265207a65726f60901b60648201526084016103b7565b610718868561161e565b603355505050505092915050565b600054610100900460ff16158080156107465750600054600160ff909116105b806107605750303b158015610760575060005460ff166001145b6107c35760405162461bcd60e51b815260206004820152602e60248201527f496e697469616c697a61626c653a20636f6e747261637420697320616c72656160448201526d191e481a5b9a5d1a585b1a5e995960921b60648201526084016103b7565b6000805460ff1916600117905580156107e6576000805461ff0019166101001790555b6107f08383610f9c565b8015610836576000805461ff0019169055604051600181527f7f26b83ff96e1f2b6a682f133852f6798a09c465da95921460cefb38474024989060200160405180910390a15b505050565b60006108496102588361099f565b92915050565b60005460405163237dfb4760e11b8152336004820152620100009091046001600160a01b0316906346fbf68e90602401602060405180830381865afa15801561089c573d6000803e3d6000fd5b505050506040513d601f19601f820116820180604052508101906108c0919061159e565b6108dc5760405162461bcd60e51b81526004016103b7906115c0565b600019600181905560405190815233907fab40a374bc51de372200a8bc981af8c9ecdc08dfdaef0bb6e09f88f3c616ef3d9060200160405180910390a2565b6000806103e860335461092e919061161e565b905060006103e861093d610f2a565b610947919061161e565b905081610954858361164d565b61095e919061166c565b949350505050565b600061084982610c81565b60006108496102f88361099f565b60606040518060800160405280604d81526020016116c4604d9139905090565b604051633d3f06c960e11b81526001600160a01b0382811660048301523060248301526000917f000000000000000000000000000000000000000000000000000000000000000090911690637a7e0d9290604401602060405180830381865afa158015610a10573d6000803e3d6000fd5b505050506040513d601f19601f82011682018060405250810190610849919061168e565b6001805460029081161415610a875760405162461bcd60e51b815260206004820152601960248201527814185d5cd8589b194e881a5b99195e081a5cc81c185d5cd959603a1b60448201526064016103b7565b336001600160a01b037f00000000000000000000000000000000000000000000000000000000000000001614610aff5760405162461bcd60e51b815260206004820181905260248201527f5374726174656779426173652e6f6e6c7953747261746567794d616e6167657260448201526064016103b7565b6032546001600160a01b03848116911614610b825760405162461bcd60e51b815260206004820152603b60248201527f5374726174656779426173652e77697468647261773a2043616e206f6e6c792060448201527f77697468647261772074686520737472617465677920746f6b656e000000000060648201526084016103b7565b60335480831115610c115760405162461bcd60e51b815260206004820152604d60248201527f5374726174656779426173652e77697468647261773a20616d6f756e7453686160448201527f726573206d757374206265206c657373207468616e206f7220657175616c207460648201526c6f20746f74616c53686172657360981b608482015260a4016103b7565b6000610c1f6103e88361161e565b905060006103e8610c2e610f2a565b610c38919061161e565b9050600082610c47878461164d565b610c51919061166c565b9050610c5d8685611636565b603355603254610c77906001600160a01b0316898361102d565b5050505050505050565b6000806103e8603354610c94919061161e565b905060006103e8610ca3610f2a565b610cad919061161e565b905080610954838661164d565b60006108498261091b565b600060029054906101000a90046001600160a01b03166001600160a01b031663eab66d7a6040518163ffffffff1660e01b8152600401602060405180830381865afa158015610d18573d6000803e3d6000fd5b505050506040513d601f19601f82011682018060405250810190610d3c9190611537565b6001600160a01b0316336001600160a01b031614610d6c5760405162461bcd60e51b81526004016103b790611554565b600154198119600154191614610dea5760405162461bcd60e51b815260206004820152603860248201527f5061757361626c652e756e70617573653a20696e76616c696420617474656d7060448201527f7420746f2070617573652066756e6374696f6e616c697479000000000000000060648201526084016103b7565b600181905560405181815233907f3582d1828e26bf56bd801502bc021ac0bc8afb57c826e4986b45593c8fad389c90602001610505565b6001600160a01b038116610eaf5760405162461bcd60e51b815260206004820152604960248201527f5061757361626c652e5f73657450617573657252656769737472793a206e657760448201527f50617573657252656769737472792063616e6e6f7420626520746865207a65726064820152686f206164647265737360b81b608482015260a4016103b7565b600054604080516001600160a01b03620100009093048316815291831660208301527f6e9fcd539896fca60e8b0f01dd580233e48a6b0f7df013b89ba7f565869acdb6910160405180910390a1600080546001600160a01b03909216620100000262010000600160b01b0319909216919091179055565b5050565b6032546040516370a0823160e01b81523060048201526000916001600160a01b0316906370a0823190602401602060405180830381865afa158015610f73573d6000803e3d6000fd5b505050506040513d601f19601f82011682018060405250810190610f97919061168e565b905090565b600054610100900460ff166110075760405162461bcd60e51b815260206004820152602b60248201527f496e697469616c697a61626c653a20636f6e7472616374206973206e6f74206960448201526a6e697469616c697a696e6760a81b60648201526084016103b7565b603280546001600160a01b0319166001600160a01b038416179055610f2681600061107f565b604080516001600160a01b038416602482015260448082018490528251808303909101815260649091019091526020810180516001600160e01b031663a9059cbb60e01b17905261083690849061116b565b6000546201000090046001600160a01b03161580156110a657506001600160a01b03821615155b6111285760405162461bcd60e51b815260206004820152604760248201527f5061757361626c652e5f696e697469616c697a655061757365723a205f696e6960448201527f7469616c697a6550617573657228292063616e206f6e6c792062652063616c6c6064820152666564206f6e636560c81b608482015260a4016103b7565b600181905560405181815233907fab40a374bc51de372200a8bc981af8c9ecdc08dfdaef0bb6e09f88f3c616ef3d9060200160405180910390a2610f2682610e21565b60006111c0826040518060400160405280602081526020017f5361666545524332303a206c6f772d6c6576656c2063616c6c206661696c6564815250856001600160a01b031661123d9092919063ffffffff16565b80519091501561083657808060200190518101906111de919061159e565b6108365760405162461bcd60e51b815260206004820152602a60248201527f5361666545524332303a204552433230206f7065726174696f6e20646964206e6044820152691bdd081cdd58d8d9595960b21b60648201526084016103b7565b606061124c8484600085611256565b90505b9392505050565b6060824710156112b75760405162461bcd60e51b815260206004820152602660248201527f416464726573733a20696e73756666696369656e742062616c616e636520666f6044820152651c8818d85b1b60d21b60648201526084016103b7565b6001600160a01b0385163b61130e5760405162461bcd60e51b815260206004820152601d60248201527f416464726573733a2063616c6c20746f206e6f6e2d636f6e747261637400000060448201526064016103b7565b600080866001600160a01b0316858760405161132a91906116a7565b60006040518083038185875af1925050503d8060008114611367576040519150601f19603f3d011682016040523d82523d6000602084013e61136c565b606091505b509150915061137c828286611387565b979650505050505050565b6060831561139657508161124f565b8251156113a65782518084602001fd5b8160405162461bcd60e51b81526004016103b791906114c3565b6001600160a01b03811681146103c957600080fd5b6000602082840312156113e757600080fd5b813561124f816113c0565b60006020828403121561140457600080fd5b5035919050565b6000806040838503121561141e57600080fd5b8235611429816113c0565b946020939093013593505050565b6000806040838503121561144a57600080fd5b8235611455816113c0565b91506020830135611465816113c0565b809150509250929050565b60006020828403121561148257600080fd5b813560ff8116811461124f57600080fd5b60005b838110156114ae578181015183820152602001611496565b838111156114bd576000848401525b50505050565b60208152600082518060208401526114e2816040850160208701611493565b601f01601f19169190910160400192915050565b60008060006060848603121561150b57600080fd5b8335611516816113c0565b92506020840135611526816113c0565b929592945050506040919091013590565b60006020828403121561154957600080fd5b815161124f816113c0565b6020808252602a908201527f6d73672e73656e646572206973206e6f74207065726d697373696f6e6564206160408201526939903ab73830bab9b2b960b11b606082015260800190565b6000602082840312156115b057600080fd5b8151801515811461124f57600080fd5b60208082526028908201527f6d73672e73656e646572206973206e6f74207065726d697373696f6e6564206160408201526739903830bab9b2b960c11b606082015260800190565b634e487b7160e01b600052601160045260246000fd5b6000821982111561163157611631611608565b500190565b60008282101561164857611648611608565b500390565b600081600019048311821515161561166757611667611608565b500290565b60008261168957634e487b7160e01b600052601260045260246000fd5b500490565b6000602082840312156116a057600080fd5b5051919050565b600082516116b9818460208701611493565b919091019291505056fe4261736520537472617465677920696d706c656d656e746174696f6e20746f20696e68657269742066726f6d20666f72206d6f726520636f6d706c657820696d706c656d656e746174696f6e73a2646970667358221220807d1f909eeee6c436d31279042a7f653408f0b1b4db765d0324f537c32334df64736f6c634300080c0033",
    "linkReferences": {}
  },
  "methodIdentifiers": {
    "deposit(address,uint256)": "47e7ef24",
    "explanation()": "ab5921e1",
    "initialize(address,address)": "485cc955",
    "pause(uint256)": "136439dd",
    "pauseAll()": "595c6a67",
    "paused()": "5c975abb",
    "paused(uint8)": "5ac86ab7",
    "pauserRegistry()": "886f1195",
    "setPauserRegistry(address)": "10d67a2f",
    "shares(address)": "ce7c2ac2",
    "sharesToUnderlying(uint256)": "f3e73875",
    "sharesToUnderlyingView(uint256)": "7a8b2637",
    "strategyManager()": "39b70e38",
    "totalShares()": "3a98ef39",
    "underlyingToShares(uint256)": "8c871019",
    "underlyingToSharesView(uint256)": "e3dae51c",
    "underlyingToken()": "2495a599",
    "unpause(uint256)": "fabc1cbc",
    "userUnderlying(address)": "8f6a6240",
    "userUnderlyingView(address)": "553ca5f8",
    "withdraw(address,address,uint256)": "d9caed12"
  },
  "id": 34
}