{
  "abi": [
    {
      "inputs": [
        {
          "internalType": "contract IEigenPodManager",
          "name": "_eigenPodManager",
          "type": "address"
        }
      ],
      "stateMutability": "nonpayable",
      "type": "constructor"
    },
    {
      "anonymous": false,
      "inputs": [
        {
          "indexed": false,
          "internalType": "address",
          "name": "podOwner",
          "type": "address"
        },
        {
          "indexed": false,
          "internalType": "address",
          "name": "recipient",
          "type": "address"
        },
        {
          "indexed": false,
          "internalType": "uint256",
          "name": "amount",
          "type": "uint256"
        },
        {
          "indexed": false,
          "internalType": "uint256",
          "name": "index",
          "type": "uint256"
        }
      ],
      "name": "DelayedWithdrawalCreated",
      "type": "event"
    },
    {
      "anonymous": false,
      "inputs": [
        {
          "indexed": false,
          "internalType": "address",
          "name": "recipient",
          "type": "address"
        },
        {
          "indexed": false,
          "internalType": "uint256",
          "name": "amountClaimed",
          "type": "uint256"
        },
        {
          "indexed": false,
          "internalType": "uint256",
          "name": "delayedWithdrawalsCompleted",
          "type": "uint256"
        }
      ],
      "name": "DelayedWithdrawalsClaimed",
      "type": "event"
    },
    {
      "anonymous": false,
      "inputs": [
        {
          "indexed": false,
          "internalType": "uint8",
          "name": "version",
          "type": "uint8"
        }
      ],
      "name": "Initialized",
      "type": "event"
    },
    {
      "anonymous": false,
      "inputs": [
        {
          "indexed": true,
          "internalType": "address",
          "name": "previousOwner",
          "type": "address"
        },
        {
          "indexed": true,
          "internalType": "address",
          "name": "newOwner",
          "type": "address"
        }
      ],
      "name": "OwnershipTransferred",
      "type": "event"
    },
    {
      "anonymous": false,
      "inputs": [
        {
          "indexed": true,
          "internalType": "address",
          "name": "account",
          "type": "address"
        },
        {
          "indexed": false,
          "internalType": "uint256",
          "name": "newPausedStatus",
          "type": "uint256"
        }
      ],
      "name": "Paused",
      "type": "event"
    },
    {
      "anonymous": false,
      "inputs": [
        {
          "indexed": false,
          "internalType": "contract IPauserRegistry",
          "name": "pauserRegistry",
          "type": "address"
        },
        {
          "indexed": false,
          "internalType": "contract IPauserRegistry",
          "name": "newPauserRegistry",
          "type": "address"
        }
      ],
      "name": "PauserRegistrySet",
      "type": "event"
    },
    {
      "anonymous": false,
      "inputs": [
        {
          "indexed": true,
          "internalType": "address",
          "name": "account",
          "type": "address"
        },
        {
          "indexed": false,
          "internalType": "uint256",
          "name": "newPausedStatus",
          "type": "uint256"
        }
      ],
      "name": "Unpaused",
      "type": "event"
    },
    {
      "anonymous": false,
      "inputs": [
        {
          "indexed": false,
          "internalType": "uint256",
          "name": "previousValue",
          "type": "uint256"
        },
        {
          "indexed": false,
          "internalType": "uint256",
          "name": "newValue",
          "type": "uint256"
        }
      ],
      "name": "WithdrawalDelayBlocksSet",
      "type": "event"
    },
    {
      "inputs": [],
      "name": "MAX_WITHDRAWAL_DELAY_BLOCKS",
      "outputs": [
        {
          "internalType": "uint256",
          "name": "",
          "type": "uint256"
        }
      ],
      "stateMutability": "view",
      "type": "function"
    },
    {
      "inputs": [
        {
          "internalType": "address",
          "name": "user",
          "type": "address"
        },
        {
          "internalType": "uint256",
          "name": "index",
          "type": "uint256"
        }
      ],
      "name": "canClaimDelayedWithdrawal",
      "outputs": [
        {
          "internalType": "bool",
          "name": "",
          "type": "bool"
        }
      ],
      "stateMutability": "view",
      "type": "function"
    },
    {
      "inputs": [
        {
          "internalType": "uint256",
          "name": "maxNumberOfDelayedWithdrawalsToClaim",
          "type": "uint256"
        }
      ],
      "name": "claimDelayedWithdrawals",
      "outputs": [],
      "stateMutability": "nonpayable",
      "type": "function"
    },
    {
      "inputs": [
        {
          "internalType": "address",
          "name": "recipient",
          "type": "address"
        },
        {
          "internalType": "uint256",
          "name": "maxNumberOfDelayedWithdrawalsToClaim",
          "type": "uint256"
        }
      ],
      "name": "claimDelayedWithdrawals",
      "outputs": [],
      "stateMutability": "nonpayable",
      "type": "function"
    },
    {
      "inputs": [
        {
          "internalType": "address",
          "name": "podOwner",
          "type": "address"
        },
        {
          "internalType": "address",
          "name": "recipient",
          "type": "address"
        }
      ],
      "name": "createDelayedWithdrawal",
      "outputs": [],
      "stateMutability": "payable",
      "type": "function"
    },
    {
      "inputs": [],
      "name": "eigenPodManager",
      "outputs": [
        {
          "internalType": "contract IEigenPodManager",
          "name": "",
          "type": "address"
        }
      ],
      "stateMutability": "view",
      "type": "function"
    },
    {
      "inputs": [
        {
          "internalType": "address",
          "name": "user",
          "type": "address"
        }
      ],
      "name": "getClaimableUserDelayedWithdrawals",
      "outputs": [
        {
          "components": [
            {
              "internalType": "uint224",
              "name": "amount",
              "type": "uint224"
            },
            {
              "internalType": "uint32",
              "name": "blockCreated",
              "type": "uint32"
            }
          ],
          "internalType": "struct IDelayedWithdrawalRouter.DelayedWithdrawal[]",
          "name": "",
          "type": "tuple[]"
        }
      ],
      "stateMutability": "view",
      "type": "function"
    },
    {
      "inputs": [
        {
          "internalType": "address",
          "name": "user",
          "type": "address"
        }
      ],
      "name": "getUserDelayedWithdrawals",
      "outputs": [
        {
          "components": [
            {
              "internalType": "uint224",
              "name": "amount",
              "type": "uint224"
            },
            {
              "internalType": "uint32",
              "name": "blockCreated",
              "type": "uint32"
            }
          ],
          "internalType": "struct IDelayedWithdrawalRouter.DelayedWithdrawal[]",
          "name": "",
          "type": "tuple[]"
        }
      ],
      "stateMutability": "view",
      "type": "function"
    },
    {
      "inputs": [
        {
          "internalType": "address",
          "name": "initOwner",
          "type": "address"
        },
        {
          "internalType": "contract IPauserRegistry",
          "name": "_pauserRegistry",
          "type": "address"
        },
        {
          "internalType": "uint256",
          "name": "initPausedStatus",
          "type": "uint256"
        },
        {
          "internalType": "uint256",
          "name": "_withdrawalDelayBlocks",
          "type": "uint256"
        }
      ],
      "name": "initialize",
      "outputs": [],
      "stateMutability": "nonpayable",
      "type": "function"
    },
    {
      "inputs": [],
      "name": "owner",
      "outputs": [
        {
          "internalType": "address",
          "name": "",
          "type": "address"
        }
      ],
      "stateMutability": "view",
      "type": "function"
    },
    {
      "inputs": [
        {
          "internalType": "uint256",
          "name": "newPausedStatus",
          "type": "uint256"
        }
      ],
      "name": "pause",
      "outputs": [],
      "stateMutability": "nonpayable",
      "type": "function"
    },
    {
      "inputs": [],
      "name": "pauseAll",
      "outputs": [],
      "stateMutability": "nonpayable",
      "type": "function"
    },
    {
      "inputs": [
        {
          "internalType": "uint8",
          "name": "index",
          "type": "uint8"
        }
      ],
      "name": "paused",
      "outputs": [
        {
          "internalType": "bool",
          "name": "",
          "type": "bool"
        }
      ],
      "stateMutability": "view",
      "type": "function"
    },
    {
      "inputs": [],
      "name": "paused",
      "outputs": [
        {
          "internalType": "uint256",
          "name": "",
          "type": "uint256"
        }
      ],
      "stateMutability": "view",
      "type": "function"
    },
    {
      "inputs": [],
      "name": "pauserRegistry",
      "outputs": [
        {
          "internalType": "contract IPauserRegistry",
          "name": "",
          "type": "address"
        }
      ],
      "stateMutability": "view",
      "type": "function"
    },
    {
      "inputs": [],
      "name": "renounceOwnership",
      "outputs": [],
      "stateMutability": "nonpayable",
      "type": "function"
    },
    {
      "inputs": [
        {
          "internalType": "contract IPauserRegistry",
          "name": "newPauserRegistry",
          "type": "address"
        }
      ],
      "name": "setPauserRegistry",
      "outputs": [],
      "stateMutability": "nonpayable",
      "type": "function"
    },
    {
      "inputs": [
        {
          "internalType": "uint256",
          "name": "newValue",
          "type": "uint256"
        }
      ],
      "name": "setWithdrawalDelayBlocks",
      "outputs": [],
      "stateMutability": "nonpayable",
      "type": "function"
    },
    {
      "inputs": [
        {
          "internalType": "address",
          "name": "newOwner",
          "type": "address"
        }
      ],
      "name": "transferOwnership",
      "outputs": [],
      "stateMutability": "nonpayable",
      "type": "function"
    },
    {
      "inputs": [
        {
          "internalType": "uint256",
          "name": "newPausedStatus",
          "type": "uint256"
        }
      ],
      "name": "unpause",
      "outputs": [],
      "stateMutability": "nonpayable",
      "type": "function"
    },
    {
      "inputs": [
        {
          "internalType": "address",
          "name": "user",
          "type": "address"
        },
        {
          "internalType": "uint256",
          "name": "index",
          "type": "uint256"
        }
      ],
      "name": "userDelayedWithdrawalByIndex",
      "outputs": [
        {
          "components": [
            {
              "internalType": "uint224",
              "name": "amount",
              "type": "uint224"
            },
            {
              "internalType": "uint32",
              "name": "blockCreated",
              "type": "uint32"
            }
          ],
          "internalType": "struct IDelayedWithdrawalRouter.DelayedWithdrawal",
          "name": "",
          "type": "tuple"
        }
      ],
      "stateMutability": "view",
      "type": "function"
    },
    {
      "inputs": [
        {
          "internalType": "address",
          "name": "user",
          "type": "address"
        }
      ],
      "name": "userWithdrawals",
      "outputs": [
        {
          "components": [
            {
              "internalType": "uint256",
              "name": "delayedWithdrawalsCompleted",
              "type": "uint256"
            },
            {
              "components": [
                {
                  "internalType": "uint224",
                  "name": "amount",
                  "type": "uint224"
                },
                {
                  "internalType": "uint32",
                  "name": "blockCreated",
                  "type": "uint32"
                }
              ],
              "internalType": "struct IDelayedWithdrawalRouter.DelayedWithdrawal[]",
              "name": "delayedWithdrawals",
              "type": "tuple[]"
            }
          ],
          "internalType": "struct IDelayedWithdrawalRouter.UserDelayedWithdrawals",
          "name": "",
          "type": "tuple"
        }
      ],
      "stateMutability": "view",
      "type": "function"
    },
    {
      "inputs": [
        {
          "internalType": "address",
          "name": "user",
          "type": "address"
        }
      ],
      "name": "userWithdrawalsLength",
      "outputs": [
        {
          "internalType": "uint256",
          "name": "",
          "type": "uint256"
        }
      ],
      "stateMutability": "view",
      "type": "function"
    },
    {
      "inputs": [],
      "name": "withdrawalDelayBlocks",
      "outputs": [
        {
          "internalType": "uint256",
          "name": "",
          "type": "uint256"
        }
      ],
      "stateMutability": "view",
      "type": "function"
    }
  ],
  "bytecode": {
    "object": "0x60a060405234801561001057600080fd5b5060405162001e3b38038062001e3b833981016040819052610031916100d7565b6001600160a01b0381166100c65760405162461bcd60e51b815260206004820152604c60248201527f44656c617965645769746864726177616c526f757465722e636f6e737472756360448201527f746f723a205f656967656e506f644d616e616765722063616e6e6f742062652060648201526b7a65726f206164647265737360a01b608482015260a40160405180910390fd5b6001600160a01b0316608052610107565b6000602082840312156100e957600080fd5b81516001600160a01b038116811461010057600080fd5b9392505050565b608051611d116200012a600039600081816101fa0152610c000152611d116000f3fe60806040526004361061014b5760003560e01c806385594e58116100b6578063e4f4f8871161006f578063e4f4f887146103cc578063e5db06c014610405578063eb990c5914610425578063ecb7cb1b14610445578063f2fde38b14610472578063fabc1cbc1461049257600080fd5b806385594e5814610317578063886f1195146103445780638da5cb5b14610364578063c0db354c14610382578063ca661c0414610395578063d44e1b76146103ac57600080fd5b806350f73e7c1161010857806350f73e7c14610254578063595c6a67146102785780635ac86ab71461028d5780635c975abb146102cd578063715018a6146102e257806375608896146102f757600080fd5b806310d67a2f14610150578063136439dd146101725780631f39d87f146101925780633e1de008146101c85780634665bcda146101e85780634d50f9a414610234575b600080fd5b34801561015c57600080fd5b5061017061016b36600461196d565b6104b2565b005b34801561017e57600080fd5b5061017061018d366004611991565b61056e565b34801561019e57600080fd5b506101b26101ad36600461196d565b6106ad565b6040516101bf91906119c8565b60405180910390f35b3480156101d457600080fd5b506101b26101e336600461196d565b6108a8565b3480156101f457600080fd5b5061021c7f000000000000000000000000000000000000000000000000000000000000000081565b6040516001600160a01b0390911681526020016101bf565b34801561024057600080fd5b5061017061024f366004611991565b6109ee565b34801561026057600080fd5b5061026a60c95481565b6040519081526020016101bf565b34801561028457600080fd5b506101706109ff565b34801561029957600080fd5b506102bd6102a8366004611a15565b609854600160ff9092169190911b9081161490565b60405190151581526020016101bf565b3480156102d957600080fd5b5060985461026a565b3480156102ee57600080fd5b50610170610ac6565b34801561030357600080fd5b506102bd610312366004611a38565b610ada565b34801561032357600080fd5b50610337610332366004611a38565b610b5d565b6040516101bf9190611a64565b34801561035057600080fd5b5060975461021c906001600160a01b031681565b34801561037057600080fd5b506033546001600160a01b031661021c565b610170610390366004611a72565b610bdd565b3480156103a157600080fd5b5061026a62034bc081565b3480156103b857600080fd5b506101706103c7366004611991565b610e9d565b3480156103d857600080fd5b5061026a6103e736600461196d565b6001600160a01b0316600090815260ca602052604090206001015490565b34801561041157600080fd5b50610170610420366004611a38565b610f31565b34801561043157600080fd5b50610170610440366004611aab565b610fc6565b34801561045157600080fd5b5061046561046036600461196d565b6110ee565b6040516101bf9190611af1565b34801561047e57600080fd5b5061017061048d36600461196d565b6111a8565b34801561049e57600080fd5b506101706104ad366004611991565b61121e565b609760009054906101000a90046001600160a01b03166001600160a01b031663eab66d7a6040518163ffffffff1660e01b8152600401602060405180830381865afa158015610505573d6000803e3d6000fd5b505050506040513d601f19601f820116820180604052508101906105299190611b47565b6001600160a01b0316336001600160a01b0316146105625760405162461bcd60e51b815260040161055990611b64565b60405180910390fd5b61056b8161137a565b50565b60975460405163237dfb4760e11b81523360048201526001600160a01b03909116906346fbf68e90602401602060405180830381865afa1580156105b6573d6000803e3d6000fd5b505050506040513d601f19601f820116820180604052508101906105da9190611bae565b6105f65760405162461bcd60e51b815260040161055990611bd0565b6098548181161461066f5760405162461bcd60e51b815260206004820152603860248201527f5061757361626c652e70617573653a20696e76616c696420617474656d70742060448201527f746f20756e70617573652066756e6374696f6e616c69747900000000000000006064820152608401610559565b609881905560405181815233907fab40a374bc51de372200a8bc981af8c9ecdc08dfdaef0bb6e09f88f3c616ef3d906020015b60405180910390a250565b6001600160a01b038116600090815260ca6020526040812080546001909101546060926106da8383611c2e565b90508060005b82811015610786576001600160a01b038716600090815260ca6020526040812060010161070d8388611c45565b8154811061071d5761071d611c5d565b6000918252602091829020604080518082019091529101546001600160e01b0381168252600160e01b900463ffffffff1691810182905260c95490925061076391611c45565b4310156107735781925050610786565b508061077e81611c73565b9150506106e0565b508060008167ffffffffffffffff8111156107a3576107a3611c8e565b6040519080825280602002602001820160405280156107e857816020015b60408051808201909152600080825260208201528152602001906001900390816107c15790505b509050811561089d5760005b8281101561089b576001600160a01b038916600090815260ca602052604090206001016108218289611c45565b8154811061083157610831611c5d565b6000918252602091829020604080518082019091529101546001600160e01b0381168252600160e01b900463ffffffff1691810191909152825183908390811061087d5761087d611c5d565b6020026020010181905250808061089390611c73565b9150506107f4565b505b979650505050505050565b6001600160a01b038116600090815260ca6020526040812080546001909101546060926108d58383611c2e565b905060008167ffffffffffffffff8111156108f2576108f2611c8e565b60405190808252806020026020018201604052801561093757816020015b60408051808201909152600080825260208201528152602001906001900390816109105790505b50905060005b828110156109e4576001600160a01b038716600090815260ca6020526040902060010161096a8287611c45565b8154811061097a5761097a611c5d565b6000918252602091829020604080518082019091529101546001600160e01b0381168252600160e01b900463ffffffff169181019190915282518390839081106109c6576109c6611c5d565b602002602001018190525080806109dc90611c73565b91505061093d565b5095945050505050565b6109f6611471565b61056b816114cb565b60975460405163237dfb4760e11b81523360048201526001600160a01b03909116906346fbf68e90602401602060405180830381865afa158015610a47573d6000803e3d6000fd5b505050506040513d601f19601f82011682018060405250810190610a6b9190611bae565b610a875760405162461bcd60e51b815260040161055990611bd0565b600019609881905560405190815233907fab40a374bc51de372200a8bc981af8c9ecdc08dfdaef0bb6e09f88f3c616ef3d9060200160405180910390a2565b610ace611471565b610ad86000611593565b565b6001600160a01b038216600090815260ca60205260408120548210801590610b54575060c9546001600160a01b038416600090815260ca60205260409020600101805484908110610b2d57610b2d611c5d565b600091825260209091200154610b509190600160e01b900463ffffffff16611c45565b4310155b90505b92915050565b60408051808201909152600080825260208201526001600160a01b038316600090815260ca60205260409020600101805483908110610b9e57610b9e611c5d565b6000918252602091829020604080518082019091529101546001600160e01b0381168252600160e01b900463ffffffff16918101919091529392505050565b60405163a38406a360e01b81526001600160a01b038084166004830152839133917f0000000000000000000000000000000000000000000000000000000000000000169063a38406a390602401602060405180830381865afa158015610c47573d6000803e3d6000fd5b505050506040513d601f19601f82011682018060405250810190610c6b9190611b47565b6001600160a01b031614610ce75760405162461bcd60e51b815260206004820152603d60248201527f44656c617965645769746864726177616c526f757465722e6f6e6c794569676560448201527f6e506f643a206e6f7420706f644f776e6572277320456967656e506f640000006064820152608401610559565b60985460009060019081161415610d105760405162461bcd60e51b815260040161055990611ca4565b6001600160a01b038316610da65760405162461bcd60e51b815260206004820152605160248201527f44656c617965645769746864726177616c526f757465722e637265617465446560448201527f6c617965645769746864726177616c3a20726563697069656e742063616e6e6f60648201527074206265207a65726f206164647265737360781b608482015260a401610559565b346001600160e01b03811615610e96576040805180820182526001600160e01b03808416825263ffffffff43811660208085019182526001600160a01b038a16600081815260ca8352968720600190810180548083018255818a5293892088519551909616600160e01b029490961693909317939091019290925593525490917fb8f1b14c7caf74150801dcc9bc18d575cbeaf5b421943497e409df92c92e0f5991889188918691610e5791611c2e565b604080516001600160a01b0395861681529490931660208501526001600160e01b039091169183019190915260608201526080015b60405180910390a1505b5050505050565b60026065541415610ef05760405162461bcd60e51b815260206004820152601f60248201527f5265656e7472616e637947756172643a207265656e7472616e742063616c6c006044820152606401610559565b600260655560985460009060019081161415610f1e5760405162461bcd60e51b815260040161055990611ca4565b610f2833836115e5565b50506001606555565b60026065541415610f845760405162461bcd60e51b815260206004820152601f60248201527f5265656e7472616e637947756172643a207265656e7472616e742063616c6c006044820152606401610559565b600260655560985460009060019081161415610fb25760405162461bcd60e51b815260040161055990611ca4565b610fbc83836115e5565b5050600160655550565b600054610100900460ff1615808015610fe65750600054600160ff909116105b806110005750303b158015611000575060005460ff166001145b6110635760405162461bcd60e51b815260206004820152602e60248201527f496e697469616c697a61626c653a20636f6e747261637420697320616c72656160448201526d191e481a5b9a5d1a585b1a5e995960921b6064820152608401610559565b6000805460ff191660011790558015611086576000805461ff0019166101001790555b61108f85611593565b6110998484611750565b6110a2826114cb565b8015610e96576000805461ff0019169055604051600181527f7f26b83ff96e1f2b6a682f133852f6798a09c465da95921460cefb38474024989060200160405180910390a15050505050565b6040805180820190915260008152606060208201526001600160a01b038216600090815260ca6020908152604080832081518083018352815481526001820180548451818702810187019095528085529195929486810194939192919084015b8282101561119a57600084815260209081902060408051808201909152908401546001600160e01b0381168252600160e01b900463ffffffff168183015282526001909201910161114e565b505050915250909392505050565b6111b0611471565b6001600160a01b0381166112155760405162461bcd60e51b815260206004820152602660248201527f4f776e61626c653a206e6577206f776e657220697320746865207a65726f206160448201526564647265737360d01b6064820152608401610559565b61056b81611593565b609760009054906101000a90046001600160a01b03166001600160a01b031663eab66d7a6040518163ffffffff1660e01b8152600401602060405180830381865afa158015611271573d6000803e3d6000fd5b505050506040513d601f19601f820116820180604052508101906112959190611b47565b6001600160a01b0316336001600160a01b0316146112c55760405162461bcd60e51b815260040161055990611b64565b6098541981196098541916146113435760405162461bcd60e51b815260206004820152603860248201527f5061757361626c652e756e70617573653a20696e76616c696420617474656d7060448201527f7420746f2070617573652066756e6374696f6e616c69747900000000000000006064820152608401610559565b609881905560405181815233907f3582d1828e26bf56bd801502bc021ac0bc8afb57c826e4986b45593c8fad389c906020016106a2565b6001600160a01b0381166114085760405162461bcd60e51b815260206004820152604960248201527f5061757361626c652e5f73657450617573657252656769737472793a206e657760448201527f50617573657252656769737472792063616e6e6f7420626520746865207a65726064820152686f206164647265737360b81b608482015260a401610559565b609754604080516001600160a01b03928316815291831660208301527f6e9fcd539896fca60e8b0f01dd580233e48a6b0f7df013b89ba7f565869acdb6910160405180910390a1609780546001600160a01b0319166001600160a01b0392909216919091179055565b6033546001600160a01b03163314610ad85760405162461bcd60e51b815260206004820181905260248201527f4f776e61626c653a2063616c6c6572206973206e6f7420746865206f776e65726044820152606401610559565b62034bc08111156115525760405162461bcd60e51b815260206004820152604560248201527f44656c617965645769746864726177616c526f757465722e5f7365745769746860448201527f64726177616c44656c6179426c6f636b733a206e657756616c756520746f6f206064820152646c6172676560d81b608482015260a401610559565b60c95460408051918252602082018390527f4ffb00400574147429ee377a5633386321e66d45d8b14676014b5fa393e61e9e910160405180910390a160c955565b603380546001600160a01b038381166001600160a01b0319831681179093556040519116919082907f8be0079c531659141344cd1fd0a4f28419497f9722a3daafe3b4186f6b6457e090600090a35050565b6001600160a01b038216600090815260ca602052604081208054600190910154825b848110801561161e57508161161c8285611c45565b105b156116cb576001600160a01b038616600090815260ca602052604081206001016116488386611c45565b8154811061165857611658611c5d565b6000918252602091829020604080518082019091529101546001600160e01b0381168252600160e01b900463ffffffff1691810182905260c95490925061169e91611c45565b4310156116ab57506116cb565b80516116c0906001600160e01b031686611c45565b945050600101611607565b6116d58184611c45565b6001600160a01b038716600090815260ca602052604090205583156116fe576116fe868561183a565b7f6b7151500bd0b5cc211bcc47b3029831b769004df4549e8e1c9a69da05bb0943868561172b8487611c45565b604080516001600160a01b039094168452602084019290925290820152606001610e8c565b6097546001600160a01b031615801561177157506001600160a01b03821615155b6117f35760405162461bcd60e51b815260206004820152604760248201527f5061757361626c652e5f696e697469616c697a655061757365723a205f696e6960448201527f7469616c697a6550617573657228292063616e206f6e6c792062652063616c6c6064820152666564206f6e636560c81b608482015260a401610559565b609881905560405181815233907fab40a374bc51de372200a8bc981af8c9ecdc08dfdaef0bb6e09f88f3c616ef3d9060200160405180910390a26118368261137a565b5050565b8047101561188a5760405162461bcd60e51b815260206004820152601d60248201527f416464726573733a20696e73756666696369656e742062616c616e63650000006044820152606401610559565b6000826001600160a01b03168260405160006040518083038185875af1925050503d80600081146118d7576040519150601f19603f3d011682016040523d82523d6000602084013e6118dc565b606091505b50509050806119535760405162461bcd60e51b815260206004820152603a60248201527f416464726573733a20756e61626c6520746f2073656e642076616c75652c207260448201527f6563697069656e74206d617920686176652072657665727465640000000000006064820152608401610559565b505050565b6001600160a01b038116811461056b57600080fd5b60006020828403121561197f57600080fd5b813561198a81611958565b9392505050565b6000602082840312156119a357600080fd5b5035919050565b80516001600160e01b0316825260209081015163ffffffff16910152565b602080825282518282018190526000919060409081850190868401855b82811015611a08576119f88483516119aa565b92840192908501906001016119e5565b5091979650505050505050565b600060208284031215611a2757600080fd5b813560ff8116811461198a57600080fd5b60008060408385031215611a4b57600080fd5b8235611a5681611958565b946020939093013593505050565b60408101610b5782846119aa565b60008060408385031215611a8557600080fd5b8235611a9081611958565b91506020830135611aa081611958565b809150509250929050565b60008060008060808587031215611ac157600080fd5b8435611acc81611958565b93506020850135611adc81611958565b93969395505050506040820135916060013590565b602080825282518282015282810151604080840181905281516060850181905260009392830191849160808701905b8084101561089b57611b338286516119aa565b938501936001939093019290820190611b20565b600060208284031215611b5957600080fd5b815161198a81611958565b6020808252602a908201527f6d73672e73656e646572206973206e6f74207065726d697373696f6e6564206160408201526939903ab73830bab9b2b960b11b606082015260800190565b600060208284031215611bc057600080fd5b8151801515811461198a57600080fd5b60208082526028908201527f6d73672e73656e646572206973206e6f74207065726d697373696f6e6564206160408201526739903830bab9b2b960c11b606082015260800190565b634e487b7160e01b600052601160045260246000fd5b600082821015611c4057611c40611c18565b500390565b60008219821115611c5857611c58611c18565b500190565b634e487b7160e01b600052603260045260246000fd5b6000600019821415611c8757611c87611c18565b5060010190565b634e487b7160e01b600052604160045260246000fd5b60208082526019908201527f5061757361626c653a20696e646578206973207061757365640000000000000060408201526060019056fea26469706673582212207ed06e38d863321d377cef7cd3b6bf8a8fcfd163210c4ae44529b99a40f2473264736f6c634300080c0033",
    "linkReferences": {}
  },
  "methodIdentifiers": {
    "MAX_WITHDRAWAL_DELAY_BLOCKS()": "ca661c04",
    "canClaimDelayedWithdrawal(address,uint256)": "75608896",
    "claimDelayedWithdrawals(address,uint256)": "e5db06c0",
    "claimDelayedWithdrawals(uint256)": "d44e1b76",
    "createDelayedWithdrawal(address,address)": "c0db354c",
    "eigenPodManager()": "4665bcda",
    "getClaimableUserDelayedWithdrawals(address)": "1f39d87f",
    "getUserDelayedWithdrawals(address)": "3e1de008",
    "initialize(address,address,uint256,uint256)": "eb990c59",
    "owner()": "8da5cb5b",
    "pause(uint256)": "136439dd",
    "pauseAll()": "595c6a67",
    "paused()": "5c975abb",
    "paused(uint8)": "5ac86ab7",
    "pauserRegistry()": "886f1195",
    "renounceOwnership()": "715018a6",
    "setPauserRegistry(address)": "10d67a2f",
    "setWithdrawalDelayBlocks(uint256)": "4d50f9a4",
    "transferOwnership(address)": "f2fde38b",
    "unpause(uint256)": "fabc1cbc",
    "userDelayedWithdrawalByIndex(address,uint256)": "85594e58",
    "userWithdrawals(address)": "ecb7cb1b",
    "userWithdrawalsLength(address)": "e4f4f887",
    "withdrawalDelayBlocks()": "50f73e7c"
  },
  "id": 29
}