{
  "abi": [
    {
      "inputs": [
        {
          "internalType": "contract IAVSDirectory",
          "name": "_avsDirectory",
          "type": "address"
        },
        {
          "internalType": "contract IRegistryCoordinator",
          "name": "_registryCoordinator",
          "type": "address"
        },
        {
          "internalType": "contract IStakeRegistry",
          "name": "_stakeRegistry",
          "type": "address"
        }
      ],
      "stateMutability": "nonpayable",
      "type": "constructor"
    },
    {
      "anonymous": false,
      "inputs": [
        {
          "indexed": false,
          "internalType": "uint8",
          "name": "version",
          "type": "uint8"
        }
      ],
      "name": "Initialized",
      "type": "event"
    },
    {
      "anonymous": false,
      "inputs": [
        {
          "indexed": true,
          "internalType": "address",
          "name": "previousOwner",
          "type": "address"
        },
        {
          "indexed": true,
          "internalType": "address",
          "name": "newOwner",
          "type": "address"
        }
      ],
      "name": "OwnershipTransferred",
      "type": "event"
    },
    {
      "inputs": [],
      "name": "avsDirectory",
      "outputs": [
        {
          "internalType": "address",
          "name": "",
          "type": "address"
        }
      ],
      "stateMutability": "view",
      "type": "function"
    },
    {
      "inputs": [
        {
          "internalType": "address",
          "name": "operator",
          "type": "address"
        }
      ],
      "name": "deregisterOperatorFromAVS",
      "outputs": [],
      "stateMutability": "nonpayable",
      "type": "function"
    },
    {
      "inputs": [
        {
          "internalType": "address",
          "name": "operator",
          "type": "address"
        }
      ],
      "name": "getOperatorRestakedStrategies",
      "outputs": [
        {
          "internalType": "address[]",
          "name": "",
          "type": "address[]"
        }
      ],
      "stateMutability": "view",
      "type": "function"
    },
    {
      "inputs": [],
      "name": "getRestakeableStrategies",
      "outputs": [
        {
          "internalType": "address[]",
          "name": "",
          "type": "address[]"
        }
      ],
      "stateMutability": "view",
      "type": "function"
    },
    {
      "inputs": [
        {
          "internalType": "address",
          "name": "initialOwner",
          "type": "address"
        }
      ],
      "name": "initialize",
      "outputs": [],
      "stateMutability": "nonpayable",
      "type": "function"
    },
    {
      "inputs": [],
      "name": "owner",
      "outputs": [
        {
          "internalType": "address",
          "name": "",
          "type": "address"
        }
      ],
      "stateMutability": "view",
      "type": "function"
    },
    {
      "inputs": [
        {
          "internalType": "address",
          "name": "operator",
          "type": "address"
        },
        {
          "components": [
            {
              "internalType": "bytes",
              "name": "signature",
              "type": "bytes"
            },
            {
              "internalType": "bytes32",
              "name": "salt",
              "type": "bytes32"
            },
            {
              "internalType": "uint256",
              "name": "expiry",
              "type": "uint256"
            }
          ],
          "internalType": "struct ISignatureUtils.SignatureWithSaltAndExpiry",
          "name": "operatorSignature",
          "type": "tuple"
        }
      ],
      "name": "registerOperatorToAVS",
      "outputs": [],
      "stateMutability": "nonpayable",
      "type": "function"
    },
    {
      "inputs": [],
      "name": "renounceOwnership",
      "outputs": [],
      "stateMutability": "nonpayable",
      "type": "function"
    },
    {
      "inputs": [
        {
          "internalType": "string",
          "name": "_metadataURI",
          "type": "string"
        }
      ],
      "name": "setMetadataURI",
      "outputs": [],
      "stateMutability": "nonpayable",
      "type": "function"
    },
    {
      "inputs": [
        {
          "internalType": "address",
          "name": "newOwner",
          "type": "address"
        }
      ],
      "name": "transferOwnership",
      "outputs": [],
      "stateMutability": "nonpayable",
      "type": "function"
    }
  ],
  "bytecode": {
    "object": "0x60e06040523480156200001157600080fd5b50604051620016e4380380620016e4833981016040819052620000349162000141565b6001600160a01b0380841660c052808316608052811660a0528282826200005a62000066565b50505050505062000195565b600054610100900460ff1615620000d35760405162461bcd60e51b815260206004820152602760248201527f496e697469616c697a61626c653a20636f6e747261637420697320696e697469604482015266616c697a696e6760c81b606482015260840160405180910390fd5b60005460ff908116101562000126576000805460ff191660ff9081179091556040519081527f7f26b83ff96e1f2b6a682f133852f6798a09c465da95921460cefb38474024989060200160405180910390a15b565b6001600160a01b03811681146200013e57600080fd5b50565b6000806000606084860312156200015757600080fd5b8351620001648162000128565b6020850151909350620001778162000128565b60408501519092506200018a8162000128565b809150509250925092565b60805160a05160c0516114be620002266000396000818160ce0152818161068b0152818161075d0152610831015260008181610382015281816104de0152818161057501528181610a3b01528181610bbf0152610c5e0152600081816101ad0152818161023c015281816102bc01528181610700015281816107d5015281816109790152610b1a01526114be6000f3fe608060405234801561001057600080fd5b506004361061009e5760003560e01c80639926ee7d116100665780639926ee7d14610134578063a364f4da14610147578063c4d66de81461015a578063e481af9d1461016d578063f2fde38b1461017557600080fd5b806333cfb7b7146100a35780636b3aa72e146100cc578063715018a614610106578063750521f5146101105780638da5cb5b14610123575b600080fd5b6100b66100b1366004610fd6565b610188565b6040516100c39190610ffa565b60405180910390f35b7f00000000000000000000000000000000000000000000000000000000000000005b6040516001600160a01b0390911681526020016100c3565b61010e610658565b005b61010e61011e3660046110fc565b61066c565b6033546001600160a01b03166100ee565b61010e61014236600461114d565b6106f5565b61010e610155366004610fd6565b6107ca565b61010e610168366004610fd6565b610860565b6100b6610973565b61010e610183366004610fd6565b610d3d565b6040516309aa152760e11b81526001600160a01b0382811660048301526060916000917f000000000000000000000000000000000000000000000000000000000000000016906313542a4e90602401602060405180830381865afa1580156101f4573d6000803e3d6000fd5b505050506040513d601f19601f8201168201806040525081019061021891906111f8565b60405163871ef04960e01b8152600481018290529091506000906001600160a01b037f0000000000000000000000000000000000000000000000000000000000000000169063871ef04990602401602060405180830381865afa158015610283573d6000803e3d6000fd5b505050506040513d601f19601f820116820180604052508101906102a79190611211565b90506001600160c01b038116158061034157507f00000000000000000000000000000000000000000000000000000000000000006001600160a01b0316639aa1653d6040518163ffffffff1660e01b8152600401602060405180830381865afa158015610318573d6000803e3d6000fd5b505050506040513d601f19601f8201168201806040525081019061033c919061123a565b60ff16155b1561035d57505060408051600081526020810190915292915050565b6000610371826001600160c01b0316610db6565b90506000805b8251811015610447577f00000000000000000000000000000000000000000000000000000000000000006001600160a01b0316633ca5a5f58483815181106103c1576103c161125d565b01602001516040516001600160e01b031960e084901b16815260f89190911c6004820152602401602060405180830381865afa158015610405573d6000803e3d6000fd5b505050506040513d601f19601f8201168201806040525081019061042991906111f8565b6104339083611289565b91508061043f816112a1565b915050610377565b5060008167ffffffffffffffff81111561046357610463611047565b60405190808252806020026020018201604052801561048c578160200160208202803683370190505b5090506000805b845181101561064b5760008582815181106104b0576104b061125d565b0160200151604051633ca5a5f560e01b815260f89190911c6004820181905291506000906001600160a01b037f00000000000000000000000000000000000000000000000000000000000000001690633ca5a5f590602401602060405180830381865afa158015610525573d6000803e3d6000fd5b505050506040513d601f19601f8201168201806040525081019061054991906111f8565b905060005b81811015610635576040516356e4026d60e11b815260ff84166004820152602481018290527f00000000000000000000000000000000000000000000000000000000000000006001600160a01b03169063adc804da906044016040805180830381865afa1580156105c3573d6000803e3d6000fd5b505050506040513d601f19601f820116820180604052508101906105e791906112bc565b600001518686815181106105fd576105fd61125d565b6001600160a01b03909216602092830291909101909101528461061f816112a1565b955050808061062d906112a1565b91505061054e565b5050508080610643906112a1565b915050610493565b5090979650505050505050565b610660610e79565b61066a6000610ed3565b565b610674610e79565b60405163a98fb35560e01b81526001600160a01b037f0000000000000000000000000000000000000000000000000000000000000000169063a98fb355906106c0908490600401611379565b600060405180830381600087803b1580156106da57600080fd5b505af11580156106ee573d6000803e3d6000fd5b5050505050565b336001600160a01b037f000000000000000000000000000000000000000000000000000000000000000016146107465760405162461bcd60e51b815260040161073d9061138c565b60405180910390fd5b604051639926ee7d60e01b81526001600160a01b037f00000000000000000000000000000000000000000000000000000000000000001690639926ee7d906107949085908590600401611404565b600060405180830381600087803b1580156107ae57600080fd5b505af11580156107c2573d6000803e3d6000fd5b505050505050565b336001600160a01b037f000000000000000000000000000000000000000000000000000000000000000016146108125760405162461bcd60e51b815260040161073d9061138c565b6040516351b27a6d60e11b81526001600160a01b0382811660048301527f0000000000000000000000000000000000000000000000000000000000000000169063a364f4da906024016106c0565b600054610100900460ff16158080156108805750600054600160ff909116105b8061089a5750303b15801561089a575060005460ff166001145b6108fd5760405162461bcd60e51b815260206004820152602e60248201527f496e697469616c697a61626c653a20636f6e747261637420697320616c72656160448201526d191e481a5b9a5d1a585b1a5e995960921b606482015260840161073d565b6000805460ff191660011790558015610920576000805461ff0019166101001790555b61092982610f25565b801561096f576000805461ff0019169055604051600181527f7f26b83ff96e1f2b6a682f133852f6798a09c465da95921460cefb38474024989060200160405180910390a15b5050565b606060007f00000000000000000000000000000000000000000000000000000000000000006001600160a01b0316639aa1653d6040518163ffffffff1660e01b8152600401602060405180830381865afa1580156109d5573d6000803e3d6000fd5b505050506040513d601f19601f820116820180604052508101906109f9919061123a565b60ff16905080610a1757505060408051600081526020810190915290565b6000805b82811015610acc57604051633ca5a5f560e01b815260ff821660048201527f00000000000000000000000000000000000000000000000000000000000000006001600160a01b031690633ca5a5f590602401602060405180830381865afa158015610a8a573d6000803e3d6000fd5b505050506040513d601f19601f82011682018060405250810190610aae91906111f8565b610ab89083611289565b915080610ac4816112a1565b915050610a1b565b5060008167ffffffffffffffff811115610ae857610ae8611047565b604051908082528060200260200182016040528015610b11578160200160208202803683370190505b5090506000805b7f00000000000000000000000000000000000000000000000000000000000000006001600160a01b0316639aa1653d6040518163ffffffff1660e01b8152600401602060405180830381865afa158015610b76573d6000803e3d6000fd5b505050506040513d601f19601f82011682018060405250810190610b9a919061123a565b60ff16811015610d3357604051633ca5a5f560e01b815260ff821660048201526000907f00000000000000000000000000000000000000000000000000000000000000006001600160a01b031690633ca5a5f590602401602060405180830381865afa158015610c0e573d6000803e3d6000fd5b505050506040513d601f19601f82011682018060405250810190610c3291906111f8565b905060005b81811015610d1e576040516356e4026d60e11b815260ff84166004820152602481018290527f00000000000000000000000000000000000000000000000000000000000000006001600160a01b03169063adc804da906044016040805180830381865afa158015610cac573d6000803e3d6000fd5b505050506040513d601f19601f82011682018060405250810190610cd091906112bc565b60000151858581518110610ce657610ce661125d565b6001600160a01b039092166020928302919091019091015283610d08816112a1565b9450508080610d16906112a1565b915050610c37565b50508080610d2b906112a1565b915050610b18565b5090949350505050565b610d45610e79565b6001600160a01b038116610daa5760405162461bcd60e51b815260206004820152602660248201527f4f776e61626c653a206e6577206f776e657220697320746865207a65726f206160448201526564647265737360d01b606482015260840161073d565b610db381610ed3565b50565b6060600080610dc484610f90565b61ffff1667ffffffffffffffff811115610de057610de0611047565b6040519080825280601f01601f191660200182016040528015610e0a576020820181803683370190505b5090506000805b825182108015610e22575061010081105b15610d33576001811b935085841615610e69578060f81b838381518110610e4b57610e4b61125d565b60200101906001600160f81b031916908160001a9053508160010191505b610e72816112a1565b9050610e11565b6033546001600160a01b0316331461066a5760405162461bcd60e51b815260206004820181905260248201527f4f776e61626c653a2063616c6c6572206973206e6f7420746865206f776e6572604482015260640161073d565b603380546001600160a01b038381166001600160a01b0319831681179093556040519116919082907f8be0079c531659141344cd1fd0a4f28419497f9722a3daafe3b4186f6b6457e090600090a35050565b600054610100900460ff16610daa5760405162461bcd60e51b815260206004820152602b60248201527f496e697469616c697a61626c653a20636f6e7472616374206973206e6f74206960448201526a6e697469616c697a696e6760a81b606482015260840161073d565b6000805b8215610fbb57610fa560018461144f565b9092169180610fb381611466565b915050610f94565b92915050565b6001600160a01b0381168114610db357600080fd5b600060208284031215610fe857600080fd5b8135610ff381610fc1565b9392505050565b6020808252825182820181905260009190848201906040850190845b8181101561103b5783516001600160a01b031683529284019291840191600101611016565b50909695505050505050565b634e487b7160e01b600052604160045260246000fd5b6040516060810167ffffffffffffffff8111828210171561108057611080611047565b60405290565b600067ffffffffffffffff808411156110a1576110a1611047565b604051601f8501601f19908116603f011681019082821181831017156110c9576110c9611047565b816040528093508581528686860111156110e257600080fd5b858560208301376000602087830101525050509392505050565b60006020828403121561110e57600080fd5b813567ffffffffffffffff81111561112557600080fd5b8201601f8101841361113657600080fd5b61114584823560208401611086565b949350505050565b6000806040838503121561116057600080fd5b823561116b81610fc1565b9150602083013567ffffffffffffffff8082111561118857600080fd5b908401906060828703121561119c57600080fd5b6111a461105d565b8235828111156111b357600080fd5b83019150601f820187136111c657600080fd5b6111d587833560208501611086565b815260208301356020820152604083013560408201528093505050509250929050565b60006020828403121561120a57600080fd5b5051919050565b60006020828403121561122357600080fd5b81516001600160c01b0381168114610ff357600080fd5b60006020828403121561124c57600080fd5b815160ff81168114610ff357600080fd5b634e487b7160e01b600052603260045260246000fd5b634e487b7160e01b600052601160045260246000fd5b6000821982111561129c5761129c611273565b500190565b60006000198214156112b5576112b5611273565b5060010190565b6000604082840312156112ce57600080fd5b6040516040810181811067ffffffffffffffff821117156112f1576112f1611047565b60405282516112ff81610fc1565b815260208301516bffffffffffffffffffffffff8116811461132057600080fd5b60208201529392505050565b6000815180845260005b8181101561135257602081850181015186830182015201611336565b81811115611364576000602083870101525b50601f01601f19169290920160200192915050565b602081526000610ff3602083018461132c565b60208082526052908201527f536572766963654d616e61676572426173652e6f6e6c7952656769737472794360408201527f6f6f7264696e61746f723a2063616c6c6572206973206e6f742074686520726560608201527133b4b9ba393c9031b7b7b93234b730ba37b960711b608082015260a00190565b60018060a01b038316815260406020820152600082516060604084015261142e60a084018261132c565b90506020840151606084015260408401516080840152809150509392505050565b60008282101561146157611461611273565b500390565b600061ffff8083168181141561147e5761147e611273565b600101939250505056fea2646970667358221220ec0606d27c81dbff7cfb0e190ee04ee96dc6d1c7a935e823e52f3acc34fa3a4c64736f6c634300080c0033",
    "linkReferences": {}
  },
  "methodIdentifiers": {
    "avsDirectory()": "6b3aa72e",
    "deregisterOperatorFromAVS(address)": "a364f4da",
    "getOperatorRestakedStrategies(address)": "33cfb7b7",
    "getRestakeableStrategies()": "e481af9d",
    "initialize(address)": "c4d66de8",
    "owner()": "8da5cb5b",
    "registerOperatorToAVS(address,(bytes,bytes32,uint256))": "9926ee7d",
    "renounceOwnership()": "715018a6",
    "setMetadataURI(string)": "750521f5",
    "transferOwnership(address)": "f2fde38b"
  },
  "id": 140
}