{
  "abi": [
    {
      "inputs": [
        {
          "internalType": "contract IStrategyManager",
          "name": "",
          "type": "address"
        },
        {
          "internalType": "contract IDelegationManager",
          "name": "",
          "type": "address"
        }
      ],
      "stateMutability": "nonpayable",
      "type": "constructor"
    },
    {
      "anonymous": false,
      "inputs": [
        {
          "indexed": true,
          "internalType": "address",
          "name": "previouslySlashedAddress",
          "type": "address"
        }
      ],
      "name": "FrozenStatusReset",
      "type": "event"
    },
    {
      "anonymous": false,
      "inputs": [
        {
          "indexed": false,
          "internalType": "uint8",
          "name": "version",
          "type": "uint8"
        }
      ],
      "name": "Initialized",
      "type": "event"
    },
    {
      "anonymous": false,
      "inputs": [
        {
          "indexed": false,
          "internalType": "address",
          "name": "operator",
          "type": "address"
        },
        {
          "indexed": false,
          "internalType": "uint256",
          "name": "index",
          "type": "uint256"
        },
        {
          "indexed": false,
          "internalType": "uint32",
          "name": "stalestUpdateBlock",
          "type": "uint32"
        },
        {
          "indexed": false,
          "internalType": "uint32",
          "name": "latestServeUntilBlock",
          "type": "uint32"
        }
      ],
      "name": "MiddlewareTimesAdded",
      "type": "event"
    },
    {
      "anonymous": false,
      "inputs": [
        {
          "indexed": true,
          "internalType": "address",
          "name": "slashedOperator",
          "type": "address"
        },
        {
          "indexed": true,
          "internalType": "address",
          "name": "slashingContract",
          "type": "address"
        }
      ],
      "name": "OperatorFrozen",
      "type": "event"
    },
    {
      "anonymous": false,
      "inputs": [
        {
          "indexed": true,
          "internalType": "address",
          "name": "operator",
          "type": "address"
        },
        {
          "indexed": true,
          "internalType": "address",
          "name": "contractAddress",
          "type": "address"
        }
      ],
      "name": "OptedIntoSlashing",
      "type": "event"
    },
    {
      "anonymous": false,
      "inputs": [
        {
          "indexed": true,
          "internalType": "address",
          "name": "previousOwner",
          "type": "address"
        },
        {
          "indexed": true,
          "internalType": "address",
          "name": "newOwner",
          "type": "address"
        }
      ],
      "name": "OwnershipTransferred",
      "type": "event"
    },
    {
      "anonymous": false,
      "inputs": [
        {
          "indexed": true,
          "internalType": "address",
          "name": "account",
          "type": "address"
        },
        {
          "indexed": false,
          "internalType": "uint256",
          "name": "newPausedStatus",
          "type": "uint256"
        }
      ],
      "name": "Paused",
      "type": "event"
    },
    {
      "anonymous": false,
      "inputs": [
        {
          "indexed": false,
          "internalType": "contract IPauserRegistry",
          "name": "pauserRegistry",
          "type": "address"
        },
        {
          "indexed": false,
          "internalType": "contract IPauserRegistry",
          "name": "newPauserRegistry",
          "type": "address"
        }
      ],
      "name": "PauserRegistrySet",
      "type": "event"
    },
    {
      "anonymous": false,
      "inputs": [
        {
          "indexed": true,
          "internalType": "address",
          "name": "operator",
          "type": "address"
        },
        {
          "indexed": true,
          "internalType": "address",
          "name": "contractAddress",
          "type": "address"
        },
        {
          "indexed": false,
          "internalType": "uint32",
          "name": "contractCanSlashOperatorUntilBlock",
          "type": "uint32"
        }
      ],
      "name": "SlashingAbilityRevoked",
      "type": "event"
    },
    {
      "anonymous": false,
      "inputs": [
        {
          "indexed": true,
          "internalType": "address",
          "name": "account",
          "type": "address"
        },
        {
          "indexed": false,
          "internalType": "uint256",
          "name": "newPausedStatus",
          "type": "uint256"
        }
      ],
      "name": "Unpaused",
      "type": "event"
    },
    {
      "inputs": [
        {
          "internalType": "address",
          "name": "",
          "type": "address"
        },
        {
          "internalType": "address",
          "name": "",
          "type": "address"
        }
      ],
      "name": "canSlash",
      "outputs": [
        {
          "internalType": "bool",
          "name": "",
          "type": "bool"
        }
      ],
      "stateMutability": "view",
      "type": "function"
    },
    {
      "inputs": [
        {
          "internalType": "address",
          "name": "",
          "type": "address"
        },
        {
          "internalType": "uint32",
          "name": "",
          "type": "uint32"
        },
        {
          "internalType": "uint256",
          "name": "",
          "type": "uint256"
        }
      ],
      "name": "canWithdraw",
      "outputs": [
        {
          "internalType": "bool",
          "name": "",
          "type": "bool"
        }
      ],
      "stateMutability": "nonpayable",
      "type": "function"
    },
    {
      "inputs": [
        {
          "internalType": "address",
          "name": "",
          "type": "address"
        },
        {
          "internalType": "address",
          "name": "",
          "type": "address"
        }
      ],
      "name": "contractCanSlashOperatorUntilBlock",
      "outputs": [
        {
          "internalType": "uint32",
          "name": "",
          "type": "uint32"
        }
      ],
      "stateMutability": "view",
      "type": "function"
    },
    {
      "inputs": [],
      "name": "delegation",
      "outputs": [
        {
          "internalType": "contract IDelegationManager",
          "name": "",
          "type": "address"
        }
      ],
      "stateMutability": "view",
      "type": "function"
    },
    {
      "inputs": [
        {
          "internalType": "address",
          "name": "",
          "type": "address"
        }
      ],
      "name": "freezeOperator",
      "outputs": [],
      "stateMutability": "nonpayable",
      "type": "function"
    },
    {
      "inputs": [
        {
          "internalType": "address",
          "name": "",
          "type": "address"
        },
        {
          "internalType": "uint32",
          "name": "",
          "type": "uint32"
        }
      ],
      "name": "getCorrectValueForInsertAfter",
      "outputs": [
        {
          "internalType": "uint256",
          "name": "",
          "type": "uint256"
        }
      ],
      "stateMutability": "view",
      "type": "function"
    },
    {
      "inputs": [
        {
          "internalType": "address",
          "name": "",
          "type": "address"
        },
        {
          "internalType": "uint32",
          "name": "",
          "type": "uint32"
        }
      ],
      "name": "getMiddlewareTimesIndexServeUntilBlock",
      "outputs": [
        {
          "internalType": "uint32",
          "name": "",
          "type": "uint32"
        }
      ],
      "stateMutability": "view",
      "type": "function"
    },
    {
      "inputs": [
        {
          "internalType": "address",
          "name": "",
          "type": "address"
        },
        {
          "internalType": "uint32",
          "name": "",
          "type": "uint32"
        }
      ],
      "name": "getMiddlewareTimesIndexStalestUpdateBlock",
      "outputs": [
        {
          "internalType": "uint32",
          "name": "",
          "type": "uint32"
        }
      ],
      "stateMutability": "view",
      "type": "function"
    },
    {
      "inputs": [
        {
          "internalType": "address",
          "name": "",
          "type": "address"
        },
        {
          "internalType": "contract IPauserRegistry",
          "name": "",
          "type": "address"
        },
        {
          "internalType": "uint256",
          "name": "",
          "type": "uint256"
        }
      ],
      "name": "initialize",
      "outputs": [],
      "stateMutability": "nonpayable",
      "type": "function"
    },
    {
      "inputs": [
        {
          "internalType": "address",
          "name": "",
          "type": "address"
        }
      ],
      "name": "isFrozen",
      "outputs": [
        {
          "internalType": "bool",
          "name": "",
          "type": "bool"
        }
      ],
      "stateMutability": "view",
      "type": "function"
    },
    {
      "inputs": [
        {
          "internalType": "address",
          "name": "",
          "type": "address"
        },
        {
          "internalType": "address",
          "name": "",
          "type": "address"
        }
      ],
      "name": "latestUpdateBlock",
      "outputs": [
        {
          "internalType": "uint32",
          "name": "",
          "type": "uint32"
        }
      ],
      "stateMutability": "view",
      "type": "function"
    },
    {
      "inputs": [
        {
          "internalType": "address",
          "name": "",
          "type": "address"
        }
      ],
      "name": "middlewareTimesLength",
      "outputs": [
        {
          "internalType": "uint256",
          "name": "",
          "type": "uint256"
        }
      ],
      "stateMutability": "view",
      "type": "function"
    },
    {
      "inputs": [
        {
          "internalType": "address",
          "name": "",
          "type": "address"
        },
        {
          "internalType": "uint256",
          "name": "",
          "type": "uint256"
        }
      ],
      "name": "operatorToMiddlewareTimes",
      "outputs": [
        {
          "components": [
            {
              "internalType": "uint32",
              "name": "stalestUpdateBlock",
              "type": "uint32"
            },
            {
              "internalType": "uint32",
              "name": "latestServeUntilBlock",
              "type": "uint32"
            }
          ],
          "internalType": "struct ISlasher.MiddlewareTimes",
          "name": "",
          "type": "tuple"
        }
      ],
      "stateMutability": "view",
      "type": "function"
    },
    {
      "inputs": [
        {
          "internalType": "address",
          "name": "",
          "type": "address"
        },
        {
          "internalType": "address",
          "name": "",
          "type": "address"
        }
      ],
      "name": "operatorWhitelistedContractsLinkedListEntry",
      "outputs": [
        {
          "internalType": "bool",
          "name": "",
          "type": "bool"
        },
        {
          "internalType": "uint256",
          "name": "",
          "type": "uint256"
        },
        {
          "internalType": "uint256",
          "name": "",
          "type": "uint256"
        }
      ],
      "stateMutability": "view",
      "type": "function"
    },
    {
      "inputs": [
        {
          "internalType": "address",
          "name": "",
          "type": "address"
        }
      ],
      "name": "operatorWhitelistedContractsLinkedListSize",
      "outputs": [
        {
          "internalType": "uint256",
          "name": "",
          "type": "uint256"
        }
      ],
      "stateMutability": "view",
      "type": "function"
    },
    {
      "inputs": [
        {
          "internalType": "address",
          "name": "",
          "type": "address"
        }
      ],
      "name": "optIntoSlashing",
      "outputs": [],
      "stateMutability": "nonpayable",
      "type": "function"
    },
    {
      "inputs": [],
      "name": "owner",
      "outputs": [
        {
          "internalType": "address",
          "name": "",
          "type": "address"
        }
      ],
      "stateMutability": "view",
      "type": "function"
    },
    {
      "inputs": [
        {
          "internalType": "uint256",
          "name": "newPausedStatus",
          "type": "uint256"
        }
      ],
      "name": "pause",
      "outputs": [],
      "stateMutability": "nonpayable",
      "type": "function"
    },
    {
      "inputs": [],
      "name": "pauseAll",
      "outputs": [],
      "stateMutability": "nonpayable",
      "type": "function"
    },
    {
      "inputs": [
        {
          "internalType": "uint8",
          "name": "index",
          "type": "uint8"
        }
      ],
      "name": "paused",
      "outputs": [
        {
          "internalType": "bool",
          "name": "",
          "type": "bool"
        }
      ],
      "stateMutability": "view",
      "type": "function"
    },
    {
      "inputs": [],
      "name": "paused",
      "outputs": [
        {
          "internalType": "uint256",
          "name": "",
          "type": "uint256"
        }
      ],
      "stateMutability": "view",
      "type": "function"
    },
    {
      "inputs": [],
      "name": "pauserRegistry",
      "outputs": [
        {
          "internalType": "contract IPauserRegistry",
          "name": "",
          "type": "address"
        }
      ],
      "stateMutability": "view",
      "type": "function"
    },
    {
      "inputs": [
        {
          "internalType": "address",
          "name": "",
          "type": "address"
        },
        {
          "internalType": "uint32",
          "name": "",
          "type": "uint32"
        }
      ],
      "name": "recordFirstStakeUpdate",
      "outputs": [],
      "stateMutability": "nonpayable",
      "type": "function"
    },
    {
      "inputs": [
        {
          "internalType": "address",
          "name": "",
          "type": "address"
        },
        {
          "internalType": "uint32",
          "name": "",
          "type": "uint32"
        }
      ],
      "name": "recordLastStakeUpdateAndRevokeSlashingAbility",
      "outputs": [],
      "stateMutability": "nonpayable",
      "type": "function"
    },
    {
      "inputs": [
        {
          "internalType": "address",
          "name": "",
          "type": "address"
        },
        {
          "internalType": "uint32",
          "name": "",
          "type": "uint32"
        },
        {
          "internalType": "uint32",
          "name": "",
          "type": "uint32"
        },
        {
          "internalType": "uint256",
          "name": "",
          "type": "uint256"
        }
      ],
      "name": "recordStakeUpdate",
      "outputs": [],
      "stateMutability": "nonpayable",
      "type": "function"
    },
    {
      "inputs": [],
      "name": "renounceOwnership",
      "outputs": [],
      "stateMutability": "nonpayable",
      "type": "function"
    },
    {
      "inputs": [
        {
          "internalType": "address[]",
          "name": "",
          "type": "address[]"
        }
      ],
      "name": "resetFrozenStatus",
      "outputs": [],
      "stateMutability": "nonpayable",
      "type": "function"
    },
    {
      "inputs": [
        {
          "internalType": "contract IPauserRegistry",
          "name": "newPauserRegistry",
          "type": "address"
        }
      ],
      "name": "setPauserRegistry",
      "outputs": [],
      "stateMutability": "nonpayable",
      "type": "function"
    },
    {
      "inputs": [],
      "name": "strategyManager",
      "outputs": [
        {
          "internalType": "contract IStrategyManager",
          "name": "",
          "type": "address"
        }
      ],
      "stateMutability": "view",
      "type": "function"
    },
    {
      "inputs": [
        {
          "internalType": "address",
          "name": "newOwner",
          "type": "address"
        }
      ],
      "name": "transferOwnership",
      "outputs": [],
      "stateMutability": "nonpayable",
      "type": "function"
    },
    {
      "inputs": [
        {
          "internalType": "uint256",
          "name": "newPausedStatus",
          "type": "uint256"
        }
      ],
      "name": "unpause",
      "outputs": [],
      "stateMutability": "nonpayable",
      "type": "function"
    },
    {
      "inputs": [
        {
          "internalType": "address",
          "name": "",
          "type": "address"
        },
        {
          "internalType": "address",
          "name": "",
          "type": "address"
        }
      ],
      "name": "whitelistedContractDetails",
      "outputs": [
        {
          "components": [
            {
              "internalType": "uint32",
              "name": "registrationMayBeginAtBlock",
              "type": "uint32"
            },
            {
              "internalType": "uint32",
              "name": "contractCanSlashOperatorUntilBlock",
              "type": "uint32"
            },
            {
              "internalType": "uint32",
              "name": "latestUpdateBlock",
              "type": "uint32"
            }
          ],
          "internalType": "struct ISlasher.MiddlewareDetails",
          "name": "",
          "type": "tuple"
        }
      ],
      "stateMutability": "view",
      "type": "function"
    }
  ],
  "bytecode": {
    "object": "0x608060405234801561001057600080fd5b50604051610efe380380610efe83398101604081905261002f9161004e565b5050610088565b6001600160a01b038116811461004b57600080fd5b50565b6000806040838503121561006157600080fd5b825161006c81610036565b602084015190925061007d81610036565b809150509250929050565b610e67806100976000396000f3fe608060405234801561001057600080fd5b50600436106101f05760003560e01c80637cf72bba1161010f578063d98128c0116100a2578063e921d4fa11610071578063e921d4fa146103c6578063f2fde38b1461044c578063f73b7519146102a9578063fabc1cbc1461045f57600080fd5b8063d98128c014610430578063da16e29b14610322578063df5cf723146102ba578063e58398361461043e57600080fd5b80638da5cb5b116100de5780638da5cb5b146103b5578063a49db732146103c6578063c747075b146103da578063d7b7fa13146103ee57600080fd5b80637cf72bba146103465780638105e04314610354578063855fcc4a1461036b578063886f1195146103a257600080fd5b806339b70e38116101875780636f0c2f74116101565780636f0c2f7414610322578063715018a614610330578063723e59c7146103385780637259a45c1461024257600080fd5b806339b70e38146102ba578063595c6a67146102d55780635ac86ab7146102dd5780635c975abb1461031057600080fd5b80631794bb3c116101c35780631794bb3c1461022f5780631874e5ae14610242578063282670fc1461027257806338c8ee64146102a957600080fd5b80630ffabbce146101f557806310d67a2f14610209578063136439dd1461021c578063175d3205146101f5575b600080fd5b610207610203366004610b25565b5050565b005b610207610217366004610b5a565b610472565b61020761022a366004610b7e565b61052b565b61020761023d366004610b97565b505050565b610258610250366004610b25565b600092915050565b60405163ffffffff90911681526020015b60405180910390f35b610285610280366004610bd8565b61066a565b60408051825163ffffffff9081168252602093840151169281019290925201610269565b6102076102b7366004610b5a565b50565b60005b6040516001600160a01b039091168152602001610269565b610207610685565b6103006102eb366004610c04565b606654600160ff9092169190911b9081161490565b6040519015158152602001610269565b6066545b604051908152602001610269565b610258610250366004610c27565b61020761074c565b610314610250366004610b25565b610207610203366004610c60565b610300610362366004610cd5565b60009392505050565b610385610379366004610c27565b60008060009250925092565b604080519315158452602084019290925290820152606001610269565b6065546102bd906001600160a01b031681565b6033546001600160a01b03166102bd565b6103146103d4366004610b5a565b50600090565b6102076103e8366004610d13565b50505050565b6104016103fc366004610c27565b610760565b60408051825163ffffffff90811682526020808501518216908301529282015190921690820152606001610269565b610300610250366004610c27565b6103006103d4366004610b5a565b61020761045a366004610b5a565b610782565b61020761046d366004610b7e565b6107f8565b606560009054906101000a90046001600160a01b03166001600160a01b031663eab66d7a6040518163ffffffff1660e01b8152600401602060405180830381865afa1580156104c5573d6000803e3d6000fd5b505050506040513d601f19601f820116820180604052508101906104e99190610d60565b6001600160a01b0316336001600160a01b0316146105225760405162461bcd60e51b815260040161051990610d7d565b60405180910390fd5b6102b781610954565b60655460405163237dfb4760e11b81523360048201526001600160a01b03909116906346fbf68e90602401602060405180830381865afa158015610573573d6000803e3d6000fd5b505050506040513d601f19601f820116820180604052508101906105979190610dc7565b6105b35760405162461bcd60e51b815260040161051990610de9565b6066548181161461062c5760405162461bcd60e51b815260206004820152603860248201527f5061757361626c652e70617573653a20696e76616c696420617474656d70742060448201527f746f20756e70617573652066756e6374696f6e616c69747900000000000000006064820152608401610519565b606681905560405181815233907fab40a374bc51de372200a8bc981af8c9ecdc08dfdaef0bb6e09f88f3c616ef3d906020015b60405180910390a250565b60408051808201909152600080825260208201525b92915050565b60655460405163237dfb4760e11b81523360048201526001600160a01b03909116906346fbf68e90602401602060405180830381865afa1580156106cd573d6000803e3d6000fd5b505050506040513d601f19601f820116820180604052508101906106f19190610dc7565b61070d5760405162461bcd60e51b815260040161051990610de9565b600019606681905560405190815233907fab40a374bc51de372200a8bc981af8c9ecdc08dfdaef0bb6e09f88f3c616ef3d9060200160405180910390a2565b610754610a4b565b61075e6000610aa5565b565b604080516060810182526000808252602082018190529181019190915261067f565b61078a610a4b565b6001600160a01b0381166107ef5760405162461bcd60e51b815260206004820152602660248201527f4f776e61626c653a206e6577206f776e657220697320746865207a65726f206160448201526564647265737360d01b6064820152608401610519565b6102b781610aa5565b606560009054906101000a90046001600160a01b03166001600160a01b031663eab66d7a6040518163ffffffff1660e01b8152600401602060405180830381865afa15801561084b573d6000803e3d6000fd5b505050506040513d601f19601f8201168201806040525081019061086f9190610d60565b6001600160a01b0316336001600160a01b03161461089f5760405162461bcd60e51b815260040161051990610d7d565b60665419811960665419161461091d5760405162461bcd60e51b815260206004820152603860248201527f5061757361626c652e756e70617573653a20696e76616c696420617474656d7060448201527f7420746f2070617573652066756e6374696f6e616c69747900000000000000006064820152608401610519565b606681905560405181815233907f3582d1828e26bf56bd801502bc021ac0bc8afb57c826e4986b45593c8fad389c9060200161065f565b6001600160a01b0381166109e25760405162461bcd60e51b815260206004820152604960248201527f5061757361626c652e5f73657450617573657252656769737472793a206e657760448201527f50617573657252656769737472792063616e6e6f7420626520746865207a65726064820152686f206164647265737360b81b608482015260a401610519565b606554604080516001600160a01b03928316815291831660208301527f6e9fcd539896fca60e8b0f01dd580233e48a6b0f7df013b89ba7f565869acdb6910160405180910390a1606580546001600160a01b0319166001600160a01b0392909216919091179055565b6033546001600160a01b0316331461075e5760405162461bcd60e51b815260206004820181905260248201527f4f776e61626c653a2063616c6c6572206973206e6f7420746865206f776e65726044820152606401610519565b603380546001600160a01b038381166001600160a01b0319831681179093556040519116919082907f8be0079c531659141344cd1fd0a4f28419497f9722a3daafe3b4186f6b6457e090600090a35050565b6001600160a01b03811681146102b757600080fd5b803563ffffffff81168114610b2057600080fd5b919050565b60008060408385031215610b3857600080fd5b8235610b4381610af7565b9150610b5160208401610b0c565b90509250929050565b600060208284031215610b6c57600080fd5b8135610b7781610af7565b9392505050565b600060208284031215610b9057600080fd5b5035919050565b600080600060608486031215610bac57600080fd5b8335610bb781610af7565b92506020840135610bc781610af7565b929592945050506040919091013590565b60008060408385031215610beb57600080fd5b8235610bf681610af7565b946020939093013593505050565b600060208284031215610c1657600080fd5b813560ff81168114610b7757600080fd5b60008060408385031215610c3a57600080fd5b8235610c4581610af7565b91506020830135610c5581610af7565b809150509250929050565b60008060208385031215610c7357600080fd5b823567ffffffffffffffff80821115610c8b57600080fd5b818501915085601f830112610c9f57600080fd5b813581811115610cae57600080fd5b8660208260051b8501011115610cc357600080fd5b60209290920196919550909350505050565b600080600060608486031215610cea57600080fd5b8335610cf581610af7565b9250610d0360208501610b0c565b9150604084013590509250925092565b60008060008060808587031215610d2957600080fd5b8435610d3481610af7565b9350610d4260208601610b0c565b9250610d5060408601610b0c565b9396929550929360600135925050565b600060208284031215610d7257600080fd5b8151610b7781610af7565b6020808252602a908201527f6d73672e73656e646572206973206e6f74207065726d697373696f6e6564206160408201526939903ab73830bab9b2b960b11b606082015260800190565b600060208284031215610dd957600080fd5b81518015158114610b7757600080fd5b60208082526028908201527f6d73672e73656e646572206973206e6f74207065726d697373696f6e6564206160408201526739903830bab9b2b960c11b60608201526080019056fea2646970667358221220aaed781846e42ea66da1836d8fe3915510dd72adcacb9a10c18258c37b2907d564736f6c634300080c0033",
    "linkReferences": {}
  },
  "methodIdentifiers": {
    "canSlash(address,address)": "d98128c0",
    "canWithdraw(address,uint32,uint256)": "8105e043",
    "contractCanSlashOperatorUntilBlock(address,address)": "6f0c2f74",
    "delegation()": "df5cf723",
    "freezeOperator(address)": "38c8ee64",
    "getCorrectValueForInsertAfter(address,uint32)": "723e59c7",
    "getMiddlewareTimesIndexServeUntilBlock(address,uint32)": "7259a45c",
    "getMiddlewareTimesIndexStalestUpdateBlock(address,uint32)": "1874e5ae",
    "initialize(address,address,uint256)": "1794bb3c",
    "isFrozen(address)": "e5839836",
    "latestUpdateBlock(address,address)": "da16e29b",
    "middlewareTimesLength(address)": "a49db732",
    "operatorToMiddlewareTimes(address,uint256)": "282670fc",
    "operatorWhitelistedContractsLinkedListEntry(address,address)": "855fcc4a",
    "operatorWhitelistedContractsLinkedListSize(address)": "e921d4fa",
    "optIntoSlashing(address)": "f73b7519",
    "owner()": "8da5cb5b",
    "pause(uint256)": "136439dd",
    "pauseAll()": "595c6a67",
    "paused()": "5c975abb",
    "paused(uint8)": "5ac86ab7",
    "pauserRegistry()": "886f1195",
    "recordFirstStakeUpdate(address,uint32)": "175d3205",
    "recordLastStakeUpdateAndRevokeSlashingAbility(address,uint32)": "0ffabbce",
    "recordStakeUpdate(address,uint32,uint32,uint256)": "c747075b",
    "renounceOwnership()": "715018a6",
    "resetFrozenStatus(address[])": "7cf72bba",
    "setPauserRegistry(address)": "10d67a2f",
    "strategyManager()": "39b70e38",
    "transferOwnership(address)": "f2fde38b",
    "unpause(uint256)": "fabc1cbc",
    "whitelistedContractDetails(address,address)": "d7b7fa13"
  },
  "id": 5
}