{
  "abi": [
    {
      "anonymous": false,
      "inputs": [
        {
          "indexed": true,
          "internalType": "uint8",
          "name": "quorumNumber",
          "type": "uint8"
        },
        {
          "indexed": false,
          "internalType": "uint96",
          "name": "minimumStake",
          "type": "uint96"
        }
      ],
      "name": "MinimumStakeForQuorumUpdated",
      "type": "event"
    },
    {
      "anonymous": false,
      "inputs": [
        {
          "indexed": true,
          "internalType": "bytes32",
          "name": "operatorId",
          "type": "bytes32"
        },
        {
          "indexed": false,
          "internalType": "uint8",
          "name": "quorumNumber",
          "type": "uint8"
        },
        {
          "indexed": false,
          "internalType": "uint96",
          "name": "stake",
          "type": "uint96"
        }
      ],
      "name": "OperatorStakeUpdate",
      "type": "event"
    },
    {
      "anonymous": false,
      "inputs": [
        {
          "indexed": true,
          "internalType": "uint8",
          "name": "quorumNumber",
          "type": "uint8"
        }
      ],
      "name": "QuorumCreated",
      "type": "event"
    },
    {
      "anonymous": false,
      "inputs": [
        {
          "indexed": true,
          "internalType": "uint8",
          "name": "quorumNumber",
          "type": "uint8"
        },
        {
          "indexed": false,
          "internalType": "contract IStrategy",
          "name": "strategy",
          "type": "address"
        }
      ],
      "name": "StrategyAddedToQuorum",
      "type": "event"
    },
    {
      "anonymous": false,
      "inputs": [
        {
          "indexed": true,
          "internalType": "uint8",
          "name": "quorumNumber",
          "type": "uint8"
        },
        {
          "indexed": false,
          "internalType": "contract IStrategy",
          "name": "strategy",
          "type": "address"
        },
        {
          "indexed": false,
          "internalType": "uint256",
          "name": "multiplier",
          "type": "uint256"
        }
      ],
      "name": "StrategyMultiplierUpdated",
      "type": "event"
    },
    {
      "anonymous": false,
      "inputs": [
        {
          "indexed": true,
          "internalType": "uint8",
          "name": "quorumNumber",
          "type": "uint8"
        },
        {
          "indexed": false,
          "internalType": "contract IStrategy",
          "name": "strategy",
          "type": "address"
        }
      ],
      "name": "StrategyRemovedFromQuorum",
      "type": "event"
    },
    {
      "inputs": [],
      "name": "WEIGHTING_DIVISOR",
      "outputs": [
        {
          "internalType": "uint256",
          "name": "",
          "type": "uint256"
        }
      ],
      "stateMutability": "pure",
      "type": "function"
    },
    {
      "inputs": [
        {
          "internalType": "uint8",
          "name": "quorumNumber",
          "type": "uint8"
        },
        {
          "components": [
            {
              "internalType": "contract IStrategy",
              "name": "strategy",
              "type": "address"
            },
            {
              "internalType": "uint96",
              "name": "multiplier",
              "type": "uint96"
            }
          ],
          "internalType": "struct IStakeRegistry.StrategyParams[]",
          "name": "strategyParams",
          "type": "tuple[]"
        }
      ],
      "name": "addStrategies",
      "outputs": [],
      "stateMutability": "nonpayable",
      "type": "function"
    },
    {
      "inputs": [],
      "name": "delegation",
      "outputs": [
        {
          "internalType": "contract IDelegationManager",
          "name": "",
          "type": "address"
        }
      ],
      "stateMutability": "view",
      "type": "function"
    },
    {
      "inputs": [
        {
          "internalType": "bytes32",
          "name": "operatorId",
          "type": "bytes32"
        },
        {
          "internalType": "bytes",
          "name": "quorumNumbers",
          "type": "bytes"
        }
      ],
      "name": "deregisterOperator",
      "outputs": [],
      "stateMutability": "nonpayable",
      "type": "function"
    },
    {
      "inputs": [
        {
          "internalType": "bytes32",
          "name": "operatorId",
          "type": "bytes32"
        },
        {
          "internalType": "uint8",
          "name": "quorumNumber",
          "type": "uint8"
        }
      ],
      "name": "getCurrentStake",
      "outputs": [
        {
          "internalType": "uint96",
          "name": "",
          "type": "uint96"
        }
      ],
      "stateMutability": "view",
      "type": "function"
    },
    {
      "inputs": [
        {
          "internalType": "uint8",
          "name": "quorumNumber",
          "type": "uint8"
        }
      ],
      "name": "getCurrentTotalStake",
      "outputs": [
        {
          "internalType": "uint96",
          "name": "",
          "type": "uint96"
        }
      ],
      "stateMutability": "view",
      "type": "function"
    },
    {
      "inputs": [
        {
          "internalType": "bytes32",
          "name": "operatorId",
          "type": "bytes32"
        },
        {
          "internalType": "uint8",
          "name": "quorumNumber",
          "type": "uint8"
        }
      ],
      "name": "getLatestStakeUpdate",
      "outputs": [
        {
          "components": [
            {
              "internalType": "uint32",
              "name": "updateBlockNumber",
              "type": "uint32"
            },
            {
              "internalType": "uint32",
              "name": "nextUpdateBlockNumber",
              "type": "uint32"
            },
            {
              "internalType": "uint96",
              "name": "stake",
              "type": "uint96"
            }
          ],
          "internalType": "struct IStakeRegistry.StakeUpdate",
          "name": "",
          "type": "tuple"
        }
      ],
      "stateMutability": "view",
      "type": "function"
    },
    {
      "inputs": [
        {
          "internalType": "address",
          "name": "operator",
          "type": "address"
        }
      ],
      "name": "getMockOperatorId",
      "outputs": [
        {
          "internalType": "bytes32",
          "name": "",
          "type": "bytes32"
        }
      ],
      "stateMutability": "pure",
      "type": "function"
    },
    {
      "inputs": [
        {
          "internalType": "bytes32",
          "name": "operatorId",
          "type": "bytes32"
        },
        {
          "internalType": "uint8",
          "name": "quorumNumber",
          "type": "uint8"
        },
        {
          "internalType": "uint32",
          "name": "blockNumber",
          "type": "uint32"
        }
      ],
      "name": "getStakeAtBlockNumber",
      "outputs": [
        {
          "internalType": "uint96",
          "name": "",
          "type": "uint96"
        }
      ],
      "stateMutability": "view",
      "type": "function"
    },
    {
      "inputs": [
        {
          "internalType": "uint8",
          "name": "quorumNumber",
          "type": "uint8"
        },
        {
          "internalType": "uint32",
          "name": "blockNumber",
          "type": "uint32"
        },
        {
          "internalType": "bytes32",
          "name": "operatorId",
          "type": "bytes32"
        },
        {
          "internalType": "uint256",
          "name": "index",
          "type": "uint256"
        }
      ],
      "name": "getStakeAtBlockNumberAndIndex",
      "outputs": [
        {
          "internalType": "uint96",
          "name": "",
          "type": "uint96"
        }
      ],
      "stateMutability": "view",
      "type": "function"
    },
    {
      "inputs": [
        {
          "internalType": "bytes32",
          "name": "operatorId",
          "type": "bytes32"
        },
        {
          "internalType": "uint8",
          "name": "quorumNumber",
          "type": "uint8"
        }
      ],
      "name": "getStakeHistory",
      "outputs": [
        {
          "components": [
            {
              "internalType": "uint32",
              "name": "updateBlockNumber",
              "type": "uint32"
            },
            {
              "internalType": "uint32",
              "name": "nextUpdateBlockNumber",
              "type": "uint32"
            },
            {
              "internalType": "uint96",
              "name": "stake",
              "type": "uint96"
            }
          ],
          "internalType": "struct IStakeRegistry.StakeUpdate[]",
          "name": "",
          "type": "tuple[]"
        }
      ],
      "stateMutability": "view",
      "type": "function"
    },
    {
      "inputs": [
        {
          "internalType": "uint8",
          "name": "quorumNumber",
          "type": "uint8"
        },
        {
          "internalType": "bytes32",
          "name": "operatorId",
          "type": "bytes32"
        },
        {
          "internalType": "uint256",
          "name": "index",
          "type": "uint256"
        }
      ],
      "name": "getStakeUpdateAtIndex",
      "outputs": [
        {
          "components": [
            {
              "internalType": "uint32",
              "name": "updateBlockNumber",
              "type": "uint32"
            },
            {
              "internalType": "uint32",
              "name": "nextUpdateBlockNumber",
              "type": "uint32"
            },
            {
              "internalType": "uint96",
              "name": "stake",
              "type": "uint96"
            }
          ],
          "internalType": "struct IStakeRegistry.StakeUpdate",
          "name": "",
          "type": "tuple"
        }
      ],
      "stateMutability": "view",
      "type": "function"
    },
    {
      "inputs": [
        {
          "internalType": "bytes32",
          "name": "operatorId",
          "type": "bytes32"
        },
        {
          "internalType": "uint8",
          "name": "quorumNumber",
          "type": "uint8"
        },
        {
          "internalType": "uint32",
          "name": "blockNumber",
          "type": "uint32"
        }
      ],
      "name": "getStakeUpdateIndexAtBlockNumber",
      "outputs": [
        {
          "internalType": "uint32",
          "name": "",
          "type": "uint32"
        }
      ],
      "stateMutability": "view",
      "type": "function"
    },
    {
      "inputs": [
        {
          "internalType": "uint8",
          "name": "quorumNumber",
          "type": "uint8"
        },
        {
          "internalType": "uint32",
          "name": "blockNumber",
          "type": "uint32"
        },
        {
          "internalType": "uint256",
          "name": "index",
          "type": "uint256"
        }
      ],
      "name": "getTotalStakeAtBlockNumberFromIndex",
      "outputs": [
        {
          "internalType": "uint96",
          "name": "",
          "type": "uint96"
        }
      ],
      "stateMutability": "view",
      "type": "function"
    },
    {
      "inputs": [
        {
          "internalType": "uint8",
          "name": "quorumNumber",
          "type": "uint8"
        }
      ],
      "name": "getTotalStakeHistoryLength",
      "outputs": [
        {
          "internalType": "uint256",
          "name": "",
          "type": "uint256"
        }
      ],
      "stateMutability": "view",
      "type": "function"
    },
    {
      "inputs": [
        {
          "internalType": "uint32",
          "name": "blockNumber",
          "type": "uint32"
        },
        {
          "internalType": "bytes",
          "name": "quorumNumbers",
          "type": "bytes"
        }
      ],
      "name": "getTotalStakeIndicesAtBlockNumber",
      "outputs": [
        {
          "internalType": "uint32[]",
          "name": "",
          "type": "uint32[]"
        }
      ],
      "stateMutability": "view",
      "type": "function"
    },
    {
      "inputs": [
        {
          "internalType": "uint8",
          "name": "quorumNumber",
          "type": "uint8"
        },
        {
          "internalType": "uint256",
          "name": "index",
          "type": "uint256"
        }
      ],
      "name": "getTotalStakeUpdateAtIndex",
      "outputs": [
        {
          "components": [
            {
              "internalType": "uint32",
              "name": "updateBlockNumber",
              "type": "uint32"
            },
            {
              "internalType": "uint32",
              "name": "nextUpdateBlockNumber",
              "type": "uint32"
            },
            {
              "internalType": "uint96",
              "name": "stake",
              "type": "uint96"
            }
          ],
          "internalType": "struct IStakeRegistry.StakeUpdate",
          "name": "",
          "type": "tuple"
        }
      ],
      "stateMutability": "view",
      "type": "function"
    },
    {
      "inputs": [
        {
          "internalType": "uint8",
          "name": "quorumNumber",
          "type": "uint8"
        },
        {
          "internalType": "uint96",
          "name": "minimumStake",
          "type": "uint96"
        },
        {
          "components": [
            {
              "internalType": "contract IStrategy",
              "name": "strategy",
              "type": "address"
            },
            {
              "internalType": "uint96",
              "name": "multiplier",
              "type": "uint96"
            }
          ],
          "internalType": "struct IStakeRegistry.StrategyParams[]",
          "name": "strategyParams",
          "type": "tuple[]"
        }
      ],
      "name": "initializeQuorum",
      "outputs": [],
      "stateMutability": "nonpayable",
      "type": "function"
    },
    {
      "inputs": [
        {
          "internalType": "uint8",
          "name": "quorumNumber",
          "type": "uint8"
        }
      ],
      "name": "minimumStakeForQuorum",
      "outputs": [
        {
          "internalType": "uint96",
          "name": "",
          "type": "uint96"
        }
      ],
      "stateMutability": "view",
      "type": "function"
    },
    {
      "inputs": [
        {
          "internalType": "uint8",
          "name": "quorumNumber",
          "type": "uint8"
        },
        {
          "internalType": "uint256[]",
          "name": "strategyIndices",
          "type": "uint256[]"
        },
        {
          "internalType": "uint96[]",
          "name": "newMultipliers",
          "type": "uint96[]"
        }
      ],
      "name": "modifyStrategyParams",
      "outputs": [],
      "stateMutability": "nonpayable",
      "type": "function"
    },
    {
      "inputs": [
        {
          "internalType": "address",
          "name": "operator",
          "type": "address"
        },
        {
          "internalType": "bytes32",
          "name": "operatorId",
          "type": "bytes32"
        },
        {
          "internalType": "bytes",
          "name": "quorumNumbers",
          "type": "bytes"
        }
      ],
      "name": "registerOperator",
      "outputs": [
        {
          "internalType": "uint96[]",
          "name": "",
          "type": "uint96[]"
        },
        {
          "internalType": "uint96[]",
          "name": "",
          "type": "uint96[]"
        }
      ],
      "stateMutability": "nonpayable",
      "type": "function"
    },
    {
      "inputs": [],
      "name": "registryCoordinator",
      "outputs": [
        {
          "internalType": "address",
          "name": "",
          "type": "address"
        }
      ],
      "stateMutability": "view",
      "type": "function"
    },
    {
      "inputs": [
        {
          "internalType": "uint8",
          "name": "quorumNumber",
          "type": "uint8"
        },
        {
          "internalType": "uint256[]",
          "name": "indicesToRemove",
          "type": "uint256[]"
        }
      ],
      "name": "removeStrategies",
      "outputs": [],
      "stateMutability": "nonpayable",
      "type": "function"
    },
    {
      "inputs": [
        {
          "internalType": "uint192",
          "name": "newValue",
          "type": "uint192"
        }
      ],
      "name": "set_updateOperatorStakeReturnBitmap",
      "outputs": [],
      "stateMutability": "nonpayable",
      "type": "function"
    },
    {
      "inputs": [
        {
          "internalType": "uint8",
          "name": "quorumNumber",
          "type": "uint8"
        },
        {
          "internalType": "uint256",
          "name": "index",
          "type": "uint256"
        }
      ],
      "name": "strategyParamsByIndex",
      "outputs": [
        {
          "components": [
            {
              "internalType": "contract IStrategy",
              "name": "strategy",
              "type": "address"
            },
            {
              "internalType": "uint96",
              "name": "multiplier",
              "type": "uint96"
            }
          ],
          "internalType": "struct IStakeRegistry.StrategyParams",
          "name": "",
          "type": "tuple"
        }
      ],
      "stateMutability": "view",
      "type": "function"
    },
    {
      "inputs": [
        {
          "internalType": "uint8",
          "name": "quorumNumber",
          "type": "uint8"
        }
      ],
      "name": "strategyParamsLength",
      "outputs": [
        {
          "internalType": "uint256",
          "name": "",
          "type": "uint256"
        }
      ],
      "stateMutability": "view",
      "type": "function"
    },
    {
      "inputs": [
        {
          "internalType": "address",
          "name": "",
          "type": "address"
        },
        {
          "internalType": "bytes32",
          "name": "",
          "type": "bytes32"
        },
        {
          "internalType": "bytes",
          "name": "",
          "type": "bytes"
        }
      ],
      "name": "updateOperatorStake",
      "outputs": [
        {
          "internalType": "uint192",
          "name": "",
          "type": "uint192"
        }
      ],
      "stateMutability": "nonpayable",
      "type": "function"
    },
    {
      "inputs": [
        {
          "internalType": "uint8",
          "name": "quorumNumber",
          "type": "uint8"
        },
        {
          "internalType": "address",
          "name": "operator",
          "type": "address"
        }
      ],
      "name": "weightOfOperatorForQuorum",
      "outputs": [
        {
          "internalType": "uint96",
          "name": "",
          "type": "uint96"
        }
      ],
      "stateMutability": "view",
      "type": "function"
    }
  ],
  "bytecode": {
    "object": "0x608060405234801561001057600080fd5b50610dad806100206000396000f3fe608060405234801561001057600080fd5b50600436106101c45760003560e01c8063ac6bfb03116100f9578063d5eccc0511610097578063f2be94ae11610071578063f2be94ae14610480578063f851e19814610498578063fa28c627146104a6578063ff694a77146104b457600080fd5b8063d5eccc051461042a578063dd9846b91461045d578063df5cf7231461037257600080fd5b8063bd29b8cd116100d3578063bd29b8cd14610418578063c46778a51461042a578063c601527d14610438578063c8294c561461044657600080fd5b8063ac6bfb03146103a5578063adc804da146103c5578063b6904b781461040557600080fd5b80634c51bf91116101665780635f1f2d77116101405780635f1f2d771461032557806366acfefe146103385780636d14a9871461037257806381c075021461038157600080fd5b80634c51bf91146102e05780635401ed27146103105780635e5a67751461031e57600080fd5b8063224a3c39116101a2578063224a3c391461023557806325504777146102965780632cd95940146102bd5780633ca5a5f5146101c957600080fd5b80630491b41c146101c95780631f9b74e0146101f057806320b662981461021e575b600080fd5b6101dd6101d736600461053a565b50600090565b6040519081526020015b60405180910390f35b6102066101fe36600461056d565b600092915050565b6040516001600160601b0390911681526020016101e7565b61023361022c3660046105ef565b5050505050565b005b6101dd61024336600461066f565b6040516bffffffffffffffffffffffff19606083901b166020820152691bdc195c985d1bdc925960b21b6034820152600090603e0160408051601f19818403018152919052805160209091012092915050565b6102af6102a4366004610769565b606080935093915050565b6040516101e7929190610805565b6102d36102cb366004610833565b606092915050565b6040516101e7919061085f565b6102336102ee3660046108d7565b600080546001600160c01b0319166001600160c01b0392909216919091179055565b6102066101fe366004610833565b60006101dd565b610233610333366004610900565b505050565b61035a610346366004610993565b6000546001600160c01b0316949350505050565b6040516001600160c01b0390911681526020016101e7565b604051600081526020016101e7565b61039861038f366004610a02565b60609392505050565b6040516101e79190610a47565b6103b86103b3366004610a85565b6104c2565b6040516101e79190610ab8565b6103d86103d3366004610aed565b6104e7565b6040805182516001600160a01b031681526020928301516001600160601b031692810192909252016101e7565b6103b8610413366004610aed565b610502565b610233610426366004610b17565b5050565b6102066101d736600461053a565b610233610426366004610c27565b610206610454366004610c6a565b60009392505050565b61046b610454366004610ca6565b60405163ffffffff90911681526020016101e7565b61020661048e366004610ce2565b6000949350505050565b6103b8610413366004610833565b610206610454366004610ca6565b610233610333366004610d24565b60408051606081018252600080825260208201819052918101919091525b9392505050565b60408051808201909152600080825260208201525b92915050565b60408051606081018252600080825260208201819052918101919091526104fc565b803560ff8116811461053557600080fd5b919050565b60006020828403121561054c57600080fd5b6104e082610524565b6001600160a01b038116811461056a57600080fd5b50565b6000806040838503121561058057600080fd5b61058983610524565b9150602083013561059981610555565b809150509250929050565b60008083601f8401126105b657600080fd5b5081356001600160401b038111156105cd57600080fd5b6020830191508360208260051b85010111156105e857600080fd5b9250929050565b60008060008060006060868803121561060757600080fd5b61061086610524565b945060208601356001600160401b038082111561062c57600080fd5b61063889838a016105a4565b9096509450604088013591508082111561065157600080fd5b5061065e888289016105a4565b969995985093965092949392505050565b60006020828403121561068157600080fd5b81356104e081610555565b634e487b7160e01b600052604160045260246000fd5b604080519081016001600160401b03811182821017156106c4576106c461068c565b60405290565b604051601f8201601f191681016001600160401b03811182821017156106f2576106f261068c565b604052919050565b600082601f83011261070b57600080fd5b81356001600160401b038111156107245761072461068c565b610737601f8201601f19166020016106ca565b81815284602083860101111561074c57600080fd5b816020850160208301376000918101602001919091529392505050565b60008060006060848603121561077e57600080fd5b833561078981610555565b92506020840135915060408401356001600160401b038111156107ab57600080fd5b6107b7868287016106fa565b9150509250925092565b600081518084526020808501945080840160005b838110156107fa5781516001600160601b0316875295820195908201906001016107d5565b509495945050505050565b60408152600061081860408301856107c1565b828103602084015261082a81856107c1565b95945050505050565b6000806040838503121561084657600080fd5b8235915061085660208401610524565b90509250929050565b6020808252825182820181905260009190848201906040850190845b818110156108cb576108b883855163ffffffff808251168352806020830151166020840152506001600160601b0360408201511660408301525050565b928401926060929092019160010161087b565b50909695505050505050565b6000602082840312156108e957600080fd5b81356001600160c01b03811681146104e057600080fd5b60008060006040848603121561091557600080fd5b61091e84610524565b925060208401356001600160401b0381111561093957600080fd5b610945868287016105a4565b9497909650939450505050565b60008083601f84011261096457600080fd5b5081356001600160401b0381111561097b57600080fd5b6020830191508360208285010111156105e857600080fd5b600080600080606085870312156109a957600080fd5b84356109b481610555565b93506020850135925060408501356001600160401b038111156109d657600080fd5b6109e287828801610952565b95989497509550505050565b803563ffffffff8116811461053557600080fd5b600080600060408486031215610a1757600080fd5b610a20846109ee565b925060208401356001600160401b03811115610a3b57600080fd5b61094586828701610952565b6020808252825182820181905260009190848201906040850190845b818110156108cb57835163ffffffff1683529284019291840191600101610a63565b600080600060608486031215610a9a57600080fd5b610aa384610524565b95602085013595506040909401359392505050565b815163ffffffff9081168252602080840151909116908201526040808301516001600160601b031690820152606081016104fc565b60008060408385031215610b0057600080fd5b610b0983610524565b946020939093013593505050565b60008060408385031215610b2a57600080fd5b8235915060208301356001600160401b03811115610b4757600080fd5b610b53858286016106fa565b9150509250929050565b80356001600160601b038116811461053557600080fd5b600082601f830112610b8557600080fd5b813560206001600160401b03821115610ba057610ba061068c565b610bae818360051b016106ca565b82815260069290921b84018101918181019086841115610bcd57600080fd5b8286015b84811015610c1c5760408189031215610bea5760008081fd5b610bf26106a2565b8135610bfd81610555565b8152610c0a828601610b5d565b81860152835291830191604001610bd1565b509695505050505050565b60008060408385031215610c3a57600080fd5b610c4383610524565b915060208301356001600160401b03811115610c5e57600080fd5b610b5385828601610b74565b600080600060608486031215610c7f57600080fd5b610c8884610524565b9250610c96602085016109ee565b9150604084013590509250925092565b600080600060608486031215610cbb57600080fd5b83359250610ccb60208501610524565b9150610cd9604085016109ee565b90509250925092565b60008060008060808587031215610cf857600080fd5b610d0185610524565b9350610d0f602086016109ee565b93969395505050506040820135916060013590565b600080600060608486031215610d3957600080fd5b610d4284610524565b9250610d5060208501610b5d565b915060408401356001600160401b03811115610d6b57600080fd5b6107b786828701610b7456fea2646970667358221220256bb32304683ba788a2835e8eb2bf41e6f7e23444c8351eac040a8ce070567064736f6c634300080c0033",
    "linkReferences": {}
  },
  "methodIdentifiers": {
    "WEIGHTING_DIVISOR()": "5e5a6775",
    "addStrategies(uint8,(address,uint96)[])": "c601527d",
    "delegation()": "df5cf723",
    "deregisterOperator(bytes32,bytes)": "bd29b8cd",
    "getCurrentStake(bytes32,uint8)": "5401ed27",
    "getCurrentTotalStake(uint8)": "d5eccc05",
    "getLatestStakeUpdate(bytes32,uint8)": "f851e198",
    "getMockOperatorId(address)": "224a3c39",
    "getStakeAtBlockNumber(bytes32,uint8,uint32)": "fa28c627",
    "getStakeAtBlockNumberAndIndex(uint8,uint32,bytes32,uint256)": "f2be94ae",
    "getStakeHistory(bytes32,uint8)": "2cd95940",
    "getStakeUpdateAtIndex(uint8,bytes32,uint256)": "ac6bfb03",
    "getStakeUpdateIndexAtBlockNumber(bytes32,uint8,uint32)": "dd9846b9",
    "getTotalStakeAtBlockNumberFromIndex(uint8,uint32,uint256)": "c8294c56",
    "getTotalStakeHistoryLength(uint8)": "0491b41c",
    "getTotalStakeIndicesAtBlockNumber(uint32,bytes)": "81c07502",
    "getTotalStakeUpdateAtIndex(uint8,uint256)": "b6904b78",
    "initializeQuorum(uint8,uint96,(address,uint96)[])": "ff694a77",
    "minimumStakeForQuorum(uint8)": "c46778a5",
    "modifyStrategyParams(uint8,uint256[],uint96[])": "20b66298",
    "registerOperator(address,bytes32,bytes)": "25504777",
    "registryCoordinator()": "6d14a987",
    "removeStrategies(uint8,uint256[])": "5f1f2d77",
    "set_updateOperatorStakeReturnBitmap(uint192)": "4c51bf91",
    "strategyParamsByIndex(uint8,uint256)": "adc804da",
    "strategyParamsLength(uint8)": "3ca5a5f5",
    "updateOperatorStake(address,bytes32,bytes)": "66acfefe",
    "weightOfOperatorForQuorum(uint8,address)": "1f9b74e0"
  },
  "id": 141
}