{
  "abi": [
    {
      "inputs": [
        {
          "internalType": "contract IRegistryCoordinator",
          "name": "_registryCoordinator",
          "type": "address"
        }
      ],
      "stateMutability": "nonpayable",
      "type": "constructor"
    },
    {
      "anonymous": false,
      "inputs": [
        {
          "indexed": false,
          "internalType": "uint8",
          "name": "version",
          "type": "uint8"
        }
      ],
      "name": "Initialized",
      "type": "event"
    },
    {
      "anonymous": false,
      "inputs": [
        {
          "indexed": true,
          "internalType": "address",
          "name": "operator",
          "type": "address"
        },
        {
          "components": [
            {
              "internalType": "uint256",
              "name": "X",
              "type": "uint256"
            },
            {
              "internalType": "uint256",
              "name": "Y",
              "type": "uint256"
            }
          ],
          "indexed": false,
          "internalType": "struct BN254.G1Point",
          "name": "pubkeyG1",
          "type": "tuple"
        },
        {
          "components": [
            {
              "internalType": "uint256[2]",
              "name": "X",
              "type": "uint256[2]"
            },
            {
              "internalType": "uint256[2]",
              "name": "Y",
              "type": "uint256[2]"
            }
          ],
          "indexed": false,
          "internalType": "struct BN254.G2Point",
          "name": "pubkeyG2",
          "type": "tuple"
        }
      ],
      "name": "NewPubkeyRegistration",
      "type": "event"
    },
    {
      "anonymous": false,
      "inputs": [
        {
          "indexed": false,
          "internalType": "address",
          "name": "operator",
          "type": "address"
        },
        {
          "indexed": false,
          "internalType": "bytes",
          "name": "quorumNumbers",
          "type": "bytes"
        }
      ],
      "name": "OperatorAddedToQuorums",
      "type": "event"
    },
    {
      "anonymous": false,
      "inputs": [
        {
          "indexed": false,
          "internalType": "address",
          "name": "operator",
          "type": "address"
        },
        {
          "indexed": false,
          "internalType": "bytes",
          "name": "quorumNumbers",
          "type": "bytes"
        }
      ],
      "name": "OperatorRemovedFromQuorums",
      "type": "event"
    },
    {
      "inputs": [
        {
          "internalType": "uint8",
          "name": "",
          "type": "uint8"
        },
        {
          "internalType": "uint256",
          "name": "",
          "type": "uint256"
        }
      ],
      "name": "apkHistory",
      "outputs": [
        {
          "internalType": "bytes24",
          "name": "apkHash",
          "type": "bytes24"
        },
        {
          "internalType": "uint32",
          "name": "updateBlockNumber",
          "type": "uint32"
        },
        {
          "internalType": "uint32",
          "name": "nextUpdateBlockNumber",
          "type": "uint32"
        }
      ],
      "stateMutability": "view",
      "type": "function"
    },
    {
      "inputs": [
        {
          "internalType": "uint8",
          "name": "",
          "type": "uint8"
        }
      ],
      "name": "currentApk",
      "outputs": [
        {
          "internalType": "uint256",
          "name": "X",
          "type": "uint256"
        },
        {
          "internalType": "uint256",
          "name": "Y",
          "type": "uint256"
        }
      ],
      "stateMutability": "view",
      "type": "function"
    },
    {
      "inputs": [
        {
          "internalType": "address",
          "name": "operator",
          "type": "address"
        },
        {
          "internalType": "bytes",
          "name": "quorumNumbers",
          "type": "bytes"
        }
      ],
      "name": "deregisterOperator",
      "outputs": [],
      "stateMutability": "nonpayable",
      "type": "function"
    },
    {
      "inputs": [
        {
          "internalType": "uint8",
          "name": "quorumNumber",
          "type": "uint8"
        }
      ],
      "name": "getApk",
      "outputs": [
        {
          "components": [
            {
              "internalType": "uint256",
              "name": "X",
              "type": "uint256"
            },
            {
              "internalType": "uint256",
              "name": "Y",
              "type": "uint256"
            }
          ],
          "internalType": "struct BN254.G1Point",
          "name": "",
          "type": "tuple"
        }
      ],
      "stateMutability": "view",
      "type": "function"
    },
    {
      "inputs": [
        {
          "internalType": "uint8",
          "name": "quorumNumber",
          "type": "uint8"
        },
        {
          "internalType": "uint32",
          "name": "blockNumber",
          "type": "uint32"
        },
        {
          "internalType": "uint256",
          "name": "index",
          "type": "uint256"
        }
      ],
      "name": "getApkHashAtBlockNumberAndIndex",
      "outputs": [
        {
          "internalType": "bytes24",
          "name": "",
          "type": "bytes24"
        }
      ],
      "stateMutability": "view",
      "type": "function"
    },
    {
      "inputs": [
        {
          "internalType": "uint8",
          "name": "quorumNumber",
          "type": "uint8"
        }
      ],
      "name": "getApkHistoryLength",
      "outputs": [
        {
          "internalType": "uint32",
          "name": "",
          "type": "uint32"
        }
      ],
      "stateMutability": "view",
      "type": "function"
    },
    {
      "inputs": [
        {
          "internalType": "bytes",
          "name": "quorumNumbers",
          "type": "bytes"
        },
        {
          "internalType": "uint256",
          "name": "blockNumber",
          "type": "uint256"
        }
      ],
      "name": "getApkIndicesAtBlockNumber",
      "outputs": [
        {
          "internalType": "uint32[]",
          "name": "",
          "type": "uint32[]"
        }
      ],
      "stateMutability": "view",
      "type": "function"
    },
    {
      "inputs": [
        {
          "internalType": "uint8",
          "name": "quorumNumber",
          "type": "uint8"
        },
        {
          "internalType": "uint256",
          "name": "index",
          "type": "uint256"
        }
      ],
      "name": "getApkUpdateAtIndex",
      "outputs": [
        {
          "components": [
            {
              "internalType": "bytes24",
              "name": "apkHash",
              "type": "bytes24"
            },
            {
              "internalType": "uint32",
              "name": "updateBlockNumber",
              "type": "uint32"
            },
            {
              "internalType": "uint32",
              "name": "nextUpdateBlockNumber",
              "type": "uint32"
            }
          ],
          "internalType": "struct IBLSApkRegistry.ApkUpdate",
          "name": "",
          "type": "tuple"
        }
      ],
      "stateMutability": "view",
      "type": "function"
    },
    {
      "inputs": [
        {
          "internalType": "bytes32",
          "name": "pubkeyHash",
          "type": "bytes32"
        }
      ],
      "name": "getOperatorFromPubkeyHash",
      "outputs": [
        {
          "internalType": "address",
          "name": "",
          "type": "address"
        }
      ],
      "stateMutability": "view",
      "type": "function"
    },
    {
      "inputs": [
        {
          "internalType": "address",
          "name": "operator",
          "type": "address"
        }
      ],
      "name": "getOperatorId",
      "outputs": [
        {
          "internalType": "bytes32",
          "name": "",
          "type": "bytes32"
        }
      ],
      "stateMutability": "view",
      "type": "function"
    },
    {
      "inputs": [
        {
          "internalType": "address",
          "name": "operator",
          "type": "address"
        }
      ],
      "name": "getRegisteredPubkey",
      "outputs": [
        {
          "components": [
            {
              "internalType": "uint256",
              "name": "X",
              "type": "uint256"
            },
            {
              "internalType": "uint256",
              "name": "Y",
              "type": "uint256"
            }
          ],
          "internalType": "struct BN254.G1Point",
          "name": "",
          "type": "tuple"
        },
        {
          "internalType": "bytes32",
          "name": "",
          "type": "bytes32"
        }
      ],
      "stateMutability": "view",
      "type": "function"
    },
    {
      "inputs": [
        {
          "internalType": "uint8",
          "name": "quorumNumber",
          "type": "uint8"
        }
      ],
      "name": "initializeQuorum",
      "outputs": [],
      "stateMutability": "nonpayable",
      "type": "function"
    },
    {
      "inputs": [
        {
          "internalType": "address",
          "name": "",
          "type": "address"
        }
      ],
      "name": "operatorToPubkey",
      "outputs": [
        {
          "internalType": "uint256",
          "name": "X",
          "type": "uint256"
        },
        {
          "internalType": "uint256",
          "name": "Y",
          "type": "uint256"
        }
      ],
      "stateMutability": "view",
      "type": "function"
    },
    {
      "inputs": [
        {
          "internalType": "address",
          "name": "",
          "type": "address"
        }
      ],
      "name": "operatorToPubkeyHash",
      "outputs": [
        {
          "internalType": "bytes32",
          "name": "",
          "type": "bytes32"
        }
      ],
      "stateMutability": "view",
      "type": "function"
    },
    {
      "inputs": [
        {
          "internalType": "bytes32",
          "name": "",
          "type": "bytes32"
        }
      ],
      "name": "pubkeyHashToOperator",
      "outputs": [
        {
          "internalType": "address",
          "name": "",
          "type": "address"
        }
      ],
      "stateMutability": "view",
      "type": "function"
    },
    {
      "inputs": [
        {
          "internalType": "address",
          "name": "operator",
          "type": "address"
        },
        {
          "components": [
            {
              "components": [
                {
                  "internalType": "uint256",
                  "name": "X",
                  "type": "uint256"
                },
                {
                  "internalType": "uint256",
                  "name": "Y",
                  "type": "uint256"
                }
              ],
              "internalType": "struct BN254.G1Point",
              "name": "pubkeyRegistrationSignature",
              "type": "tuple"
            },
            {
              "components": [
                {
                  "internalType": "uint256",
                  "name": "X",
                  "type": "uint256"
                },
                {
                  "internalType": "uint256",
                  "name": "Y",
                  "type": "uint256"
                }
              ],
              "internalType": "struct BN254.G1Point",
              "name": "pubkeyG1",
              "type": "tuple"
            },
            {
              "components": [
                {
                  "internalType": "uint256[2]",
                  "name": "X",
                  "type": "uint256[2]"
                },
                {
                  "internalType": "uint256[2]",
                  "name": "Y",
                  "type": "uint256[2]"
                }
              ],
              "internalType": "struct BN254.G2Point",
              "name": "pubkeyG2",
              "type": "tuple"
            }
          ],
          "internalType": "struct IBLSApkRegistry.PubkeyRegistrationParams",
          "name": "params",
          "type": "tuple"
        },
        {
          "components": [
            {
              "internalType": "uint256",
              "name": "X",
              "type": "uint256"
            },
            {
              "internalType": "uint256",
              "name": "Y",
              "type": "uint256"
            }
          ],
          "internalType": "struct BN254.G1Point",
          "name": "pubkeyRegistrationMessageHash",
          "type": "tuple"
        }
      ],
      "name": "registerBLSPublicKey",
      "outputs": [
        {
          "internalType": "bytes32",
          "name": "operatorId",
          "type": "bytes32"
        }
      ],
      "stateMutability": "nonpayable",
      "type": "function"
    },
    {
      "inputs": [
        {
          "internalType": "address",
          "name": "operator",
          "type": "address"
        },
        {
          "internalType": "bytes",
          "name": "quorumNumbers",
          "type": "bytes"
        }
      ],
      "name": "registerOperator",
      "outputs": [],
      "stateMutability": "nonpayable",
      "type": "function"
    },
    {
      "inputs": [],
      "name": "registryCoordinator",
      "outputs": [
        {
          "internalType": "address",
          "name": "",
          "type": "address"
        }
      ],
      "stateMutability": "view",
      "type": "function"
    }
  ],
  "bytecode": {
    "object": "0x60a06040523480156200001157600080fd5b50604051620020d4380380620020d4833981016040819052620000349162000116565b6001600160a01b038116608052806200004c62000054565b505062000148565b600054610100900460ff1615620000c15760405162461bcd60e51b815260206004820152602760248201527f496e697469616c697a61626c653a20636f6e747261637420697320696e697469604482015266616c697a696e6760c81b606482015260840160405180910390fd5b60005460ff908116101562000114576000805460ff191660ff9081179091556040519081527f7f26b83ff96e1f2b6a682f133852f6798a09c465da95921460cefb38474024989060200160405180910390a15b565b6000602082840312156200012957600080fd5b81516001600160a01b03811681146200014157600080fd5b9392505050565b608051611f54620001806000396000818161030f01528181610466015281816105bf015281816109a501526110110152611f546000f3fe608060405234801561001057600080fd5b50600436106101155760003560e01c80636d14a987116100a2578063bf79ce5811610071578063bf79ce58146103cc578063d5254a8c146103df578063de29fac0146103ff578063e8bb9ae61461041f578063f4e24fe51461044857600080fd5b80636d14a9871461030a5780637916cea6146103315780637ff81a8714610372578063a3db80e2146103a557600080fd5b80633fb27952116100e95780633fb27952146101df57806347b314e8146101f25780635f61a88414610233578063605747d51461028f57806368bccaac146102dd57600080fd5b8062a1f4cb1461011a57806313542a4e1461015b57806326d941f214610192578063377ed99d146101a7575b600080fd5b6101416101283660046118d4565b6003602052600090815260409020805460019091015482565b604080519283526020830191909152015b60405180910390f35b6101846101693660046118d4565b6001600160a01b031660009081526001602052604090205490565b604051908152602001610152565b6101a56101a0366004611907565b61045b565b005b6101ca6101b5366004611907565b60ff1660009081526004602052604090205490565b60405163ffffffff9091168152602001610152565b6101a56101ed366004611992565b6105b4565b61021b610200366004611a38565b6000908152600260205260409020546001600160a01b031690565b6040516001600160a01b039091168152602001610152565b610282610241366004611907565b60408051808201909152600080825260208201525060ff16600090815260056020908152604091829020825180840190935280548352600101549082015290565b6040516101529190611a51565b6102a261029d366004611a68565b610652565b60408051825167ffffffffffffffff1916815260208084015163ffffffff908116918301919091529282015190921690820152606001610152565b6102f06102eb366004611a92565b6106e5565b60405167ffffffffffffffff199091168152602001610152565b61021b7f000000000000000000000000000000000000000000000000000000000000000081565b61034461033f366004611a68565b610880565b6040805167ffffffffffffffff19909416845263ffffffff9283166020850152911690820152606001610152565b6103856103803660046118d4565b6108cb565b604080518351815260209384015193810193909352820152606001610152565b6101416103b3366004611907565b6005602052600090815260409020805460019091015482565b6101846103da366004611ada565b610998565b6103f26103ed366004611b37565b610dec565b6040516101529190611baf565b61018461040d3660046118d4565b60016020526000908152604090205481565b61021b61042d366004611a38565b6002602052600090815260409020546001600160a01b031681565b6101a5610456366004611992565b611006565b336001600160a01b037f000000000000000000000000000000000000000000000000000000000000000016146104ac5760405162461bcd60e51b81526004016104a390611bf9565b60405180910390fd5b60ff81166000908152600460205260409020541561052b5760405162461bcd60e51b815260206004820152603660248201527f424c5341706b52656769737472792e696e697469616c697a6551756f72756d3a6044820152752071756f72756d20616c72656164792065786973747360501b60648201526084016104a3565b60ff166000908152600460209081526040808320815160608101835284815263ffffffff4381168286019081528285018781528454600181018655948852959096209151919092018054955194518316600160e01b026001600160e01b0395909316600160c01b026001600160e01b03199096169190931c179390931791909116919091179055565b336001600160a01b037f000000000000000000000000000000000000000000000000000000000000000016146105fc5760405162461bcd60e51b81526004016104a390611bf9565b6000610607836108cb565b509050610614828261109f565b7f5358c5b42179178c8fc757734ac2a3198f9071c765ee0d8389211525f50052468383604051610645929190611c6d565b60405180910390a1505050565b604080516060810182526000808252602080830182905282840182905260ff86168252600490529190912080548390811061068f5761068f611cd2565b600091825260209182902060408051606081018252919092015467ffffffffffffffff1981841b16825263ffffffff600160c01b8204811694830194909452600160e01b90049092169082015290505b92915050565b60ff8316600090815260046020526040812080548291908490811061070c5761070c611cd2565b600091825260209182902060408051606081018252919092015467ffffffffffffffff1981841b16825263ffffffff600160c01b82048116948301859052600160e01b9091048116928201929092529250851610156107d35760405162461bcd60e51b815260206004820152603e60248201527f424c5341706b52656769737472792e5f76616c696461746541706b486173684160448201527f74426c6f636b4e756d6265723a20696e64657820746f6f20726563656e74000060648201526084016104a3565b604081015163ffffffff1615806107f95750806040015163ffffffff168463ffffffff16105b6108775760405162461bcd60e51b815260206004820152604360248201527f424c5341706b52656769737472792e5f76616c696461746541706b486173684160448201527f74426c6f636b4e756d6265723a206e6f74206c61746573742061706b2075706460648201526261746560e81b608482015260a4016104a3565b51949350505050565b6004602052816000526040600020818154811061089c57600080fd5b600091825260209091200154604081901b925063ffffffff600160c01b820481169250600160e01b9091041683565b60408051808201909152600080825260208201526001600160a01b03821660008181526003602090815260408083208151808301835281548152600191820154818501529484529091528120549091908061098e5760405162461bcd60e51b815260206004820152603e60248201527f424c5341706b52656769737472792e676574526567697374657265645075626b60448201527f65793a206f70657261746f72206973206e6f742072656769737465726564000060648201526084016104a3565b9094909350915050565b6000336001600160a01b037f000000000000000000000000000000000000000000000000000000000000000016146109e25760405162461bcd60e51b81526004016104a390611bf9565b6000610a106109f936869003860160408701611ce8565b805160009081526020918201519091526040902090565b90507fad3228b676f7d3cd4284a5443f17f1962b36e491b30a40b2405849e597ba5fb5811415610a98576040805162461bcd60e51b8152602060048201526024810191909152600080516020611eff83398151915260448201527f4b65793a2063616e6e6f74207265676973746572207a65726f207075626b657960648201526084016104a3565b6001600160a01b03851660009081526001602052604090205415610b225760405162461bcd60e51b81526020600482015260476024820152600080516020611eff83398151915260448201527f4b65793a206f70657261746f7220616c72656164792072656769737465726564606482015266207075626b657960c81b608482015260a4016104a3565b6000818152600260205260409020546001600160a01b031615610ba65760405162461bcd60e51b81526020600482015260426024820152600080516020611eff83398151915260448201527f4b65793a207075626c6963206b657920616c7265616479207265676973746572606482015261195960f21b608482015260a4016104a3565b604080516000917f30644e72e131a029b85045b68181585d2833e84879b9709143e1f593f000000191610bff918835916020808b0135928b01359160608c01359160808d019160c08e01918d35918e8201359101611d1a565b6040516020818303038152906040528051906020012060001c610c229190611d65565b9050610cbc610c5b610c4683610c40368a90038a0160408b01611ce8565b906112ea565b610c5536899003890189611ce8565b90611381565b610c63611415565b610ca5610c9685610c40604080518082018252600080825260209182015281518083019092526001825260029082015290565b610c55368a90038a018a611ce8565b610cb7368a90038a0160808b01611dd7565b6114d5565b610d575760405162461bcd60e51b815260206004820152606c6024820152600080516020611eff83398151915260448201527f4b65793a2065697468657220746865204731207369676e61747572652069732060648201527f77726f6e672c206f7220473120616e642047322070726976617465206b65792060848201526b0c8de40dcdee840dac2e8c6d60a31b60a482015260c4016104a3565b6001600160a01b03861660008181526003602090815260408083208982018035825560608b013560019283015590835281842087905586845260029092529182902080546001600160a01b0319168417905590517fe3fb6613af2e8930cf85d47fcf6db10192224a64c6cbe8023e0eee1ba382804191610ddb9160808a0190611e34565b60405180910390a250949350505050565b606060008367ffffffffffffffff811115610e0957610e09611922565b604051908082528060200260200182016040528015610e32578160200160208202803683370190505b50905060005b84811015610ffd576000868683818110610e5457610e54611cd2565b919091013560f81c6000818152600460205260409020549092509050801580610eb7575060ff821660009081526004602052604081208054909190610e9b57610e9b611cd2565b600091825260209091200154600160c01b900463ffffffff1686105b15610f445760405162461bcd60e51b815260206004820152605160248201527f424c5341706b52656769737472792e67657441706b496e64696365734174426c60448201527f6f636b4e756d6265723a20626c6f636b4e756d626572206973206265666f7265606482015270207468652066697273742075706461746560781b608482015260a4016104a3565b805b8015610fe75760ff831660009081526004602052604090208790610f6b600184611e7e565b81548110610f7b57610f7b611cd2565b600091825260209091200154600160c01b900463ffffffff1611610fd557610fa4600182611e7e565b858581518110610fb657610fb6611cd2565b602002602001019063ffffffff16908163ffffffff1681525050610fe7565b80610fdf81611e95565b915050610f46565b5050508080610ff590611eac565b915050610e38565b50949350505050565b336001600160a01b037f0000000000000000000000000000000000000000000000000000000000000000161461104e5760405162461bcd60e51b81526004016104a390611bf9565b6000611059836108cb565b50905061106e8261106983611742565b61109f565b7f14a5172b312e9d2c22b8468f9c70ec2caa9de934fe380734fbc6f3beff2b14ba8383604051610645929190611c6d565b604080518082019091526000808252602082015260005b83518110156112e45760008482815181106110d3576110d3611cd2565b0160209081015160f81c60008181526004909252604090912054909150806111635760405162461bcd60e51b815260206004820152603d60248201527f424c5341706b52656769737472792e5f70726f6365737351756f72756d41706b60448201527f5570646174653a2071756f72756d20646f6573206e6f7420657869737400000060648201526084016104a3565b60ff821660009081526005602090815260409182902082518084019093528054835260010154908201526111979086611381565b60ff831660008181526005602090815260408083208551808255868401805160019384015590855251835281842094845260049092528220939750919290916111e09085611e7e565b815481106111f0576111f0611cd2565b600091825260209091200180549091504363ffffffff908116600160c01b9092041614156112315780546001600160c01b031916604083901c1781556112cd565b805463ffffffff438116600160e01b8181026001600160e01b0394851617855560ff88166000908152600460209081526040808320815160608101835267ffffffffffffffff198b16815280840196875280830185815282546001810184559286529390942093519301805495519251871690940291909516600160c01b026001600160e01b0319949094169190941c17919091179092161790555b5050505080806112dc90611eac565b9150506110b6565b50505050565b6040805180820190915260008082526020820152611306611801565b835181526020808501519082015260408082018490526000908360608460076107d05a03fa90508080156113395761133b565bfe5b50806113795760405162461bcd60e51b815260206004820152600d60248201526c1958cb5b5d5b0b59985a5b1959609a1b60448201526064016104a3565b505092915050565b604080518082019091526000808252602082015261139d61181f565b835181526020808501518183015283516040808401919091529084015160608301526000908360808460066107d05a03fa90508080156113395750806113795760405162461bcd60e51b815260206004820152600d60248201526c1958cb5859190b59985a5b1959609a1b60448201526064016104a3565b61141d61183d565b50604080516080810182527f198e9393920d483a7260bfb731fb5d25f1aa493335a9e71297e485b7aef312c28183019081527f1800deef121f1e76426a00665e5c4479674322d4f75edadd46debd5cd992f6ed6060830152815281518083019092527f275dc4a288d1afb3cbb1ac09187524c7db36395df7be3b99e673b13a075a65ec82527f1d9befcd05a5323e6da4d435f3b617cdb3af83285c2df711ef39c01571827f9d60208381019190915281019190915290565b604080518082018252858152602080820185905282518084019093528583528201839052600091611504611862565b60005b60028110156116c957600061151d826006611ec7565b905084826002811061153157611531611cd2565b60200201515183611543836000611ee6565b600c811061155357611553611cd2565b602002015284826002811061156a5761156a611cd2565b602002015160200151838260016115819190611ee6565b600c811061159157611591611cd2565b60200201528382600281106115a8576115a8611cd2565b60200201515151836115bb836002611ee6565b600c81106115cb576115cb611cd2565b60200201528382600281106115e2576115e2611cd2565b60200201515160016020020151836115fb836003611ee6565b600c811061160b5761160b611cd2565b602002015283826002811061162257611622611cd2565b60200201516020015160006002811061163d5761163d611cd2565b60200201518361164e836004611ee6565b600c811061165e5761165e611cd2565b602002015283826002811061167557611675611cd2565b60200201516020015160016002811061169057611690611cd2565b6020020151836116a1836005611ee6565b600c81106116b1576116b1611cd2565b602002015250806116c181611eac565b915050611507565b506116d2611881565b60006020826101808560086107d05a03fa90508080156113395750806117325760405162461bcd60e51b81526020600482015260156024820152741c185a5c9a5b99cb5bdc18dbd9194b59985a5b1959605a1b60448201526064016104a3565b5051151598975050505050505050565b6040805180820190915260008082526020820152815115801561176757506020820151155b15611785575050604080518082019091526000808252602082015290565b6040518060400160405280836000015181526020017f30644e72e131a029b85045b68181585d97816a916871ca8d3c208c16d87cfd4784602001516117ca9190611d65565b6117f4907f30644e72e131a029b85045b68181585d97816a916871ca8d3c208c16d87cfd47611e7e565b905292915050565b919050565b60405180606001604052806003906020820280368337509192915050565b60405180608001604052806004906020820280368337509192915050565b604051806040016040528061185061189f565b815260200161185d61189f565b905290565b604051806101800160405280600c906020820280368337509192915050565b60405180602001604052806001906020820280368337509192915050565b60405180604001604052806002906020820280368337509192915050565b80356001600160a01b03811681146117fc57600080fd5b6000602082840312156118e657600080fd5b6118ef826118bd565b9392505050565b803560ff811681146117fc57600080fd5b60006020828403121561191957600080fd5b6118ef826118f6565b634e487b7160e01b600052604160045260246000fd5b6040805190810167ffffffffffffffff8111828210171561195b5761195b611922565b60405290565b604051601f8201601f1916810167ffffffffffffffff8111828210171561198a5761198a611922565b604052919050565b600080604083850312156119a557600080fd5b6119ae836118bd565b915060208084013567ffffffffffffffff808211156119cc57600080fd5b818601915086601f8301126119e057600080fd5b8135818111156119f2576119f2611922565b611a04601f8201601f19168501611961565b91508082528784828501011115611a1a57600080fd5b80848401858401376000848284010152508093505050509250929050565b600060208284031215611a4a57600080fd5b5035919050565b8151815260208083015190820152604081016106df565b60008060408385031215611a7b57600080fd5b611a84836118f6565b946020939093013593505050565b600080600060608486031215611aa757600080fd5b611ab0846118f6565b9250602084013563ffffffff81168114611ac957600080fd5b929592945050506040919091013590565b6000806000838503610160811215611af157600080fd5b611afa856118bd565b9350610100601f1982011215611b0f57600080fd5b602085019250604061011f1982011215611b2857600080fd5b50610120840190509250925092565b600080600060408486031215611b4c57600080fd5b833567ffffffffffffffff80821115611b6457600080fd5b818601915086601f830112611b7857600080fd5b813581811115611b8757600080fd5b876020828501011115611b9957600080fd5b6020928301989097509590910135949350505050565b6020808252825182820181905260009190848201906040850190845b81811015611bed57835163ffffffff1683529284019291840191600101611bcb565b50909695505050505050565b6020808252604e908201527f424c5341706b52656769737472792e6f6e6c795265676973747279436f6f726460408201527f696e61746f723a2063616c6c6572206973206e6f74207468652072656769737460608201526d393c9031b7b7b93234b730ba37b960911b608082015260a00190565b60018060a01b038316815260006020604081840152835180604085015260005b81811015611ca957858101830151858201606001528201611c8d565b81811115611cbb576000606083870101525b50601f01601f191692909201606001949350505050565b634e487b7160e01b600052603260045260246000fd5b600060408284031215611cfa57600080fd5b611d02611938565b82358152602083013560208201528091505092915050565b8881528760208201528660408201528560608201526040856080830137600060c082016000815260408682375050610100810192909252610120820152610140019695505050505050565b600082611d8257634e487b7160e01b600052601260045260246000fd5b500690565b600082601f830112611d9857600080fd5b611da0611938565b806040840185811115611db257600080fd5b845b81811015611dcc578035845260209384019301611db4565b509095945050505050565b600060808284031215611de957600080fd5b6040516040810181811067ffffffffffffffff82111715611e0c57611e0c611922565b604052611e198484611d87565b8152611e288460408501611d87565b60208201529392505050565b823581526020808401359082015260c081016040838184013760808201600081526040808501823750600081529392505050565b634e487b7160e01b600052601160045260246000fd5b600082821015611e9057611e90611e68565b500390565b600081611ea457611ea4611e68565b506000190190565b6000600019821415611ec057611ec0611e68565b5060010190565b6000816000190483118215151615611ee157611ee1611e68565b500290565b60008219821115611ef957611ef9611e68565b50019056fe424c5341706b52656769737472792e7265676973746572424c535075626c6963a2646970667358221220bb562546caae5e3cf7b1adb564896d06181eb5ba82a8ed8c1aa17dc6e52d59a164736f6c634300080c0033",
    "linkReferences": {}
  },
  "methodIdentifiers": {
    "apkHistory(uint8,uint256)": "7916cea6",
    "currentApk(uint8)": "a3db80e2",
    "deregisterOperator(address,bytes)": "f4e24fe5",
    "getApk(uint8)": "5f61a884",
    "getApkHashAtBlockNumberAndIndex(uint8,uint32,uint256)": "68bccaac",
    "getApkHistoryLength(uint8)": "377ed99d",
    "getApkIndicesAtBlockNumber(bytes,uint256)": "d5254a8c",
    "getApkUpdateAtIndex(uint8,uint256)": "605747d5",
    "getOperatorFromPubkeyHash(bytes32)": "47b314e8",
    "getOperatorId(address)": "13542a4e",
    "getRegisteredPubkey(address)": "7ff81a87",
    "initializeQuorum(uint8)": "26d941f2",
    "operatorToPubkey(address)": "00a1f4cb",
    "operatorToPubkeyHash(address)": "de29fac0",
    "pubkeyHashToOperator(bytes32)": "e8bb9ae6",
    "registerBLSPublicKey(address,((uint256,uint256),(uint256,uint256),(uint256[2],uint256[2])),(uint256,uint256))": "bf79ce58",
    "registerOperator(address,bytes)": "3fb27952",
    "registryCoordinator()": "6d14a987"
  },
  "id": 92
}