{
  "abi": [
    {
      "inputs": [
        {
          "internalType": "contract IDelegationManager",
          "name": "_delegation",
          "type": "address"
        },
        {
          "internalType": "contract IEigenPodManager",
          "name": "_eigenPodManager",
          "type": "address"
        },
        {
          "internalType": "contract ISlasher",
          "name": "_slasher",
          "type": "address"
        }
      ],
      "stateMutability": "nonpayable",
      "type": "constructor"
    },
    {
      "anonymous": false,
      "inputs": [
        {
          "indexed": false,
          "internalType": "address",
          "name": "staker",
          "type": "address"
        },
        {
          "indexed": false,
          "internalType": "contract IERC20",
          "name": "token",
          "type": "address"
        },
        {
          "indexed": false,
          "internalType": "contract IStrategy",
          "name": "strategy",
          "type": "address"
        },
        {
          "indexed": false,
          "internalType": "uint256",
          "name": "shares",
          "type": "uint256"
        }
      ],
      "name": "Deposit",
      "type": "event"
    },
    {
      "anonymous": false,
      "inputs": [
        {
          "indexed": false,
          "internalType": "uint8",
          "name": "version",
          "type": "uint8"
        }
      ],
      "name": "Initialized",
      "type": "event"
    },
    {
      "anonymous": false,
      "inputs": [
        {
          "indexed": true,
          "internalType": "address",
          "name": "previousOwner",
          "type": "address"
        },
        {
          "indexed": true,
          "internalType": "address",
          "name": "newOwner",
          "type": "address"
        }
      ],
      "name": "OwnershipTransferred",
      "type": "event"
    },
    {
      "anonymous": false,
      "inputs": [
        {
          "indexed": true,
          "internalType": "address",
          "name": "account",
          "type": "address"
        },
        {
          "indexed": false,
          "internalType": "uint256",
          "name": "newPausedStatus",
          "type": "uint256"
        }
      ],
      "name": "Paused",
      "type": "event"
    },
    {
      "anonymous": false,
      "inputs": [
        {
          "indexed": false,
          "internalType": "contract IPauserRegistry",
          "name": "pauserRegistry",
          "type": "address"
        },
        {
          "indexed": false,
          "internalType": "contract IPauserRegistry",
          "name": "newPauserRegistry",
          "type": "address"
        }
      ],
      "name": "PauserRegistrySet",
      "type": "event"
    },
    {
      "anonymous": false,
      "inputs": [
        {
          "indexed": false,
          "internalType": "contract IStrategy",
          "name": "strategy",
          "type": "address"
        }
      ],
      "name": "StrategyAddedToDepositWhitelist",
      "type": "event"
    },
    {
      "anonymous": false,
      "inputs": [
        {
          "indexed": false,
          "internalType": "contract IStrategy",
          "name": "strategy",
          "type": "address"
        }
      ],
      "name": "StrategyRemovedFromDepositWhitelist",
      "type": "event"
    },
    {
      "anonymous": false,
      "inputs": [
        {
          "indexed": false,
          "internalType": "address",
          "name": "previousAddress",
          "type": "address"
        },
        {
          "indexed": false,
          "internalType": "address",
          "name": "newAddress",
          "type": "address"
        }
      ],
      "name": "StrategyWhitelisterChanged",
      "type": "event"
    },
    {
      "anonymous": false,
      "inputs": [
        {
          "indexed": true,
          "internalType": "address",
          "name": "account",
          "type": "address"
        },
        {
          "indexed": false,
          "internalType": "uint256",
          "name": "newPausedStatus",
          "type": "uint256"
        }
      ],
      "name": "Unpaused",
      "type": "event"
    },
    {
      "anonymous": false,
      "inputs": [
        {
          "indexed": false,
          "internalType": "contract IStrategy",
          "name": "strategy",
          "type": "address"
        },
        {
          "indexed": false,
          "internalType": "bool",
          "name": "value",
          "type": "bool"
        }
      ],
      "name": "UpdatedThirdPartyTransfersForbidden",
      "type": "event"
    },
    {
      "inputs": [],
      "name": "DEPOSIT_TYPEHASH",
      "outputs": [
        {
          "internalType": "bytes32",
          "name": "",
          "type": "bytes32"
        }
      ],
      "stateMutability": "view",
      "type": "function"
    },
    {
      "inputs": [],
      "name": "DOMAIN_TYPEHASH",
      "outputs": [
        {
          "internalType": "bytes32",
          "name": "",
          "type": "bytes32"
        }
      ],
      "stateMutability": "view",
      "type": "function"
    },
    {
      "inputs": [
        {
          "internalType": "address",
          "name": "staker",
          "type": "address"
        },
        {
          "internalType": "contract IERC20",
          "name": "token",
          "type": "address"
        },
        {
          "internalType": "contract IStrategy",
          "name": "strategy",
          "type": "address"
        },
        {
          "internalType": "uint256",
          "name": "shares",
          "type": "uint256"
        }
      ],
      "name": "addShares",
      "outputs": [],
      "stateMutability": "nonpayable",
      "type": "function"
    },
    {
      "inputs": [
        {
          "internalType": "contract IStrategy[]",
          "name": "strategiesToWhitelist",
          "type": "address[]"
        },
        {
          "internalType": "bool[]",
          "name": "thirdPartyTransfersForbiddenValues",
          "type": "bool[]"
        }
      ],
      "name": "addStrategiesToDepositWhitelist",
      "outputs": [],
      "stateMutability": "nonpayable",
      "type": "function"
    },
    {
      "inputs": [
        {
          "components": [
            {
              "internalType": "contract IStrategy[]",
              "name": "strategies",
              "type": "address[]"
            },
            {
              "internalType": "uint256[]",
              "name": "shares",
              "type": "uint256[]"
            },
            {
              "internalType": "address",
              "name": "staker",
              "type": "address"
            },
            {
              "components": [
                {
                  "internalType": "address",
                  "name": "withdrawer",
                  "type": "address"
                },
                {
                  "internalType": "uint96",
                  "name": "nonce",
                  "type": "uint96"
                }
              ],
              "internalType": "struct IStrategyManager.DeprecatedStruct_WithdrawerAndNonce",
              "name": "withdrawerAndNonce",
              "type": "tuple"
            },
            {
              "internalType": "uint32",
              "name": "withdrawalStartBlock",
              "type": "uint32"
            },
            {
              "internalType": "address",
              "name": "delegatedAddress",
              "type": "address"
            }
          ],
          "internalType": "struct IStrategyManager.DeprecatedStruct_QueuedWithdrawal",
          "name": "queuedWithdrawal",
          "type": "tuple"
        }
      ],
      "name": "calculateWithdrawalRoot",
      "outputs": [
        {
          "internalType": "bytes32",
          "name": "",
          "type": "bytes32"
        }
      ],
      "stateMutability": "pure",
      "type": "function"
    },
    {
      "inputs": [],
      "name": "delegation",
      "outputs": [
        {
          "internalType": "contract IDelegationManager",
          "name": "",
          "type": "address"
        }
      ],
      "stateMutability": "view",
      "type": "function"
    },
    {
      "inputs": [
        {
          "internalType": "contract IStrategy",
          "name": "strategy",
          "type": "address"
        },
        {
          "internalType": "contract IERC20",
          "name": "token",
          "type": "address"
        },
        {
          "internalType": "uint256",
          "name": "amount",
          "type": "uint256"
        }
      ],
      "name": "depositIntoStrategy",
      "outputs": [
        {
          "internalType": "uint256",
          "name": "shares",
          "type": "uint256"
        }
      ],
      "stateMutability": "nonpayable",
      "type": "function"
    },
    {
      "inputs": [
        {
          "internalType": "contract IStrategy",
          "name": "strategy",
          "type": "address"
        },
        {
          "internalType": "contract IERC20",
          "name": "token",
          "type": "address"
        },
        {
          "internalType": "uint256",
          "name": "amount",
          "type": "uint256"
        },
        {
          "internalType": "address",
          "name": "staker",
          "type": "address"
        },
        {
          "internalType": "uint256",
          "name": "expiry",
          "type": "uint256"
        },
        {
          "internalType": "bytes",
          "name": "signature",
          "type": "bytes"
        }
      ],
      "name": "depositIntoStrategyWithSignature",
      "outputs": [
        {
          "internalType": "uint256",
          "name": "shares",
          "type": "uint256"
        }
      ],
      "stateMutability": "nonpayable",
      "type": "function"
    },
    {
      "inputs": [],
      "name": "domainSeparator",
      "outputs": [
        {
          "internalType": "bytes32",
          "name": "",
          "type": "bytes32"
        }
      ],
      "stateMutability": "view",
      "type": "function"
    },
    {
      "inputs": [],
      "name": "eigenPodManager",
      "outputs": [
        {
          "internalType": "contract IEigenPodManager",
          "name": "",
          "type": "address"
        }
      ],
      "stateMutability": "view",
      "type": "function"
    },
    {
      "inputs": [
        {
          "internalType": "address",
          "name": "staker",
          "type": "address"
        }
      ],
      "name": "getDeposits",
      "outputs": [
        {
          "internalType": "contract IStrategy[]",
          "name": "",
          "type": "address[]"
        },
        {
          "internalType": "uint256[]",
          "name": "",
          "type": "uint256[]"
        }
      ],
      "stateMutability": "view",
      "type": "function"
    },
    {
      "inputs": [
        {
          "internalType": "address",
          "name": "initialOwner",
          "type": "address"
        },
        {
          "internalType": "address",
          "name": "initialStrategyWhitelister",
          "type": "address"
        },
        {
          "internalType": "contract IPauserRegistry",
          "name": "_pauserRegistry",
          "type": "address"
        },
        {
          "internalType": "uint256",
          "name": "initialPausedStatus",
          "type": "uint256"
        }
      ],
      "name": "initialize",
      "outputs": [],
      "stateMutability": "nonpayable",
      "type": "function"
    },
    {
      "inputs": [
        {
          "components": [
            {
              "internalType": "contract IStrategy[]",
              "name": "strategies",
              "type": "address[]"
            },
            {
              "internalType": "uint256[]",
              "name": "shares",
              "type": "uint256[]"
            },
            {
              "internalType": "address",
              "name": "staker",
              "type": "address"
            },
            {
              "components": [
                {
                  "internalType": "address",
                  "name": "withdrawer",
                  "type": "address"
                },
                {
                  "internalType": "uint96",
                  "name": "nonce",
                  "type": "uint96"
                }
              ],
              "internalType": "struct IStrategyManager.DeprecatedStruct_WithdrawerAndNonce",
              "name": "withdrawerAndNonce",
              "type": "tuple"
            },
            {
              "internalType": "uint32",
              "name": "withdrawalStartBlock",
              "type": "uint32"
            },
            {
              "internalType": "address",
              "name": "delegatedAddress",
              "type": "address"
            }
          ],
          "internalType": "struct IStrategyManager.DeprecatedStruct_QueuedWithdrawal",
          "name": "queuedWithdrawal",
          "type": "tuple"
        }
      ],
      "name": "migrateQueuedWithdrawal",
      "outputs": [
        {
          "internalType": "bool",
          "name": "",
          "type": "bool"
        },
        {
          "internalType": "bytes32",
          "name": "",
          "type": "bytes32"
        }
      ],
      "stateMutability": "nonpayable",
      "type": "function"
    },
    {
      "inputs": [
        {
          "internalType": "address",
          "name": "",
          "type": "address"
        }
      ],
      "name": "nonces",
      "outputs": [
        {
          "internalType": "uint256",
          "name": "",
          "type": "uint256"
        }
      ],
      "stateMutability": "view",
      "type": "function"
    },
    {
      "inputs": [],
      "name": "owner",
      "outputs": [
        {
          "internalType": "address",
          "name": "",
          "type": "address"
        }
      ],
      "stateMutability": "view",
      "type": "function"
    },
    {
      "inputs": [
        {
          "internalType": "uint256",
          "name": "newPausedStatus",
          "type": "uint256"
        }
      ],
      "name": "pause",
      "outputs": [],
      "stateMutability": "nonpayable",
      "type": "function"
    },
    {
      "inputs": [],
      "name": "pauseAll",
      "outputs": [],
      "stateMutability": "nonpayable",
      "type": "function"
    },
    {
      "inputs": [
        {
          "internalType": "uint8",
          "name": "index",
          "type": "uint8"
        }
      ],
      "name": "paused",
      "outputs": [
        {
          "internalType": "bool",
          "name": "",
          "type": "bool"
        }
      ],
      "stateMutability": "view",
      "type": "function"
    },
    {
      "inputs": [],
      "name": "paused",
      "outputs": [
        {
          "internalType": "uint256",
          "name": "",
          "type": "uint256"
        }
      ],
      "stateMutability": "view",
      "type": "function"
    },
    {
      "inputs": [],
      "name": "pauserRegistry",
      "outputs": [
        {
          "internalType": "contract IPauserRegistry",
          "name": "",
          "type": "address"
        }
      ],
      "stateMutability": "view",
      "type": "function"
    },
    {
      "inputs": [
        {
          "internalType": "address",
          "name": "staker",
          "type": "address"
        },
        {
          "internalType": "contract IStrategy",
          "name": "strategy",
          "type": "address"
        },
        {
          "internalType": "uint256",
          "name": "shares",
          "type": "uint256"
        }
      ],
      "name": "removeShares",
      "outputs": [],
      "stateMutability": "nonpayable",
      "type": "function"
    },
    {
      "inputs": [
        {
          "internalType": "contract IStrategy[]",
          "name": "strategiesToRemoveFromWhitelist",
          "type": "address[]"
        }
      ],
      "name": "removeStrategiesFromDepositWhitelist",
      "outputs": [],
      "stateMutability": "nonpayable",
      "type": "function"
    },
    {
      "inputs": [],
      "name": "renounceOwnership",
      "outputs": [],
      "stateMutability": "nonpayable",
      "type": "function"
    },
    {
      "inputs": [
        {
          "internalType": "contract IPauserRegistry",
          "name": "newPauserRegistry",
          "type": "address"
        }
      ],
      "name": "setPauserRegistry",
      "outputs": [],
      "stateMutability": "nonpayable",
      "type": "function"
    },
    {
      "inputs": [
        {
          "internalType": "address",
          "name": "newStrategyWhitelister",
          "type": "address"
        }
      ],
      "name": "setStrategyWhitelister",
      "outputs": [],
      "stateMutability": "nonpayable",
      "type": "function"
    },
    {
      "inputs": [
        {
          "internalType": "contract IStrategy",
          "name": "strategy",
          "type": "address"
        },
        {
          "internalType": "bool",
          "name": "value",
          "type": "bool"
        }
      ],
      "name": "setThirdPartyTransfersForbidden",
      "outputs": [],
      "stateMutability": "nonpayable",
      "type": "function"
    },
    {
      "inputs": [],
      "name": "slasher",
      "outputs": [
        {
          "internalType": "contract ISlasher",
          "name": "",
          "type": "address"
        }
      ],
      "stateMutability": "view",
      "type": "function"
    },
    {
      "inputs": [
        {
          "internalType": "address",
          "name": "",
          "type": "address"
        },
        {
          "internalType": "uint256",
          "name": "",
          "type": "uint256"
        }
      ],
      "name": "stakerStrategyList",
      "outputs": [
        {
          "internalType": "contract IStrategy",
          "name": "",
          "type": "address"
        }
      ],
      "stateMutability": "view",
      "type": "function"
    },
    {
      "inputs": [
        {
          "internalType": "address",
          "name": "staker",
          "type": "address"
        }
      ],
      "name": "stakerStrategyListLength",
      "outputs": [
        {
          "internalType": "uint256",
          "name": "",
          "type": "uint256"
        }
      ],
      "stateMutability": "view",
      "type": "function"
    },
    {
      "inputs": [
        {
          "internalType": "address",
          "name": "",
          "type": "address"
        },
        {
          "internalType": "contract IStrategy",
          "name": "",
          "type": "address"
        }
      ],
      "name": "stakerStrategyShares",
      "outputs": [
        {
          "internalType": "uint256",
          "name": "",
          "type": "uint256"
        }
      ],
      "stateMutability": "view",
      "type": "function"
    },
    {
      "inputs": [
        {
          "internalType": "contract IStrategy",
          "name": "",
          "type": "address"
        }
      ],
      "name": "strategyIsWhitelistedForDeposit",
      "outputs": [
        {
          "internalType": "bool",
          "name": "",
          "type": "bool"
        }
      ],
      "stateMutability": "view",
      "type": "function"
    },
    {
      "inputs": [],
      "name": "strategyWhitelister",
      "outputs": [
        {
          "internalType": "address",
          "name": "",
          "type": "address"
        }
      ],
      "stateMutability": "view",
      "type": "function"
    },
    {
      "inputs": [
        {
          "internalType": "contract IStrategy",
          "name": "",
          "type": "address"
        }
      ],
      "name": "thirdPartyTransfersForbidden",
      "outputs": [
        {
          "internalType": "bool",
          "name": "",
          "type": "bool"
        }
      ],
      "stateMutability": "view",
      "type": "function"
    },
    {
      "inputs": [
        {
          "internalType": "address",
          "name": "newOwner",
          "type": "address"
        }
      ],
      "name": "transferOwnership",
      "outputs": [],
      "stateMutability": "nonpayable",
      "type": "function"
    },
    {
      "inputs": [
        {
          "internalType": "uint256",
          "name": "newPausedStatus",
          "type": "uint256"
        }
      ],
      "name": "unpause",
      "outputs": [],
      "stateMutability": "nonpayable",
      "type": "function"
    },
    {
      "inputs": [
        {
          "internalType": "address",
          "name": "recipient",
          "type": "address"
        },
        {
          "internalType": "contract IStrategy",
          "name": "strategy",
          "type": "address"
        },
        {
          "internalType": "uint256",
          "name": "shares",
          "type": "uint256"
        },
        {
          "internalType": "contract IERC20",
          "name": "token",
          "type": "address"
        }
      ],
      "name": "withdrawSharesAsTokens",
      "outputs": [],
      "stateMutability": "nonpayable",
      "type": "function"
    },
    {
      "inputs": [
        {
          "internalType": "bytes32",
          "name": "",
          "type": "bytes32"
        }
      ],
      "name": "withdrawalRootPending",
      "outputs": [
        {
          "internalType": "bool",
          "name": "",
          "type": "bool"
        }
      ],
      "stateMutability": "view",
      "type": "function"
    }
  ],
  "bytecode": {
    "object": "0x6101006040523480156200001257600080fd5b506040516200382138038062003821833981016040819052620000359162000140565b6001600160a01b0380841660805280831660a052811660c0526200005862000065565b50504660e0525062000194565b600054610100900460ff1615620000d25760405162461bcd60e51b815260206004820152602760248201527f496e697469616c697a61626c653a20636f6e747261637420697320696e697469604482015266616c697a696e6760c81b606482015260840160405180910390fd5b60005460ff908116101562000125576000805460ff191660ff9081179091556040519081527f7f26b83ff96e1f2b6a682f133852f6798a09c465da95921460cefb38474024989060200160405180910390a15b565b6001600160a01b03811681146200013d57600080fd5b50565b6000806000606084860312156200015657600080fd5b8351620001638162000127565b6020850151909350620001768162000127565b6040850151909250620001898162000127565b809150509250925092565b60805160a05160c05160e051613630620001f160003960006116150152600061048f015260006102a601526000818161059b01528181610bfd01528181610f9701528181610feb015281816110ef0152611bcb01526136306000f3fe608060405234801561001057600080fd5b50600436106102275760003560e01c806394f649dd11610130578063c6656702116100b8578063df5cf7231161007c578063df5cf72314610596578063e7a050aa146105bd578063f2fde38b146105d0578063f698da25146105e3578063fabc1cbc146105eb57600080fd5b8063c665670214610520578063cbc2bd6214610533578063cd293f6f14610546578063cf756fdf14610570578063df5b35471461058357600080fd5b8063b43b514b116100ff578063b43b514b146104b1578063b5d8b5b8146104c4578063c3c6b3a9146104d7578063c4623ea1146104fa578063c608c7f31461050d57600080fd5b806394f649dd14610433578063967fc0d2146104545780639b4da03d14610467578063b13442711461048a57600080fd5b80635c975abb116101b35780637ecebe00116101825780637ecebe00146103b3578063886f1195146103d35780638b8aac3c146103e65780638c80d4e51461040f5780638da5cb5b1461042257600080fd5b80635c975abb14610355578063663c1de41461035d578063715018a6146103805780637a7e0d921461038857600080fd5b80634665bcda116101fa5780634665bcda146102a157806348825e94146102e05780634e5a426314610307578063595c6a671461031a5780635ac86ab71461032257600080fd5b806310d67a2f1461022c578063136439dd1461024157806320606b701461025457806332e89ace1461028e575b600080fd5b61023f61023a366004612b42565b6105fe565b005b61023f61024f366004612b5f565b6106ba565b61027b7f8cad95687ba82c2ce50e74f7b754645e5117c3a5bec8151c0726d5857980a86681565b6040519081526020015b60405180910390f35b61027b61029c366004612bf8565b6107f9565b6102c87f000000000000000000000000000000000000000000000000000000000000000081565b6040516001600160a01b039091168152602001610285565b61027b7f0a564d4cfe5cb0d4ee082aab2ca54b8c48e129485a8f7c77766ab5ef0c3566f181565b61023f610315366004612ce5565b610adf565b61023f610b17565b610345610330366004612d1e565b609854600160ff9092169190911b9081161490565b6040519015158152602001610285565b60985461027b565b61034561036b366004612b42565b60d16020526000908152604090205460ff1681565b61023f610bde565b61027b610396366004612d41565b60cd60209081526000928352604080842090915290825290205481565b61027b6103c1366004612b42565b60ca6020526000908152604090205481565b6097546102c8906001600160a01b031681565b61027b6103f4366004612b42565b6001600160a01b0316600090815260ce602052604090205490565b61023f61041d366004612d6f565b610bf2565b6033546001600160a01b03166102c8565b610446610441366004612b42565b610c4b565b604051610285929190612e24565b60cb546102c8906001600160a01b031681565b610345610475366004612b42565b60d36020526000908152604090205460ff1681565b6102c87f000000000000000000000000000000000000000000000000000000000000000081565b61027b6104bf366004612fcd565b610dcb565b61023f6104d23660046130e8565b610e18565b6103456104e5366004612b5f565b60cf6020526000908152604090205460ff1681565b61023f61050836600461312a565b610f8c565b61023f61051b36600461317b565b610fe0565b61023f61052e366004612b42565b611098565b6102c86105413660046131ce565b6110a9565b610559610554366004612fcd565b6110e1565b604080519215158352602083019190915201610285565b61023f61057e36600461312a565b611175565b61023f6105913660046131fa565b6112a9565b6102c87f000000000000000000000000000000000000000000000000000000000000000081565b61027b6105cb366004612d6f565b6114d2565b61023f6105de366004612b42565b61159b565b61027b611611565b61023f6105f9366004612b5f565b61164f565b609760009054906101000a90046001600160a01b03166001600160a01b031663eab66d7a6040518163ffffffff1660e01b8152600401602060405180830381865afa158015610651573d6000803e3d6000fd5b505050506040513d601f19601f820116820180604052508101906106759190613266565b6001600160a01b0316336001600160a01b0316146106ae5760405162461bcd60e51b81526004016106a590613283565b60405180910390fd5b6106b7816117ab565b50565b60975460405163237dfb4760e11b81523360048201526001600160a01b03909116906346fbf68e90602401602060405180830381865afa158015610702573d6000803e3d6000fd5b505050506040513d601f19601f8201168201806040525081019061072691906132cd565b6107425760405162461bcd60e51b81526004016106a5906132ea565b609854818116146107bb5760405162461bcd60e51b815260206004820152603860248201527f5061757361626c652e70617573653a20696e76616c696420617474656d70742060448201527f746f20756e70617573652066756e6374696f6e616c697479000000000000000060648201526084016106a5565b609881905560405181815233907fab40a374bc51de372200a8bc981af8c9ecdc08dfdaef0bb6e09f88f3c616ef3d906020015b60405180910390a250565b6098546000908190600190811614156108505760405162461bcd60e51b815260206004820152601960248201527814185d5cd8589b194e881a5b99195e081a5cc81c185d5cd959603a1b60448201526064016106a5565b600260655414156108a35760405162461bcd60e51b815260206004820152601f60248201527f5265656e7472616e637947756172643a207265656e7472616e742063616c6c0060448201526064016106a5565b60026065556001600160a01b038816600090815260d3602052604090205460ff161561094a5760405162461bcd60e51b815260206004820152604a60248201527f53747261746567794d616e616765722e6465706f736974496e746f537472617460448201527f656779576974685369676e61747572653a207468697264207472616e736665726064820152691cc8191a5cd8589b195960b21b608482015260a4016106a5565b428410156109cc5760405162461bcd60e51b815260206004820152604360248201527f53747261746567794d616e616765722e6465706f736974496e746f537472617460448201527f656779576974685369676e61747572653a207369676e617475726520657870696064820152621c995960ea1b608482015260a4016106a5565b6001600160a01b03858116600090815260ca602090815260408083205481517f0a564d4cfe5cb0d4ee082aab2ca54b8c48e129485a8f7c77766ab5ef0c3566f1938101939093528c851691830191909152928a1660608201526080810189905260a0810183905260c0810187905260e00160408051601f1981840301815291815281516020928301206001600160a01b038a16600090815260ca9093529082206001850190559150610a7c611611565b60405161190160f01b6020820152602281019190915260428101839052606201604051602081830303815290604052805190602001209050610abf8882886118a2565b610acb888c8c8c611a61565b60016065559b9a5050505050505050505050565b60cb546001600160a01b03163314610b095760405162461bcd60e51b81526004016106a590613332565b610b138282611c30565b5050565b60975460405163237dfb4760e11b81523360048201526001600160a01b03909116906346fbf68e90602401602060405180830381865afa158015610b5f573d6000803e3d6000fd5b505050506040513d601f19601f82011682018060405250810190610b8391906132cd565b610b9f5760405162461bcd60e51b81526004016106a5906132ea565b600019609881905560405190815233907fab40a374bc51de372200a8bc981af8c9ecdc08dfdaef0bb6e09f88f3c616ef3d9060200160405180910390a2565b610be6611c9e565b610bf06000611cf8565b565b336001600160a01b037f00000000000000000000000000000000000000000000000000000000000000001614610c3a5760405162461bcd60e51b81526004016106a59061339c565b610c45838383611d4a565b50505050565b6001600160a01b038116600090815260ce60205260408120546060918291908167ffffffffffffffff811115610c8357610c83612b88565b604051908082528060200260200182016040528015610cac578160200160208202803683370190505b50905060005b82811015610d3d576001600160a01b038616600090815260cd6020908152604080832060ce9092528220805491929184908110610cf157610cf16133fa565b60009182526020808320909101546001600160a01b031683528201929092526040019020548251839083908110610d2a57610d2a6133fa565b6020908102919091010152600101610cb2565b5060ce6000866001600160a01b03166001600160a01b031681526020019081526020016000208181805480602002602001604051908101604052809291908181526020018280548015610db957602002820191906000526020600020905b81546001600160a01b03168152600190910190602001808311610d9b575b50505050509150935093505050915091565b80516020808301516040808501516060860151608087015160a08801519351600097610dfb979096959101613410565b604051602081830303815290604052805190602001209050919050565b60cb546001600160a01b03163314610e425760405162461bcd60e51b81526004016106a590613332565b8060005b81811015610c455760d16000858584818110610e6457610e646133fa565b9050602002016020810190610e799190612b42565b6001600160a01b0316815260208101919091526040016000205460ff1615610f8457600060d16000868685818110610eb357610eb36133fa565b9050602002016020810190610ec89190612b42565b6001600160a01b031681526020810191909152604001600020805460ff19169115159190911790557f4074413b4b443e4e58019f2855a8765113358c7c72e39509c6af45fc0f5ba030848483818110610f2357610f236133fa565b9050602002016020810190610f389190612b42565b6040516001600160a01b03909116815260200160405180910390a1610f84848483818110610f6857610f686133fa565b9050602002016020810190610f7d9190612b42565b6000611c30565b600101610e46565b336001600160a01b037f00000000000000000000000000000000000000000000000000000000000000001614610fd45760405162461bcd60e51b81526004016106a59061339c565b610c4584848484611ea6565b336001600160a01b037f000000000000000000000000000000000000000000000000000000000000000016146110285760405162461bcd60e51b81526004016106a59061339c565b604051636ce5768960e11b81526001600160a01b03858116600483015282811660248301526044820184905284169063d9caed1290606401600060405180830381600087803b15801561107a57600080fd5b505af115801561108e573d6000803e3d6000fd5b5050505050505050565b6110a0611c9e565b6106b781612133565b60ce60205281600052604060002081815481106110c557600080fd5b6000918252602090912001546001600160a01b03169150829050565b600080336001600160a01b037f0000000000000000000000000000000000000000000000000000000000000000161461112c5760405162461bcd60e51b81526004016106a59061339c565b600061113784610dcb565b600081815260cf60205260408120549192509060ff161561116c5750600081815260cf60205260409020805460ff1916905560015b92509050915091565b600054610100900460ff16158080156111955750600054600160ff909116105b806111af5750303b1580156111af575060005460ff166001145b6112125760405162461bcd60e51b815260206004820152602e60248201527f496e697469616c697a61626c653a20636f6e747261637420697320616c72656160448201526d191e481a5b9a5d1a585b1a5e995960921b60648201526084016106a5565b6000805460ff191660011790558015611235576000805461ff0019166101001790555b61123d61219c565b60c95561124a8383612233565b61125385611cf8565b61125c84612133565b80156112a2576000805461ff0019169055604051600181527f7f26b83ff96e1f2b6a682f133852f6798a09c465da95921460cefb38474024989060200160405180910390a15b5050505050565b60cb546001600160a01b031633146112d35760405162461bcd60e51b81526004016106a590613332565b82811461135c5760405162461bcd60e51b815260206004820152604b60248201527f53747261746567794d616e616765722e61646453747261746567696573546f4460448201527f65706f73697457686974656c6973743a206172726179206c656e67746873206460648201526a0de40dcdee840dac2e8c6d60ab1b608482015260a4016106a5565b8260005b818110156114ca5760d1600087878481811061137e5761137e6133fa565b90506020020160208101906113939190612b42565b6001600160a01b0316815260208101919091526040016000205460ff166114c257600160d160008888858181106113cc576113cc6133fa565b90506020020160208101906113e19190612b42565b6001600160a01b031681526020810191909152604001600020805460ff19169115159190911790557f0c35b17d91c96eb2751cd456e1252f42a386e524ef9ff26ecc9950859fdc04fe86868381811061143c5761143c6133fa565b90506020020160208101906114519190612b42565b6040516001600160a01b03909116815260200160405180910390a16114c2868683818110611481576114816133fa565b90506020020160208101906114969190612b42565b8585848181106114a8576114a86133fa565b90506020020160208101906114bd9190613489565b611c30565b600101611360565b505050505050565b6098546000908190600190811614156115295760405162461bcd60e51b815260206004820152601960248201527814185d5cd8589b194e881a5b99195e081a5cc81c185d5cd959603a1b60448201526064016106a5565b6002606554141561157c5760405162461bcd60e51b815260206004820152601f60248201527f5265656e7472616e637947756172643a207265656e7472616e742063616c6c0060448201526064016106a5565b600260655561158d33868686611a61565b600160655595945050505050565b6115a3611c9e565b6001600160a01b0381166116085760405162461bcd60e51b815260206004820152602660248201527f4f776e61626c653a206e6577206f776e657220697320746865207a65726f206160448201526564647265737360d01b60648201526084016106a5565b6106b781611cf8565b60007f0000000000000000000000000000000000000000000000000000000000000000461415611642575060c95490565b61164a61219c565b905090565b609760009054906101000a90046001600160a01b03166001600160a01b031663eab66d7a6040518163ffffffff1660e01b8152600401602060405180830381865afa1580156116a2573d6000803e3d6000fd5b505050506040513d601f19601f820116820180604052508101906116c69190613266565b6001600160a01b0316336001600160a01b0316146116f65760405162461bcd60e51b81526004016106a590613283565b6098541981196098541916146117745760405162461bcd60e51b815260206004820152603860248201527f5061757361626c652e756e70617573653a20696e76616c696420617474656d7060448201527f7420746f2070617573652066756e6374696f6e616c697479000000000000000060648201526084016106a5565b609881905560405181815233907f3582d1828e26bf56bd801502bc021ac0bc8afb57c826e4986b45593c8fad389c906020016107ee565b6001600160a01b0381166118395760405162461bcd60e51b815260206004820152604960248201527f5061757361626c652e5f73657450617573657252656769737472793a206e657760448201527f50617573657252656769737472792063616e6e6f7420626520746865207a65726064820152686f206164647265737360b81b608482015260a4016106a5565b609754604080516001600160a01b03928316815291831660208301527f6e9fcd539896fca60e8b0f01dd580233e48a6b0f7df013b89ba7f565869acdb6910160405180910390a1609780546001600160a01b0319166001600160a01b0392909216919091179055565b6001600160a01b0383163b156119c157604051630b135d3f60e11b808252906001600160a01b03851690631626ba7e906118e290869086906004016134fe565b602060405180830381865afa1580156118ff573d6000803e3d6000fd5b505050506040513d601f19601f820116820180604052508101906119239190613517565b6001600160e01b031916146119bc5760405162461bcd60e51b815260206004820152605360248201527f454950313237315369676e61747572655574696c732e636865636b5369676e6160448201527f747572655f454950313237313a2045524331323731207369676e6174757265206064820152721d995c9a599a58d85d1a5bdb8819985a5b1959606a1b608482015260a4016106a5565b505050565b826001600160a01b03166119d58383612319565b6001600160a01b0316146119bc5760405162461bcd60e51b815260206004820152604760248201527f454950313237315369676e61747572655574696c732e636865636b5369676e6160448201527f747572655f454950313237313a207369676e6174757265206e6f742066726f6d6064820152661039b4b3b732b960c91b608482015260a4016106a5565b6001600160a01b038316600090815260d16020526040812054849060ff16611b075760405162461bcd60e51b815260206004820152604d60248201527f53747261746567794d616e616765722e6f6e6c7953747261746567696573576860448201527f6974656c6973746564466f724465706f7369743a207374726174656779206e6f60648201526c1d081dda1a5d195b1a5cdd1959609a1b608482015260a4016106a5565b611b1c6001600160a01b03851633878661233d565b6040516311f9fbc960e21b81526001600160a01b038581166004830152602482018590528616906347e7ef24906044016020604051808303816000875af1158015611b6b573d6000803e3d6000fd5b505050506040513d601f19601f82011682018060405250810190611b8f9190613541565b9150611b9d86858785611ea6565b604051631452b9d760e11b81526001600160a01b0387811660048301528681166024830152604482018490527f000000000000000000000000000000000000000000000000000000000000000016906328a573ae90606401600060405180830381600087803b158015611c0f57600080fd5b505af1158015611c23573d6000803e3d6000fd5b5050505050949350505050565b604080516001600160a01b038416815282151560208201527f77d930df4937793473a95024d87a98fd2ccb9e92d3c2463b3dacd65d3e6a5786910160405180910390a16001600160a01b0391909116600090815260d360205260409020805460ff1916911515919091179055565b6033546001600160a01b03163314610bf05760405162461bcd60e51b815260206004820181905260248201527f4f776e61626c653a2063616c6c6572206973206e6f7420746865206f776e657260448201526064016106a5565b603380546001600160a01b038381166001600160a01b0319831681179093556040519116919082907f8be0079c531659141344cd1fd0a4f28419497f9722a3daafe3b4186f6b6457e090600090a35050565b600081611dbf5760405162461bcd60e51b815260206004820152603e60248201527f53747261746567794d616e616765722e5f72656d6f76655368617265733a207360448201527f68617265416d6f756e742073686f756c64206e6f74206265207a65726f21000060648201526084016106a5565b6001600160a01b03808516600090815260cd602090815260408083209387168352929052205480831115611e515760405162461bcd60e51b815260206004820152603360248201527f53747261746567794d616e616765722e5f72656d6f76655368617265733a20736044820152720d0c2e4ca82dadeeadce840e8dede40d0d2ced606b1b60648201526084016106a5565b6001600160a01b03808616600090815260cd602090815260408083209388168352929052208382039081905590831415611e9957611e8f8585612397565b6001915050611e9f565b60009150505b9392505050565b6001600160a01b038416611f225760405162461bcd60e51b815260206004820152603960248201527f53747261746567794d616e616765722e5f6164645368617265733a207374616b60448201527f65722063616e6e6f74206265207a65726f20616464726573730000000000000060648201526084016106a5565b80611f8e5760405162461bcd60e51b815260206004820152603660248201527f53747261746567794d616e616765722e5f6164645368617265733a207368617260448201527565732073686f756c64206e6f74206265207a65726f2160501b60648201526084016106a5565b6001600160a01b03808516600090815260cd602090815260408083209386168352929052205461209f576001600160a01b038416600090815260ce6020908152604090912054106120605760405162461bcd60e51b815260206004820152605060248201527f53747261746567794d616e616765722e5f6164645368617265733a206465706f60448201527f73697420776f756c6420657863656564204d41585f5354414b45525f5354524160648201526f0a88a8eb2be9892a6a8be988a9c8ea8960831b608482015260a4016106a5565b6001600160a01b03848116600090815260ce602090815260408220805460018101825590835291200180546001600160a01b0319169184169190911790555b6001600160a01b03808516600090815260cd60209081526040808320938616835292905290812080548392906120d6908490613570565b9091555050604080516001600160a01b03868116825285811660208301528416818301526060810183905290517f7cfff908a4b583f36430b25d75964c458d8ede8a99bd61be750e97ee1b2f3a969181900360800190a150505050565b60cb54604080516001600160a01b03928316815291831660208301527f4264275e593955ff9d6146a51a4525f6ddace2e81db9391abcc9d1ca48047d29910160405180910390a160cb80546001600160a01b0319166001600160a01b0392909216919091179055565b604080518082018252600a81526922b4b3b2b72630bcb2b960b11b60209182015281517f8cad95687ba82c2ce50e74f7b754645e5117c3a5bec8151c0726d5857980a866818301527f71b625cfad44bac63b13dba07f2e1d6084ee04b6f8752101ece6126d584ee6ea81840152466060820152306080808301919091528351808303909101815260a0909101909252815191012090565b6097546001600160a01b031615801561225457506001600160a01b03821615155b6122d65760405162461bcd60e51b815260206004820152604760248201527f5061757361626c652e5f696e697469616c697a655061757365723a205f696e6960448201527f7469616c697a6550617573657228292063616e206f6e6c792062652063616c6c6064820152666564206f6e636560c81b608482015260a4016106a5565b609881905560405181815233907fab40a374bc51de372200a8bc981af8c9ecdc08dfdaef0bb6e09f88f3c616ef3d9060200160405180910390a2610b13826117ab565b60008060006123288585612589565b91509150612335816125f9565b509392505050565b604080516001600160a01b0385811660248301528416604482015260648082018490528251808303909101815260849091019091526020810180516001600160e01b03166323b872dd60e01b179052610c459085906127b4565b6001600160a01b038216600090815260ce6020526040812054905b818110156124b2576001600160a01b03848116600090815260ce60205260409020805491851691839081106123e9576123e96133fa565b6000918252602090912001546001600160a01b031614156124aa576001600160a01b038416600090815260ce60205260409020805461242a90600190613588565b8154811061243a5761243a6133fa565b60009182526020808320909101546001600160a01b03878116845260ce9092526040909220805491909216919083908110612477576124776133fa565b9060005260206000200160006101000a8154816001600160a01b0302191690836001600160a01b031602179055506124b2565b6001016123b2565b8181141561253a5760405162461bcd60e51b815260206004820152604960248201527f53747261746567794d616e616765722e5f72656d6f766553747261746567794660448201527f726f6d5374616b657253747261746567794c6973743a207374726174656779206064820152681b9bdd08199bdd5b9960ba1b608482015260a4016106a5565b6001600160a01b038416600090815260ce602052604090208054806125615761256161359f565b600082815260209020810160001990810180546001600160a01b031916905501905550505050565b6000808251604114156125c05760208301516040840151606085015160001a6125b487828585612886565b945094505050506125f2565b8251604014156125ea57602083015160408401516125df868383612973565b9350935050506125f2565b506000905060025b9250929050565b600081600481111561260d5761260d6135b5565b14156126165750565b600181600481111561262a5761262a6135b5565b14156126785760405162461bcd60e51b815260206004820152601860248201527f45434453413a20696e76616c6964207369676e6174757265000000000000000060448201526064016106a5565b600281600481111561268c5761268c6135b5565b14156126da5760405162461bcd60e51b815260206004820152601f60248201527f45434453413a20696e76616c6964207369676e6174757265206c656e6774680060448201526064016106a5565b60038160048111156126ee576126ee6135b5565b14156127475760405162461bcd60e51b815260206004820152602260248201527f45434453413a20696e76616c6964207369676e6174757265202773272076616c604482015261756560f01b60648201526084016106a5565b600481600481111561275b5761275b6135b5565b14156106b75760405162461bcd60e51b815260206004820152602260248201527f45434453413a20696e76616c6964207369676e6174757265202776272076616c604482015261756560f01b60648201526084016106a5565b6000612809826040518060400160405280602081526020017f5361666545524332303a206c6f772d6c6576656c2063616c6c206661696c6564815250856001600160a01b03166129ac9092919063ffffffff16565b8051909150156119bc578080602001905181019061282791906132cd565b6119bc5760405162461bcd60e51b815260206004820152602a60248201527f5361666545524332303a204552433230206f7065726174696f6e20646964206e6044820152691bdd081cdd58d8d9595960b21b60648201526084016106a5565b6000807f7fffffffffffffffffffffffffffffff5d576e7357a4501ddfe92f46681b20a08311156128bd575060009050600361296a565b8460ff16601b141580156128d557508460ff16601c14155b156128e6575060009050600461296a565b6040805160008082526020820180845289905260ff881692820192909252606081018690526080810185905260019060a0016020604051602081039080840390855afa15801561293a573d6000803e3d6000fd5b5050604051601f1901519150506001600160a01b0381166129635760006001925092505061296a565b9150600090505b94509492505050565b6000806001600160ff1b0383168161299060ff86901c601b613570565b905061299e87828885612886565b935093505050935093915050565b60606129bb84846000856129c3565b949350505050565b606082471015612a245760405162461bcd60e51b815260206004820152602660248201527f416464726573733a20696e73756666696369656e742062616c616e636520666f6044820152651c8818d85b1b60d21b60648201526084016106a5565b6001600160a01b0385163b612a7b5760405162461bcd60e51b815260206004820152601d60248201527f416464726573733a2063616c6c20746f206e6f6e2d636f6e747261637400000060448201526064016106a5565b600080866001600160a01b03168587604051612a9791906135cb565b60006040518083038185875af1925050503d8060008114612ad4576040519150601f19603f3d011682016040523d82523d6000602084013e612ad9565b606091505b5091509150612ae9828286612af4565b979650505050505050565b60608315612b03575081611e9f565b825115612b135782518084602001fd5b8160405162461bcd60e51b81526004016106a591906135e7565b6001600160a01b03811681146106b757600080fd5b600060208284031215612b5457600080fd5b8135611e9f81612b2d565b600060208284031215612b7157600080fd5b5035919050565b8035612b8381612b2d565b919050565b634e487b7160e01b600052604160045260246000fd5b60405160c0810167ffffffffffffffff81118282101715612bc157612bc1612b88565b60405290565b604051601f8201601f1916810167ffffffffffffffff81118282101715612bf057612bf0612b88565b604052919050565b60008060008060008060c08789031215612c1157600080fd5b8635612c1c81612b2d565b9550602087810135612c2d81612b2d565b9550604088013594506060880135612c4481612b2d565b93506080880135925060a088013567ffffffffffffffff80821115612c6857600080fd5b818a0191508a601f830112612c7c57600080fd5b813581811115612c8e57612c8e612b88565b612ca0601f8201601f19168501612bc7565b91508082528b84828501011115612cb657600080fd5b80848401858401376000848284010152508093505050509295509295509295565b80151581146106b757600080fd5b60008060408385031215612cf857600080fd5b8235612d0381612b2d565b91506020830135612d1381612cd7565b809150509250929050565b600060208284031215612d3057600080fd5b813560ff81168114611e9f57600080fd5b60008060408385031215612d5457600080fd5b8235612d5f81612b2d565b91506020830135612d1381612b2d565b600080600060608486031215612d8457600080fd5b8335612d8f81612b2d565b92506020840135612d9f81612b2d565b929592945050506040919091013590565b600081518084526020808501945080840160005b83811015612de95781516001600160a01b031687529582019590820190600101612dc4565b509495945050505050565b600081518084526020808501945080840160005b83811015612de957815187529582019590820190600101612e08565b604081526000612e376040830185612db0565b8281036020840152612e498185612df4565b95945050505050565b600067ffffffffffffffff821115612e6c57612e6c612b88565b5060051b60200190565b600082601f830112612e8757600080fd5b81356020612e9c612e9783612e52565b612bc7565b82815260059290921b84018101918181019086841115612ebb57600080fd5b8286015b84811015612edf578035612ed281612b2d565b8352918301918301612ebf565b509695505050505050565b600082601f830112612efb57600080fd5b81356020612f0b612e9783612e52565b82815260059290921b84018101918181019086841115612f2a57600080fd5b8286015b84811015612edf5780358352918301918301612f2e565b600060408284031215612f5757600080fd5b6040516040810181811067ffffffffffffffff82111715612f7a57612f7a612b88565b6040529050808235612f8b81612b2d565b815260208301356bffffffffffffffffffffffff81168114612fac57600080fd5b6020919091015292915050565b803563ffffffff81168114612b8357600080fd5b600060208284031215612fdf57600080fd5b813567ffffffffffffffff80821115612ff757600080fd5b9083019060e0828603121561300b57600080fd5b613013612b9e565b82358281111561302257600080fd5b61302e87828601612e76565b82525060208301358281111561304357600080fd5b61304f87828601612eea565b60208301525061306160408401612b78565b60408201526130738660608501612f45565b606082015261308460a08401612fb9565b608082015261309560c08401612b78565b60a082015295945050505050565b60008083601f8401126130b557600080fd5b50813567ffffffffffffffff8111156130cd57600080fd5b6020830191508360208260051b85010111156125f257600080fd5b600080602083850312156130fb57600080fd5b823567ffffffffffffffff81111561311257600080fd5b61311e858286016130a3565b90969095509350505050565b6000806000806080858703121561314057600080fd5b843561314b81612b2d565b9350602085013561315b81612b2d565b9250604085013561316b81612b2d565b9396929550929360600135925050565b6000806000806080858703121561319157600080fd5b843561319c81612b2d565b935060208501356131ac81612b2d565b92506040850135915060608501356131c381612b2d565b939692955090935050565b600080604083850312156131e157600080fd5b82356131ec81612b2d565b946020939093013593505050565b6000806000806040858703121561321057600080fd5b843567ffffffffffffffff8082111561322857600080fd5b613234888389016130a3565b9096509450602087013591508082111561324d57600080fd5b5061325a878288016130a3565b95989497509550505050565b60006020828403121561327857600080fd5b8151611e9f81612b2d565b6020808252602a908201527f6d73672e73656e646572206973206e6f74207065726d697373696f6e6564206160408201526939903ab73830bab9b2b960b11b606082015260800190565b6000602082840312156132df57600080fd5b8151611e9f81612cd7565b60208082526028908201527f6d73672e73656e646572206973206e6f74207065726d697373696f6e6564206160408201526739903830bab9b2b960c11b606082015260800190565b60208082526044908201527f53747261746567794d616e616765722e6f6e6c7953747261746567795768697460408201527f656c69737465723a206e6f742074686520737472617465677957686974656c6960608201526339ba32b960e11b608082015260a00190565b602080825260409082018190527f53747261746567794d616e616765722e6f6e6c7944656c65676174696f6e4d61908201527f6e616765723a206e6f74207468652044656c65676174696f6e4d616e61676572606082015260800190565b634e487b7160e01b600052603260045260246000fd5b60e08152600061342360e0830189612db0565b82810360208401526134358189612df4565b6001600160a01b0397881660408501528651881660608501526020909601516bffffffffffffffffffffffff166080840152505063ffffffff9290921660a083015290921660c09092019190915292915050565b60006020828403121561349b57600080fd5b8135611e9f81612cd7565b60005b838110156134c15781810151838201526020016134a9565b83811115610c455750506000910152565b600081518084526134ea8160208601602086016134a6565b601f01601f19169290920160200192915050565b8281526040602082015260006129bb60408301846134d2565b60006020828403121561352957600080fd5b81516001600160e01b031981168114611e9f57600080fd5b60006020828403121561355357600080fd5b5051919050565b634e487b7160e01b600052601160045260246000fd5b600082198211156135835761358361355a565b500190565b60008282101561359a5761359a61355a565b500390565b634e487b7160e01b600052603160045260246000fd5b634e487b7160e01b600052602160045260246000fd5b600082516135dd8184602087016134a6565b9190910192915050565b602081526000611e9f60208301846134d256fea2646970667358221220f08e8d42e70dc4ea08c20e602d3bc8374aee27c1d8886baf47239ec2792041e564736f6c634300080c0033",
    "linkReferences": {}
  },
  "methodIdentifiers": {
    "DEPOSIT_TYPEHASH()": "48825e94",
    "DOMAIN_TYPEHASH()": "20606b70",
    "addShares(address,address,address,uint256)": "c4623ea1",
    "addStrategiesToDepositWhitelist(address[],bool[])": "df5b3547",
    "calculateWithdrawalRoot((address[],uint256[],address,(address,uint96),uint32,address))": "b43b514b",
    "delegation()": "df5cf723",
    "depositIntoStrategy(address,address,uint256)": "e7a050aa",
    "depositIntoStrategyWithSignature(address,address,uint256,address,uint256,bytes)": "32e89ace",
    "domainSeparator()": "f698da25",
    "eigenPodManager()": "4665bcda",
    "getDeposits(address)": "94f649dd",
    "initialize(address,address,address,uint256)": "cf756fdf",
    "migrateQueuedWithdrawal((address[],uint256[],address,(address,uint96),uint32,address))": "cd293f6f",
    "nonces(address)": "7ecebe00",
    "owner()": "8da5cb5b",
    "pause(uint256)": "136439dd",
    "pauseAll()": "595c6a67",
    "paused()": "5c975abb",
    "paused(uint8)": "5ac86ab7",
    "pauserRegistry()": "886f1195",
    "removeShares(address,address,uint256)": "8c80d4e5",
    "removeStrategiesFromDepositWhitelist(address[])": "b5d8b5b8",
    "renounceOwnership()": "715018a6",
    "setPauserRegistry(address)": "10d67a2f",
    "setStrategyWhitelister(address)": "c6656702",
    "setThirdPartyTransfersForbidden(address,bool)": "4e5a4263",
    "slasher()": "b1344271",
    "stakerStrategyList(address,uint256)": "cbc2bd62",
    "stakerStrategyListLength(address)": "8b8aac3c",
    "stakerStrategyShares(address,address)": "7a7e0d92",
    "strategyIsWhitelistedForDeposit(address)": "663c1de4",
    "strategyWhitelister()": "967fc0d2",
    "thirdPartyTransfersForbidden(address)": "9b4da03d",
    "transferOwnership(address)": "f2fde38b",
    "unpause(uint256)": "fabc1cbc",
    "withdrawSharesAsTokens(address,address,uint256,address)": "c608c7f3",
    "withdrawalRootPending(bytes32)": "c3c6b3a9"
  },
  "id": 6
}