{
  "abi": [
    {
      "anonymous": false,
      "inputs": [
        {
          "indexed": false,
          "internalType": "bytes",
          "name": "pubkey",
          "type": "bytes"
        },
        {
          "indexed": false,
          "internalType": "bytes",
          "name": "withdrawal_credentials",
          "type": "bytes"
        },
        {
          "indexed": false,
          "internalType": "bytes",
          "name": "amount",
          "type": "bytes"
        },
        {
          "indexed": false,
          "internalType": "bytes",
          "name": "signature",
          "type": "bytes"
        },
        {
          "indexed": false,
          "internalType": "bytes",
          "name": "index",
          "type": "bytes"
        }
      ],
      "name": "DepositEvent",
      "type": "event"
    },
    {
      "inputs": [
        {
          "internalType": "bytes",
          "name": "pubkey",
          "type": "bytes"
        },
        {
          "internalType": "bytes",
          "name": "withdrawal_credentials",
          "type": "bytes"
        },
        {
          "internalType": "bytes",
          "name": "signature",
          "type": "bytes"
        },
        {
          "internalType": "bytes32",
          "name": "deposit_data_root",
          "type": "bytes32"
        }
      ],
      "name": "deposit",
      "outputs": [],
      "stateMutability": "payable",
      "type": "function"
    },
    {
      "inputs": [],
      "name": "get_deposit_count",
      "outputs": [
        {
          "internalType": "bytes",
          "name": "",
          "type": "bytes"
        }
      ],
      "stateMutability": "pure",
      "type": "function"
    },
    {
      "inputs": [],
      "name": "get_deposit_root",
      "outputs": [
        {
          "internalType": "bytes32",
          "name": "",
          "type": "bytes32"
        }
      ],
      "stateMutability": "pure",
      "type": "function"
    }
  ],
  "bytecode": {
    "object": "0x608060405234801561001057600080fd5b5061020a806100206000396000f3fe6080604052600436106100345760003560e01c80632289511814610039578063621fd13014610052578063c5f2892f14610077575b600080fd5b6100506100473660046100dc565b50505050505050565b005b34801561005e57600080fd5b50606060405161006e919061017f565b60405180910390f35b34801561008357600080fd5b506040516000815260200161006e565b60008083601f8401126100a557600080fd5b50813567ffffffffffffffff8111156100bd57600080fd5b6020830191508360208285010111156100d557600080fd5b9250929050565b60008060008060008060006080888a0312156100f757600080fd5b873567ffffffffffffffff8082111561010f57600080fd5b61011b8b838c01610093565b909950975060208a013591508082111561013457600080fd5b6101408b838c01610093565b909750955060408a013591508082111561015957600080fd5b506101668a828b01610093565b989b979a50959894979596606090950135949350505050565b600060208083528351808285015260005b818110156101ac57858101830151858201604001528201610190565b818111156101be576000604083870101525b50601f01601f191692909201604001939250505056fea26469706673582212204490f93a8c05cf823d95144fc8ea1194bbd4d1fe6439c75dfe7218d96c72b7b164736f6c634300080c0033",
    "linkReferences": {}
  },
  "methodIdentifiers": {
    "deposit(bytes,bytes,bytes,bytes32)": "22895118",
    "get_deposit_count()": "621fd130",
    "get_deposit_root()": "c5f2892f"
  },
  "id": 37
}