{
  "abi": [
    {
      "anonymous": false,
      "inputs": [
        {
          "indexed": false,
          "internalType": "uint256",
          "name": "previousValue",
          "type": "uint256"
        },
        {
          "indexed": false,
          "internalType": "uint256",
          "name": "newValue",
          "type": "uint256"
        }
      ],
      "name": "MinWithdrawalDelayBlocksSet",
      "type": "event"
    },
    {
      "anonymous": false,
      "inputs": [
        {
          "indexed": true,
          "internalType": "address",
          "name": "operator",
          "type": "address"
        },
        {
          "components": [
            {
              "internalType": "address",
              "name": "earningsReceiver",
              "type": "address"
            },
            {
              "internalType": "address",
              "name": "delegationApprover",
              "type": "address"
            },
            {
              "internalType": "uint32",
              "name": "stakerOptOutWindowBlocks",
              "type": "uint32"
            }
          ],
          "indexed": false,
          "internalType": "struct IDelegationManager.OperatorDetails",
          "name": "newOperatorDetails",
          "type": "tuple"
        }
      ],
      "name": "OperatorDetailsModified",
      "type": "event"
    },
    {
      "anonymous": false,
      "inputs": [
        {
          "indexed": true,
          "internalType": "address",
          "name": "operator",
          "type": "address"
        },
        {
          "indexed": false,
          "internalType": "string",
          "name": "metadataURI",
          "type": "string"
        }
      ],
      "name": "OperatorMetadataURIUpdated",
      "type": "event"
    },
    {
      "anonymous": false,
      "inputs": [
        {
          "indexed": true,
          "internalType": "address",
          "name": "operator",
          "type": "address"
        },
        {
          "components": [
            {
              "internalType": "address",
              "name": "earningsReceiver",
              "type": "address"
            },
            {
              "internalType": "address",
              "name": "delegationApprover",
              "type": "address"
            },
            {
              "internalType": "uint32",
              "name": "stakerOptOutWindowBlocks",
              "type": "uint32"
            }
          ],
          "indexed": false,
          "internalType": "struct IDelegationManager.OperatorDetails",
          "name": "operatorDetails",
          "type": "tuple"
        }
      ],
      "name": "OperatorRegistered",
      "type": "event"
    },
    {
      "anonymous": false,
      "inputs": [
        {
          "indexed": true,
          "internalType": "address",
          "name": "operator",
          "type": "address"
        },
        {
          "indexed": false,
          "internalType": "address",
          "name": "staker",
          "type": "address"
        },
        {
          "indexed": false,
          "internalType": "contract IStrategy",
          "name": "strategy",
          "type": "address"
        },
        {
          "indexed": false,
          "internalType": "uint256",
          "name": "shares",
          "type": "uint256"
        }
      ],
      "name": "OperatorSharesDecreased",
      "type": "event"
    },
    {
      "anonymous": false,
      "inputs": [
        {
          "indexed": true,
          "internalType": "address",
          "name": "operator",
          "type": "address"
        },
        {
          "indexed": false,
          "internalType": "address",
          "name": "staker",
          "type": "address"
        },
        {
          "indexed": false,
          "internalType": "contract IStrategy",
          "name": "strategy",
          "type": "address"
        },
        {
          "indexed": false,
          "internalType": "uint256",
          "name": "shares",
          "type": "uint256"
        }
      ],
      "name": "OperatorSharesIncreased",
      "type": "event"
    },
    {
      "anonymous": false,
      "inputs": [
        {
          "indexed": true,
          "internalType": "address",
          "name": "staker",
          "type": "address"
        },
        {
          "indexed": true,
          "internalType": "address",
          "name": "operator",
          "type": "address"
        }
      ],
      "name": "StakerDelegated",
      "type": "event"
    },
    {
      "anonymous": false,
      "inputs": [
        {
          "indexed": true,
          "internalType": "address",
          "name": "staker",
          "type": "address"
        },
        {
          "indexed": true,
          "internalType": "address",
          "name": "operator",
          "type": "address"
        }
      ],
      "name": "StakerForceUndelegated",
      "type": "event"
    },
    {
      "anonymous": false,
      "inputs": [
        {
          "indexed": true,
          "internalType": "address",
          "name": "staker",
          "type": "address"
        },
        {
          "indexed": true,
          "internalType": "address",
          "name": "operator",
          "type": "address"
        }
      ],
      "name": "StakerUndelegated",
      "type": "event"
    },
    {
      "anonymous": false,
      "inputs": [
        {
          "indexed": false,
          "internalType": "contract IStrategy",
          "name": "strategy",
          "type": "address"
        },
        {
          "indexed": false,
          "internalType": "uint256",
          "name": "previousValue",
          "type": "uint256"
        },
        {
          "indexed": false,
          "internalType": "uint256",
          "name": "newValue",
          "type": "uint256"
        }
      ],
      "name": "StrategyWithdrawalDelayBlocksSet",
      "type": "event"
    },
    {
      "anonymous": false,
      "inputs": [
        {
          "indexed": false,
          "internalType": "bytes32",
          "name": "withdrawalRoot",
          "type": "bytes32"
        }
      ],
      "name": "WithdrawalCompleted",
      "type": "event"
    },
    {
      "anonymous": false,
      "inputs": [
        {
          "indexed": false,
          "internalType": "bytes32",
          "name": "oldWithdrawalRoot",
          "type": "bytes32"
        },
        {
          "indexed": false,
          "internalType": "bytes32",
          "name": "newWithdrawalRoot",
          "type": "bytes32"
        }
      ],
      "name": "WithdrawalMigrated",
      "type": "event"
    },
    {
      "anonymous": false,
      "inputs": [
        {
          "indexed": false,
          "internalType": "bytes32",
          "name": "withdrawalRoot",
          "type": "bytes32"
        },
        {
          "components": [
            {
              "internalType": "address",
              "name": "staker",
              "type": "address"
            },
            {
              "internalType": "address",
              "name": "delegatedTo",
              "type": "address"
            },
            {
              "internalType": "address",
              "name": "withdrawer",
              "type": "address"
            },
            {
              "internalType": "uint256",
              "name": "nonce",
              "type": "uint256"
            },
            {
              "internalType": "uint32",
              "name": "startBlock",
              "type": "uint32"
            },
            {
              "internalType": "contract IStrategy[]",
              "name": "strategies",
              "type": "address[]"
            },
            {
              "internalType": "uint256[]",
              "name": "shares",
              "type": "uint256[]"
            }
          ],
          "indexed": false,
          "internalType": "struct IDelegationManager.Withdrawal",
          "name": "withdrawal",
          "type": "tuple"
        }
      ],
      "name": "WithdrawalQueued",
      "type": "event"
    },
    {
      "inputs": [],
      "name": "DELEGATION_APPROVAL_TYPEHASH",
      "outputs": [
        {
          "internalType": "bytes32",
          "name": "",
          "type": "bytes32"
        }
      ],
      "stateMutability": "view",
      "type": "function"
    },
    {
      "inputs": [],
      "name": "DOMAIN_TYPEHASH",
      "outputs": [
        {
          "internalType": "bytes32",
          "name": "",
          "type": "bytes32"
        }
      ],
      "stateMutability": "view",
      "type": "function"
    },
    {
      "inputs": [],
      "name": "STAKER_DELEGATION_TYPEHASH",
      "outputs": [
        {
          "internalType": "bytes32",
          "name": "",
          "type": "bytes32"
        }
      ],
      "stateMutability": "view",
      "type": "function"
    },
    {
      "inputs": [
        {
          "internalType": "contract IStrategyManager",
          "name": "strategyManager",
          "type": "address"
        },
        {
          "internalType": "address",
          "name": "staker",
          "type": "address"
        },
        {
          "internalType": "contract IERC20",
          "name": "token",
          "type": "address"
        },
        {
          "internalType": "contract IStrategy",
          "name": "strategy",
          "type": "address"
        },
        {
          "internalType": "uint256",
          "name": "shares",
          "type": "uint256"
        }
      ],
      "name": "addShares",
      "outputs": [],
      "stateMutability": "nonpayable",
      "type": "function"
    },
    {
      "inputs": [
        {
          "internalType": "address",
          "name": "",
          "type": "address"
        },
        {
          "internalType": "address",
          "name": "",
          "type": "address"
        },
        {
          "internalType": "uint256",
          "name": "",
          "type": "uint256"
        }
      ],
      "name": "calculateApproverDigestHash",
      "outputs": [
        {
          "internalType": "bytes32",
          "name": "approverDigestHash",
          "type": "bytes32"
        }
      ],
      "stateMutability": "pure",
      "type": "function"
    },
    {
      "inputs": [
        {
          "internalType": "address",
          "name": "",
          "type": "address"
        },
        {
          "internalType": "address",
          "name": "",
          "type": "address"
        },
        {
          "internalType": "uint256",
          "name": "",
          "type": "uint256"
        }
      ],
      "name": "calculateCurrentStakerDelegationDigestHash",
      "outputs": [
        {
          "internalType": "bytes32",
          "name": "",
          "type": "bytes32"
        }
      ],
      "stateMutability": "view",
      "type": "function"
    },
    {
      "inputs": [
        {
          "internalType": "address",
          "name": "",
          "type": "address"
        },
        {
          "internalType": "address",
          "name": "",
          "type": "address"
        },
        {
          "internalType": "address",
          "name": "",
          "type": "address"
        },
        {
          "internalType": "bytes32",
          "name": "",
          "type": "bytes32"
        },
        {
          "internalType": "uint256",
          "name": "",
          "type": "uint256"
        }
      ],
      "name": "calculateDelegationApprovalDigestHash",
      "outputs": [
        {
          "internalType": "bytes32",
          "name": "",
          "type": "bytes32"
        }
      ],
      "stateMutability": "view",
      "type": "function"
    },
    {
      "inputs": [
        {
          "internalType": "address",
          "name": "",
          "type": "address"
        },
        {
          "internalType": "address",
          "name": "",
          "type": "address"
        },
        {
          "internalType": "bytes32",
          "name": "",
          "type": "bytes32"
        },
        {
          "internalType": "uint256",
          "name": "",
          "type": "uint256"
        }
      ],
      "name": "calculateOperatorAVSRegistrationDigestHash",
      "outputs": [
        {
          "internalType": "bytes32",
          "name": "digestHash",
          "type": "bytes32"
        }
      ],
      "stateMutability": "pure",
      "type": "function"
    },
    {
      "inputs": [
        {
          "internalType": "address",
          "name": "",
          "type": "address"
        },
        {
          "internalType": "uint256",
          "name": "",
          "type": "uint256"
        },
        {
          "internalType": "address",
          "name": "",
          "type": "address"
        },
        {
          "internalType": "uint256",
          "name": "",
          "type": "uint256"
        }
      ],
      "name": "calculateStakerDelegationDigestHash",
      "outputs": [
        {
          "internalType": "bytes32",
          "name": "",
          "type": "bytes32"
        }
      ],
      "stateMutability": "view",
      "type": "function"
    },
    {
      "inputs": [
        {
          "internalType": "address",
          "name": "",
          "type": "address"
        },
        {
          "internalType": "address",
          "name": "",
          "type": "address"
        },
        {
          "internalType": "uint256",
          "name": "",
          "type": "uint256"
        }
      ],
      "name": "calculateStakerDigestHash",
      "outputs": [
        {
          "internalType": "bytes32",
          "name": "stakerDigestHash",
          "type": "bytes32"
        }
      ],
      "stateMutability": "pure",
      "type": "function"
    },
    {
      "inputs": [
        {
          "components": [
            {
              "internalType": "address",
              "name": "staker",
              "type": "address"
            },
            {
              "internalType": "address",
              "name": "delegatedTo",
              "type": "address"
            },
            {
              "internalType": "address",
              "name": "withdrawer",
              "type": "address"
            },
            {
              "internalType": "uint256",
              "name": "nonce",
              "type": "uint256"
            },
            {
              "internalType": "uint32",
              "name": "startBlock",
              "type": "uint32"
            },
            {
              "internalType": "contract IStrategy[]",
              "name": "strategies",
              "type": "address[]"
            },
            {
              "internalType": "uint256[]",
              "name": "shares",
              "type": "uint256[]"
            }
          ],
          "internalType": "struct IDelegationManager.Withdrawal",
          "name": "withdrawal",
          "type": "tuple"
        }
      ],
      "name": "calculateWithdrawalRoot",
      "outputs": [
        {
          "internalType": "bytes32",
          "name": "",
          "type": "bytes32"
        }
      ],
      "stateMutability": "pure",
      "type": "function"
    },
    {
      "inputs": [
        {
          "components": [
            {
              "internalType": "address",
              "name": "staker",
              "type": "address"
            },
            {
              "internalType": "address",
              "name": "delegatedTo",
              "type": "address"
            },
            {
              "internalType": "address",
              "name": "withdrawer",
              "type": "address"
            },
            {
              "internalType": "uint256",
              "name": "nonce",
              "type": "uint256"
            },
            {
              "internalType": "uint32",
              "name": "startBlock",
              "type": "uint32"
            },
            {
              "internalType": "contract IStrategy[]",
              "name": "strategies",
              "type": "address[]"
            },
            {
              "internalType": "uint256[]",
              "name": "shares",
              "type": "uint256[]"
            }
          ],
          "internalType": "struct IDelegationManager.Withdrawal",
          "name": "withdrawal",
          "type": "tuple"
        },
        {
          "internalType": "contract IERC20[]",
          "name": "tokens",
          "type": "address[]"
        },
        {
          "internalType": "uint256",
          "name": "middlewareTimesIndex",
          "type": "uint256"
        },
        {
          "internalType": "bool",
          "name": "receiveAsTokens",
          "type": "bool"
        }
      ],
      "name": "completeQueuedWithdrawal",
      "outputs": [],
      "stateMutability": "nonpayable",
      "type": "function"
    },
    {
      "inputs": [
        {
          "components": [
            {
              "internalType": "address",
              "name": "staker",
              "type": "address"
            },
            {
              "internalType": "address",
              "name": "delegatedTo",
              "type": "address"
            },
            {
              "internalType": "address",
              "name": "withdrawer",
              "type": "address"
            },
            {
              "internalType": "uint256",
              "name": "nonce",
              "type": "uint256"
            },
            {
              "internalType": "uint32",
              "name": "startBlock",
              "type": "uint32"
            },
            {
              "internalType": "contract IStrategy[]",
              "name": "strategies",
              "type": "address[]"
            },
            {
              "internalType": "uint256[]",
              "name": "shares",
              "type": "uint256[]"
            }
          ],
          "internalType": "struct IDelegationManager.Withdrawal[]",
          "name": "withdrawals",
          "type": "tuple[]"
        },
        {
          "internalType": "contract IERC20[][]",
          "name": "tokens",
          "type": "address[][]"
        },
        {
          "internalType": "uint256[]",
          "name": "middlewareTimesIndexes",
          "type": "uint256[]"
        },
        {
          "internalType": "bool[]",
          "name": "receiveAsTokens",
          "type": "bool[]"
        }
      ],
      "name": "completeQueuedWithdrawals",
      "outputs": [],
      "stateMutability": "nonpayable",
      "type": "function"
    },
    {
      "inputs": [
        {
          "internalType": "address",
          "name": "staker",
          "type": "address"
        }
      ],
      "name": "cumulativeWithdrawalsQueued",
      "outputs": [
        {
          "internalType": "uint256",
          "name": "",
          "type": "uint256"
        }
      ],
      "stateMutability": "view",
      "type": "function"
    },
    {
      "inputs": [
        {
          "internalType": "address",
          "name": "",
          "type": "address"
        },
        {
          "internalType": "contract IStrategy",
          "name": "",
          "type": "address"
        },
        {
          "internalType": "uint256",
          "name": "",
          "type": "uint256"
        }
      ],
      "name": "decreaseDelegatedShares",
      "outputs": [],
      "stateMutability": "pure",
      "type": "function"
    },
    {
      "inputs": [
        {
          "internalType": "address",
          "name": "operator",
          "type": "address"
        },
        {
          "components": [
            {
              "internalType": "bytes",
              "name": "signature",
              "type": "bytes"
            },
            {
              "internalType": "uint256",
              "name": "expiry",
              "type": "uint256"
            }
          ],
          "internalType": "struct ISignatureUtils.SignatureWithExpiry",
          "name": "",
          "type": "tuple"
        },
        {
          "internalType": "bytes32",
          "name": "",
          "type": "bytes32"
        }
      ],
      "name": "delegateTo",
      "outputs": [],
      "stateMutability": "nonpayable",
      "type": "function"
    },
    {
      "inputs": [
        {
          "internalType": "address",
          "name": "",
          "type": "address"
        },
        {
          "internalType": "address",
          "name": "",
          "type": "address"
        },
        {
          "components": [
            {
              "internalType": "bytes",
              "name": "signature",
              "type": "bytes"
            },
            {
              "internalType": "uint256",
              "name": "expiry",
              "type": "uint256"
            }
          ],
          "internalType": "struct ISignatureUtils.SignatureWithExpiry",
          "name": "",
          "type": "tuple"
        },
        {
          "components": [
            {
              "internalType": "bytes",
              "name": "signature",
              "type": "bytes"
            },
            {
              "internalType": "uint256",
              "name": "expiry",
              "type": "uint256"
            }
          ],
          "internalType": "struct ISignatureUtils.SignatureWithExpiry",
          "name": "",
          "type": "tuple"
        },
        {
          "internalType": "bytes32",
          "name": "",
          "type": "bytes32"
        }
      ],
      "name": "delegateToBySignature",
      "outputs": [],
      "stateMutability": "pure",
      "type": "function"
    },
    {
      "inputs": [
        {
          "internalType": "address",
          "name": "",
          "type": "address"
        }
      ],
      "name": "delegatedTo",
      "outputs": [
        {
          "internalType": "address",
          "name": "",
          "type": "address"
        }
      ],
      "stateMutability": "view",
      "type": "function"
    },
    {
      "inputs": [
        {
          "internalType": "address",
          "name": "operator",
          "type": "address"
        }
      ],
      "name": "delegationApprover",
      "outputs": [
        {
          "internalType": "address",
          "name": "",
          "type": "address"
        }
      ],
      "stateMutability": "pure",
      "type": "function"
    },
    {
      "inputs": [
        {
          "internalType": "address",
          "name": "",
          "type": "address"
        },
        {
          "internalType": "bytes32",
          "name": "",
          "type": "bytes32"
        }
      ],
      "name": "delegationApproverSaltIsSpent",
      "outputs": [
        {
          "internalType": "bool",
          "name": "",
          "type": "bool"
        }
      ],
      "stateMutability": "pure",
      "type": "function"
    },
    {
      "inputs": [],
      "name": "domainSeparator",
      "outputs": [
        {
          "internalType": "bytes32",
          "name": "",
          "type": "bytes32"
        }
      ],
      "stateMutability": "view",
      "type": "function"
    },
    {
      "inputs": [
        {
          "internalType": "address",
          "name": "operator",
          "type": "address"
        }
      ],
      "name": "earningsReceiver",
      "outputs": [
        {
          "internalType": "address",
          "name": "",
          "type": "address"
        }
      ],
      "stateMutability": "pure",
      "type": "function"
    },
    {
      "inputs": [
        {
          "internalType": "address",
          "name": "operator",
          "type": "address"
        },
        {
          "internalType": "contract IStrategy[]",
          "name": "strategies",
          "type": "address[]"
        }
      ],
      "name": "getOperatorShares",
      "outputs": [
        {
          "internalType": "uint256[]",
          "name": "",
          "type": "uint256[]"
        }
      ],
      "stateMutability": "view",
      "type": "function"
    },
    {
      "inputs": [
        {
          "internalType": "contract IStrategy[]",
          "name": "",
          "type": "address[]"
        }
      ],
      "name": "getWithdrawalDelay",
      "outputs": [
        {
          "internalType": "uint256",
          "name": "",
          "type": "uint256"
        }
      ],
      "stateMutability": "view",
      "type": "function"
    },
    {
      "inputs": [
        {
          "internalType": "address",
          "name": "",
          "type": "address"
        },
        {
          "internalType": "contract IStrategy",
          "name": "",
          "type": "address"
        },
        {
          "internalType": "uint256",
          "name": "",
          "type": "uint256"
        }
      ],
      "name": "increaseDelegatedShares",
      "outputs": [],
      "stateMutability": "pure",
      "type": "function"
    },
    {
      "inputs": [
        {
          "internalType": "address",
          "name": "staker",
          "type": "address"
        }
      ],
      "name": "isDelegated",
      "outputs": [
        {
          "internalType": "bool",
          "name": "",
          "type": "bool"
        }
      ],
      "stateMutability": "view",
      "type": "function"
    },
    {
      "inputs": [
        {
          "internalType": "address",
          "name": "",
          "type": "address"
        }
      ],
      "name": "isNotDelegated",
      "outputs": [
        {
          "internalType": "bool",
          "name": "",
          "type": "bool"
        }
      ],
      "stateMutability": "pure",
      "type": "function"
    },
    {
      "inputs": [
        {
          "internalType": "address",
          "name": "",
          "type": "address"
        }
      ],
      "name": "isOperator",
      "outputs": [
        {
          "internalType": "bool",
          "name": "",
          "type": "bool"
        }
      ],
      "stateMutability": "view",
      "type": "function"
    },
    {
      "inputs": [
        {
          "components": [
            {
              "internalType": "contract IStrategy[]",
              "name": "strategies",
              "type": "address[]"
            },
            {
              "internalType": "uint256[]",
              "name": "shares",
              "type": "uint256[]"
            },
            {
              "internalType": "address",
              "name": "staker",
              "type": "address"
            },
            {
              "components": [
                {
                  "internalType": "address",
                  "name": "withdrawer",
                  "type": "address"
                },
                {
                  "internalType": "uint96",
                  "name": "nonce",
                  "type": "uint96"
                }
              ],
              "internalType": "struct IStrategyManager.DeprecatedStruct_WithdrawerAndNonce",
              "name": "withdrawerAndNonce",
              "type": "tuple"
            },
            {
              "internalType": "uint32",
              "name": "withdrawalStartBlock",
              "type": "uint32"
            },
            {
              "internalType": "address",
              "name": "delegatedAddress",
              "type": "address"
            }
          ],
          "internalType": "struct IStrategyManager.DeprecatedStruct_QueuedWithdrawal[]",
          "name": "withdrawalsToQueue",
          "type": "tuple[]"
        }
      ],
      "name": "migrateQueuedWithdrawals",
      "outputs": [],
      "stateMutability": "nonpayable",
      "type": "function"
    },
    {
      "inputs": [],
      "name": "minWithdrawalDelayBlocks",
      "outputs": [
        {
          "internalType": "uint256",
          "name": "",
          "type": "uint256"
        }
      ],
      "stateMutability": "view",
      "type": "function"
    },
    {
      "inputs": [
        {
          "components": [
            {
              "internalType": "address",
              "name": "earningsReceiver",
              "type": "address"
            },
            {
              "internalType": "address",
              "name": "delegationApprover",
              "type": "address"
            },
            {
              "internalType": "uint32",
              "name": "stakerOptOutWindowBlocks",
              "type": "uint32"
            }
          ],
          "internalType": "struct IDelegationManager.OperatorDetails",
          "name": "",
          "type": "tuple"
        }
      ],
      "name": "modifyOperatorDetails",
      "outputs": [],
      "stateMutability": "pure",
      "type": "function"
    },
    {
      "inputs": [
        {
          "internalType": "address",
          "name": "operator",
          "type": "address"
        }
      ],
      "name": "operatorDetails",
      "outputs": [
        {
          "components": [
            {
              "internalType": "address",
              "name": "earningsReceiver",
              "type": "address"
            },
            {
              "internalType": "address",
              "name": "delegationApprover",
              "type": "address"
            },
            {
              "internalType": "uint32",
              "name": "stakerOptOutWindowBlocks",
              "type": "uint32"
            }
          ],
          "internalType": "struct IDelegationManager.OperatorDetails",
          "name": "",
          "type": "tuple"
        }
      ],
      "stateMutability": "pure",
      "type": "function"
    },
    {
      "inputs": [
        {
          "internalType": "address",
          "name": "avs",
          "type": "address"
        },
        {
          "internalType": "bytes32",
          "name": "salt",
          "type": "bytes32"
        }
      ],
      "name": "operatorSaltIsSpent",
      "outputs": [
        {
          "internalType": "bool",
          "name": "",
          "type": "bool"
        }
      ],
      "stateMutability": "view",
      "type": "function"
    },
    {
      "inputs": [
        {
          "internalType": "address",
          "name": "",
          "type": "address"
        },
        {
          "internalType": "contract IStrategy",
          "name": "",
          "type": "address"
        }
      ],
      "name": "operatorShares",
      "outputs": [
        {
          "internalType": "uint256",
          "name": "",
          "type": "uint256"
        }
      ],
      "stateMutability": "view",
      "type": "function"
    },
    {
      "inputs": [
        {
          "components": [
            {
              "internalType": "contract IStrategy[]",
              "name": "strategies",
              "type": "address[]"
            },
            {
              "internalType": "uint256[]",
              "name": "shares",
              "type": "uint256[]"
            },
            {
              "internalType": "address",
              "name": "withdrawer",
              "type": "address"
            }
          ],
          "internalType": "struct IDelegationManager.QueuedWithdrawalParams[]",
          "name": "queuedWithdrawalParams",
          "type": "tuple[]"
        }
      ],
      "name": "queueWithdrawals",
      "outputs": [
        {
          "internalType": "bytes32[]",
          "name": "",
          "type": "bytes32[]"
        }
      ],
      "stateMutability": "nonpayable",
      "type": "function"
    },
    {
      "inputs": [
        {
          "components": [
            {
              "internalType": "address",
              "name": "earningsReceiver",
              "type": "address"
            },
            {
              "internalType": "address",
              "name": "delegationApprover",
              "type": "address"
            },
            {
              "internalType": "uint32",
              "name": "stakerOptOutWindowBlocks",
              "type": "uint32"
            }
          ],
          "internalType": "struct IDelegationManager.OperatorDetails",
          "name": "",
          "type": "tuple"
        },
        {
          "internalType": "string",
          "name": "",
          "type": "string"
        }
      ],
      "name": "registerAsOperator",
      "outputs": [],
      "stateMutability": "pure",
      "type": "function"
    },
    {
      "inputs": [
        {
          "internalType": "contract IStrategyManager",
          "name": "strategyManager",
          "type": "address"
        },
        {
          "internalType": "address",
          "name": "staker",
          "type": "address"
        },
        {
          "internalType": "contract IStrategy",
          "name": "strategy",
          "type": "address"
        },
        {
          "internalType": "uint256",
          "name": "shares",
          "type": "uint256"
        }
      ],
      "name": "removeShares",
      "outputs": [],
      "stateMutability": "nonpayable",
      "type": "function"
    },
    {
      "inputs": [
        {
          "internalType": "address",
          "name": "operator",
          "type": "address"
        },
        {
          "internalType": "bool",
          "name": "_isOperatorReturnValue",
          "type": "bool"
        }
      ],
      "name": "setIsOperator",
      "outputs": [],
      "stateMutability": "nonpayable",
      "type": "function"
    },
    {
      "inputs": [
        {
          "internalType": "address",
          "name": "operator",
          "type": "address"
        },
        {
          "internalType": "contract IStrategy",
          "name": "strategy",
          "type": "address"
        },
        {
          "internalType": "uint256",
          "name": "shares",
          "type": "uint256"
        }
      ],
      "name": "setOperatorShares",
      "outputs": [],
      "stateMutability": "nonpayable",
      "type": "function"
    },
    {
      "inputs": [
        {
          "internalType": "address",
          "name": "",
          "type": "address"
        }
      ],
      "name": "stakerNonce",
      "outputs": [
        {
          "internalType": "uint256",
          "name": "",
          "type": "uint256"
        }
      ],
      "stateMutability": "pure",
      "type": "function"
    },
    {
      "inputs": [
        {
          "internalType": "address",
          "name": "",
          "type": "address"
        }
      ],
      "name": "stakerOptOutWindowBlocks",
      "outputs": [
        {
          "internalType": "uint256",
          "name": "",
          "type": "uint256"
        }
      ],
      "stateMutability": "pure",
      "type": "function"
    },
    {
      "inputs": [
        {
          "internalType": "contract IStrategy",
          "name": "",
          "type": "address"
        }
      ],
      "name": "strategyWithdrawalDelayBlocks",
      "outputs": [
        {
          "internalType": "uint256",
          "name": "",
          "type": "uint256"
        }
      ],
      "stateMutability": "view",
      "type": "function"
    },
    {
      "inputs": [
        {
          "internalType": "address",
          "name": "staker",
          "type": "address"
        }
      ],
      "name": "undelegate",
      "outputs": [
        {
          "internalType": "bytes32[]",
          "name": "withdrawalRoot",
          "type": "bytes32[]"
        }
      ],
      "stateMutability": "nonpayable",
      "type": "function"
    },
    {
      "inputs": [
        {
          "internalType": "string",
          "name": "",
          "type": "string"
        }
      ],
      "name": "updateAVSMetadataURI",
      "outputs": [],
      "stateMutability": "pure",
      "type": "function"
    },
    {
      "inputs": [
        {
          "internalType": "string",
          "name": "",
          "type": "string"
        }
      ],
      "name": "updateOperatorMetadataURI",
      "outputs": [],
      "stateMutability": "pure",
      "type": "function"
    },
    {
      "inputs": [
        {
          "internalType": "contract IStrategyManager",
          "name": "strategyManager",
          "type": "address"
        },
        {
          "internalType": "address",
          "name": "recipient",
          "type": "address"
        },
        {
          "internalType": "contract IStrategy",
          "name": "strategy",
          "type": "address"
        },
        {
          "internalType": "uint256",
          "name": "shares",
          "type": "uint256"
        },
        {
          "internalType": "contract IERC20",
          "name": "token",
          "type": "address"
        }
      ],
      "name": "withdrawSharesAsTokens",
      "outputs": [],
      "stateMutability": "nonpayable",
      "type": "function"
    }
  ],
  "bytecode": {
    "object": "0x608060405234801561001057600080fd5b50611584806100206000396000f3fe608060405234801561001057600080fd5b506004361061028a5760003560e01c80636d70f7ae1161015c578063bb45fef2116100ce578063cbb5d4db11610087578063cbb5d4db146105b1578063da8be864146105ea578063dbe35bd814610622578063eea9064b1461065c578063f16172b01461069b578063f698da25146102b857600080fd5b8063bb45fef21461037f578063bc56ff6614610500578063c448feb814610513578063c488375a1461031e578063c5e480db1461051b578063c94b5111146105a357600080fd5b8063900413471161012057806390041347146104c3578063965682711461033257806399be81c8146104d6578063a1060c88146104e8578063a17884841461031e578063a98fb355146104d657600080fd5b80636d70f7ae1461045457806374d898d714610332578063778e55f3146104775780637f548071146104a25780638d90cd56146104b057600080fd5b806329c77d4f11610200578063597b36da116101b9578063597b36da146103e45780635cfe8d2c146103f25780635f966f141461038d57806360d7faed1461040357806365da12641461041857806367f292c71461044157600080fd5b806329c77d4f1461031e5780633340439614610367578063374823b51461037f5780633cdeb5e01461038d5780633e28391d146103b657806343377382146102b857600080fd5b8063132d496711610252578063132d496714610310578063169283651461031e5780631bbce091146103325780631d3696b71461034957806320606b70146102b857806328a573ae1461031057600080fd5b80630449ca391461028f57806304a4f979146102b85780630b9f487a146102bf5780630dd8dd02146102d85780630f589e59146102fb575b600080fd5b6102a561029d3660046108fb565b600092915050565b6040519081526020015b60405180910390f35b60006102a5565b6102a56102cd366004610961565b600095945050505050565b6102ee6102e63660046108fb565b606092915050565b6040516102af91906109bc565b61030e610309366004610a59565b505050565b005b61030e610309366004610aac565b6102a561032c366004610aed565b50600090565b6102a5610340366004610aac565b60009392505050565b61035761032c366004610aed565b60405190151581526020016102af565b61030e610375366004610b11565b5050505050505050565b61035761029d366004610bd4565b61039e61039b366004610aed565b90565b6040516001600160a01b0390911681526020016102af565b6103576103c4366004610aed565b6001600160a01b0390811660009081526002602052604090205416151590565b6102a561032c366004610db8565b61030e610400366004610ee9565b50565b61030e61041136600461104b565b5050505050565b61039e610426366004610aed565b6002602052600090815260409020546001600160a01b031681565b61030e61044f3660046110d6565b6106a9565b610357610462366004610aed565b60006020819052908152604090205460ff1681565b6102a561048536600461113e565b600160209081526000928352604080842090915290825290205481565b61030e61041136600461121f565b61030e6104be3660046112af565b610723565b6102ee6104d1366004611300565b610789565b61030e6104e436600461134f565b5050565b6102a56104f6366004611384565b6000949350505050565b61030e61050e3660046113ca565b61086b565b61c4e06102a5565b61056d610529366004610aed565b604080516060810182526000808252602082018190529181019190915250604080516060810182526001600160a01b03909216808352602083015260009082015290565b6040805182516001600160a01b039081168252602080850151909116908201529181015163ffffffff16908201526060016102af565b6102a56104f636600461142e565b61030e6105bf366004611466565b6001600160a01b03919091166000908152602081905260409020805460ff1916911515919091179055565b6102ee6105f8366004610aed565b6001600160a01b0316600090815260026020526040902080546001600160a01b0319169055606090565b61030e610630366004610aac565b6001600160a01b0392831660009081526001602090815260408083209490951682529290925291902055565b61030e61066a36600461149b565b505033600090815260026020526040902080546001600160a01b0319166001600160a01b0392909216919091179055565b61030e6104003660046114f3565b60405163c608c7f360e01b81526001600160a01b038581166004830152848116602483015260448201849052828116606483015286169063c608c7f3906084015b600060405180830381600087803b15801561070457600080fd5b505af1158015610718573d6000803e3d6000fd5b505050505050505050565b604051638c80d4e560e01b81526001600160a01b038481166004830152838116602483015260448201839052851690638c80d4e590606401600060405180830381600087803b15801561077557600080fd5b505af1158015610375573d6000803e3d6000fd5b6060600082516001600160401b038111156107a6576107a6610c00565b6040519080825280602002602001820160405280156107cf578160200160208202803683370190505b50905060005b8351811015610863576001600160a01b0385166000908152600160205260408120855190919086908490811061080d5761080d61150f565b60200260200101516001600160a01b03166001600160a01b03168152602001908152602001600020548282815181106108485761084861150f565b602090810291909101015261085c81611525565b90506107d5565b509392505050565b60405163c4623ea160e01b81526001600160a01b038581166004830152848116602483015283811660448301526064820183905286169063c4623ea1906084016106ea565b60008083601f8401126108c257600080fd5b5081356001600160401b038111156108d957600080fd5b6020830191508360208260051b85010111156108f457600080fd5b9250929050565b6000806020838503121561090e57600080fd5b82356001600160401b0381111561092457600080fd5b610930858286016108b0565b90969095509350505050565b6001600160a01b038116811461040057600080fd5b803561095c8161093c565b919050565b600080600080600060a0868803121561097957600080fd5b85356109848161093c565b945060208601356109948161093c565b935060408601356109a48161093c565b94979396509394606081013594506080013592915050565b6020808252825182820181905260009190848201906040850190845b818110156109f4578351835292840192918401916001016109d8565b50909695505050505050565b600060608284031215610a1257600080fd5b50919050565b60008083601f840112610a2a57600080fd5b5081356001600160401b03811115610a4157600080fd5b6020830191508360208285010111156108f457600080fd5b600080600060808486031215610a6e57600080fd5b610a788585610a00565b925060608401356001600160401b03811115610a9357600080fd5b610a9f86828701610a18565b9497909650939450505050565b600080600060608486031215610ac157600080fd5b8335610acc8161093c565b92506020840135610adc8161093c565b929592945050506040919091013590565b600060208284031215610aff57600080fd5b8135610b0a8161093c565b9392505050565b6000806000806000806000806080898b031215610b2d57600080fd5b88356001600160401b0380821115610b4457600080fd5b610b508c838d016108b0565b909a50985060208b0135915080821115610b6957600080fd5b610b758c838d016108b0565b909850965060408b0135915080821115610b8e57600080fd5b610b9a8c838d016108b0565b909650945060608b0135915080821115610bb357600080fd5b50610bc08b828c016108b0565b999c989b5096995094979396929594505050565b60008060408385031215610be757600080fd5b8235610bf28161093c565b946020939093013593505050565b634e487b7160e01b600052604160045260246000fd5b60405160e081016001600160401b0381118282101715610c3857610c38610c00565b60405290565b604080519081016001600160401b0381118282101715610c3857610c38610c00565b60405160c081016001600160401b0381118282101715610c3857610c38610c00565b604051601f8201601f191681016001600160401b0381118282101715610caa57610caa610c00565b604052919050565b803563ffffffff8116811461095c57600080fd5b60006001600160401b03821115610cdf57610cdf610c00565b5060051b60200190565b600082601f830112610cfa57600080fd5b81356020610d0f610d0a83610cc6565b610c82565b82815260059290921b84018101918181019086841115610d2e57600080fd5b8286015b84811015610d52578035610d458161093c565b8352918301918301610d32565b509695505050505050565b600082601f830112610d6e57600080fd5b81356020610d7e610d0a83610cc6565b82815260059290921b84018101918181019086841115610d9d57600080fd5b8286015b84811015610d525780358352918301918301610da1565b600060208284031215610dca57600080fd5b81356001600160401b0380821115610de157600080fd5b9083019060e08286031215610df557600080fd5b610dfd610c16565b610e0683610951565b8152610e1460208401610951565b6020820152610e2560408401610951565b604082015260608301356060820152610e4060808401610cb2565b608082015260a083013582811115610e5757600080fd5b610e6387828601610ce9565b60a08301525060c083013582811115610e7b57600080fd5b610e8787828601610d5d565b60c08301525095945050505050565b600060408284031215610ea857600080fd5b610eb0610c3e565b90508135610ebd8161093c565b815260208201356bffffffffffffffffffffffff81168114610ede57600080fd5b602082015292915050565b60006020808385031215610efc57600080fd5b82356001600160401b0380821115610f1357600080fd5b818501915085601f830112610f2757600080fd5b8135610f35610d0a82610cc6565b81815260059190911b83018401908481019088831115610f5457600080fd5b8585015b8381101561102e57803585811115610f705760008081fd5b860160e0818c03601f1901811315610f885760008081fd5b610f90610c60565b8983013588811115610fa25760008081fd5b610fb08e8c83870101610ce9565b82525060408084013589811115610fc75760008081fd5b610fd58f8d83880101610d5d565b8c840152506060610fe7818601610951565b8284015260809150610ffb8f838701610e96565b9083015261100b60c08501610cb2565b9082015261101a838301610951565b60a082015285525050918601918601610f58565b5098975050505050505050565b8035801515811461095c57600080fd5b60008060008060006080868803121561106357600080fd5b85356001600160401b038082111561107a57600080fd5b9087019060e0828a03121561108e57600080fd5b909550602087013590808211156110a457600080fd5b506110b1888289016108b0565b909550935050604086013591506110ca6060870161103b565b90509295509295909350565b600080600080600060a086880312156110ee57600080fd5b85356110f98161093c565b945060208601356111098161093c565b935060408601356111198161093c565b92506060860135915060808601356111308161093c565b809150509295509295909350565b6000806040838503121561115157600080fd5b823561115c8161093c565b9150602083013561116c8161093c565b809150509250929050565b60006040828403121561118957600080fd5b611191610c3e565b905081356001600160401b03808211156111aa57600080fd5b818401915084601f8301126111be57600080fd5b81356020828211156111d2576111d2610c00565b6111e4601f8301601f19168201610c82565b925081835286818386010111156111fa57600080fd5b8181850182850137600081838501015282855280860135818601525050505092915050565b600080600080600060a0868803121561123757600080fd5b85356112428161093c565b945060208601356112528161093c565b935060408601356001600160401b038082111561126e57600080fd5b61127a89838a01611177565b9450606088013591508082111561129057600080fd5b5061129d88828901611177565b95989497509295608001359392505050565b600080600080608085870312156112c557600080fd5b84356112d08161093c565b935060208501356112e08161093c565b925060408501356112f08161093c565b9396929550929360600135925050565b6000806040838503121561131357600080fd5b823561131e8161093c565b915060208301356001600160401b0381111561133957600080fd5b61134585828601610ce9565b9150509250929050565b6000806020838503121561136257600080fd5b82356001600160401b0381111561137857600080fd5b61093085828601610a18565b6000806000806080858703121561139a57600080fd5b84356113a58161093c565b935060208501356113b58161093c565b93969395505050506040820135916060013590565b600080600080600060a086880312156113e257600080fd5b85356113ed8161093c565b945060208601356113fd8161093c565b9350604086013561140d8161093c565b9250606086013561141d8161093c565b949793965091946080013592915050565b6000806000806080858703121561144457600080fd5b843561144f8161093c565b93506020850135925060408501356112f08161093c565b6000806040838503121561147957600080fd5b82356114848161093c565b91506114926020840161103b565b90509250929050565b6000806000606084860312156114b057600080fd5b83356114bb8161093c565b925060208401356001600160401b038111156114d657600080fd5b6114e286828701611177565b925050604084013590509250925092565b60006060828403121561150557600080fd5b610b0a8383610a00565b634e487b7160e01b600052603260045260246000fd5b600060001982141561154757634e487b7160e01b600052601160045260246000fd5b506001019056fea264697066735822122076ebc10f261d42f925b8592a887a9e148643cb4cf39abecb1aebd0b84ec8001e64736f6c634300080c0033",
    "linkReferences": {}
  },
  "methodIdentifiers": {
    "DELEGATION_APPROVAL_TYPEHASH()": "04a4f979",
    "DOMAIN_TYPEHASH()": "20606b70",
    "STAKER_DELEGATION_TYPEHASH()": "43377382",
    "addShares(address,address,address,address,uint256)": "bc56ff66",
    "calculateApproverDigestHash(address,address,uint256)": "74d898d7",
    "calculateCurrentStakerDelegationDigestHash(address,address,uint256)": "1bbce091",
    "calculateDelegationApprovalDigestHash(address,address,address,bytes32,uint256)": "0b9f487a",
    "calculateOperatorAVSRegistrationDigestHash(address,address,bytes32,uint256)": "a1060c88",
    "calculateStakerDelegationDigestHash(address,uint256,address,uint256)": "c94b5111",
    "calculateStakerDigestHash(address,address,uint256)": "96568271",
    "calculateWithdrawalRoot((address,address,address,uint256,uint32,address[],uint256[]))": "597b36da",
    "completeQueuedWithdrawal((address,address,address,uint256,uint32,address[],uint256[]),address[],uint256,bool)": "60d7faed",
    "completeQueuedWithdrawals((address,address,address,uint256,uint32,address[],uint256[])[],address[][],uint256[],bool[])": "33404396",
    "cumulativeWithdrawalsQueued(address)": "a1788484",
    "decreaseDelegatedShares(address,address,uint256)": "132d4967",
    "delegateTo(address,(bytes,uint256),bytes32)": "eea9064b",
    "delegateToBySignature(address,address,(bytes,uint256),(bytes,uint256),bytes32)": "7f548071",
    "delegatedTo(address)": "65da1264",
    "delegationApprover(address)": "3cdeb5e0",
    "delegationApproverSaltIsSpent(address,bytes32)": "bb45fef2",
    "domainSeparator()": "f698da25",
    "earningsReceiver(address)": "5f966f14",
    "getOperatorShares(address,address[])": "90041347",
    "getWithdrawalDelay(address[])": "0449ca39",
    "increaseDelegatedShares(address,address,uint256)": "28a573ae",
    "isDelegated(address)": "3e28391d",
    "isNotDelegated(address)": "1d3696b7",
    "isOperator(address)": "6d70f7ae",
    "migrateQueuedWithdrawals((address[],uint256[],address,(address,uint96),uint32,address)[])": "5cfe8d2c",
    "minWithdrawalDelayBlocks()": "c448feb8",
    "modifyOperatorDetails((address,address,uint32))": "f16172b0",
    "operatorDetails(address)": "c5e480db",
    "operatorSaltIsSpent(address,bytes32)": "374823b5",
    "operatorShares(address,address)": "778e55f3",
    "queueWithdrawals((address[],uint256[],address)[])": "0dd8dd02",
    "registerAsOperator((address,address,uint32),string)": "0f589e59",
    "removeShares(address,address,address,uint256)": "8d90cd56",
    "setIsOperator(address,bool)": "cbb5d4db",
    "setOperatorShares(address,address,uint256)": "dbe35bd8",
    "stakerNonce(address)": "29c77d4f",
    "stakerOptOutWindowBlocks(address)": "16928365",
    "strategyWithdrawalDelayBlocks(address)": "c488375a",
    "undelegate(address)": "da8be864",
    "updateAVSMetadataURI(string)": "a98fb355",
    "updateOperatorMetadataURI(string)": "99be81c8",
    "withdrawSharesAsTokens(address,address,address,uint256,address)": "67f292c7"
  },
  "id": 138
}