{
  "abi": [
    {
      "anonymous": false,
      "inputs": [
        {
          "indexed": false,
          "internalType": "address",
          "name": "prevChurnApprover",
          "type": "address"
        },
        {
          "indexed": false,
          "internalType": "address",
          "name": "newChurnApprover",
          "type": "address"
        }
      ],
      "name": "ChurnApproverUpdated",
      "type": "event"
    },
    {
      "anonymous": false,
      "inputs": [
        {
          "indexed": false,
          "internalType": "address",
          "name": "prevEjector",
          "type": "address"
        },
        {
          "indexed": false,
          "internalType": "address",
          "name": "newEjector",
          "type": "address"
        }
      ],
      "name": "EjectorUpdated",
      "type": "event"
    },
    {
      "anonymous": false,
      "inputs": [
        {
          "indexed": true,
          "internalType": "address",
          "name": "operator",
          "type": "address"
        },
        {
          "indexed": true,
          "internalType": "bytes32",
          "name": "operatorId",
          "type": "bytes32"
        }
      ],
      "name": "OperatorDeregistered",
      "type": "event"
    },
    {
      "anonymous": false,
      "inputs": [
        {
          "indexed": true,
          "internalType": "address",
          "name": "operator",
          "type": "address"
        },
        {
          "indexed": true,
          "internalType": "bytes32",
          "name": "operatorId",
          "type": "bytes32"
        }
      ],
      "name": "OperatorRegistered",
      "type": "event"
    },
    {
      "anonymous": false,
      "inputs": [
        {
          "indexed": true,
          "internalType": "uint8",
          "name": "quorumNumber",
          "type": "uint8"
        },
        {
          "components": [
            {
              "internalType": "uint32",
              "name": "maxOperatorCount",
              "type": "uint32"
            },
            {
              "internalType": "uint16",
              "name": "kickBIPsOfOperatorStake",
              "type": "uint16"
            },
            {
              "internalType": "uint16",
              "name": "kickBIPsOfTotalStake",
              "type": "uint16"
            }
          ],
          "indexed": false,
          "internalType": "struct IRegistryCoordinator.OperatorSetParam",
          "name": "operatorSetParams",
          "type": "tuple"
        }
      ],
      "name": "OperatorSetParamsUpdated",
      "type": "event"
    },
    {
      "anonymous": false,
      "inputs": [
        {
          "indexed": true,
          "internalType": "uint8",
          "name": "quorumNumber",
          "type": "uint8"
        },
        {
          "indexed": false,
          "internalType": "uint256",
          "name": "blocknumber",
          "type": "uint256"
        }
      ],
      "name": "QuorumBlockNumberUpdated",
      "type": "event"
    },
    {
      "inputs": [],
      "name": "blsApkRegistry",
      "outputs": [
        {
          "internalType": "contract IBLSApkRegistry",
          "name": "",
          "type": "address"
        }
      ],
      "stateMutability": "view",
      "type": "function"
    },
    {
      "inputs": [
        {
          "internalType": "bytes",
          "name": "quorumNumbers",
          "type": "bytes"
        },
        {
          "internalType": "bytes",
          "name": "",
          "type": "bytes"
        }
      ],
      "name": "deregisterOperator",
      "outputs": [],
      "stateMutability": "nonpayable",
      "type": "function"
    },
    {
      "inputs": [
        {
          "internalType": "address",
          "name": "operator",
          "type": "address"
        },
        {
          "internalType": "bytes",
          "name": "quorumNumbers",
          "type": "bytes"
        }
      ],
      "name": "ejectOperator",
      "outputs": [],
      "stateMutability": "nonpayable",
      "type": "function"
    },
    {
      "inputs": [
        {
          "internalType": "bytes32",
          "name": "operatorId",
          "type": "bytes32"
        }
      ],
      "name": "getCurrentQuorumBitmap",
      "outputs": [
        {
          "internalType": "uint192",
          "name": "",
          "type": "uint192"
        }
      ],
      "stateMutability": "view",
      "type": "function"
    },
    {
      "inputs": [
        {
          "internalType": "address",
          "name": "operator",
          "type": "address"
        }
      ],
      "name": "getFromTaskNumberForOperator",
      "outputs": [
        {
          "internalType": "uint32",
          "name": "",
          "type": "uint32"
        }
      ],
      "stateMutability": "view",
      "type": "function"
    },
    {
      "inputs": [
        {
          "internalType": "address",
          "name": "operator",
          "type": "address"
        }
      ],
      "name": "getOperator",
      "outputs": [
        {
          "components": [
            {
              "internalType": "bytes32",
              "name": "operatorId",
              "type": "bytes32"
            },
            {
              "internalType": "enum IRegistryCoordinator.OperatorStatus",
              "name": "status",
              "type": "uint8"
            }
          ],
          "internalType": "struct IRegistryCoordinator.OperatorInfo",
          "name": "",
          "type": "tuple"
        }
      ],
      "stateMutability": "view",
      "type": "function"
    },
    {
      "inputs": [
        {
          "internalType": "bytes32",
          "name": "operatorId",
          "type": "bytes32"
        }
      ],
      "name": "getOperatorFromId",
      "outputs": [
        {
          "internalType": "address",
          "name": "",
          "type": "address"
        }
      ],
      "stateMutability": "view",
      "type": "function"
    },
    {
      "inputs": [
        {
          "internalType": "address",
          "name": "operator",
          "type": "address"
        }
      ],
      "name": "getOperatorId",
      "outputs": [
        {
          "internalType": "bytes32",
          "name": "",
          "type": "bytes32"
        }
      ],
      "stateMutability": "view",
      "type": "function"
    },
    {
      "inputs": [
        {
          "internalType": "uint8",
          "name": "quorumNumber",
          "type": "uint8"
        }
      ],
      "name": "getOperatorSetParams",
      "outputs": [
        {
          "components": [
            {
              "internalType": "uint32",
              "name": "maxOperatorCount",
              "type": "uint32"
            },
            {
              "internalType": "uint16",
              "name": "kickBIPsOfOperatorStake",
              "type": "uint16"
            },
            {
              "internalType": "uint16",
              "name": "kickBIPsOfTotalStake",
              "type": "uint16"
            }
          ],
          "internalType": "struct IRegistryCoordinator.OperatorSetParam",
          "name": "",
          "type": "tuple"
        }
      ],
      "stateMutability": "view",
      "type": "function"
    },
    {
      "inputs": [
        {
          "internalType": "address",
          "name": "operator",
          "type": "address"
        }
      ],
      "name": "getOperatorStatus",
      "outputs": [
        {
          "internalType": "enum IRegistryCoordinator.OperatorStatus",
          "name": "",
          "type": "uint8"
        }
      ],
      "stateMutability": "view",
      "type": "function"
    },
    {
      "inputs": [
        {
          "internalType": "bytes32",
          "name": "operatorId",
          "type": "bytes32"
        },
        {
          "internalType": "uint32",
          "name": "blockNumber",
          "type": "uint32"
        },
        {
          "internalType": "uint256",
          "name": "index",
          "type": "uint256"
        }
      ],
      "name": "getQuorumBitmapAtBlockNumberByIndex",
      "outputs": [
        {
          "internalType": "uint192",
          "name": "",
          "type": "uint192"
        }
      ],
      "stateMutability": "view",
      "type": "function"
    },
    {
      "inputs": [
        {
          "internalType": "bytes32",
          "name": "operatorId",
          "type": "bytes32"
        }
      ],
      "name": "getQuorumBitmapHistoryLength",
      "outputs": [
        {
          "internalType": "uint256",
          "name": "",
          "type": "uint256"
        }
      ],
      "stateMutability": "view",
      "type": "function"
    },
    {
      "inputs": [
        {
          "internalType": "uint32",
          "name": "blockNumber",
          "type": "uint32"
        },
        {
          "internalType": "bytes32[]",
          "name": "operatorIds",
          "type": "bytes32[]"
        }
      ],
      "name": "getQuorumBitmapIndicesAtBlockNumber",
      "outputs": [
        {
          "internalType": "uint32[]",
          "name": "",
          "type": "uint32[]"
        }
      ],
      "stateMutability": "view",
      "type": "function"
    },
    {
      "inputs": [
        {
          "internalType": "bytes32",
          "name": "operatorId",
          "type": "bytes32"
        },
        {
          "internalType": "uint256",
          "name": "index",
          "type": "uint256"
        }
      ],
      "name": "getQuorumBitmapUpdateByIndex",
      "outputs": [
        {
          "components": [
            {
              "internalType": "uint32",
              "name": "updateBlockNumber",
              "type": "uint32"
            },
            {
              "internalType": "uint32",
              "name": "nextUpdateBlockNumber",
              "type": "uint32"
            },
            {
              "internalType": "uint192",
              "name": "quorumBitmap",
              "type": "uint192"
            }
          ],
          "internalType": "struct IRegistryCoordinator.QuorumBitmapUpdate",
          "name": "",
          "type": "tuple"
        }
      ],
      "stateMutability": "view",
      "type": "function"
    },
    {
      "inputs": [],
      "name": "indexRegistry",
      "outputs": [
        {
          "internalType": "contract IIndexRegistry",
          "name": "",
          "type": "address"
        }
      ],
      "stateMutability": "view",
      "type": "function"
    },
    {
      "inputs": [],
      "name": "numRegistries",
      "outputs": [
        {
          "internalType": "uint256",
          "name": "",
          "type": "uint256"
        }
      ],
      "stateMutability": "view",
      "type": "function"
    },
    {
      "inputs": [
        {
          "internalType": "bytes32",
          "name": "pubkeyHash",
          "type": "bytes32"
        }
      ],
      "name": "operatorIdToQuorumBitmap",
      "outputs": [
        {
          "internalType": "uint256",
          "name": "",
          "type": "uint256"
        }
      ],
      "stateMutability": "view",
      "type": "function"
    },
    {
      "inputs": [],
      "name": "owner",
      "outputs": [
        {
          "internalType": "address",
          "name": "",
          "type": "address"
        }
      ],
      "stateMutability": "view",
      "type": "function"
    },
    {
      "inputs": [
        {
          "internalType": "address",
          "name": "operator",
          "type": "address"
        }
      ],
      "name": "pubkeyRegistrationMessageHash",
      "outputs": [
        {
          "components": [
            {
              "internalType": "uint256",
              "name": "X",
              "type": "uint256"
            },
            {
              "internalType": "uint256",
              "name": "Y",
              "type": "uint256"
            }
          ],
          "internalType": "struct BN254.G1Point",
          "name": "",
          "type": "tuple"
        }
      ],
      "stateMutability": "view",
      "type": "function"
    },
    {
      "inputs": [],
      "name": "quorumCount",
      "outputs": [
        {
          "internalType": "uint8",
          "name": "",
          "type": "uint8"
        }
      ],
      "stateMutability": "view",
      "type": "function"
    },
    {
      "inputs": [
        {
          "internalType": "uint8",
          "name": "quorumNumber",
          "type": "uint8"
        }
      ],
      "name": "quorumUpdateBlockNumber",
      "outputs": [
        {
          "internalType": "uint256",
          "name": "",
          "type": "uint256"
        }
      ],
      "stateMutability": "view",
      "type": "function"
    },
    {
      "inputs": [
        {
          "internalType": "bytes",
          "name": "quorumNumbers",
          "type": "bytes"
        },
        {
          "internalType": "bytes",
          "name": "",
          "type": "bytes"
        }
      ],
      "name": "registerOperator",
      "outputs": [],
      "stateMutability": "nonpayable",
      "type": "function"
    },
    {
      "inputs": [
        {
          "internalType": "uint256",
          "name": "",
          "type": "uint256"
        }
      ],
      "name": "registries",
      "outputs": [
        {
          "internalType": "address",
          "name": "",
          "type": "address"
        }
      ],
      "stateMutability": "view",
      "type": "function"
    },
    {
      "inputs": [],
      "name": "stakeRegistry",
      "outputs": [
        {
          "internalType": "contract IStakeRegistry",
          "name": "",
          "type": "address"
        }
      ],
      "stateMutability": "view",
      "type": "function"
    }
  ],
  "bytecode": {
    "object": "0x608060405234801561001057600080fd5b50610ae2806100206000396000f3fe608060405234801561001057600080fd5b50600436106101585760003560e01c80636e3b17db116100c3578063ae124d401161007c578063ae124d40146102ec578063c391425e1461030f578063d72d8dd614610332578063d80b407014610339578063e65797ad14610347578063fd39105a146103aa57600080fd5b80636e3b17db146102bc578063733095011461015d578063871ef049146102cf5780638da5cb5b1461029f5780639aa1653d146102dd5780639e9923c21461029f57600080fd5b80633c2a7f4c116101155780633c2a7f4c1461023e5780635865c60c1461026c5780635df459461461029f5780636347c9001461021857806367e098e1146102a6578063683048351461029f57600080fd5b806303fd34921461015d57806304ec63511461018457806313542a4e146101b35780631eb812da146101c1578063249a0c421461020a578063296bb06414610218575b600080fd5b61017161016b366004610636565b50600090565b6040519081526020015b60405180910390f35b61019b610192366004610663565b60009392505050565b6040516001600160c01b03909116815260200161017b565b61017161016b3660046106af565b6101d46101cf3660046106d1565b6103c5565b60408051825163ffffffff908116825260208085015190911690820152918101516001600160c01b03169082015260600161017b565b61017161016b3660046106f3565b61022661016b366004610636565b6040516001600160a01b03909116815260200161017b565b61025161024c3660046106af565b6103e9565b6040805182518152602092830151928101929092520161017b565b61029261027a3660046106af565b50604080518082019091526000808252602082015290565b60405161017b9190610738565b6000610226565b6102ba6102b43660046107a3565b50505050565b005b6102ba6102ca36600461080f565b505050565b61019b61016b366004610636565b6040516000815260200161017b565b6102fa61016b3660046106af565b60405163ffffffff909116815260200161017b565b61032561031d3660046108a9565b606092915050565b60405161017b9190610962565b6000610171565b6102ba6102ca3660046109ac565b6103766103553660046106f3565b50604080516060810182526000808252602082018190529181019190915290565b60408051825163ffffffff16815260208084015161ffff90811691830191909152928201519092169082015260600161017b565b6103b861016b3660046106af565b60405161017b9190610a5c565b60408051606081018252600080825260208201819052918101919091525b92915050565b6040805180820190915260008082526020820152604080516001600160a01b03841660208201526103e3910160405160208183030381529060405280519060200120610435565b919050565b604080518082019091526000808252602082015260008080610465600080516020610a8d83398151915286610a6a565b90505b610471816104c5565b9093509150600080516020610a8d8339815191528283098314156104ab576040805180820190915290815260208101919091529392505050565b600080516020610a8d833981519152600182089050610468565b60008080600080516020610a8d8339815191526003600080516020610a8d83398151915286600080516020610a8d83398151915288890909089050600061053b827f0c19139cb84c680a6e14116da060561765e05aa45a1c72a34f082305b61f3f52600080516020610a8d833981519152610547565b91959194509092505050565b6000806105526105fa565b61055a610618565b602080825281810181905260408201819052606082018890526080820187905260a082018690528260c08360056107d05a03fa925082801561059b5761059d565bfe5b50826105ef5760405162461bcd60e51b815260206004820152601a60248201527f424e3235342e6578704d6f643a2063616c6c206661696c757265000000000000604482015260640160405180910390fd5b505195945050505050565b60405180602001604052806001906020820280368337509192915050565b6040518060c001604052806006906020820280368337509192915050565b60006020828403121561064857600080fd5b5035919050565b803563ffffffff8116811461043057600080fd5b60008060006060848603121561067857600080fd5b833592506106886020850161064f565b9150604084013590509250925092565b80356001600160a01b038116811461043057600080fd5b6000602082840312156106c157600080fd5b6106ca82610698565b9392505050565b600080604083850312156106e457600080fd5b50508035926020909101359150565b60006020828403121561070557600080fd5b813560ff811681146106ca57600080fd5b6003811061073457634e487b7160e01b600052602160045260246000fd5b9052565b81518152602080830151604083019161075390840182610716565b5092915050565b60008083601f84011261076c57600080fd5b50813567ffffffffffffffff81111561078457600080fd5b60208301915083602082850101111561079c57600080fd5b9250929050565b600080600080604085870312156107b957600080fd5b843567ffffffffffffffff808211156107d157600080fd5b6107dd8883890161075a565b909650945060208701359150808211156107f657600080fd5b506108038782880161075a565b95989497509550505050565b60008060006040848603121561082457600080fd5b61082d84610698565b9250602084013567ffffffffffffffff81111561084957600080fd5b6108558682870161075a565b9497909650939450505050565b634e487b7160e01b600052604160045260246000fd5b604051601f8201601f1916810167ffffffffffffffff811182821017156108a1576108a1610862565b604052919050565b600080604083850312156108bc57600080fd5b6108c58361064f565b915060208084013567ffffffffffffffff808211156108e357600080fd5b818601915086601f8301126108f757600080fd5b81358181111561090957610909610862565b8060051b915061091a848301610878565b818152918301840191848101908984111561093457600080fd5b938501935b8385101561095257843582529385019390850190610939565b8096505050505050509250929050565b6020808252825182820181905260009190848201906040850190845b818110156109a057835163ffffffff168352928401929184019160010161097e565b50909695505050505050565b6000806000604084860312156109c157600080fd5b833567ffffffffffffffff808211156109d957600080fd5b818601915086601f8301126109ed57600080fd5b8135602082821115610a0157610a01610862565b610a13601f8301601f19168201610878565b8281528982848701011115610a2757600080fd5b82828601838301376000928101820192909252909550860135915080821115610a4f57600080fd5b506108558682870161075a565b602081016103e38284610716565b600082610a8757634e487b7160e01b600052601260045260246000fd5b50069056fe30644e72e131a029b85045b68181585d97816a916871ca8d3c208c16d87cfd47a2646970667358221220b1188b96bf2a0e6795bbbfd158b3ee9938a131367ca67fe8453d1babca7ede3564736f6c634300080c0033",
    "linkReferences": {}
  },
  "methodIdentifiers": {
    "blsApkRegistry()": "5df45946",
    "deregisterOperator(bytes,bytes)": "67e098e1",
    "ejectOperator(address,bytes)": "6e3b17db",
    "getCurrentQuorumBitmap(bytes32)": "871ef049",
    "getFromTaskNumberForOperator(address)": "ae124d40",
    "getOperator(address)": "5865c60c",
    "getOperatorFromId(bytes32)": "296bb064",
    "getOperatorId(address)": "13542a4e",
    "getOperatorSetParams(uint8)": "e65797ad",
    "getOperatorStatus(address)": "fd39105a",
    "getQuorumBitmapAtBlockNumberByIndex(bytes32,uint32,uint256)": "04ec6351",
    "getQuorumBitmapHistoryLength(bytes32)": "03fd3492",
    "getQuorumBitmapIndicesAtBlockNumber(uint32,bytes32[])": "c391425e",
    "getQuorumBitmapUpdateByIndex(bytes32,uint256)": "1eb812da",
    "indexRegistry()": "9e9923c2",
    "numRegistries()": "d72d8dd6",
    "operatorIdToQuorumBitmap(bytes32)": "73309501",
    "owner()": "8da5cb5b",
    "pubkeyRegistrationMessageHash(address)": "3c2a7f4c",
    "quorumCount()": "9aa1653d",
    "quorumUpdateBlockNumber(uint8)": "249a0c42",
    "registerOperator(bytes,bytes)": "d80b4070",
    "registries(uint256)": "6347c900",
    "stakeRegistry()": "68304835"
  },
  "id": 139
}